:020000040800F2
:10000000B89900206D880C0839810C083B810C08D8
:100010003D810C083F810C0841810C080000000064
:100020000000000000000000000000004D060C0869
:1000300043810C0800000000F5050C0845810C0800
:100040002F890C0833890C0837890C083B890C0868
:100050003F890C0843890C0847890C084B890C0818
:100060004F890C0853890C0857890C085B890C08C8
:100070005F890C0863890C0867890C086B890C0878
:100080006F890C0873890C0877890C087B890C0828
:100090007F890C0883890C0887890C088B890C08D8
:1000A0008F890C0893890C0897890C089B890C0888
:1000B0009F890C08A3890C08A7890C08AB890C0838
:1000C000AF890C08B3890C08B7890C08BB890C08E8
:1000D000BF890C08C3890C08C7890C08CB890C0898
:1000E000CF890C08D3890C08D7890C08DB890C0848
:1000F000DF890C08E3890C08E7890C08EB890C08F8
:1001000053810C08EF890C08F3890C08F7890C0857
:10011000FB890C08FF890C08038A0C08078A0C0865
:100120000B8A0C080F8A0C08138A0C08178A0C0813
:100130001B8A0C081F8A0C08238A0C08278A0C08C3
:100140002B8A0C082F8A0C08338A0C08378A0C0873
:100150003B8A0C083F8A0C08438A0C08478A0C0823
:100160004B8A0C084F8A0C08538A0C08578A0C08D3
:100170005B8A0C085F8A0C08638A0C080000000088
:10018000678A0C086B8A0C086F8A0C08738A0C0843
:10019000778A0C087B8A0C087F8A0C08838A0C08F3
:1001A00059810C085D810C0865810C0869697469C6
:1001B0006A766B697A6B6779696677676575686473
:1001C0007268647167647067647066647266647292
:1001D00065647066646F6664706663716763726796
:1001E000627265637065637065617065626F656298
:1001F0006E64626D65636F65626E65636D64626C8B
:1002000063616E63626F63626E64616E63606C648F
:100210005F69645F69645F67635D66615C65615BBC
:1002200065605B64605B63605B62605A64605B63D3
:100230005E5B615E5B615D58615D57615C57625EEC
:1002400059635E58625D59615D59615C58615C57E4
:10025000615C56635E58655F58645F5A655E5C65B5
:100260005F5B665F5B685F5C6A615D6C625F6F626B
:10027000607261607264617364647765657A6767F0
:1002800080696A85696C896A6D8C6C718F6D7390F9
:100290006E738E7175927075936F779871789C728A
:1002A0007A9E71799A707898707897717998727946
:1002B00099727A9C737C9D737C9F747BA0747CA0E4
:1002C000747DA27580A47580A3757FA47581A676C0
:1002D00082A87682A97784AB7884AB7986AE79865A
:1002E000B17A86B37A88B57A89B57B8CB97F8FBEAF
:1002F0008494C28697C48798C38799C3889AC48A0E
:100300009BC58C9EC58FA1C592A5C595A8C59CAE61
:10031000C5A3B6C5ABBDC59EB1C17E8CB27680A467
:100320007881A47882A77681A3737C9C7079997276
:100330007B9D7581A77681A86F7A9D6D76996D7486
:10034000946F75946D75986B75976A74946C7698C4
:100350007280AC7B8DC0788BBC7688B57282AC75B0
:1003600084B27A8BBF7E90C37E91C27F91C281930B
:10037000C48193C38294C68296C78194C38295C573
:100380008295C48194C28192C07F91BF8092BF7FC9
:1003900092BF7F92BE7F91BD7F90BC7E90BC7F90CC
:1003A000BC7E8FBA8090BB8194BE818EB36E6F8706
:1003B000635F67625B5E5B5251534B4C54484C51D8
:1003C000444A4E424548393C48383A463839493C17
:1003D0003F50444844373D4A3D42564C53484149BA
:1003E000484554444557413E4C4438412F22262627
:1003F0001B1C271A1A281C1D261D1F251C1E24180D
:100400001A25191925191825191924191A2E222601
:100410002C222D26222B212025221D202F28314859
:100420004351352D341E1519231C22292D35222721
:10043000311E20281D20251F1E1E25212324222990
:10044000201F261D1C221C181A1F191B37313D4066
:100450003E4C2C2A3428232A302C32211C1E241EE8
:10046000243432443C3C4F3534464347615F658316
:100470004042583F42545457655C59685C57666B1C
:1004800066736966744745564142554C4B5D494712
:1004900058454252413E4C43424D3F3E4B42404CF8
:1004A0004643504745554745564947594A495F4F86
:1004B0004F674944533D373F3C373E35313527225E
:1004C00025231E22251E22231F222A282F3A3B43A2
:1004D0004747514D4F5B5458656467755C61715B6C
:1004E0006071696A7877757F7F7C827B787E7471B2
:1004F0007763606B5756644C4C584847523D3C49B3
:10050000403D4C403F4B423F4A433F4C3F3E4940B9
:100510003F4C3E3E4F3F3E50494858494858444260
:10052000523C3A4A3D3B4A4442533D3D4F3837499D
:100530003A38493A394934354338354838384B35F3
:10054000374B39384A39374B3736493939483D3DC9
:100550004D33344732314434324233334134334300
:100560003534483534473532473C3B4E3C3D4D41B0
:10057000404E3D3B4A3E3C4C3E3C4B3937473C3B72
:100580004D3D3C4E3837463331403737493B39498A
:1005900038364336344531304121202F18151E1886
:1005A000151B231E2625202A25232E23212D232219
:1005B0002D27272F20202520222726282D26262ECE
:1005C0002A28312F2D37302F38322F38322D39301D
:1005D0002E3B302E3B312F3A33323D31303B3130E0
:1005E0003A3736422F2F3C2A29342A27332C2A38EF
:1005F0002F2C3C2D2B382A28342826322927322A22
:1006000027312C29342B283628263126252F232143
:100610002C1E1C251E1C241E1D281F1D28201F2AC1
:100620001D1B261F1C263C39432E2E391A1A25184D
:10063000172019192318182017171D191720181912
:10064000201A19211918221818211918231A1924E7
:1006500018171F18171E1A19211A19231A19221CE4
:100660001B221C1A211C1B231C1B211B1A211D1BB6
:10067000221E1B201E1B201F1D211D1C221D1B2294
:100680001D1D221D1C221E1D231E1D231D19201D84
:100690001A21201D251E1D261D1B221D1B221E1D6D
:1006A000221C1B211D1C231D1C221E1C211F1D235F
:1006B0001F1D261F1D231E1D211E1B21201E252040
:1006C0001F251E1D221C1A1E1C191D1E1C201E1D4E
:1006D000221E1E24211E241F1C201F1C211F1C2221
:1006E000201C221F1B221E1B211E1B211D1A1F1D29
:1006F0001A1E1D1A1F1D1B201D1A1E1C191D1C1938
:100700001C1C191E1C1A1E1C1A1D1C191C1B191C32
:100710001B191C1C191D1C1A1C1B191C1A191D1A2B
:10072000191C1B181B1B181B1A171A191518191638
:10073000191A181A1B181B1B191D18161B17151828
:100740001A171C1B171C1B181919171761607062E8
:100750006172626074646173625F6F605E6D605D40
:100760006E605E6D605D69615D6A605D6C605D6C50
:100770005E5D6A5D5D695F5D6A5F5C6A5F5C6A5F62
:100780005B6A5E5B685D5B665B59685D5A685E5973
:10079000655E5B655F5D675F5A665F59675D5A6757
:1007A0005C5A685C58675D5A685D5A695C5A655D59
:1007B00059635E58635D57605B565F5A565F595583
:1007C0005E59535B59545A59535B58535C57555AA9
:1007D00056525956505A57515A56505955505A54C4
:1007E0004F59565059565059564E59554D59554EC8
:1007F0005A564F5B57505E58525E58525F5952617D
:1008000059545F58545E5854615955645B58685A3E
:10081000586B5A576B5D586C5C5B6E5C5C725F5ECC
:100820007860627D616482636785666A8A686C8CC1
:10083000686C89686C8A686E8D696F916971956959
:1008400071966A72946971936771926872916A7213
:10085000936B73966C749A6C75996E769A6E769BA0
:100860006D779D6E789E6C789F6C7B9F6E7BA26E81
:100870007CA46F7CA5707DA6717EA7737EA9728013
:10088000AD727FAE7482B07485B37687B67A8ABA59
:100890007E8FBE8293BF8394C08294C08394C086AF
:1008A00098C1899AC18B9DC08EA2C191A6C196A9FB
:1008B000C19BAFC29CB1C1899CB8707CA571789D69
:1008C00070779D70799F6F799C6B73956A72946A4B
:1008D00072946C74986B7398687091676F91676E7F
:1008E0008F666E8E666D90656E8F656E8F636E938C
:1008F0006976A37184B76F83B66C7EAC6979A36D9A
:100900007CAC7585BB7A8CC0798BBE7A8CBD7A8DB8
:10091000BF7B8FC17B91C37B90C37A8EBF7C90C11C
:100920007C8FC07B8FBE7A8EBD798DBD798EBC7871
:100930008DBB788CBA788CB9798AB7788AB8788B7D
:10094000B7788AB67A8BB77A8FBB7987AF676982B7
:100950005C57615C545955474B4E40414E404248AC
:100960003C3F433639402F323D2D2E3B2E2E413514
:10097000364D434942373B4132374B424C3B343F83
:100980003A344339394C3734423A2E3523161A1B40
:100990000F111A0E0E1A0E0F1C0F111C0F121B0F27
:1009A000111A0E101A0D0D180D0C170C0D21151A19
:1009B000251C271F19241A1A2119151D241D2C3D29
:1009C000384A2A222D150B111910162120271E2016
:1009D0002D181B2415161D1210171812191D182179
:1009E00017151C14111A130E141510132A242E2C6B
:1009F0002833221B241F181E282024181013201C03
:100A0000263032462C2D422B2C43393C59596081DB
:100A1000393E57383F514F536258586656516067B8
:100A20006371615E6B3B364836344A3A394F37362C
:100A30004A383747383444383845363441383644F4
:100A40003A37443C3A4A413D51413F53434258466C
:100A5000475D3F3B48332E34322D3429242C1B175D
:100A60001D1A15191A14191B171A23212832323B83
:100A70003E3E494445514E505E6063715A606F522C
:100A800058695F62706E6C76757379716F756A699B
:100A9000705958634B4B5A3E404E3736472E2E3DC9
:100AA00032314033303E36334037344337344339C4
:100AB00037473634463F3C4D4542524340513A3821
:100AC0004A312F40312D403836493130432E2E3FA8
:100AD000312F423233452B2A3C2E2B3D2B2A3D2AE7
:100AE0002A3D302D41302E412E2C3F2F2E3E3432C8
:100AF000432A2A3C292A3D2B2A3C2A293A2A2B3DE3
:100B00002D2C3F302D3F312F433738493636473172
:100B10002F412F2D413433453531402C2A39303186
:100B2000413032422D2D402B2A3A2B2B3B2D2A3B94
:100B30002D2B392B2A3B24213216162416141E186D
:100B4000151D19141F16101F1611211713221C1B17
:100B5000281B1A2414131B1819201E1D25211D26BD
:100B600024212926232D26252F25222C26232E2716
:100B7000253127253228273528263224242F2929D4
:100B80003433324128253323202C201E2A1E1D28D1
:100B900023222D201E2D1E1C291E1C291F1E2A212A
:100BA0001F2B201D291D18261B18251A1A2616165C
:100BB0002311101A100E17110E19110E1B11101AF5
:100BC000100D1A201D2831303A1F1E2A110E1C0D3F
:100BD0000C170D0D180D0D160C0A120C0A130D0C26
:100BE000160E0C16100D180C0B130B0A120D0C150B
:100BF0000E0D170E0C16100D170F0E160F0E180FE8
:100C00000E170E0E16101015110E13110D13110FD5
:100C100015110F1613101815101913101A14111A94
:100C200015131A151319121119100F150E0D15128F
:100C30000E17151019131018131018151219141374
:100C40001912111811101612101514121515131B64
:100C500016131C1410161211151513191512181548
:100C60001217141216120E12100D1112101616135E
:100C70001814131A15111814111613101513101532
:100C8000120F13120F14120F14110E13110E121053
:100C90000D12110F13110E14110E15100E130F0C4F
:100CA00011100D12100C11100D100F0C120D0B1055
:100CB0000D0B110E0D130F0D120F0E130E0C110E46
:100CC0000B0E100D0D0E0C0E0C0B0E0D0B0E0E0C54
:100CD0000F0E0B0E0E0B100E0C110C0A0F0C0B0F3F
:100CE0000E0C100E0C0F0E0A0E0D0A0D63617465CA
:100CF0006376646175646173626070605D6F615F8B
:100D000071625E6E625D6C615D6C605C6D605E6D9B
:100D10005E5D6C5D5D6B605E6C605D6D5F5C6D5FAC
:100D20005C6C5F5D685E5C675D5C675E5C665F5BBC
:100D3000665D5C665F5D67605B65605A665F5A68AA
:100D40005E5A685D5B685D5B695E5B69605B67619D
:100D50005A666158646057635C57605B575F5D58C3
:100D6000605C565E5A545C59545B5A555B58555AF0
:100D700056525A57525E58535B56515955505B550F
:100D8000505A575259575258574F5A564E5A545014
:100D90005C55515D57515E59525E5A535F5B5461C9
:100DA0005A54605A54625953625A55645C57675B8F
:100DB000596A5C586B5E596D5F5B6F5D5C715D5F1E
:100DC0007660627C616581636886676B8B696D8C18
:100DD000696D89696C8A696D8E686F916972926AB2
:100DE00072946B73936971926A72926A7193697368
:100DF000936B72956B73976D75996C769A6E779B02
:100E00006E779C6D789E6D789F6B7AA16C7BA16FDD
:100E10007DA5707DA6717EA7727EA8727FA9748061
:100E2000AC7480AE7583AF7686B37887B77A8BBBA8
:100E30007E8FBE8394C18595C18496BF8496C085FC
:100E400098C0899CC18DA0C293A5C296A8C297AA3A
:100E5000C295A9C28397B67282A76F789C6F779765
:100E60006F779770789A6D76986A73936A71936CBE
:100E700074936C72916A708E696F8D686F8D686FF4
:100E80008E676D8F656E8F656F8F646D8E646E93E8
:100E90006875A27184B87184B86C7DA76979A06DFA
:100EA0007DAC7787BB7A8CC0788BBF798DBF7B8C0C
:100EB000C07C8FC17C90C27B91C37B90C17C91C26E
:100EC0007C90BF7B8FBE7B8EBD7A8EBE798EBC78C8
:100ED0008DBC788DBA788BB9788BB97A8BB8798CD0
:100EE000B7798AB77A8CB97C90BC7A8AB0686B8300
:100EF0005E57635D565F56494E503F425041434AEC
:100F00003E4243383A4134373E33353A2F2E3C3255
:100F1000314138383C30313E34394C4656433C52EE
:100F20003C3748393A4D3A36473C313A261A1D1C6F
:100F300011121B11101C10111B0E141C10131C116C
:100F4000131B0F121A0F10190F0E1A11152721302B
:100F50002A283726263631364931354D3638503F26
:100F6000405A36354E2F2C412D2B3C2625311F1F44
:100F70002E18192617161F1512191713191D181ECA
:100F800019171E15131A1511171611182E29373493
:100F90002E3B251C24211B1E2823231B151A272525
:100FA000322D33452022352D30493C415F585F8139
:100FB0003C415C3D445654576A6361725B56656DB3
:100FC0006A77645E6B3A34443231443130462C2DBA
:100FD000413634433736443939463735443A374653
:100FE0003B39483E3C4E433F54423F5343435547B1
:100FF000485B3F3C46342E35332D3528252D1B17B5
:101000001D1B15191C171B211E2328252D32303AB4
:101010003B3B464142504C4E5C6165745A60715393
:10102000596A626672727079757379716F736866E6
:101030006B56545E434351393B493434412E2F3D66
:101040003231402E2C39302F3A37343F3935433A3C
:10105000394537364445425246435438384A33348A
:1010600044333243302C3F323142302F412F2C3F1A
:101070003130423A3A4B2F3042302F412D2D402C07
:101080002B3F312F43302E402F2C3E312F3F363512
:10109000432B2A3A292B3C2B2B3C2A2A3C2C2C3F35
:1010A0002D2E403534453434463F3F4F3D3C492F8B
:1010B0002D3F2D2C413330442F2D402A2A3A2D2C00
:1010C0003C2C2C3A2D2C3B2C2C392B2A3C2D2B3E06
:1010D0002D2D3D2A2C3D1E202F1A1B271E1D291E9B
:1010E0001D2919172117122015101F171321201F52
:1010F0002B1A1B231919201F1F2A20202A25222CD6
:1011000028263027252D27262F23222C26232F265D
:1011100026312726312A28382928372726332E2F0B
:101120003C3637442A283725223022212D20202AF8
:1011300022222B20202C1E1C28201D2A211F2E217C
:10114000212D201C271E18231A17221917231516C4
:101150002012141D110F18100E170F0F190F0F1753
:101160000F0D1A2B2A352B2A3213121D0F0F180FB1
:101170000E190F0E190C0B1309080E0D0C130F0E80
:10118000180F0E19110F1A0F0B150B0A110D0B1258
:101190000E0D16110D18110E161210171010190F32
:1011A0000F170F0F16111117131016130F1413101A
:1011B0001712121913111A14111A15131D15121BD7
:1011C00017141A16141B141018131016120F1514D6
:1011D000101816121A14121915121917141B1614B6
:1011E00019141317141216151216161216161319AF
:1011F00018151B1613181512161514191412171496
:101200001116151116120F13110F131311171612B1
:101210001815111815111716131A1513191411167C
:10122000131012120F14131016131016111014129B
:101230001015110F13110E15120F16110F15110F96
:1012400014120E15120E14110E13110E140F0D128E
:101250000D0D100F0F14100E12100D11100D110F97
:101260000D100F0D0F0E0B0F0E0B0F0F0C0F100D9F
:101270000F0F0B0E0E0C110F0C130D0B110F0D1188
:101280000F0E100E0B0D100B0D0F0C0E6563766418
:101290006378626276626075625F7260606F605FE1
:1012A0006E605D6F605D6D615C6B615B6C5F5D6D01
:1012B0005E5E6E605E6D635E6C615E6E605E6E61F2
:1012C0005E6D605C695E5D685E5C695E5A695E5C0D
:1012D000675D5D675F5D66605D66605B655F5B6700
:1012E000605A675F5A665E5A655F5A656059686200
:1012F0005A676259656058625D59615C5961605610
:10130000605E565E5D555D5B545C5A555A5A545842
:1013100058535955505956505857515956515B5773
:10132000515B57515957525A554F59554D58544E74
:1013300058554F5957525B58535C58535D57515E3F
:101340005753615752645653655855665B59685CEC
:1013500059685C58695C586A5D596B5E5B6E5F5D8D
:101360007361607860647E626683666887686B8A92
:10137000686C89676C8A676C8D676E90687191691B
:1013800072936872926972916A71916971916971CF
:10139000926972936A73946A72956A73976C759A7C
:1013A0006E779C6D789B6E789E6E79A06E7AA17137
:1013B0007DA4717EA6717EA7727FA8727FA9737FBC
:1013C000A97480AC7482B07584B27786B57989B817
:1013D0007D8EBD8293C08697BF889BC1889AC18746
:1013E00099C2889AC28E9FC294A6C297A9C296A893
:1013F000C18E9FBD7785A96D799B6F78976C75922B
:101400006C75956E77986C75956A72906A72916B2F
:1014100072906A6F8D6A6E8A686D89666C87646C7B
:1014200089666C8B676E8D646D8B646B8B646D915C
:101430006976A27384B87384B76B7AA569779F6F56
:101440007FAE7888BC7A8CC0798DBE798CBD7A8C61
:10145000BE7B8EC07D90C27D90C37B92C27A91C0CC
:101460007B8FC0798FC07A8FBE798EBC788DBD7826
:101470008DBB788EBB7A8CBA7A8BB9788BB7778A2A
:10148000B5798CB6798CB87B8FBA7B89B1676A8362
:101490005C57625C525C55464B4E3D3F4D3E414A67
:1014A0003E43443C3F42393A3D3735392F2B3C319E
:1014B0002C3C2D2B3B2D2C433A40464058453B5469
:1014C0003F3A4C3C3B503A34443B2E3526181A1CCC
:1014D00010121B11111B0F121B0E111A0D0F1B0ED8
:1014E000111A0D10170D0E180E0D2319213C3B5526
:1014F0003A3D58343A56363E5A32385531334C31EB
:10150000344D31334C32334E33344F2E2D3E231F66
:101510002E1A182419181F1513161412151B181D2E
:1015200018161C13141816141716141C312F3F3AD2
:101530003645221B2220191D2A242A201D282C2E44
:101540003C272C391A1B272B2E453E425F566082C2
:10155000444A6641455C56576C6765755E5B6971C8
:101560006D795E576236313F2E2D402D2C3E2D2B4E
:101570003D3833423B36453C3A473A36433B3645A5
:101580003C3646403B4E444153414051444356470C
:10159000485C3F3B47342C36332D352B262D1D1808
:1015A0001C1C16181915182320232B293135313A04
:1015B0003D3C484344514C4E5B616472595F7051ED
:1015C0005768626672716F7876727A726F74625F52
:1015D000664C4A543C3E4B343644312F3A302F3C13
:1015E0003232402D2C38302E3C3A36433934433891
:1015F000344138374341414F403E5035374931340B
:1016000043353542302D3A312F3E2F2E3E2F2C3E82
:101610003431423C3949322E40302E41302E423155
:101620002F44312F422E2D402F2B3D3431413B3A58
:10163000482D2C3B2728362A2A392C2B3E2D293B96
:101640002C2C3F2F2F413232423C3B493D3D4A300A
:101650002F3F2D2D423431472F2C3F2828372A2861
:10166000372927362928352B2A3B302E412D2C3D72
:101670002B2D3E2425391918291D1D292121292109
:101680001E291B17221A16211714211A18261F1D8E
:10169000291A19221F1E261F1F2813131D18172170
:1016A00027262F29262F26253024233025242F26B0
:1016B000262F2928322727342423322525332C2C82
:1016C0003A3435422A2835211F2E21202E201E2B68
:1016D0001E1D291F1F2A1F1B27211D2823202E1FE7
:1016E0001D291D19241E1A251A182418162115142F
:1016F0001D1011180F0F170F0E170D0C150C0B15D1
:1017000012121C312F3824222A0C0B130C0B15102B
:101710000E1A100F180A090F07070B0B0A110D0CF0
:10172000150C0B150F0D15100E150D0B130C0B12C0
:101730000E0E17100E170F0E161110191110191189
:101740001017111117120F16100F16111016111075
:101750001713111A14131A13111812101912101842
:1017600015121917131B1714181714161613171719
:10177000141A18161B15141A14131916141A171301
:101780001A1411181411171513181413191211170C
:1017900014111716111716131616131815131814FB
:1017A0001118141118161017151016130F14131002
:1017B00016121016141016151217131317111216ED
:1017C000100F14110F17110F16111016110E1511FD
:1017D0000E15110F14110F15111016100E14110EF5
:1017E00013130F15110D13110D15120F15100D12E6
:1017F000100E120F0E12100E11110F14100D130FE8
:101800000B120F0B12100B120F0B110F0A11100CF1
:1018100011100C110F0B100E0A100D0B100F0B11E5
:101820000E0B0E0F0B0E110C11100C106261736376
:101830006375636275626175635F73626171616133
:1018400070605E6E605C6E5F5D6B605D6A615C6B5C
:101850005F5C6C5F5E6D625E6F625D6F625D6F614B
:101860005E6E605E6C605D6B615B68615A675F5A5B
:10187000685E5B6A5F5C6C615C6B615D69605E6A3F
:101880005F5E6B615C68625D64615C645E5A655F4B
:101890005965605963605A665E5B665F5A65605859
:1018A000625F55605E55605D545D5A535B5A525A93
:1018B00058515A585059584E58584F5957515A56CE
:1018C000525A57535A56515A56505A554F5A544EC7
:1018D00058574F5957525C58545F57535E56526091
:1018E000575162595361595462595764595868594C
:1018F00057675A58675C59695E5B6B5D5B6D5E5CF0
:1019000071605E7660627B626481666887696B88FD
:10191000696D88696C8A696D8C686F8E6770906874
:1019200070926870926970906A718E6A72916B722F
:10193000936B73926A74936B74946A74986C749AD0
:101940006D759A6E779B6D779C6D799E6F7BA0729B
:101950007DA26F7DA36F7EA6717EA7717EA9738025
:10196000AA7582AC7482AF7583B07886B57A88B96F
:101970007C8CBC8191C08697BF8A9AC18A9BC189A1
:1019800099C08899C0899CC290A3C294A5C085952E
:10199000B77785AA707A9D6F76976D76936B738F04
:1019A0006C74926F77976D74936A708E6A708E6A9A
:1019B000708E696F8D696E8D676C8A656B87646CDC
:1019C00088656D89666D89666C88646A86636B8BD1
:1019D00067739A707FB07180B16C7BA66976A06DD9
:1019E0007DAF7788BF7A8CC17B8DC17B8CBF7B8DAF
:1019F000C07C8EC07D90C27E92C47C90C27B90C21F
:101A00007B8FC17B8EBF798FBE778EBD788DBC7882
:101A10008DBB788DBA7A8DBA7A8DB9798CB7798C7D
:101A2000B5798BB67B8AB97F8FBC7C89B1686B82B4
:101A30005F58615D535B54454B4F3E424B3F4348BB
:101A40003F44453D4243393A4035353D34303F34DB
:101A5000323F34354035374A454E4943583C304291
:101A60003D394A3C3C523C37463B30352417171B26
:101A70000E111D10141D11111B0F0D1C0F0F1C102A
:101A8000121B0E111A0D0F180D0D21191F37344995
:101A900030314D303651343A553238502C30442E96
:101AA0002E47302F4C322F4E33324C3130432521CC
:101AB0002E181826151A2216181B14131619161C80
:101AC00019171D15151B14121A1915203730413A14
:101AD0003542201A1F1E171B2D2630201E2D2C2CA0
:101AE000402223331716232C2F4340426259638729
:101AF0004D55764247604E50655D5E6E656372700F
:101B00006C79524D58312D3A2927382C2938312EED
:101B10003D3833413A35453D39483A38433A384201
:101B20003D3848403C51423F53423F5347455C4952
:101B3000475C3D3A46342B34352D352C262B201866
:101B40001A1D17191A1617201C1F2A282D37353D64
:101B500043424D494A5650525D6667745C61705706
:101B60005C6C6164736C6B76706D756B69725F5DD4
:101B7000684A48553D3E4C343643322F3933313E66
:101B800034344333333F34323F3A364437334236CA
:101B900033413937463C3B4C3C3B4D36354634337C
:101BA00041373442332F3C34303F2D293B2B293CE5
:101BB0002F2C3C353342312F42303041302F402FD3
:101BC0002D412E2B3E312E412E2D3C3331403F3CBA
:101BD000482F2D3A2926342C2A3B2C2C3F2A293BEE
:101BE0002B293B2E2D3E3131433332423333432CAC
:101BF0002C3E2F2E43353448312E412B28392926AF
:101C0000362A28382928392A2A3E2C2B3B2A2837DD
:101C10002827391D1A2B1512201D1C262220291FAA
:101C20001A241D17221A18261A1827211F2D1B1ACD
:101C3000221C19221F1E2816151D09090D0A090E3E
:101C40001110171C1921231F29262531262630257E
:101C5000242D2927312523302424312526332B29EF
:101C6000383232422F2B39252230201D2C1F1B29C0
:101C70001B1A281C1B27221D29221F2B211F2B1E4C
:101C80001B271B172217151F13141D15141E1311C4
:101C90001A0E0D140C0B120D0B120C0B140D0B1352
:101CA0001F1E252D2C3119181F0C0A130C0B140B99
:101CB0000A140B091207050B07050A0909100C0C79
:101CC000130C0A130D0B140F0B160B080E09080F3B
:101CD0000E0C160F0D160F0D16110F17120F1610F2
:101CE0000E14110F161311191210161210161412C9
:101CF0001914131C13121C13121A12111813121A8E
:101D000015141A17141B19161B171619161619175E
:101D1000171918161A19161C17151C18151C181542
:101D20001C161419161418181317161116120F165C
:101D3000130F18131018131117131114131115146E
:101D40001216161117161216151216131217141250
:101D50001714121616141818141A15131A1210162E
:101D6000100E14111016110F16110F13121012125B
:101D70001013120F13121013120F15110E13120F4E
:101D800013140F15140F16130F15120E12100E1137
:101D90000F0E14100D14110E13120E14100C120F3E
:101DA0000B10100D10100D100F0D110E0B110E0B4E
:101DB000110F0B110E0C100E0C110F0D120F0B103A
:101DC0000E0A100F0D11110D110F0B11615E6F61D5
:101DD0006073636275626173615F72605F7062609D
:101DE0006F5F5E6D5F5D6E605C6B615C69615D6BBA
:101DF000615E6D615E6E615F6F615F6F615E6F629C
:101E00005D6E605E6D605D6B605B68625B68605DAF
:101E10006A605D69625E6C625C6C625E6B625F6B85
:101E2000615F6D605F685F5C64615B64615C67609B
:101E30005B65605B65615A665F5A645D5A625D58B6
:101E4000615C57615B56615A535D5A5257585158FD
:101E500056505A56505958505758505857525C5629
:101E6000525D57525D56515B554F59544F58535020
:101E70005755515956535B57545D58545F57525FED
:101E800056516058535F5954605A57625A586659B0
:101E900058685B58685C5A685C5A695C5A6B5E5C4F
:101EA000705D5E745F627A636680656986676B8861
:101EB000696D87696D8B696E8C686F8C68708F69CE
:101EC00071916B71926B7191696F8D69708F6B728B
:101ED000936B73936A74936A74946A73976C729831
:101EE0006D74996F769B6E769B6E789D7079A072FB
:101EF0007CA2727DA3727DA5707DA6717EA7738082
:101F0000A97381AB7482AD7583B07685B37887B7DA
:101F10007C8BBB8290BF8695C08799C0889AC18709
:101F200099C0899AC18C9CC190A1C18A99B9727FCC
:101F3000A66D779D6F77946F76926D72906B728FAE
:101F40006B73916D73946B72916A708F6B6F906904
:101F50006F8E686E8D686E8B666C89656B87666D3B
:101F600089676D8A676B88666B86636883636A8638
:101F70006770946D7BA86D7EAD6C7BA86B79A56F47
:101F80007FB27689BE798CBF798CBF7A8DBF7C8F0A
:101F9000C07D8FC17D8FC17E92C47E93C47D91C36D
:101FA0007B8EC17A8EBF7A8DBD7A8DBD7B8EBD79D9
:101FB0008EBB788CBB788BB9798BB7778BB7788CE5
:101FC000B6798BB77B8BB87F8EBB7E8AB2686B8409
:101FD0005E575B5C525752444A5040444D3E424922
:101FE0003B41443A3F4236393E31344033343E344B
:101FF000353B31333E33374C444E4A43543F3846E9
:102000003B3C4F3C3B503A35443A2E352417161B87
:1020100010101D11111C10101A0F0E1B100F1C1088
:10202000101A0E10190F11180E1022181F342F41FC
:102030002B2E462C324A30364D3238522F30473014
:102040002F482E324A2F324C31334B333244252322
:10205000311A1C2A181B2713151B121015161319D9
:1020600019161B15151B12111B19162137303F3A73
:102070003540201C1F1C17192D282F1E1B25262319
:10208000332321331919293334494144635A648A6B
:10209000545C7E383C5543465761616E70717B706D
:1020A0006F7A48444F2D2834272331302C3836326C
:1020B0003D36343F3836443D3A4A3A37453936445E
:1020C0003B39483F3B4E423F5041405245485D47B7
:1020D000495E3C3948352E38352E352B242A1F18B9
:1020E0001B1C16191A1416201C2029272F36373FBF
:1020F00042434E4749574F5361626674555A6B527B
:102100005969666875706F786E6C74696973605E22
:102110006B4E4D5840434E38384334333C33323D98
:102120003533413431403833403E3B443B37443A09
:1021300037463835453937493737493435453634E8
:10214000433A34443834423733422F2C3B2E2C3E12
:102150002C2C3C363445343244343344302E3F301A
:102160002D3E302E3E3130412F2E3D302F3B383723
:10217000432D2D3B302F3E302F402B2D3D2A2C3E22
:10218000302D40322F3E302F4037354636354631E0
:1021900030423231443636493532452F2C3E2C28D8
:1021A000392927372B29392A293A2A293A2B2A3A39
:1021B00024223214111D1210191A1B24201F281E4C
:1021C0001B221C18231A17251C1A27201F281A1B2C
:1021D000201B1B211A1A230F0D13060407080608DB
:1021E00008060A0B080E0E0D1316141D1A19211FCE
:1021F0001F2521202A21222F2225321F222D26268B
:1022000031302E3E2826341F1C2A1918231C19256C
:102210001917241A17241E1A281F1B271D1C2618DD
:10222000162016111D1210190F0D150E0F160F0F77
:10223000160D0C110B09100A08110A09110A090FD1
:102240002F2E332B2B3212121A0E0D180A09120BD5
:102250000A1009090F08050C08050A08060B0605EF
:102260000C07060D0B0A120D091208070C0A090EBD
:102270000F0D16121017110F15100E131210141344
:10228000111511111611101713111915111A141116
:102290001913121A15141D15141C13121C14131CD7
:1022A00017151C1A151E1B161E18151D17151C17A1
:1022B000151B17151A18151D17141C18141C1815A2
:1022C0001C151319141218171217151216131117BB
:1022D00013111813121813121813121614111617BB
:1022E00012181613191512181311161210141512AC
:1022F00016171518161519161519151217120F1489
:10230000120F14131016121217131114110E1212A9
:102310000F11131012141014130F14110E13110FA8
:1023200013120E14130E16130F15110E11100D109B
:10233000110D12110E15100F15100D14100C131095
:102340000D13100D130E0C110F0C0F0E0C0E0E0BA7
:102350000E0F0D100E0C110D0B120E0C120F0C1097
:102360000F0C110E0C120E0A0F0E0A1161606C6335
:102370006170636171636070625F6F61606D605F07
:102380006C5E5D6B5D5D6C5E5C6A5F5D6A615D6D20
:10239000605C6E625D70645F72646073635F7362E1
:1023A0006070625E6D625D6A625C69605E6A605CFC
:1023B0006B615B6A615D6A615E6C625D6D625F6CE0
:1023C000635E6C605C6A5F5C67615D68615C6960EC
:1023D0005C66605A65605B64625C64605B625F5906
:1023E000625C565F5C555F5C535D5950575951555F
:1023F000575158555158544F57564F5858515B568E
:10240000515D544F5B554F5B574F58565158554F80
:102410005A554F5A56515D58545F57536056535D45
:1024200059545D58545F5856605A5761595763590B
:1024300057675B58675C58655B5A675C5B6D5D5BB3
:10244000715F5D735F617863647F646684656A87CA
:10245000666B89686D89696D89686C896A6D8D6B39
:1024600070916B70916C70906B71906970906971E4
:10247000926A72936B74936C74936B73936B739592
:102480006C73986C75996E759B6D779B6D789D6E6E
:102490007A9F6F7DA2727DA5737EA77280A7717FE0
:1024A000A87180AA7281AE7582B07786B27A88B63A
:1024B0007C8ABA808FBD8393BF8495BF8596BF8782
:1024C0009AC1899CC08C9EC18B9CBE7C89B06D7664
:1024D0009B6E76977175926F74936A73916A71911E
:1024E0006D73956C759469728F6A6F8F6B708F6A5C
:1024F0006F8F676E8D676F8A686E87686C86686C91
:1025000088686D8B696C8A666A866268806168819A
:10251000646D8D6A78A36E7EAD6E7DAB6D7CA970A7
:1025200080B37889C07A8BC27B8EC27A8DC17A8D56
:10253000C07B8DC07C8FC17E91C37C90C37B91C0DA
:102540007B8FC07C8FBF7C8FBF7B8EBF798EBE7927
:102550008CBC788BBC788BBA768AB9768AB7778B45
:10256000B7798BB97C8AB97E8FBA7D8CB46A708B4F
:102570005C555B5B535853474C4C42434B403F4880
:102580003A3D48383C4334383E2F313F31383C32B5
:102590003A3931393F343F4B3D4B3D2F393D323E87
:1025A0003B3B4E3B3A51383547392F382313161BE6
:1025B0000D0D1B0E0D1D0F0D1D100C1C100E1B0FF5
:1025C000101B0F101B1117241F2A2F2A37343348D2
:1025D0002B2E4225273D2D324B333A5531334D2D8D
:1025E000314B2C324C2F304E32314E32334925266E
:1025F000361A1B28171720120F18130D1319161B44
:102600001C192119182313131D1C1A28383442379A
:10261000333F1E181B1A14182E2A32201C241A1796
:102620002421223223233636375040466558638BA7
:1026300058618431334B4D4F606A6A76777681708A
:10264000707B3F3C492925322C2832302D363431DD
:102650003934343E393746443F4F403B4A3B374696
:102660003D3A4B413D5144405343435345465A48FC
:10267000475C3E3746352C37332C332C23281E1627
:10268000181C15161915171D1A1C26232D36354131
:1026900044444F4646544E505F636677595E7251CC
:1026A000566B6466746E6E797170776C6B725B5981
:1026B000664D4C5A3F404D363543333340353441F7
:1026C000393744312E3C34303D403C483B38453767
:1026D0003544343241373546383547373446373755
:1026E000463B37453A374537334235304032304440
:1026F0002C2D3F3535463837463B394B3332432C4A
:102700002A3B2D2C3D2E2D3D2E2E402B2C3937359E
:1027100042302F40302D3E3431432F2F412C2D3C61
:10272000303041302E3F2C2C3C3736473B3A4C3032
:102730003043353443353445323143302E412F2D2B
:10274000402A2B3B282736252333272635272637B3
:102750001D1C2B13111F14131E1C1D261C1C251BB6
:1027600019211B17221714211B1A241C1B221D1CA4
:10277000201C1C2314141D08080D0503050804085B
:102780000A070A0A080C09080C09070C09080B0EAD
:102790000E1011111814141F17192412131B1010E6
:1027A0001714121C1211190F0C150F0C13120F18FD
:1027B00016151D17141F19152018151F16131C1296
:1027C00011180F0F1612101C13111E100E180C0BDF
:1027D000110D0A110A091207070D06050A0D0B1142
:1027E00039383E28282F0B0A140C0A140B09120D35
:1027F0000C120A070E06030808050B08050A030257
:10280000050504090908110A070E06050708070A45
:102810000E0A13100D15100D13110D1214111716A9
:10282000131814111513111714131A17141C161357
:102830001B14121B14121A15121A17151C17151C2B
:1028400019151B1A161B19171B19171C1A151B1AF9
:10285000151C19161C17141C16121C18141C1815FC
:102860001C16131A16131B15121A16111914111A05
:102870001511191511161511141411151512171813
:102880001316161216151116141015141116171406
:1028900018161317141315151317131116121016F3
:1028A000121013131113151114130F12110F12120A
:1028B0001014131014120E14110F16110E16110EFF
:1028C00015131014120F13120E13100F10110D10F8
:1028D000120D0F100D11110C13110C14100D120EFE
:1028E0000C100D0C120E0E11100E0F110E100F0DFC
:1028F000100E0D110F0D130E0C120E0B100E0A0FF1
:102900000E0A0F0F0B120E0B120F0C10605E6E6191
:102910005F7061606E60606D62606F62606F615F6A
:102920006D5E5D6C5D5D6C5D5C6A5E5C695E5C6D80
:102930005D5D6E615E70666074676177636275622B
:102940006272615F6D615B6B615B695F5E6A5E5C59
:1029500069615B68605D6A5F5E6C615D6B625D684A
:10296000645D69625F6B615E6B635D6A615B696038
:102970005A65615A65625B65605C645D5B645D5865
:10298000625C555E5B545D59535D56535A565158BF
:10299000574F59564F57574D56564C56574E5757F7
:1029A0004F58564E59584E5A564F595550595651E0
:1029B0005A57505A58525C59545F58545E58545E96
:1029C00059545D57545F5854615A57645A57655A61
:1029D00057685C58685B58685C59685C596C5D5B0B
:1029E000705E5C725F5E7763617E636583656A8734
:1029F000666C88686D8A686C88686B886A6C8B6A9C
:102A000070916972926A719069728F69729169713D
:102A1000926971926A72936C74956C74956D7498E6
:102A20006D74986E769A6E769A6D789C6C779C6CC5
:102A30007A9E6D7CA06F7CA3707EA5717EA772804C
:102A4000A97481AA7481AE7783B17986B27A88B687
:102A50007C8AB87F8EBD8091C08394C08696BF87E4
:102A600099BF899CC18C9EC2889ABF7887AF6C74CD
:102A7000996E74956E74926E75916C73916E749676
:102A80006E74976C72926A728F6A6F8C6C708D6ABA
:102A90006F8C696F8B686E89666C87666A84666DF9
:102AA00087676D88666B8665698463687E61677E0B
:102AB000666C8D6D78A7707EB36E7DAB6F7CAB71ED
:102AC00081B57789BF7A8CC17B8DC27B8DC17B8DAF
:102AD000C27A8CC07C8EC07D90C27B90C27C91C239
:102AE0007C90C17B8DBE7C8EBF7A8EBD798EBD7988
:102AF0008CBC788CBC798CBA788BB9788AB7788B97
:102B0000B8788AB7798BB87D8FBB7D8BB3676D86BC
:102B10005954595A50565148484E44414C403F47E9
:102B20003A3C47363A4334364033363F343D392F0A
:102B30003C362D3A362B3C382A3D33232E382A3664
:102B40003C394B3A394F383343382D352013161B57
:102B50000D0D1B0F0F1B100E1C100D1C100D1C104B
:102B6000101A0D0F1F141B38354B3B3E5C35375187
:102B700030354D353E5B343B57373A5630324F2C6B
:102B8000304B2C304D2C304D31324C313348272BCB
:102B90003C1A1F2A16141C130F15130E1119151C9D
:102BA0001D1B271F1A2917152221202D39364135C3
:102BB000313B1B151C1813182C282D27252D1613F7
:102BC0001F1B1B2927273B3536523F4361515B7E34
:102BD0003C415E2F324552596761626F716F786E6A
:102BE0006D763A38442B26342D28362F2C35353344
:102BF0003A3836433C3948433E4F433D4E3C3648D5
:102C000040394C433E51443F534643544544594652
:102C1000465B3D3644352C32342D302A22261D1594
:102C2000191C15181C15191D191C25222935343F8E
:102C300041414D4445515052605F6576535B6F5042
:102C400057696365726D6E777070786A68705C59E9
:102C500065504F5B3939473736463737433635424B
:102C600038384434313E35313F413D4B423F4B3A99
:102C700039473534423937483A36483834453433A1
:102C8000433837453434423936453D38483C374B74
:102C9000302D3F3130403333433D3C4C3433422DB3
:102CA0002C3F2F2E422E2D3E2F2F402C2B353735EB
:102CB000413532422C293C2E2C3E2B2B3D2C2B3BDC
:102CC0002E2D3E31303F2D2D3E3434453B394A3395
:102CD00030433D3B4D3634452D2D3D2D2C3D2D2C87
:102CE000402A283B2421332625352A293C2625380D
:102CF0001A1A2C1918281B1A25201D261C19221CEB
:102D000018221B19231917251D1C271C1B241E1DE7
:102D1000221C1C2317151D09080A040204070508B4
:102D200008070B0B0A0E0C0A100C0A1109070D0AF2
:102D3000060D0908110C0D1611111A0F0D150806B4
:102D40000A080408080409110A0E181115110D12B9
:102D50000B0A0F100F16131018141118151218154E
:102D600013180D0C110A090F0C0A130E0A130A0886
:102D70000D0A080E09080F07050B0604091C1A2086
:102D800034343A1B1B230908100A08100C0A1010CF
:102D90000C160A080F0504080A080D0B0A0F040296
:102DA0000504010609070D09070C080709080609AB
:102DB0000B090E100E14110D14100E131614181802
:102DC000161915121716131B17141D19161D181591
:102DD0001A16141A17131C18151C1A171C1A171B6D
:102DE0001A171A1B171A18161A18151A1A161C1B56
:102DF000171D19151A18141B19151D17151C171551
:102E00001B18131B15141913131717121716131960
:102E10001412171713151512151512151613171767
:102E2000141817131716131816131816151A151346
:102E30001A120F15141016161219121219110F1654
:102E4000120F13141114141116121015111013125D
:102E50001013120F13110E13100E14100E16100E65
:102E600016121014131013140F12130F12110C1248
:102E7000100B11100D13110D15110D14100C131052
:102E80000B110E0C100E0C100F0C0F0F0C0F0D0B66
:102E90000F0E0B110F0B12110B12100A100E0B0F4D
:102EA0000E0B100E0B110C0B0F0D0C0E615E6E61F4
:102EB0005E6E5F5D6C5F5E6C605E6E5F5E6C5F5DE4
:102EC0006D605E6C5F5E6E5F5E6B5F5C6A5F5C6DCB
:102ED0005E5C6E5F5E6D636173656377636377628B
:102EE00061735F5D6D5E5C6B5E5C6A5E5C685E5CC0
:102EF000685F5C68615D69625D6A625D6A635E69A4
:102F0000625F6A64606A65606C645F6C635D69637C
:102F10005C67635B67635B66615A645F5A645E59B2
:102F2000635E585D5C555B59535B57525857515916
:102F3000564E57544E55554E53554E55555058575D
:102F40005158585156574F57554F5755505B54523B
:102F50005D55535D57535D58535F59545D58545BED
:102F600057525C58545F5957645957655A56645BB9
:102F700056655C58665C59685D5A6A5C5A6A5A5A6A
:102F80006D5C5B715E5D7662607C6464826569869F
:102F9000666B86686C886A6D89686B88686B8A68FE
:102FA0006F8F67709167709068708F6972936A72A3
:102FB000956971936971936972936A74946B74964D
:102FC0006B73976D75996C76996C779B6D779B6F2A
:102FD000789E70799F6F7BA1717DA3737EA6737FAE
:102FE000A97380A97480AD7582B07885B27987B5F0
:102FF0007B8AB87D8BBB7E8EBD8192C08394C08658
:1030000097BF8899BF8B9DC18B9EC08191B56E780B
:10301000A16E749A6C72956A72926B74936E7797C4
:103020006D759569729069708D6B6F8A6A6F88692A
:103030006D88686D88676D87686B85666B84646B67
:1030400085656B87656B8564698161687D61667E76
:10305000656B8E727AB07482BA6E7BAC717EB2761A
:1030600086BD7789BE778ABF798BBF7A8CBF7B8D0F
:10307000C07A8DBF7A8CBF7C8FC17D92C47D90C396
:103080007B8FC07A8FBF7C90BF7C8EBE7C8DBC7ADC
:103090008DBE7A8CBD788BBA778CB9778BB7798AED
:1030A000B8788AB7778BB67C8EBB7F8CB36D6E8613
:1030B0005B5358584E524F45444D43404C40414954
:1030C0003D3F4437394134374035373D3237372B70
:1030D00033362935342738332636312734342C39E2
:1030E0003A3946393A4C383241392D332215171BBB
:1030F0000F0F1A10101B0E101C0E101A0E111A0EA4
:10310000121A0F1120151A322E3F2F314A34354E24
:103110003E45603E496A36405E383A563233502F5B
:1031200032492F30482F2F493132493234492B2D23
:103130003F1B232C171A1F161215121012141017EA
:103140001C1725221B2B1B172426222F3B38443209
:103150002F3A1A131B1810152824282F2F3518174B
:10316000211816222827373233482C2F442E314677
:103170001919272427364750635A5F6D74747D6D83
:10318000697336333E302A37322C39312C37383296
:103190003D3B36443F3A4B403C4C413D4E3A38482B
:1031A0003D394B413E5142415246435648455C46AB
:1031B000455D3A3743342C32362C322A23291E18E7
:1031C0001E1C171C1A14191D1A1B27242638363FDB
:1031D00041414B4546525255635F647452596B529C
:1031E00057686568726F71797171766A686E5C583C
:1031F000614D4C573A3A463C3A493A3A463836419C
:103200003836413835413735433B394644404D41E6
:103210003D4B373645413E4F423F513A38483333B4
:103220004030303D2F2F3C393746413F4E403D4FD7
:103230003533432E2D3C3331433F3F4F36364630F6
:103240002E412F2D40302F413130412C2835333045
:103250003A302E3B2E2B3C2B293B2927362927356C
:103260002C2B3B2E2C3C2B2A393432433E3C4D3EFA
:103270003C4D4B4B593A39492A29392A293B2D29AA
:103280003E2826382725352928392E2C4029283C48
:103290001F21311D1F2C221F2A211B271E18241C11
:1032A00017231917231C1D291E1D281D1C241D1E34
:1032B000241B1B2314131C09070B0402030503071B
:1032C0000706090C0A0E0F0D13100E170D0E160D22
:1032D0000B140D0C1510111C13121F1210190A07D4
:1032E0000A080506080507110D10201E21171519DB
:1032F00006040907050A13111717151B18141A19C4
:10330000151A100D0F06050908050B08060C08050F
:103310000A0A090D09080E09070C08060A2C2B30A9
:103320002E2C320E0E1308060D08060A0B080D0C83
:103330000B1307070E07060A0C0B100A090F0302EE
:103340000702010508060C0A070E08060B09080CFF
:103350000E0B11121017100E151210161716181743
:10336000141814121717141A19141B1A161D1815ED
:103370001C15121A17151C19171C1A191B1B181BC0
:103380001A181C19181C1A171C1B151C1C161E19A0
:10339000151D16131917141818151B18171B1916B5
:1033A0001918141915131C16141A181518161416B2
:1033B00016151617141718131717121716131817B0
:1033C00013181612191511191413181512181412AE
:1033D00019121017121016141116141018120F15B6
:1033E000131113141115121018121117120F1513AF
:1033F0000E14130F13100E130F0F14100F16100FBF
:1034000015100E13140F13130F13120E13110C14A7
:10341000100B130F0D150F0C140E0D120E0B110EB9
:103420000B0F100D0F110E10100E11110C100F0BB1
:10343000100E0C110F0C130E0C130F0C120E0C109F
:103440000D0A100D0C100C0B0F0D0B105F5D6B5E59
:103450005E6A5F5D6B605E6D605E6D605D6B5F5C44
:10346000695F5D6B5F5E6C5D5D6A605C6A605C6C31
:103470005E5D6D605F6C60616F63617365607162FA
:103480005F6E605D695E5C685F5D6A605D6A5F5D1E
:1034900068605D6A615D69625B69645E6A65606AF5
:1034A00063616A62616C63606F64606C615F6961D3
:1034B0005D685F5B66615C64625A635F59625D5818
:1034C000615C565E5D545B5A525658535456515681
:1034D000564F56554F54564F52554E5456505957B5
:1034E0004F59575156575056554F5756505C565294
:1034F0005F56535F58535F57525F57535D57535A48
:1035000057545C58535F5A54625D55655D57645B10
:1035100057625B58645C5A675D59675C58695A5AD0
:103520006D5C5C705F5D7160617663647D6568830E
:10353000676A85696C87696D87686B88686B8A675D
:103540006E8F67709169709169708F6971936971FD
:10355000936971926A71926A72936B73946D7496A7
:103560006D73976C75996D769A6B76996C779A6F87
:10357000799D707AA06F7BA06F7AA2707CA5737F13
:10358000A87380A97380AC7482AF7785B37887B550
:103590007988B77C8BBA7D8DBD8090C08394C086BE
:1035A00097BF889AC18B9CC18FA0C18EA0BE82900C
:1035B000B77B85B27980AF727CA46C75956D779579
:1035C0006B75946A729269708E686E8A676E88688D
:1035D0006C86676B85666B85666B86656B84646CD1
:1035E00085646C87646A8462688161667C61667DDB
:1035F000636B8C707AB07884C17784BB7987C07B29
:103600008BC47889BE7A8AC0798BC17A8CBF7B8D56
:10361000C07A8DC07C8FC07D90C17E92C47D91C3E5
:103620007B8FC07C8EBF7C8EBE7C8FBE7A8EBD7938
:103630008EBD798DBC778BBA768CB7788AB7778B4D
:10364000B8778AB6788BB77C8FBB7F8BB26D6E856F
:103650005D54585A4F505144454C3E414D414349A9
:103660003D3F45383B4137383E34353C30303A2BCE
:103670002B3A2A2E43323C5346524D47593C374A47
:10368000393949393A4F3C37493C32362116141BF7
:103690000F0F1B0F0F1A0F0F1A0E0F1A0E11190D05
:1036A0001019101121181C332E3F2C2D4231324697
:1036B0003D4563394463384463373F5B3034502EB3
:1036C000304A2E30482F324931324A32334D2E3172
:1036D00046222933161D20151315120E10120C0E3A
:1036E0001A151D1F1B291E192525212C3D37463172
:1036F0002C391A141B191216231E24333239252291
:103700002818121A18161E2324321A1B25110E14FB
:103710000F080D191521393F52595F716F707F677E
:10372000677335323D302932312B35362E393A33F5
:103730003F3C37473D3B4C3F3B4C4241503E3B4E6C
:103740003D3B4F3F3F5242415344415547445B4606
:10375000455A3C3542342C35362D3429222A1E1840
:103760001E1C161B1B15181E1A1D2A272A3A384024
:1037700043424C4A4B58565968606675565D6D5CBD
:10378000606D676A746F6F776F6F7766646D5550A1
:103790005C4B4A5742414E3F41503B3C4836333DDB
:1037A00035313D37333F3A36433834433834433C80
:1037B00038483D3A4A4644534A48574241503535C5
:1037C000443434413837463837463D3D4B3C394622
:1037D00032313A2C2A373B3747403C4C3634412F64
:1037E0002E3E2D2D3E3433443534462D2E3C2D2C8B
:1037F000372C2A3A2B2A3B2927362C2A392C2837D2
:103800002C2A382D2E3C2D2C3C3636474443525022
:103810004E5952515D4240512C2C3D2827372C2ABD
:103820003D2B293C2C2939302C3D2D2D40211F2F9B
:103830001B1C291F1F282220291C18241C1825198D
:1038400018251716231C1C281C1A221C1A211F1DA0
:10385000281C1C2813131F09090D0301020401046D
:103860000705090B0A0E0D0D120E0D140C0C120A91
:103870000A100C0D1412141D14162112141F0B0A19
:103880000D0806070807090D0B101B182015121745
:103890000603070402050E0C1116151C1A171C1935
:1038A000161A0F0C0F050307040206060408060586
:1038B0000807060907070A07060A100F1338373AE0
:1038C00022212406030907050B08050C08060C062F
:1038D000040807050808070B09080D09070C05036C
:1038E0000703010509060B0B090F0D0B10100D1234
:1038F000110D13110F170F0D15121016171519169C
:10390000131816121916141919151A1B171D191642
:103910001D16121918141A1A181C1A171A1B161B1E
:103920001A171B19181B18171D18151D1A151C1806
:10393000151B16151916141816151A18161A191417
:103940001815151917151C18151C17141817131707
:103950001713171614161612181712191411161316
:10396000101515121614121612111713131813121C
:1039700018121016121016121216130F1413101517
:10398000121216121115121117131116130F161207
:103990000E14130F13120E14100F14100F16100E16
:1039A00015110E13110F13110F140F0E13100D120A
:1039B000110C12110D130F0D130E0C100E0B101015
:1039C0000D0F110E0F110E10100D110F0C0F0E0B0D
:1039D0000F0D0B100D0B100D0A100D0A100E0C110F
:1039E0000E0C110D0B100C0B0F121016605C6A60A0
:1039F0005E6C605D6C615E6B5F5D6A605D6A615CA0
:103A000069615D695F5D695E5B685F5B6A615D6B93
:103A1000615C6A5F5D6A60606D62606E635E6F6468
:103A20005E6C625C69615C6A625D69615D675F5C76
:103A3000665E5D68605C6B635E6C66606C67626D41
:103A400066616C64616F65617163606C615E696120
:103A50005C6A5E5C665F5C63615A605D58605B5780
:103A6000605C56605A555D585358575255565254DB
:103A7000544F53564D53574D53554D55544D58551E
:103A80004E5956505956505956505957505C564FEA
:103A90005E58505D58525F59536058535E56555B9F
:103AA00058535D5753605B56635E56645D57645B65
:103AB00058635B57655B58665A58665C59665D5B30
:103AC0006B5D5C6D5D5D6F5D607461637D6567827C
:103AD000676984666B86676B87696D89686D8969BC
:103AE0006F8E6971926A71906C71906C72916C7149
:103AF000916B71936B72956C71956C72966C7298F8
:103B00006D73976C75996C779A6C769B6D779B6FDC
:103B1000799D6E789E6D7AA06F7AA2707AA2717D7F
:103B2000A4727EA7737FAA7580AE7783B17684B4C2
:103B30007986B67988B87A8ABB7E90BF8393C0862F
:103B400097BF8A9BBF8E9FC191A2C193A6C295A722
:103B5000BF95A5BF909FC07F8CB56D759C6D769508
:103B60006E75956D718E6A6F8B686E89666C8566F1
:103B70006B82676B82686D85686C86676B83656B2B
:103B800082666C8363688361658061657C60657B48
:103B9000636B8A6E79AD7C88C67D89C67B89C57A60
:103BA0008CC37A8BC27C8CC27C8DC27A8CC07A8C9E
:103BB000BE7B8EBF7D90C17E91C17F91C47D91C33C
:103BC0007B8FBF7C8EBD7C8FBF7A8EBE798DBC799A
:103BD0008EBC798DBA798CBA798BB9798AB8788AA2
:103BE000B5788BB67A8CB97D8EBC7E8AB46B6F8AC1
:103BF0005E555A5C515353484A4A3E404A3E4047FC
:103C00003B3D46393C4437393E33333B312F392B2A
:103C10002C3C2A2D4B39415B505B544F5F3F38465B
:103C20003A3647393A513E3C4F3D33372215141B43
:103C300010111C12131C10121C10101C10101B1041
:103C400011190F0F21171D332E3D2B26352E2B3A20
:103C50003E45613942623E476739425E3237522DF6
:103C6000314B2B324B2C314A2E304831324B3033D2
:103C700049262633191D22131314120E0E150C0F8C
:103C80001C151B211B25211C2727242D3E384631BE
:103C900027341910161810151E161E312D36312C0A
:103CA000361B171F18161F1F1F2E191723110B1451
:103CB000100A1118121E3E42554B53656063716223
:103CC000637033313C2D262F2F2932362E3A39316D
:103CD000413E3A4A403E4E3F3E4E4340533E3C4FAB
:103CE0003F3D50414152424053413E5346465E465D
:103CF000475C3B3540362C33362C34291F281E16A2
:103D00001B1E161A1E1519201D212F2D343D3D474F
:103D10004646534E4C5C585A695F6373565A6B5A09
:103D20005F6D696B7573737B72707965636D5551E7
:103D30005F514F5C4948553E3F4E3A3D4A36343F0D
:103D400034303B35313E38334135313D33303C3C06
:103D50003948413F504442514544513A3949363738
:103D6000463837463B39483A394837354336343F89
:103D7000302F392C2B3837364438364534304131E2
:103D80002F402C2D3F313243333244312E402E2CE4
:103D90003A2C2B3C2C2B3C2929382E2D3D2B2B3912
:103DA0002C2C3A2F303F302F403535464543525565
:103DB000545E4847553C3A4D2F2E3F2C29372C2A2C
:103DC000392B2638312E403634452928391A1927FF
:103DD0001F1C272B252E221D261714201A18251AE2
:103DE00018281D1C281C1B241918201B1D231F1FED
:103DF000281D1E2A1615210F0F160504070503039B
:103E000007050809080D0A0A110B0B130B0A100904
:103E1000080C0B0B1111121B1416211417220D0C78
:103E20001309060A0705080A080D161319141016B7
:103E30000703070200030605080F0E1316151C14CE
:103E400011180B090C0301060201040604090807F6
:103E50000A06050605040803020621212336353724
:103E600017161A04030806040906040A06040804BF
:103E7000010504030506040807060A07070B0806E0
:103E80000A06040808060B0C0B11100E15100D1570
:103E9000100C15110D15110E1514111916141A14F4
:103EA000121A16121B19161D1A171C1B181B1B178A
:103EB0001C18151C19161E1A161D1A171B1C161C69
:103EC0001A161D18161D1A161B1A171C19161D195D
:103ED000151C17141B18151B19151C19151B181662
:103EE0001A16141916131917131A1813191513186B
:103EF00016131918141A1714191514191512171363
:103F00001216141315151314151315141117141173
:103F1000171512171212151112141111131211156F
:103F20001411191310161310141511161410161459
:103F30001116120F13110E11110E12110E14120F71
:103F400014121015120F15100E14110E12100F125C
:103F5000120D10100C110F0C130E0D130E0D130E6D
:103F60000C130F0B120F0B12100B110F0C0F0F0B6A
:103F70000E0F0C0F0F0D120E0C120D0A110C0A0F62
:103F80000C0C100D0C110F0D11161418615C6A62E7
:103F90005D6B605E69615D685F5D695F5C69615C06
:103FA00068605C685F5D685F5B68605B69615D6BF2
:103FB000605C6A5F5D69615F6B625E6A605D6B61D8
:103FC0005C6A625C68625B67625D69615D67615DD6
:103FD000685F5C695F5D6A63606E65626D66626F93
:103FE00066627066606E655F6D63606B625E6A617B
:103FF0005D695E5B675E5B655F59635E59635C56D6
:10400000615C546059535C575258585156564F543E
:10401000544E55554C55554B54564C56554C57547B
:104020004D57564F59554E5A56505957505C564E4B
:104030005E56505D59525E5A53615A556058535CF2
:1040400057525E5952605A55625C57655D56665BC1
:1040500056665B56665C57675B58685B5A6A5D5B81
:104060006C5E5C6D5D5C6F5D5D755F627B636782DE
:10407000656885676B87686C88696D88686D896716
:104080006E8C6770916A71906C718F6D72916D71A9
:10409000916C73936B72946B71956D73956D74964F
:1040A0006D74976C75996C77996E76996E779A6F37
:1040B000799D6E799F6D7A9F6D79A06F7BA1717DDF
:1040C000A2717DA67380A9737FAA7682AD7884B130
:1040D0007985B47888B7798ABA7E8FBF8393BF8693
:1040E00097C08A9BBF8D9EBF91A2C094A7C198AC78
:1040F000C29AACC294A5BF8391B76F79A16E76982E
:104100006D74936C708A6A7088686E86666B816560
:104110006A7F656A80676C84676B84666A83676B95
:1041200081666B8364698361668162657B61657AA0
:104130006269886E79AA7D8AC87D8AC77B89C679BB
:104140008AC47989C17C8BC37C8BC17A8EC07A8EFC
:10415000C07A8DC07B8FC07C8FC17F91C47D91C39D
:104160007B8FBF7C8EBE7C8FBF7B8EBE7A8DBC78F2
:104170008DBB798BB97B8CB9798CB8788AB8798A00
:10418000B7798BB77A8DB87D8EBB7E8CB66A6F8C13
:104190005A525A5D5457544A4E4C41434C3E434741
:1041A0003B3F463A3C4335384132333F2F313B2C7D
:1041B0002F3E2E304C393F55484F5449553A3039EF
:1041C0003732453A3B533C3749392E362313151ABB
:1041D00010121A0F111C0F111C100F1C0F0F1B0EA9
:1041E0000F190D0F22171B362F3A2A24302C263791
:1041F0003F44613A43623C46673B425D30354F2C59
:10420000304A2B31482D31482F314631344934342E
:104210004C292536221D281B181B120E0E130C0FBD
:104220001A1518221E2322202928252F3D39492E10
:1042300027361913191914171E191E2A242E39335B
:104240003B24202A1919242222311E1B2813111B5A
:10425000110D1614111A2627392D32455357695C52
:104260005B69332D372E272F302A33322B36372EEA
:104270003D3E3949403F4E3F3E4F413F503C3B4C15
:104280003F3E50424054424055413F5546475E46AE
:10429000475839353F342D34342C34291F281E1605
:1042A0001A1C1519191518211D21302A323E3B48B8
:1042B0004847554B4D5C585C6A5E637353596A5866
:1042C0005E6D6A6B7675737B7A777D716B745D5802
:1042D00064504D5A4847553B3B493B3B4738354373
:1042E0003834433836433A384533313D3534403E2F
:1042F0003D4C3E3D4D3B394A3E3D4C3938473838C0
:1043000048373549393545403C4A34323F312F3DF5
:10431000302E3C2F2F3E343141353040373345323B
:1043200031443030413031412E2D3E2D2C3F2F2D48
:104330003D3231422E2D3F2C2B3B2D2D3D2E2D3B42
:104340003233423131422B2A3B312F3F42414E4DD5
:104350004D573738483533443A3745393646312C8E
:104360003D2926372C2D3B302F402523361C1B2B77
:10437000231F2A28222A1C171F17131D1A17231957
:1043800017261C1A261918211B1B231D1E261E1F4B
:10439000271A1B261718251918250D0C13060408B3
:1043A00007050909070C0B0A110D0B140D0B120B55
:1043B00009100D0C1210111A1316211418240C0DCB
:1043C0001307050807050709080B0E0C0E0F0C1044
:1043D0000805090201030201050A070C100F161057
:1043E0000E150A090F050306020103060407080754
:1043F0000A07050806040803020538383931303346
:1044000009080B0504070604090604090503070645
:104410000306050205050307060407070509090643
:104420000A0705080A080C0D0B120F0C15110D16C2
:10443000100E14100D15110E15120F15131219135D
:10444000131A17141B19161E19181C1A17191A16E5
:104450001C18161D1A171F1A171D19161D19161DBF
:1044600019161D1A171D1A161C1A171C1A161D1AB2
:10447000151E19141C17141C18141C19151B1814BC
:104480001A161519171319161218171318161318C8
:1044900016141A18141B17131915131714121813BE
:1044A00013161512131412131511151512181513CE
:1044B0001A141219121116111014111013131014CA
:1044C000141116131014130F12140F14140F1414C4
:1044D0001015120F14100E11110F11111014110FCD
:1044E00016121016120F16120E14110E12100F11B2
:1044F000100E10100D12100E13100E130E0D140EC0
:104500000C13100B12110C11100D110E0B0F0E0BC2
:104510000E0E0C0F0E0D100F0D120D0C110D0B0FBA
:104520000D0C100D0C10100E12171417615C6A643C
:104530005D6A625E67615E68615E69605D6A5D5C5E
:10454000675F5B69605C685D5A685D59685D5A6861
:104550005D5B6A5D5D69605C67615B67615C67614B
:104560005B666159665F5A655F5B67615B69615C49
:1045700069605E68605F6963616A63606B64626FF3
:1045800066627165616F655F6B625E685F5C6662E3
:104590005C65615A656058655E57635E56635C553D
:1045A000625A535E59525C57525A5750575650539D
:1045B000564E55584C55574C54554B5454495455D8
:1045C0004B56554D59554E5A564F5C564F5D5650A9
:1045D0005E56505D57515F5A53605A546058545E4E
:1045E00058535E5854605A56615B57635B56665C1D
:1045F00056665C57675C58685B5A695C5B6A5C5CD2
:104600006C5C5C6B5D5C6D5E5F725F617A62668044
:10461000666885686B88696D89686D88676D87666F
:104620006D8C6870906871916970916A70916B720D
:10463000926972936A71936C73946E74956B7494AF
:104640006B75976C75976D75996E769A6E779A6E95
:10465000799C6E789F6E79A06E7A9F6F7BA1707C3B
:10466000A3707CA4717EA7727FA87380AA7682AEA5
:104670007986B37987B6788ABA7D8CBF8290BE86F8
:1046800096BF8B9CC090A2BF92A3C093A5C18E9FE2
:10469000BD8493B47B87AB747EA16C76966B74916A
:1046A0006A728C6A6E886B6E87676B83646A7F66DA
:1046B0006A7F666980676C84676C85676A83666AEF
:1046C0008165698265688164667C62647860647A09
:1046D0006268856D76A57D8AC47A86C27886C07A3E
:1046E00089C37A8BC07B8CC07A8CC17C8DBF7A8D5C
:1046F000BE7B8DBF7B90C27C8FC17C90C37B8EC103
:104700007C90C07B8EBE7C8FBF7C8DBD7A8EBC7949
:104710008DBC798DBA7B8CB9788BB8768BB7778C5A
:10472000B7788AB57A8AB87C8FBC7B8CB56A708C76
:104730005950595F52565749504E41444E40454892
:104740003A4145383D45393D473C3F4132353E2FA2
:10475000324032364B3D44574C56534A56382E3829
:10476000353346393A51393240372C322014171933
:104770000F13180E0F1C10101B1012190F0F180D0D
:104780000F190C0F23151C352F3A2B28362E2A3AD9
:104790003F43613A44663A48683A415D3435522DA8
:1047A000314E2E334B30324D32324B32344C343565
:1047B0004D292536231E291A1419130F111610130B
:1047C00019161822202522212B2C28333D39492760
:1047D0002431110E12110D111610171C1720302A3A
:1047E00032312A321E1A24201F2D1D1C2915131D9B
:1047F0000E0B14110B1217141F292A3D5054685820
:10480000566737303B322A35312C37332B38372F28
:104810003E403A4B434152424152403D4F413C4F52
:10482000413F504341554541564341584A496349E8
:10483000495B393540332D36352C36281F261D155A
:10484000191B1519191417231F222D2A313C3A451B
:104850004847544C4C595A5E6B59606F50566659D4
:104860005D6D6B6C7873737A7C797F736F775B594E
:10487000654848554445543D3E4C3A3A47393845D9
:104880003A38443837433C3B4935344135343F3C72
:104890003A484541503E3B4B42404F403E4F413EDF
:1048A0004E3C3B4B3D3C4A423F4E3432413030411E
:1048B000313040302F412F2C3E3531433A37473489
:1048C0003242302E3E312E412E2D3D2C2B3C2E2BB4
:1048D0003C3330402C2B3B2A2B3A2B2B382F2E3BB2
:1048E0003232423332422B28393534414645523F29
:1048F0003D4A2F2D3D2D2C3A3433403B3A4A363435
:10490000472B293A2A2B382A2A391F1E2E1D1C2AEA
:10491000221F292121271C191F1B182117152119B6
:1049200017251C1A251A19211E1E261F1F291F1F95
:104930002A1D1F2A1B1B271B1C2813141E0C0B12BD
:104940000A080E09070D0B0A0F0C0B130C0C140CA4
:104950000A120E0D1514151E1518231519240C0D09
:10496000140606090604060806080706090B080BC4
:104970000A070B04020501000304030609080C0DD5
:104980000C131311180C0A0D040204050306080782
:104990000909060A08050A0B090E4342452A282C74
:1049A00001000305030607050908040906030707B4
:1049B00004080604070401050503060706090A089A
:1049C0000C09070B0F0C11120F15110D15130F16F3
:1049D000110F15120E15140F17120E1515121917A7
:1049E000151B16131A18161D18171C1A181C191740
:1049F0001C19171D19181C1A171D19151B19161A21
:104A000019161C1A151C18141B18151919161B1722
:104A1000151C17141B18151919151B17141B161420
:104A20001B16151A17131817121717131917131A1D
:104A300016121A16121B1814181814161514181515
:104A40001218141014121015131117131016131135
:104A500015121116110F1611101514111515101528
:104A6000131016120F16120F14120F141310161221
:104A70000F15120E13120F11151113151416131111
:104A800016120F16130E15130D13100C13110F130E
:104A9000110F13100D130E0B120E0D120F0D120F1E
:104AA0000C0F100D10110E120E0D100C0B100B0B25
:104AB000100E0B0F110C10110C0F0F0B10100B120E
:104AC0000F0B100F0C1015111618151A5F5D686387
:104AD0005D68615D6A5F5D6A615D68605D695D5CBE
:104AE0006A5D5B675E5B655F5C665E5C675C5C66BF
:104AF0005F5C665E5C675D5C675F5B685E5A675EB5
:104B00005B675F5A67605967625C66625E67605E9A
:104B10006A625F6B625F6B64616D64616D63606C40
:104B200064606E65616E635F69605D675F5C655F51
:104B30005C645F5A625D59625C58605B575E5B56AD
:104B40005F5B555F5B545E585258564F55554D55F7
:104B5000544D55554D54544B55524A55534B54553D
:104B60004C55554D57554E5A58515D58515E5750FA
:104B70005E58525F59525F59536059525E5A535EA4
:104B80005A545F59545E5A54605E56635D57645B75
:104B900057635B56665B57675C5A675D5A695D5B36
:104BA0006D5C5A6D5C5A6D5F5F7360617A6566819A
:104BB0006A69856B6B86686A85676A85686A8668D4
:104BC0006C8A686D8E6970906B71916B70906A7071
:104BD000916A70916A72926B71946B73956C739613
:104BE0006B74976D769A6E769A6D769B6D769A6EEB
:104BF000799C717A9F7179A0717BA1707CA1707C86
:104C0000A1717DA4707DA5707EA6717FA87380AC14
:104C10007682B07886B47987B87D8CBD808FBE856A
:104C200096C08A9DC08FA1BF91A5C18FA0BF7E8B6A
:104C3000B1737CA06F77966B748F6A708C6B708A7F
:104C4000696E88676E85686D8466697F63677B655A
:104C5000687D66697F656A81666B83666C82656A5A
:104C60008164688063667E64657964647762647970
:104C70006367826B73A17986BF7181B5707EB37BE8
:104C80008AC27C8DC4798BC17A8BC07B8DC07C8DB0
:104C9000BF7C8EC07D90BF7D91C07C90C37D90C253
:104CA0007B8FC07C8DBD7C8DBF7A8DBD7B8EBC7AA9
:104CB0008DBB798DBB788BB9778BB9788AB8778AB9
:104CC000B5788BB7788CB97B8FBB7B8DB66B728ECA
:104CD0005A505A5E505556474D4C40434D414549F8
:104CE0003B3F46353A45393D473E414030373F2D01
:104CF0003344333845353D534852524A5539313A99
:104D00003836493A3B5039333E372D3321141B1A7C
:104D100010161B10121B10121A0F131B0F101A0E55
:104D20000F190C0E24151A352D3A2824332A253351
:104D300040415B3D44643A46673C44633238532CFF
:104D4000344E2D334E2E314E2F314C30344B3336C2
:104D50004D2C2A3B26212A1B181C161217140F143F
:104D60001612151F1C231F1F262C28313A364422E9
:104D70001F28100C1015101619131D18181F1F1EB0
:104D800024352F382B26311C1929191824130F1AF2
:104D90000F0B13160C151B131E262737474C614E9D
:104DA000506236303D342D38322C37332F39393577
:104DB000423E3C4B44435346455744405448435578
:104DC00045414F4642554441544241564B4B65473D
:104DD000475E37343E342C35342C33271E231E16C1
:104DE000191C15171B1517201D212A28303B3B477E
:104DF000474A574A4E5B575C6A5F6675555D6F5B05
:104E000060716F707C77757C78757C73707859579A
:104E10006442425045445241414D3C3C4A3B3D482E
:104E20003A38413C384439374334323F39353F46CC
:104E3000414C5B5865534E5E474656423F4F403F9C
:104E40004D3F3C4C3C3A493A364633303F34364687
:104E5000363444302E3D2E2C3B312E3E37354434F3
:104E60003040312E40323044312F412E2D3E2F2DF7
:104E70003F2E2C3C292A392D2F3D2E2D3B2F2C3C0B
:104E80003330433737472F303D38384640404D3474
:104E900033422E2C3E2C29362D2D3C3738493D3BB4
:104EA0004F3937493734452D2B3A1E1E2A1E1E29ED
:104EB00022222A1F1D251E1C24191A231718221E00
:104EC0001D292020291E1E241E1E251F1E282021CC
:104ED0002C1F1F2B1C1C251B1B26171724171722E2
:104EE00014131B0D0B1209090F09080E0B0A110EE2
:104EF0000E161011191316201418231517230F0E50
:104F00001808060A0604050705070404040906082C
:104F10000D090C0906090302040201030504070A2E
:104F2000080D151115100B0E0704060504070705DB
:104F30000907070C08080D1C1B1E403F41201E20BE
:104F4000030103050305080609070509050306040F
:104F5000040605020806020608060A100E14100EC2
:104F6000130D090F110D12110F121312161512162F
:104F7000131014121015130F1613101617141717F9
:104F8000141817151A1A181E19161C18161B17159F
:104F90001C15141C16141D19151C1A161D1B171D83
:104FA0001B161B19141A19161C1A171C16151A167B
:104FB000141917151917151917141718121718138C
:104FC0001A17151A1614171614181514191413187D
:104FD000151317171317171117171117161218167D
:104FE0001417151216151217161219151117131179
:104FF0001414111414101614131815121913111770
:10500000111115131015131017141116130F161272
:105010000E14130F13130E14151113171314141366
:1050200015130F16120E15120D13110F120F0E126B
:10503000100E12110C13110B12100B110D0C100E7F
:105040000C0F0E0C100E0D100D0C0E0C0B0C0D0C8D
:105050000E0F0C0E100C0F100C10100D12110D165F
:10506000110D1412101516141A1512175F5B6762D2
:105070005B68615B6A615B68615B67615C67615D1E
:1050800069605C695E5C67605C665E5C655E5C6412
:105090005E5B645C5B665B5B675D5A675D5A665E20
:1050A0005B64605A66615967635B67635E68615FF2
:1050B0006A615E6B625F6C64616D65616E63606B9B
:1050C00063616B655F6B625E69615D685F5C6660B2
:1050D0005B655F5B635E5A625C5A5F5D575E5B5502
:1050E0005E5C555E5B545A585157565057554E5852
:1050F000554C57544B55544A54534954544C565597
:105100004D55554E58554F5A58515C58515E575051
:105110005F57505E59525F58535F59535C5B535D04
:105120005B525E5A545E5B545F5D56635E56645CD0
:1051300056655C56655C57675C59675C5A695C5C90
:105140006C5C5B6C5D5B6D5F5E72606177656681F8
:10515000696985686A87676986676A85696B876731
:105160006B8A676F8F6970906B70916B70906B70CA
:10517000916B70916B71926A71936A73956B74966F
:105180006C75976D75996E76996E769A6D789C6F41
:10519000799D70799F6F7A9F6E7AA06E7AA0707CED
:1051A000A1717DA4717DA5727DA6727FA77380A970
:1051B0007581AD7785B27B87B68291BD8494BE83BD
:1051C00095C08899C08D9EC08DA0C08798BA747F05
:1051D000A370759470738D6B718A696F886A6E871E
:1051E0006A6E85686D83676B8065697D63677A65C4
:1051F000687C65697C63687E636981646B83646BCA
:1052000083646A8062667C63637963637861647ACD
:105210006366836D74A47684BD6E7CAD7080B17B53
:105220008BC47C8CC3798ABF798ABF7A8BBF7C8B15
:10523000C07C8DBF7D8FBE7C8FC17C8FC37D90C3B2
:105240007C8EC07C8DBE7C8EBE7C8EBF7B8EBD79FD
:105250008DBB788CBB778BBA778BB9778AB9778B14
:10526000B7788AB8788BB97A8DBC7D8CB66C718D25
:10527000584F585F4F5459484D4F42455245484C3E
:105280003D4347363C43353A44394046363E402B51
:1052900032402C34402F394D434F4C465538313E27
:1052A00039374A3A3A51383443362B352013181CD3
:1052B0000F141A0E111A10111A0F10190E11180DC1
:1052C0000E190C0E22151A352E3C2A27392E293A92
:1052D0004141593E44623845653A43623239522F62
:1052E000334C2D334E2E324C2F304A31324A323627
:1052F0004B2D293C231E2B1C1821141218120D13A0
:10530000110D1017161A1C1E232E2D353B38432461
:105310001E23130D0F150F1518141B18151C1A1426
:105320001C2C272E37313B2721301D1B2914121925
:105330001411161B171E1B161E1D1B262D2F3D3369
:1053400034452F2B38332E3A2F2B36332F393A361C
:10535000413D3A4A3E3D4E434256464357444052F1
:10536000403E4E444255444355424155494A6648A1
:10537000475D3A343D342C34332C32261F221F171C
:10538000191E17191D181A2220242B292E3D3F46BD
:105390004849584C4F60585B6B616576585F715B4C
:1053A00061726C6D7875737B7371786D6C7658591A
:1053B00066484754474552413B493E39463D3B4785
:1053C0003733403B36433B36443E3A463D3B4851FB
:1053D0004E5B5E5B685A5364504C5D464452444099
:1053E0004C38374632303F33304233304234334426
:1053F00032323E312F3B312F3C322F3D383544364F
:105400003344332F43302E412E2C3E2C2A3B333253
:10541000412E2C3C2B2A3D323243333141302D3E3C
:10542000302E4036354430303D3637443736443000
:105430002D3D312E3E2D29382D2A393534443F3E1D
:105440004D474554464252302E3F22222F23232AD5
:105450002322291F1A241E1A241918211A1A241F5C
:1054600020292120281D1E221B1C221E1E261F2033
:105470002A1B1A261919251717231918251F1E2A42
:10548000201F2817151E0F0E180B0A100C0B100CDE
:105490000D140E101811121C11141F1216201010CA
:1054A0001709070B0604040705060401040A070A86
:1054B0000E0B0E090708040205020104030205078A
:1054C0000508120E120E0C0F070506060407060744
:1054D0000907060A08070B3330343836381412131C
:1054E00005020406050809060B080509050205055D
:1054F000030607050908060A0A080E121117110FFC
:10550000140E0A0F100B100F0C1116151A16141882
:10551000141015120E14100E15131114161215185E
:10552000151819161B1A181C19151B171319161202
:105530001B14121A17141D19161D1A161D1A171EE0
:105540001A161D1A151B19151B19151B19141B19D1
:10555000151B19151B18141A1712181712171714E0
:105560001A161419151318161419171419161319D5
:1055700016121815121715131915131915131614D9
:1055800013151412151411151512171412181211DF
:1055900016131115151218151219131218131116C6
:1055A000121015121016120F1613101414101612D2
:1055B0000D15110E151310151511141713141411C0
:1055C00016110F15120E15110D130F0E100F0E11CF
:1055D0000F0C12100D13110C14100D130F0D110FD1
:1055E0000D100F0D110E0C100D0B0C0C0B0C0E0CE6
:1055F0000E0E0A0F0D0D110E0C110F0C12120F16BC
:10560000111116100E14100E150F0D125F5B675F4F
:105610005C695E5D6A5E5C69605C69615D68615C75
:10562000665E5C685E5B675F5A65605A655E5B6577
:105630005B58625B59635C5A665D59665D5A645E8D
:105640005A64605963615965635B68645E67625C54
:1056500068615F6B62606D645F6F655F6F645F6BF5
:10566000645D6A655F6C645F6B615D67605B665F0C
:105670005A66605B645F5A615D58605C585E5B5659
:105680005B5A535A595358565155555056574F57C0
:10569000564D56564D53564D52544B52544D5355EC
:1056A0004C55544E5756505B5A525D59525E5650A7
:1056B0005C55505B57515C59525E59535E58525D70
:1056C00058515C5A535E5B54615B57625C58655C31
:1056D00058655A56645A57675C5A6A5E5C6A5D5BE5
:1056E0006A5C5A6A5D5C6C5F5E6E60617463667E64
:1056F000686A83676A8566698465688166698367A5
:105700006B886A6F8F6A7090696F90696F906A7129
:10571000916A71916A72936B72946A72936A7194CE
:105720006C73956C75976C75996D779B6E769A6FA7
:10573000789B6E7A9C6E799D6F7A9F6E7BA1707C50
:10574000A2717CA2707EA3707EA47380A77481ABCB
:105750007581AB7883AF7C88B78492BD8998BE8809
:1057600098BF8B9AC0909EC08D9DBF8290B370777A
:10577000996F728F6E728B6A6F87696D856B6D849E
:105780006A6C83676A8066677E66667B65667A6335
:10579000657B63677D656A81666B82666A80636824
:1057A0007F63687E64677B6464786363765F627638
:1057B0006166816A73A1717FB66B79AB6F7EB27CD3
:1057C0008BC57C8DC47A8CC27B8DC17B8BC17A8B5F
:1057D000BF7A8CBE7C8FC07C90C17A90C37B90C214
:1057E0007A8EBE7A8DBD7C8DBD7B8DBD7A8DBE7A65
:1057F0008EBD798DBD788CBD778BBB7689B9768966
:10580000B7788AB87A8BB97B8DBC7D8DB66B6E8A82
:10581000574E565D505456494B4E41444F42454CAD
:105820004141443A3A3D32384338434B3A45412EA0
:10583000343D2D303F30384C4351524E624743592E
:1058400049496046485F414253382F3C2012181C9A
:105850000F101A0F11191012180F12170D13180C20
:1058600010190C0E23151B332C3C2623332B263505
:10587000403F563E456235405D363B573439542EE5
:10588000334E2E324C2E334A2E32482F3349303687
:105890004D2C2D4123212E191821130E16120D10F7
:1058A000130E10151315181A1D2E2F383A384227CB
:1058B0002125221B1D2925292C2B312F2C32312962
:1058C000302F2A33322D392C283328252F19181E32
:1058D0001816191B191F1C192119151B18171C2024
:1058E000202C2A2737302C372C2C34322D353A34C3
:1058F000423D394B3E3D4F4342574545574141514B
:10590000413F504140544241544242574B4B654AFB
:10591000475E39333C342C31352D312620231D167A
:10592000171D15161B1617282528322F323D3E4805
:1059300046485650505E5E606F60647456596D57AD
:105940005C6D6E6E7978767F75747B68677356567A
:1059500064484A5642414D3F3D4B3F3B483B3843EC
:1059600035343F3A36453E3A4745404A423F4C4D32
:105970004B5B4845554845554E4A5B504958514C3C
:10598000583B3A47333343353446363546302E3F5D
:10599000302F3E31313E32313F312F3D39364636A0
:1059A00033432F2D3F2E2A3E2E2A3C2A2838302FD3
:1059B0003E302F3D2E2D3E302F3F343342312F3F8E
:1059C000302D3E323041302E3E34334432303F2D84
:1059D0002A382F2C3B2E2B393530403F3E4D454445
:1059E000544E4C5A413F4E29263723212E22222B3A
:1059F000211F281F1B241D1A251715211C1B2620BB
:105A000020261D1D241A1A231C1C251D1F28191BA6
:105A100025191B26191B281517231C1D281D1E2898
:105A20001E1F281D1C26191A2515141C1110170ECF
:105A30000E1611111A13141F12152012162011130D
:105A40001B0C0A0E070506080607040204080608D0
:105A50000B080B09050807050804030404020405E4
:105A600002060C080E100D130B090D06050706059E
:105A7000090504080B090D454448302E3209070971
:105A80000806090A080C0C070D0B070B070408048D
:105A9000050707050909070B0B0A0E0E0E130F0E5B
:105AA000140F0C11110C12110E13141217131216DD
:105AB000110F16100F16121016141117120E1416BD
:105AC000121519171A19161B17151916151B171564
:105AD0001B15121717121919151C19161D19151C4B
