:020000040800F2
:10000000B896002095BA06083DB306083FB3060827
:1000100041B3060843B3060845B3060800000000D4
:10002000000000000000000000000000351C060871
:1000300047B3060800000000DD1B060849B30608A8
:1000400035BB060839BB06083DBB060841BB0608A0
:1000500045BB060849BB06084DBB060851BB060850
:1000600055BB060859BB06085DBB060861BB060800
:1000700065BB060869BB06086DBB060871BB0608B0
:1000800075BB060879BB06087DBB060881BB060860
:1000900085BB060889BB06088DBB060891BB060810
:1000A00095BB060899BB06089DBB0608A1BB0608C0
:1000B000A5BB0608A9BB0608ADBB0608B1BB060870
:1000C000B5BB0608B9BB0608BDBB0608C1BB060820
:1000D000C5BB0608C9BB0608CDBB0608D1BB0608D0
:1000E000D5BB0608D9BB0608DDBB0608E1BB060880
:1000F000E5BB0608E9BB0608EDBB0608F1BB060830
:1001000057B30608F5BB0608F9BB0608FDBB060891
:1001100001BC060805BC060809BC06080DBC06089B
:1001200011BC060815BC060819BC06081DBC06084B
:1001300021BC060825BC060829BC06082DBC0608FB
:1001400031BC060835BC060839BC06083DBC0608AB
:1001500041BC060845BC060849BC06084DBC06085B
:1001600051BC060855BC060859BC06085DBC06080B
:1001700061BC060865BC060869BC060800000000F2
:100180006DBC060871BC060875BC060879BC06087B
:100190007DBC060881BC060885BC060889BC06082B
:1001A0005DB3060861B3060869B3060800000000E5
:1001B000000000000000000000000000000000003F
:1001C000000000000000000000000000000000002F
:1001D000000000000000000000000000000000001F
:1001E000000000000000000000000000000000000F
:020000040805ED
:10FBA000000000000000000000000000A0AAAAAAB7
:10FBB000AAAA1AF0FFFFFFFFFF2FF0FFFFFFFFFFD2
:10FBC0002FF0FFFFFFFFFF2F0000000064672500FC
:10FBD000000000000010FAFFFFFF5C0000000000C2
:10FBE000E5FFFFFFFFFF0A00000030FFFFFFEDFF12
:10FBF000FFAF000000E1FFCF040071FFFF0600002F
:10FC0000F8FF0B000000F4FF0E0000FEFF010000F3
:10FC10000090FF6F0040FF9F0000000020FFBF002A
:10FC200090FF4F0000000000FDFF00C0FF1F00001C
:10FC3000000000FAFF03F0FF0E0000000000F7FFD5
:10FC400006F1FF0D0000000000F5FF08F2FF0C00B8
:10FC500000000000F4FF0AF4FF0B0000000000F3B6
:10FC6000FF0BF4FF0A0000000000F3FF0BF5FF0A92
:10FC70000000000000F2FF0CF5FF0A000000000089
:10FC8000F2FF0CF4FF0A0000000000F3FF0CF4FF89
:10FC90000A0000000000F3FF0BF3FF0B0000000060
:10FCA00000F4FF0AF1FF0C0000000000F5FF08F06F
:10FCB000FF0E0000000000F7FF06C0FF1F0000005D
:10FCC0000000FAFF0490FF4F0000000000FDFF005D
:10FCD00050FF9F0000000020FFCF0000FFFF010049
:10FCE000000090FF7F0000F9FF0B000000F4FF1FF1
:10FCF0000000E1FFBF030071FFFF07000040FFFFAE
:10FD0000FFEDFFFFBF00000000F5FFFFFFFFFF0B4F
:10FD10000000000020FAFFFFFF5C00000000000070
:10FD20000064672500000000000000E0FF03000001
:10FD300000000000F2FF03000000000000FBFF03D2
:10FD40000000000000C4FFFF03000000C6FEFFFF2C
:10FD5000FF03000000F9FFFFFFFF03000000F9FFB1
:10FD6000FFFFFF03000000000000F8FF0300000099
:10FD7000000000F8FF03000000000000F8FF03008F
:10FD80000000000000F8FF03000000000000F8FF82
:10FD900003000000000000F8FF0300000000000066
:10FDA000F8FF03000000000000F8FF03000000005F
:10FDB0000000F8FF03000000000000F8FF0300004F
:10FDC00000000000F8FF03000000000000F8FF033F
:10FDD000000000000000F8FF03000000000000F831
:10FDE000FF03000000000000F8FF03000000000017
:10FDF00000F8FF03000000000000F8FF030000000F
:10FE0000000000F8FF03000000000000F8FF0300FE
:10FE10000000000000F8FF04000000F9FFFFFFFFF2
:10FE2000FFFFFF02F9FFFFFFFFFFFFFF02F9FFFFE8
:10FE3000FFFFFFFFFF020000106477460100000093
:10FE40000094FEFFFFFFBF040000E1FFFFFFFFFF84
:10FE5000FFAF0000F2FFFFFFFFFFFFFF0C00F2FF0C
:10FE60008D140061FDFF8F00F23B00000000A0FF39
:10FE7000FF0051000000000000FEFF050000000030
:10FE8000000000F9FF0700000000000000F6FF0975
:10FE900000000000000000F6FF0800000000000065
:10FEA00000F8FF0700000000000000FCFF04000055
:10FEB0000000000020FFFF00000000000000A0FF85
:10FEC0009F00000000000000F5FF1F000000000080
:10FED0000020FFFF06000000000000D1FFAF00007F
:10FEE0000000000000FDFF0C000000000000C0FF4B
:10FEF000DF01000000000000FCFF1D00000000000A
:10FF000000C0FFDF01000000000010FCFF1C00002B
:10FF100000000000D2FFCF00000000000030FEFF14
:10FF20000B000000000000F4FFAF00000000000024
:10FF300060FFFF08000000000000F7FF6F000000F6
:10FF400000000000FDFF6B66666666666656FDFF94
:10FF5000FFFFFFFFFFFFFFDFFDFFFFFFFFFFFFFFD3
:10FF6000FFDFFDFFFFFFFFFFFFFFFFDF000000637C
:10FF70007756020000000083FDFFFFFFEF1900002D
:10FF8000B0FFFFFFFFFFFFFF0600E0FFFFFFFFFFE7
:10FF9000FFFF6F00E0FF9E150030F8FFFF01E05DFE
:10FFA0000000000030FFFF0750000000000000F7D5
:10FFB000FF0B00000000000000F3FF0C0000000039
:10FFC000000000F2FF0B00000000000000F5FF0839
:10FFD00000000000000000FCFF0100000000000025
:10FFE000A0FF7F00000000001073FEFF080000006B
:10FFF00000F0FFFFFF4C0000000000F0FFFF8F014A
:020000040806EC
:100000000000000000F0FFFFFFAF02000000005002
:100010006597FDFF4F0000000000000060FFFF0239
:1000200000000000000000F6FF0B000000000000D0
:1000300000E0FF1F00000000000000A0FF4F0000D4
:10004000000000000090FF6F000000000000009022
:10005000FF6F00000000000000C0FF4F0000000024
:10006000000000F1FF1F15000000000000FAFF0C67
:10007000FB180000000080FFFF04FBFF7B130072F1
:10008000FDFFBF00FBFFFFFFFFFFFFFF0D00F8FFBD
:10009000FFFFFFFFFFAF000010B7FFFFFFFFBF0331
:1000A000000000002065773600000000000000001E
:1000B000000000FCFF030000000000000000A0FFA3
:1000C000FF030000000000000000F7FFFF03000036
:1000D000000000000040FFFFFF03000000000000E0
:1000E00000E2FFFFFF0300000000000000FDEFFA48
:1000F000FF03000000000000A0FF3FF9FF03000025
:1001000000000000F8FF05F9FF03000000000050A8
:10011000FF8F00F9FF030000000000F2FF0B00F961
:10012000FF030000000010FDDF0000F9FF030000E6
:100130000000B0FF2E0000F9FF0300000000F9FFEF
:10014000040000F9FF0300000060FF7F000000F9D9
:10015000FF03000000F3FF0A000000F9FF030000A6
:1001600010FECF00000000F9FF030000C0FF1E00DA
:10017000000000F9FF030000F7FF0300000000F992
:10018000FF030000F89F3333333333FAFF35330175
:10019000F8FFFFFFFFFFFFFFFFFFFF08F8FFFFFF74
:1001A000FFFFFFFFFFFFFF08F8FFFFFFFFFFFFFF5D
:1001B000FFFFFF0800000000000000F9FF0300003F
:1001C00000000000000000F9FF0300000000000034
:1001D000000000F9FF03000000000000000000F92B
:1001E000FF03000000000000000000F9FF03000012
:1001F00000000000000000F9FF0300000000000004
:10020000000000F9FF03000000000000000000F9FA
:10021000FF03000010FFFFFFFFFFFFFFFF6F10FF56
:10022000FFFFFFFFFFFFFF6F10FFFFFFFFFFFFFF5D
:10023000FF6F10FFDF8888888888883810FFAF003C
:1002400000000000000010FFAF00000000000000F0
:1002500010FFAF0000000000000010FFAF00000022
:100260000000000010FFAF0000000000000010FFC1
:10027000AF0000000000000010FFAF000000000011
:10028000000010FFBF5445240000000010FFFFFFD6
:10029000FFFFCF07000010FFFFFFFFFFFFEF05008C
:1002A00010FFFFFFFFFFFFFF6F00106924011063C5
:1002B000FBFFFF0300000000000040FEFF0C0000F9
:1002C0000000000000F3FF2F00000000000000B05D
:1002D000FF6F0000000000000070FF7F00000000C2
:1002E00000000060FF9F0000000000000060FF8F22
:1002F0000000000000000090FF6F00000000000000
:1003000000E0FF2F12000000000000F7FF0DF529AC
:100310000000000060FFFF05F5FF7C130051FCFFAB
:10032000BF00F5FFFFFFFFFFFFFF1D00F4FFFFFF12
:10033000FFFFFFAF000010B7FFFFFFFFBF0400008B
:10034000000020657746000000000000000000204B
:1003500065773600000000000092FEFFFFFF0700F7
:1003600000000080FFFFFFFFFF0700000020FEFFEE
:10037000FFFFFFFF07000000E2FFFF5A01007305C7
:10038000000000FEFF2C0000000000000090FFBFF6
:100390000000000000000000F3FF1D00000000004E
:1003A000000000FAFF040000000000000000FFCF82
:1003B000000000000000000060FF6F00000000006F
:1003C000000000A0FF1F0010432300000000D0FF2A
:1003D0000E92FEFFFFBF040000F0FFADFFFFFFFF26
:1003E000FFBF0000F2FFFFFFFFFFFFFFFF1D00F355
:1003F000FFFF7C131052FCFFBF00F4FF4D00000014
:100400000080FFFF04F5FF0A0000000000FAFF0A69
:10041000F4FF0A0000000000F2FF0FF4FF0A0000E2
:10042000000000E0FF1FF3FF0B0000000000C0FF12
:100430003FF1FF0C0000000000B0FF3FE0FF0F00A5
:1004400000000000C0FF2FA0FF3F0000000000E000
:10045000FF0F50FFAF0000000000F3FF0C00FFFF94
:100460000300000000FAFF0600F7FF2E0000006006
:10047000FFEF0000D0FFEF060020F9FF4F00002043
:10048000FEFFFFCDFEFFFF06000000D2FFFFFFFFD3
:10049000FF4F0000000000E6FFFFFF9E010000008C
:1004A00000000052773600000000FFFFFFFFFFFF53
:1004B000FFFFFFEFFFFFFFFFFFFFFFFFFFEFFFFF6C
:1004C000FFFFFFFFFFFFFFEF878888888888888805
:1004D000FCEF0000000000000000FEDF0000000054
:1004E00000000070FF5F00000000000000F1FF0D41
:1004F00000000000000000F8FF0500000000000000
:1005000010FFDF0000000000000090FF5F0000000F
:1005100000000000F2FF0C00000000000000FAFFE5
:100520000400000000000030FFCF000000000000C9
:1005300000B0FF4F00000000000000F3FF0B0000C0
:100540000000000000FCFF0300000000000040FF6E
:10055000BF00000000000000D0FF3F0000000000CE
:100560000000F5FF0A00000000000000FDFF02008F
:10057000000000000060FFAF00000000000000E08D
:10058000FF2F00000000000000F7FF09000000003E
:10059000000010FEFF0100000000000080FF9F002F
:1005A000000000000000F1FF1F000000000000003C
:1005B000F9FF0800000000000020FFFF010000001C
:1005C000000000A0FF8F00000000000000F2FF1FED
:1005D00000000000000000000010647736000000FA
:1005E00000000050FCFFFFFF9F0200000010FBFF17
:1005F000FFFFFFFF7F000000D1FFFF8C87FAFFFFA6
:10060000080000FBFF2C000000F8FF4F0030FFDF68
:100610000000000070FFCF0090FF5F0000000000AE
:10062000FEFF01B0FF2F0000000000FAFF03C0FF33
:100630002F0000000000F9FF03B0FF7F0000000062
:1006400000FBFF0170FFEF0200000000FFCF001071
:10065000FFFF4E00000060FF5F0000F5FFFF3B0062
:1006600000F3FF0A000050FFFFFF7C41FFBF0000C6
:100670000000B2FFFFFFFFEF0700000000D4FFFF04
:10068000FFFFDF0400000090FF6F61FCFFFFBF0170
:100690000000FAFF040020E8FFFF2E0060FF7F004B
:1006A000000000F8FFDF00E0FF0E0000000040FF48
:1006B000FF06F4FF090000000000F8FF0CF8FF0639
:1006C0000000000000F2FF0FF9FF0500000000002D
:1006D000F0FF0FF8FF070000000000F0FF0FF6FF2B
:1006E0000B0000000000F2FF0CF2FF2F00000000E2
:1006F00000F8FF08B0FFDF0100000030FFFF01201D
:10070000FFFF4D000000F6FF6F0000F4FFFF9D8823
:10071000EAFFFF08000040FEFFFFFFFFFF6F000041
:10072000000070FDFFFFFF8E01000000000010655B
:10073000772500000000000000106567040000003D
:1007400000000040FCFFFFFF2A0000000010FBFF3C
:10075000FFFFFFFF07000000D1FFFFDFECFFFF9F5F
:10076000000000FCFF5E0000A2FFFF050070FFDF3D
:1007700001000000F8FF0F00E0FF2F00000000B0B4
:10078000FF7F00F4FF0B0000000030FFEF00F8FFD8
:10079000060000000000FCFF02FAFF040000000059
:1007A00000F8FF06FCFF030000000000F5FF09FB56
:1007B000FF030000000000F3FF0AFAFF050000003D
:1007C0000000F2FF0BF8FF090000000000F2FF0C30
:1007D000F3FF2F0000000000F3FF0CD0FFDF02004A
:1007E000000010F9FF0B30FFFF8F130052FAFFFFDC
:1007F0000A00F6FFFFFFFFFFFFFFFF090050FEFFAB
:10080000FFFFFFDFF9FF07000081FEFFFFBF05F7D5
:10081000FF040000001043230000F9FF0100000066
:100820000000000000FEDF000000000000000040AB
:10083000FF7F0000000000000000B0FF1F0000006C
:100840000000000000F6FF0A000000000000003079
:10085000FFFF0100000000000000F6FF6F00000035
:1008600090140030D7FFFF09000000F0FFFFFFFFEA
:10087000FF9F00000000F0FFFFFFFFEF04000000FB
:1008800000F0FFFFFFCF0600000000002075774654
:10089000000000000000F3FF6FF3FF6FF3FF6FF342
:1008A000FF6FF3FF6FB2BB4B0000000000000000C1
:1008B0000000000000000000000000000000000038
:1008C000000000000000B2BB4BF3FF6FF3FF6FF3BB
:1008D000FF6FF3FF6FF3FF6F0000000040763500FD
:1008E000000000407646000000F6FF0481FEFFFF96
:1008F0003C000092FFFFFF6E0000F6FF54FEFFFF7A
:10090000FFFF0570FFFFFFFFFF0800F6FFFCFFFF82
:10091000FFFFFF2FFBFFFFFFFFFF3F00F6FFFFCFB3
:100920003631E7FFFFFFCF3621E6FFBF00F6FFDFDE
:1009300004000030FFFFDF05000020FFFF01F6FF8D
:100940000A00000000FBFF0A00000000FAFF04F6A6
:10095000FF0400000000F7FF0400000000F6FF069F
:10096000F6FF0400000000F6FF0500000000F5FFA0
:1009700006F6FF0400000000F5FF0500000000F48B
:10098000FF07F6FF0400000000F4FF06000000006F
:10099000F3FF07F6FF0400000000F4FF060000006C
:1009A00000F3FF07F6FF0400000000F4FF0600005C
:1009B0000000F3FF07F6FF0400000000F4FF06004C
:1009C000000000F3FF07F6FF0400000000F4FF063C
:1009D00000000000F3FF07F6FF0400000000F4FF32
:1009E0000600000000F3FF07F6FF0400000000F41B
:1009F000FF0600000000F3FF07F6FF040000000000
:100A0000F4FF0600000000F3FF07F6FF04000000FB
:100A100000F4FF0600000000F3FF07F6FF040000EB
:100A20000000F4FF0600000000F3FF07F6FF0400DB
:100A3000000000F4FF0600000000F3FF07F6FF04CB
:100A400000000000F4FF0600000000F3FF07F6FFBF
:100A50000400000000F4FF0600000000F3FF0700A0
:100A6000000000407636000000F6FF0491FFFFFF13
:100A70006E0000F6FF74FFFFFFFFFF0A00F6FFFDA8
:100A8000FFFFFFFFFF9F00F6FFFFBF3631E6FFFFCE
:100A900003F6FFCF03000000FCFF0BF6FF08000089
:100AA0000000F1FF1FF6FF040000000090FF5FF65A
:100AB000FF040000000050FF8FF6FF04000000005C
:100AC00020FFAFF6FF040000000000FFBFF6FF04A8
:100AD0000000000000FFCFF6FF040000000000FF50
:100AE000CFF6FF040000000000FFAFF6FF04000097
:100AF000000030FF9FF6FF040000000060FF5FF67B
:100B0000FF0400000000C0FF1FF6FF04000000000B
:100B1000F5FF0BF6FF0400000030FEFF03F6FF9F19
:100B2000040020F8FF9F00F6FFFFFFEEFFFFFF0C21
:100B300000F6FFFFFFFFFFFFBF0000F6FF85FEFF8F
:100B4000FFDF050000F6FF0430765702000000F6D4
:100B5000FF0400000000000000F6FF040000000099
:100B6000000000F6FF0400000000000000F6FF0493
:100B700000000000000000F6FF040000000000007C
:100B800000F6FF0400000000000000F6FF04000073
:100B90000000000000F5FF4F0000000000F3FF2FF1
:100BA00090FFEF0100000000FDFF0500FCFF0B00BF
:100BB0000000A0FF8F0000F2FF7F000000F6FF0B97
:100BC000000050FFFF030020FFDF01000000F8FFDE
:100BD0001E00D0FF2F00000000C0FFAF00FAFF058D
:100BE0000000000010FEFF56FF8F00000000000014
:100BF000F4FFFFFF0B00000000000070FFFFEF019B
:100C000000000000000000FBFF3F000000000000AB
:100C10000000FAFF6F0000000000000070FFFFFFFF
:100C200003000000000000F3FFFDFF1E00000000B5
:100C30000010FEEF91FFBF0000000000C0FF4F005A
:100C4000FDFF0800000000F8FF0800F2FF4F000061
:100C50000050FFCF000060FFEF010000F2FF1E0018
:100C60000000FBFF0C0000FDFF04000000E1FF9FFF
:100C700000A0FF8F0000000030FFFF05F7FF0C0011
:100C800000000000F7FF2F002DE9F8430646174645
:100C900084B088469946B80000F068FC05001AD078
:100CA000582000F063FC040012D00D990C982563C5
:100CB000002203920191009002944B463A4641462D
:100CC000304600F00DF8204600F04EF8012004E018
:100CD000284600F0D6FC4FF0FF3005B0BDE8F083A9
:100CE0002DE9F0470A9D81460C461646286B98462A
:100CF000A522B10000F016FD296B01EB8602101F42
:100D0000C0084FEAC00A0021625C6B1883F83420E7
:100D1000605C10B1491C1029F6D3089E002085F8AC
:100D20004300062E099C88BF062605F14407EE62A3
:100D30003E607860C6F10706281D00F01DFD05F134
:100D4000180000F019FD2D61AE616D620020B860E1
:100D5000F860387442464946504600F049FD286024
:100D600004B12560BDE8F0872DE9F04100F062F89C
:100D7000DFF84857DFF85487E86C401CE864142615
:100D8000A86A28BBAC62E86C012829D1002706FBC1
:100D900007F0404400F0E3FC7F1C072FF7D305F178
:100DA000740000F0DCFC05F18807384600F0D7FC41
:100DB000284600F0D4FC05F1140000F0D0FC05F149
:100DC000380000F0CCFC05F17400E8622F6307E006
:100DD000A86D28B9E06AA96ACA6A904228BFAC62C5
:100DE000A86E401CA86600F04EFB4643211D08EB90
:100DF000060000F0C4FC00F088FDA86D08B100F00A
:100E00006AFBBDE8F08180B588B1DFF8B026116FCC
:100E100021B100F012F800F0F4F9FEE7116F491C5F
:100E20001167002100F065FB00F056F808B900F0EA
:100E3000E3F901BD044600F04FBD502080F3118856
:100E40007047211D14204243981870473EB5DFF8C3
:100E500004470FF2107104F19C00019000250095E9
:100E6000002380220FF2B130FFF70EFF502101283E
:100E70000ED181F3118800F0C4F94FF0FF30E06625
:100E80000121A1652565BDE8374000F0D3BC37BD21
:100E900010F1010FFBD181F3118800F0B2F9FEE7E8
:100EA000DFF8B006016F491C01677047DFF80C26B8
:100EB000506D936A00210128D86A88BF012128B9A2
:100EC000DFF894060368012B00D809B100207047B1
:100ED000D16E106D081A704770B5DFF8E065306F9D
:100EE0000024002500F0FFF800F0F6FC306F401EF3
:100EF0003067306F002836D1F06CD8B933E0F06835
:100F0000C46800F031F800F033FAE06A716DDFF880
:100F10004836012282401143716514225043211D3D
:100F2000184400F02CFCE06AB16ACA6A904224BFFF
:100F30000121316630680028E1D10CB100F0C1F91F
:100F4000F46D3CB100F027F808B101203066641E52
:100F5000F8D1F565306E30B1DFF8F4154FF0805000
:100F6000012500F04DF9ABE204F1180000F02DBCB2
:100F7000DFF8E015CA6E0B6DC3189A4207D25020F5
:100F800080F31188BFF34F8FBFF36F8FFEE70A6DB9
:100F90008018086570472DE9F843DFF82075386F31
:100FA000002600284FD13C6D641C3C6511D1F86AC5
:100FB000006828B1502181F3118800F022F9FEE782
:100FC000F86A396BF9623863786E401C786600F015
:100FD00078F9F86EDFF8809584424FF0140825D335
:100FE0001AE0281D00F0F1FBA86A18B105F11800FD
:100FF00000F0EBFBE86A796D0122824011437965CC
:1010000008FB00F0291D484400F0B9FBE86AB96A02
:10101000CA6A904228BF0126F86A006880B1F86A5F
:10102000C168CD6868688442DBD2F866B86AC06A75
:1010300008FB00F059F80010022907D3012605E04B
:101040004FF0FF30F1E7F86D401CF865386E00B1E5
:1010500001263DE238B504000D4604BFDFF85C040C
:10106000846A00F039FCE564BDE8314000F04DBC15
:1010700010B5DFF84844206F10B10121216610BD82
:101080002066A16A086B0268B2F1A53F04BF4168FF
:10109000B1F1A53F07D18168B1F1A53F04BFC06898
:1010A000B0F1A53F05D0A06A00F13401A06A00F0BC
:1010B00063FD606DB0FA80F2C2F11F0214214A4351
:1010C000DFF89414885800F00EF8881800F1080230
:1010D000416849684160914204BF49684160406885
:1010E000C168A16210BD38B9502181F31188BFF3E6
:1010F0004F8FBFF36F8FFEE7704710B50C4620B9D6
:10110000FFF79BFE00F07DF8FEE7DFF8B023936A5F
:1011100003F1180100F040FB2046BDE81040FFE756
:101120000121E6E138B5C068C46824B9FFF785FE3F
:1011300000F067F8FEE7FFF717FFDFF88053286F2E
:1011400060B900F015F9E26A686DDFF80C3401212E
:10115000914008436865FFF774FE02E004F118014E
:10116000284600F00CFB00F008F83ABF01242C667A
:10117000002400F0A6F8204632BDA86AC16AE06AE1
:1011800081427047DFF8CC134A6E0260096D4160FE
:101190007047F8B504460D46502024B980F31188F5
:1011A00000F02FF8FEE725B980F3118800F029F848
:1011B000FEE700F091FBDFF89C03016D62682E688A
:1011C0008B1A16F1010F0ED0476ED4F800C0674598
:1011D00001D091420BD2B34207D2F31A2B60416E79
:1011E0002160006D6060002402E00020286001247E
:1011F00000F08BFB2046F2BDDFF854134FF0805017
:101200000860BFF34F8FBFF36F8F7047DFF8441351
:10121000012008667047000070B5AC4CA74D11E086
:1012200000F05AFB286AC668301D00F0CEFAE86C60
:10123000401EE864686B401E686300F066FB304641
:1012400000F035F8686B0028EAD12168012901D93E
:10125000FFF7D2FF00F092FCFFF728FE0128F1D93A
:10126000286F401C2867E86E296D884208D3FFF775
:101270001DFE012888BF00F0A1FBFFF72DFEE1E76E
:10128000FFF7DBFDFFF7BDFFFEE7DFF8C8221168BF
:101290000120002904BF116E002901D000207047F1
:1012A000916BD26C521E914208BF0220704710B55C
:1012B0000446206B00F0E5F92046BDE8104000F040
:1012C000E0B97E49C86A006810B94FF0FF3203E008
:1012D000C86AC268D0684268CA667047DFF874128C
:1012E000886D08B901207047086F08B9022070475F
:1012F000002070472DE9F04104460020002C35D035
:101300006E4DE16AAA6AD36A994229D2A06900287F
:1013100004D4A86AC16AC1F10701A1611427E16A76
:10132000DFF83482606979434144884214D100F087
:101330001FF80126002801BFE16A07FB01F258F8F7
:101340000200002800F057F8A86AC06AE0628640F0
:10135000696D00F048F808E0A86AC16AE16204E03B
:10136000616CAA6AD36A994200D20120BDE8F0817B
:10137000201D00F02ABA2DE9F04104460021002C7E
:101380002ED04E4DA86A5022844204D082F3118898
:10139000FFF737FFFEE7A06C00F07CF8E26A636CB1
:1013A000401E9A42A0641BD0D0B9FFF7E1FF01268E
:1013B0001427DFF8A481002801BFE16A07FB01F2CE
:1013C00058F80200002800F016F8606CE062C0F1E6
:1013D0000700A061E06A696D864000F004F8012111
:1013E0000846BDE8F0810E4347436E65211D08EBBA
:1013F000070000F0C4B905D1686D06FA01F120EAD2
:10140000010169657047F8B504003BD0A06C50221B
:1014100000F040F8636C994238BF1946E36A8B428A
:1014200030D001282ED1254DA86A844204D182F300
:101430001188FFF7E6FEFEE7A069DFF81C61E162B4
:1014400000285CBFC1F10701A161142761697B43DA
:10145000F218914216D1FFF78BFF002801BFE16A15
:1014600007FB01F2B058002806D1686D012202FA8C
:1014700001F120EA0101696500F005F84743211DEB
:10148000F0196BE0F1BD0122E06A696D8240114301
:101490006965704730B982F31188BFF34F8FBFF38E
:1014A0006F8FFEE77047DFF8AC10886A18B1886A62
:1014B000826C521C8264886A70470000008F002092
:1014C00000F023FA284670BD00000000A08F002025
:1014D0003046BDE8F283A86AC16AE06A814207D259
:1014E0001B4A4FF080511160BFF34F8FBFF36F8FD6
:1014F0007047F8B5174D2F6D0C46A96A0646081DB2
:1015000000F063F930B9A86A696DC06A01228240AF
:101510009143696516F1010F05D124B1A86A011D37
:1015200005F138001AE0A86AF6194660BE42A86ABA
:1015300005D2011D286BBDE8F44000F02DB9011D56
:10154000E86A00F029F9E86E864238BFEE66F1BD20
:1015500004ED00E0008F0020A08F0020BDE8F440E3
:1015600000F00DB949444C45000000002DE9F04160
:101570000446FFF795FC6A4EB068002508BB06F1EB
:10158000180306F1180113F0070F4FF400400A4644
:1015900005D0CA1DD208D200C2F500400818801834
:1015A0000838C008C00032607560B06045600560F2
:1015B000831A5360106050683061F0604FF0004053
:1015C00070614FF050087069044232D18CB3083416
:1015D00014F0070F1FBF04F1080004F00704041BF8
:1015E00014F0070F02D000F045F8FEE70CB3F068E6
:1015F000A0421ED3376831467868A04227D23868A7
:1016000000281CBF39460746F6D120E0381D02519C
:101610007C60084600F05FF87968F0683269401A2B
:10162000F060904238BF30617069014379600021F9
:101630003960FFF751FC0DB900F09FFA15F0070073
:1016400002D000F017F8FEE72846BDE8F081B06848
:101650008742EED00A683868086002F108057A68A7
:10166000121B112AD8D3391911F00700CED000F07F
:1016700001F8FEE788F31188BFF34F8FBFF36F8F38
:101680007047002800D1704738B5A0F10804244DF8
:1016900061686A695023114202D100F015F8FEE733
:1016A000206810B100F010F8FEE791436160FFF789
:1016B000F7FBE96860684118E960204600F00BF824
:1016C000BDE83140FFF708BC83F31188BFF34F8FAB
:1016D000BFF36F8F704730B511490A4600E01A46D4
:1016E00013688342FBD35368D418844203D1406803
:1016F000C3185360104643681468C518A54208D142
:1017000089688C4204D06168CB184360246800E08B
:101710000C460460824218BF106030BD000000001B
:10172000080B002062F30F2262F31F4200B500BFD6
:10173000130096469446103928BFA0E80C50FAD8FA
:101740005FEA417C28BF0CC048BF40F8042BC907A2
:1017500028BF20F8022B48BF00F8012B00BD4FF036
:10176000FF3200F1080182604160C16000F10802AF
:10177000026100210160704700210161704710B5CE
:1017800042684A6093688B60946861609160086108
:101790000168491C016010BD30B50A6812F1010FE3
:1017A00008BF036907D000F1080300E023465C6826
:1017B0002568AA42FAD25A684A6091608B605960E3
:1017C00008610168491C016030BD43680169826895
:1017D0009A60836842685A604A68824204BF83689C
:1017E0004B60002202610868401E0860086870476C
:1017F000490810B54900A0F120034FF080749961A9
:101800001A60DC616FF002020FF20D01596140F8BD
:10181000242D203810BD00005B494A68502012F189
:10182000010F80F31188BFF34F8FBFF36F8F00D08C
:10183000FEE7FEE77CB5554A554B106850219842AB
:1018400002D100F0B3F8FEE71068524B984202D183
:1018500000F0ACF8FEE7504B1C780194FF251D709A
:1018600007251E78484C8DF800609DF80000A560A3
:1018700000F05000207006E0401EA0609DF80000BF
:1018800040008DF80000A0689DF800502E06F3D4AB
:10189000C0F10705042D02D000F088F8FEE7000231
:1018A00000F4E060A06001981870116A41F47001C2
:1018B0001162106A40F07040106200F06BF9002075
:1018C000606000F0D5F93548016841F040410160A1
:1018D00000F0BEF9002076BD502080F31188BFF3E0
:1018E0004F8FBFF36F8F28494A68521C012A4A6004
:1018F0000AD12B490A68130606D080F31188BFF37A
:101900004F8FBFF36F8FFEE770471F49486838B9A4
:10191000502080F31188BFF34F8FBFF36F8FFEE726
:10192000401E486008BF80F31188704780B5502082
:1019300080F31188BFF34F8FBFF36F8FFFF72BFB3F
:1019400018B117494FF080500860002282F31188C7
:1019500001BD000010B5EFF30580502110280A4AA0
:1019600007D3104B185C1478A04202D200F01EF886
:10197000FEE790680C4A136803F4E063984202D2D1
:1019800000F014F8FEE710BDCC0A002000ED00E0E6
:1019900071C20F4170C20F4100E400E034EF00E07B
:1019A00004ED00E0F0E300E00CED00E081F31188CD
:1019B000BFF34F8FBFF36F8F7047000071B581B0D9
:1019C000364C01996068364D884238BF01902868CE
:1019D000400840002860A96801982668401E00FB66
:1019E0000616A068B04238BF361A72B6BFF34F8FE2
:1019F000BFF36F8FFFF749FC30B9A86868602968AA
:101A000041F00101296044E06E600020A86029686F
:101A100041F00101296001980090684600F036F914
:101A2000009820B1BFF34F8F30BFBFF36F8F01A875
:101A300000F02DF962B6BFF34F8FBFF36F8F72B610
:101A4000BFF34F8FBFF36F8F0620286021682A688D
:101A5000D0030CD54A1EA868A368961B86199E421F
:101A60002CBFB14216466E600198401E09E00198F5
:101A7000AA684843821AB2FBF1F0431C5943891A01
:101A800069600021A9602A6842F001022A60FFF71C
:101A90006FFA2068401E686062B673BD58920020DD
:101AA00010E000E010B503220021012000F02CF925
:101AB000344C206020B100230022002100F053F9B3
:101AC00000220121012000F01FF9606010BD2D48A7
:101AD00000684FF0FF3100F0E8BA2A4800680023A0
:101AE0000022002100F03FB926480068002100F0E4
:101AF000DCBA80B5002000906946224A106800F0E8
:101B00000FFA00F011F801BD1E494868002800D105
:101B100070471CB50024009400236A46083100F089
:101B2000BAF900F001F813BD009838B116484FF02B
:101B300080510160BFF34F8FBFF36F8F704710B5B7
:101B4000104C6068002204F1080100F02BFA606874
:101B500004F10801BDE810404FF0FF3200F022BA56
:101B600080B50A490A68002814BF012100211046E7
:101B700000F036FE012002BDFEE7FEE7044900202A
:101B8000FFF768BAC00A002004ED00E0549200207C
:101B9000611B06080E4801684FF47A72B1FBF2F13E
:101BA0000C4A11606FF07F43B3FBF1F32D2191607C
:101BB0005360002208490A608A604FF47A72006814
:101BC000B0FBF2F2521E4A6007200860704700BF67
:101BD000E40A00205892002010E000E0EFF30980B2
:101BE000BFF36F8F264B1A681EF0100F08BF20ED51
:101BF000108A20E9F04F106009B44FF0500080F3D4
:101C00001188BFF34F8FBFF36F8FFFF731FA4FF09B
:101C1000000080F3118809BC19680868B0E8F04F2B
:101C20001EF0100F08BFB0EC108A80F30988BFF3D4
:101C30006F8F7047124B19680868B0E8F04F80F357
:101C40000988BFF36F8F4FF0000080F31188704751
:101C50000C480068006880F308884FF0000080F3AB
:101C6000148862B661B6BFF34F8FBFF36F8F00DF8A
:101C7000DFF81400016841F4700101607047000052
:101C8000288F002008ED00E088ED00E070477047E5
:101C900038B504000D4602D100F05DF8FEE7FFF70D
:101CA0001BFEE26B206C21684243881860600021B3
:101CB000A1632068E26BA060521E206C2168424341
:101CC0008818E0604FF0FF3104F14400017041706A
:101CD00075B92069A0B104F11000FFF723FA78B1BB
:101CE000DFF8B0164FF08050086000F088FA07E087
:101CF00004F11000FFF733FD04F12400FFF72FFD7E
:101D0000FFF703FE012032BDF8B506000D46174669
:101D100002D100F020F8FEE7002D0EBF482005FBA1
:101D200006F04830FFF722FC040007D000943B4641
:101D300004F148022946304600F002F82046F2BD80
:101D400082B0029B01B91A461A60D863196418461A
:101D5000012102B09CE7502080F31188BFF34F8F20
:101D6000BFF36F8F70472DE9F64782B004461E46D9
:101D7000502714B900F041FAFEE75FEA010A01D1E9
:101D8000206C70B9022E02D1E06B01280CD1FFF754
:101D9000A5FA00285ED1039800285BD000F02DFA48
:101DA000FEE700F02AFAFEE700F027FAFEE70399C3
:101DB00007F11000FFF7A1F9384600F0AEFAFFF77F
:101DC0008BF818B9C8F8009000F019FAFFF784FDF5
:101DD000B86BF96B884242D3022E40D0039800289A
:101DE00035D014B900F004FA0124FFF78EFDFFF797
:101DF00057F8FFF771FD07F1440000F0EAF904BF5E
:101E00000022027000F0EAF904BF00224270FFF7DE
:101E10007CFD00F03CF888BBFFF75EFDB86BF96B0A
:101E2000884214BF00250125FFF76FFD002DBED1AC
:101E3000384600F072FAFFF74FF8C7E718B1C8F854
:101E4000009000F0DCF9FFF760FD01201CE0FFF7D7
:101E50005CFD18E02746002400F022F9B6E7324680
:101E60005146384600F011FA796A0029E6D007F1A8
:101E70002400FFF757F90028E1D1E4E7384600F0E5
:101E80004CFAFFF729F8002004B0BDE8F08703A959
:101E90006846FFF77EB92DE9F843044688461546A3
:101EA0001E46502714B900F0A8F9FEE7B8F1000F5C
:101EB00001D1206C20BB022E02D1E06B012822D17F
:101EC000FFF748FDEFF3118900F062F801D3022E0D
:101ED00021D194F9457032464146204600F0D5F9AB
:101EE00017F1010F12D1606A98B104F12400FFF7D5
:101EF00019F9002818BF002D0BD00120286008E038
:101F000000F07BF9FEE700F078F9FEE77F1C84F82B
:101F10004570012000E0002089F31188BDE8F283BC
:101F2000F8B504460D46502714B900F066F9FEE7EF
:101F3000206C10B100F061F9FEE7206808B9606814
:101F4000D0B9FFF707FDEFF3118600F021F81BD29F
:101F500094F94510401C11F1010FA0630FD1606A84
:101F600080B104F12400FFF7DDF8002818BF002D30
:101F700008D00120286005E000F03FF9FEE7491C89
:101F800084F84510012000E0002086F31188F2BD9E
:101F900087F31188BFF34F8FBFF36F8FA06BE16B97
:101FA000884270472DE9F74306460F460024502526
:101FB00026B985F3118800F022F9FEE70FB9306CDD
:101FC00048B9FFF78BF978B9029868B185F31188A1
:101FD00000F015F9FEE785F3118800F010F9FEE72F
:101FE00000F009F9FEF778FFFFF776FCB56B00F01B
:101FF00057F825B90298B8B9FFF787FC4DE0394684
:10200000304600F076F96D1EB563306940B106F1D7
:102010001000FFF787F818B1C8F8009000F0EFF84B
:10202000FFF773FC012039E014B900F0E1F8012456
:10203000FFF76BFCFEF734FFFFF74EFC06F14400A0
:10204000415711F1010F04BF0022027000F0C6F8E1
:1020500004BF00224270FFF758FC02A9FFF718FFE7
:102060000028304610D100F08AF90028B8D000F0DE
:10207000BAF800F0C0F8FEF72FFF0028B4D1C8F876
:10208000009000F0BCF8AFE700F047F9FEF724FF3E
:10209000304600F074F90028A6D00020BDE8FE8389
:1020A000DFF8F0824FF0805970472DE9F24382B09B
:1020B000064600240025502716B900F09EF8FEE7DA
:1020C000306C10B100F099F8FEE7FFF707F940B95E
:1020D000029830B100F091F8FEE700F08CF8FEF7BE
:1020E000FBFEFFF7F9FBB06BFFF7DAFF30B90298A0
:1020F000D0B9002D68D000F080F8FEE7401EB06334
:10210000306810B9FFF7CFF97060306940B106F15F
:102110001000FFF707F818B1C8F8009000F06FF84A
:10212000FFF7F3FB012052E014B900F061F801243D
:10213000FFF7EBFBFEF7B4FEFFF7CEFB06F1440022
:1021400000F047F804BF0022027000F047F804BF17
:1021500000224270FFF7D9FB02A9FFF799FE002881
:1021600030461AD100F00BF90028B6D0306838B9E3
:10217000FFF7B2FB7068FFF7BDF80546FFF7C5FB38
:1021800000F031F800F037F8FEF7A6FE0028A8D1DD
:10219000C8F8009000F033F8A3E700F0BEF8FEF7AF
:1021A0009BFE304600F0EBF800289AD075B1FFF79F
:1021B00093FB706A00281DBF306B0168C1F10701F5
:1021C00000217068FFF71FF9FFF79FFB0020BDE8B3
:1021D000FE8390F9001011F1010F704790F9011082
:1021E00011F1010F7047029906F12400FEF785BF37
:1021F0006846FEF7C7BF30468FE087F31188BFF30C
:102200004F8FBFF36F8F70472DE9F84304460F4699
:102210001546502624B986F31188FFF7F0FFFEE734
:102220000FB9206C70B9FFF795FBEFF3118886F3B7
:102230001188FFF7E4FFA66B4EB9002088F31188E0
:10224000BDE8F28386F31188FFF7D9FFFEE794F922
:1022500044903946204600F04CF8761E19F1010FE3
:10226000A6630CD1206970B104F11000FEF75AFF8B
:10227000002818BF002D06D00120286003E009F1D6
:10228000010084F844000120D8E7F8B50646154659
:10229000B46B326C002742B9306830BB7068FFF70E
:1022A0006AF80021074671601FE065B9B06800F068
:1022B000AFFAB068316C726808449042B06014D3D1
:1022C0003068B06011E0F06800F0A2FA306CF1689C
:1022D00040420144F1603268914202D27168084480
:1022E000F060022D01D104B1641E641CB463384651
:1022F000F2BD026C002A0B4600D1704710B5C168D0
:1023000044681144C160A14224BF0168C160C16832
:10231000BDE81040184600F07BBAF8B50546FFF757
:10232000DBFA05F1440494F9016070B2012815DB71
:10233000686A98B105F12400FEF7F4FE08B1FEF7D3
:1023400065FF761EF1E72869A0B105F11000FEF7E0
:10235000E9FE08B1FEF75AFF7F1E08E04FF0FF3696
:102360006670FFF7D2FAFFF7B7FA94F9007078B207
:102370000128E8DA2670BDE8F140FFF7C6BA10B5CB
:102380000446FFF7A9FAA06B441EA441FFF7BDFA6B
:10239000E00F10BD04ED00E010B50446FFF782FB2E
:1023A00060680168CA689047E06801688A68904779
:1023B0002268116E2046BDE81040084710B504465B
:1023C0002168CA6E90472268516E20468847FFF701
:1023D000B6FB2168CA6D20469047F8E770B5044601
:1023E00084B02168D1F888209047002800F0A180AF
:1023F000012000F061FA04F1480504F14606A87BCB
:10240000E8730020A8737070687F30B12168D1F83C
:102410009C20204690470020687730786168DFF87C
:10242000E462401E8041C00F48720120307000F00D
:10243000A5FA01210268136B9847E87B08B90121CE
:10244000E97300F09BFA01684A69904728680168BF
:102450000A699047E87B411E287CE97300281CBF6D
:10246000C9B20029EDD17078401C707040B295F966
:102470000C10884216DB0020707001AAE068036827
:10248000DE6802A9B04738B12368019A0299D3F8EF
:1024900094602046B04705E0216801F1940220468F
:1024A0005368984700208DF80000606950B10268B9
:1024B000D3686946984728B1286802689DF80010DB
:1024C000D368984704F1180000F024FD287D50B32C
:1024D000206901680A6990470646A86900B9AE619B
:1024E000A869DFF82412301A88421CD320690168D9
:1024F0008A699047A969DFF81432711AA1FB033287
:102500009209B0FBF2F00128B8BF642004DB642814
:10251000ACBF0020C0F1640068730021206902682C
:10252000D3699847AE6100F029FA00210268136B65
:1025300098472168D1F88C2020469047012000F070
:10254000BCF9DFF8C0110020087004B070BD00BFF6
:10255000012100F8471F81747047426801215172C0
:10256000406801680A691047406801688A68104736
:1025700010B504466648017839B9606800F067FE16
:1025800018B16068407A0028FBD0FFF7A0FA204617
:10259000BDE8104000F068BEFFF79FBA08467047DC
:1025A000F0B587B01446064600220F980C9F8DF8B0
:1025B0001800059201911D46FF2855480E9A0D9B63
:1025C0000189ADF80E3014BF4FF0040E4FF0010E2C
:1025D000CDF800E0ADF81020ADF81210ADF80C7099
:1025E000304600F041FE03462A462146304600F0C0
:1025F00068F802905AE02DE9F04387B0044690460F
:102600009946DDF838C00F9B109A119F1298BDF9BA
:102610004C500026059600958DF818000191ADF8F4
:102620000CC0ADF80E30ADF81020204600F01CFEB6
:1026300003464A464146204600F043F8029005977B
:1026400033480189ADF81210694660680268536822
:10265000984707B0BDE8F083F0B587B0144606464A
:1026600000220F980C9F05921D46FF280E9A0D9B85
:102670008DF8180014BF4FF0400E4FF0200ECDF82B
:1026800000E00191ADF80E30ADF81020ADF80C70FF
:10269000304600F0E9FD03462A462146304600F068
:1026A00010F802901A480189ADF812106946706856
:1026B00002685368984707B0F0BD8164183000F095
:1026C00027BCF8B5124FF86880680C4601681546BB
:1026D0000A6A1E4690471028388905FB004402D13B
:1026E00006EB4400F2BD04EB44043019F2BD084A85
:1026F000117829B190F85A00401E8041C00F7047F0
:1027000001207047AC92002001E1F5053E0AD7A3F5
:102710004892002010B50446606801688A689047B6
:1027200004F15901087808B101224A7010BD38B58A
:10273000044604F15905687880B1022000F0BEF823
:10274000002169702970204600F08EFD2268D2F8C1
:10275000903001462046BDE83440184731BD10B5E1
:1027600084B004460191029201A800F0BFFD02A9C5
:1027700001A800F01AFE94F85B00029B00289BB2AF
:102780000CD00093206D019982B2E06C8BB281B2C3
:1027900004F1180000F0CBFB70B109E0019882B29F
:1027A000002104F1180000F008FC012084F85B000F
:1027B0000198E0640298206504B010BD10B504468D
:1027C00094F85B0058B1216DE26C8BB292B201219A
:1027D00004F1180000F0F1FB002184F85B1010BD3B
:1027E00010B582B0044631B1032000F065F82069CD
:1027F00068B1012105E0032000F05FF8206930B1E5
:1028000000210268536902B0BDE81040184713BDAB
:1028100062B38B0708D0521E11F8013B00F8013B50
:1028200000F024808B07F6D1830740F0208000BFA2
:10283000103A07D330B4B1E83810103AA0E8381095
:10284000F9D230BC530724BFB1E80810A0E8081043
:1028500044BF51F8043B40F8043BD20724BF31F891
:10286000022B20F8022B44BF0B7803707047121F15
:1028700017D35B0009D151F8043B20F8023B1B0C35
:10288000121F20F8023BF6D20BE051F8043B00F88F
:10289000013B1B0A20F8023B1B0C121F00F8013BF6
:1028A000F3D238BF121D521E24BF11F8013B00F8AD
:1028B000013BF8D87047704770477047704730B495
:1028C000002513E050F8042BD30744BFA9F10103FE
:1028D0009A18091F042942F8045BFAD213468C07A0
:1028E00044BF15809B1CC90748BF1D7050F8041BCE
:1028F0000029E7D130BC704700BF38B50446DFF887
:10290000E805DFF8E85520600823DFF8E4052060DB
:1029100008220020A4F88400294604F1A80000F051
:102920008BFD0021A4F8E81008230822294604F1B1
:10293000EA0000F081FD04F59570002101808170AE
:10294000C170DFF8B005DFF8B015DFF8B05500F062
:1029500087FD10B10020288007E04FF480602880B8
:102960000221A960022000F0E8FD00206860A86054
:10297000E860204600F07EF9204632BDDFF87C0595
:1029800040687047DFF87405806810B10268936989
:1029900018477047704700B583B0002100910022AE
:1029A000DFF85C158A5EDFF85C15ADF80420B1F93C
:1029B0000020ADF8062069460268D36A984703B044
:1029C00000BD30B505460C46DFF83805DFF8301598
:1029D000B0F90000B1F9001085B000220092ADF806
:1029E0000410ADF80600214602A80822FFF710FFE8
:1029F000694602A801F092F8204602A90822FFF7D2
:102A000007FFDFF8F8048068D8B195F82C1169B198
:102A1000684621460822FFF7FBFEDDE900010A4671
:102A20000146284600F00FF805B030BD02689368F3
:102A300021469847DFF8D0040068026853692146B0
:102A4000984705B030BDF6B587B00546BDF9200002
:102A500000281CBFBDF92200002873D0B5F8E8405B
:102A6000002C05F1A80654D0641E52D40B27A1B245
:102A7000684606EBC1010822FFF7CAFE07A96846AF
:102A800001F08FF800285DD1694607A801F089F8A8
:102A900028B1A2B2314602A801F0A5F837E007A993
:102AA000684601F0C8F848B1A2B2314602A801F068
:102AB0009AF8694607A801F0E0F828E0DDE9070187
:102AC000CDE90201694602A801F0D7F8BDF90C0072
:102AD000BDF90E10BDF90430BDF906C0BDF92220C4
:102AE00010FB01F113FB0CFC01EB8100BDF9201080
:102AF00011FB02C140007943884208DAA2B2314694
:102B000004A801F070F8DDE90201CDE90701641EB7
:102B1000ADD5B5F8E80008280DD10722314602A846
:102B200001F061F8684602A90822FFF771FE6946C4
:102B300007A801F0A2F8DDE907010A460146304680
:102B400001F0E3F809B0F0BDDFF8B003806810B120
:102B50000268D36918477047DFF8A003806810B196
:102B60000268136A184770472DE9F041DFF88C536B
:102B70000446E86882B0E8B1017A41B9002284F8DD
:102B80002D2101688A6802B0BDE8F041104794F831
:102B90002D0178B9A86810B101680A699047E86802
:102BA0000168CA6890472268916A204688470120D8
:102BB00084F82D0104F188060027B0460CE098F84F
:102BC000000030B1211DB8B251F8200001680A6D33
:102BD00090477F1C08F10108B4F884309F42EEDB77
:102BE0005B1E3BD4F7183878A0BB211D98B251F872
:102BF00020000021221D12E0BEF11F0F09DADCF8CF
:102C000004804CF8048B0EF1010EB4F88480C645A4
:102C1000F2DBA8F1010CA4F884C0491C121DB4F821
:102C200084C0614524DAD2F800C08445F5D18E46CF
:102C300004F1040C0CEB8E0CE7E780B2211888310C
:102C4000401C4A780A7082B2B4F884108A42F4D3E5
:102C5000002070545B1E7F1E002BC4D5A86828B1CD
:102C600001684A6A02B0BDE8F0411047BDE8F3814F
:102C70001846E8E70021A0F884108830202101F0F0
:102C800065B82DE9F04F804608F5957599B0A970A3
:102C900019B10020A8F8E8001AE1B8F8E800002807
:102CA00000F01281082308229049DFF8509206A80C
:102CB00000F0C2FBB9F800700022ADF858203C4685
:102CC00018E008F1A801A4B2684601EBC40108228B
:102CD000FFF79EFDBDF858000146082909DA401C9F
:102CE000ADF85800082206A800EBC1006946FFF7BE
:102CF0008FFD641CB8F8E810A0B28842E1D310E060
:102D000008F1EA01BFB2684601EBC7010822FFF7EC
:102D10007FFDDDE900010A4601464046FFF793FECC
:102D20007F1C2988B8B28842EAD3774F386890F878
:102D30004410B9F80060012940F09D80B8F8E8001F
:102D400000240DE0B1B208F1A80202EBC1018A1C17
:102D5000CB8812889A1812B29442B8BF1446761CD7
:102D60008642EFDB6748DFF898B100884FEAD00A67
:102D7000BAF1020FB8BF4FF0010A00200090019095
:102D800008E0884201DA002922DC38680268D36F43
:102D900001219847BDF80220BDF806303868016867
:102DA0009A1812B2A24280F29080D1F8801088471F
:102DB000BDF80210BDF80620511809B20AEB010354
:102DC0009842B8BFA042DCDB884201DB844200DCD1
:102DD0002046ADF802100023BBF90020B9F80060CE
:102DE000ADF80030411AADF80420ADF80610B8F87F
:102DF000E810B0B28842CDD208F1A801B6B204A85A
:102E000001EBC6010822FFF703FD694604A800F0A4
:102E100085FE17A804A90822FFF7FAFC02A817A943
:102E20000822FFF7F5FCBDF90C0000281CBFBDF916
:102E30000E00002805D0D8F80020D36A02A9404629
:102E40009847761CD3E708F1A801B6B2684601EBB3
:102E5000C6010822FFF7DCFCBDF9040000281CBFF6
:102E6000BDF90600002805D0D8F80020D36A6946CD
:102E700040469847761CB8F8E810B0B28842E2D3D2
:102E80002249087800B300222A80B9F8004016E0F1
:102E900006A9A4B2684601EBC4010822FFF7B8FCFA
:102EA00028880146082909DA401C2880082208F1F0
:102EB000EA0000EBC1006946FFF7AAFC641CBDF8FC
:102EC0005810A0B28842E3D302E0C9698847D7E727
:102ED00019B0BDE8F08F0948806810B10268936AA4
:102EE000184770470000000054B70608EF9E060818
:102EF00088B40608C2A507F4CDB5E8B5F80A0020E5
:102F00004C9200204E9200205492002048920020C3
:102F100001617047817B49B10189491C018189B2F6
:102F2000082903DB002141818181817370472DE9EC
:102F3000F04184B005460E46174698460A9CB5F9FE
:102F40000600B5F90410ADF80610ADF80800ADF8AC
:102F50000A80BDF80A10BDF80600414A0092081A1E
:102F6000002300B28DF80430ADF80C40002848BFB3
:102F70004042A98A00B2814209DBBDF80800201A4C
:102F800000B2002848BF404200B2814211DA2869ED
:102F9000026853686946984700202881A8EB060616
:102FA000E71B01206E81AF81A5F80480EC80A87337
:102FB00000E0002004B0BDE8F081F0B50D46012D21
:102FC00018BF022D83B0044616461F4632D1B4F90D
:102FD0000A00C11C072913D3B4F90610B4F9042060
:102FE000204B0093ADF8060000238DF80430ADF8B7
:102FF0000820ADF80A10694620690268936898476E
:10300000B4F90C00C11C072918D3B4F90610B4F99F
:103010000420144B0093ADF8060001238DF8043012
:10302000ADF80820ADF80A10694620690268936877
:10303000984703E0280004BFA680E7800A48009074
:103040008DF804500020ADF80A00ADF80660ADF828
:1030500008706946206902681368984703B0F0BD9C
:1030600040BA060854BA06082CBA060800BF3E4B00
:103070000360416082600021C16001617047C168E6
:103080000069814201D10120704700207047026928
:10309000C168511A0129BCBF80684118012901DCAF
:1030A000012070470020704738B50446E368226964
:1030B000D21A012ABCBFA0688218012A0ED9606802
:1030C000C3EBC305192200EB850000F042FEE06867
:1030D000A168401C884228BF401AE06031BD0169E8
:1030E0008268491C914228BF891A01617047416872
:1030F0000069C0EBC00201EB8200704710B50446C6
:10310000606801680A68904748B9617A39B1207AE5
:1031100028B921680A6A2046BDE81040104710BD52
:1031200001680A69104770B504460D466068016879
:103130004A6890470028F9D10C4E306801688A6EC1
:103140009047FEF7D1FC606802689368294698476B
:1031500021688A6A20469047306801684A6EBDE857
:103160007040104700000000CCB7060854920020C1
:1031700080B5FEF7ACFCBDE80140FEF7AEBC38B54B
:10318000044601202072606801688A6990470546FC
:103190002868012832D0022825D004280BD008281E
:1031A00015D0202818BF402828D0802818BFB0F597
:1031B000807F23D031BD2268297E536B20469847FB
:1031C0002368DA6A29462046BDE83840104722685D
:1031D000297E536B2046984723681A6B2946204660
:1031E000BDE83840104721688A6B20469047226826
:1031F000136B29462046BDE83440184721688A6B86
:10320000204690472268D36A29462046BDE83440CC
:10321000184710B50446606801680A68904738B9D5
:10322000207A28B1606801684A69904700202072BE
:10323000606801680A68904728B92268116A2046C8
:10324000BDE810400847BDE81040FEF752BC80B50D
:10325000406801680A689047FFE7401E8041C0430C
:10326000C00F02BD7047704710B507490446087883
:1032700040B12268916A20468847A16B884201D1FB
:10328000E06B10BDA06B10BD48920020F0B5044665
:1032900010460127002C059A069D079E44BF6442F4
:1032A0004FF0FF37002A44BF52427F42002D42FABE
:1032B00001FC4FF0010E44BF6D427F420EFA01F156
:1032C000491E11406143346891FBF5F20CFB034346
:1032D000C91805FB1211316091FBF5F30CFB0020BE
:1032E000181805FB131131607843F0BDF0B5254D7A
:1032F0000446A86985B02668676800283ED0A9689A
:10330000EB6B019000EBD07201EB6201039103A91A
:1033100002912068EA6AE96900902868FFF7B6FF21
:103320000646A869019003A9029160682B6C2A6B7C
:10333000296A00906868FFF7A9FF8619A86969697A
:103340006B6C019000EBD07201EB6201039103A959
:10335000029120686A6B696A0090E868FFF796FF3F
:10336000074603A80290A869AB6CAA6BA96A0190F2
:10337000606800902869FFF789FFC71926606760B9
:1033800005B0F0BD98900020274B284A30B41C7837
:10339000B2F90020012C06D1B0F900300D8805806B
:1033A000501EC31A0B8030BC70471F4A1378012B84
:1033B00000D0704770B41E4CB4F900500A88B0F9C0
:1033C00000306E1EB61A06800B8070BC704700007D
:1033D00030B504461748154DB0F90010B5F9003066
:1033E00083B00022009101A8002100F0B8FC014642
:1033F000204600F002F803B030BD0B4A1378012BD1
:1034000011D1B0F802C0B0F904200388A0F800C0C0
:10341000D31889885B1EA1F1010CC1888180ACEBB7
:1034200003034380C28070474A9200204C920020E0
:10343000529200204E9200202DE9F04106460F46A0
:103440003546380018BF002D90461C4605D024B1E3
:103450003046B847641E4644FAD12846BDE8F0819C
:1034600030B402460F48104D0468640864000460DC
:1034700000232868002801BF0C4C2568C5F30B0504
:10348000B5F58A6F0CBF0A4C0A4C0120A060A068F9
:103490000028FCD1226022688A4230BC08BF012388
:1034A00018467047002000E0002004E00010005C97
:1034B000004C02580030024000BF10B5044682B0F4
:1034C000DFF8A0052060201D00F05EFC012084F8DC
:1034D000380000212163A186E186DFF88C05DFF842
:1034E0008C25415EB2F90030009100220021201DA0
:1034F00000F064FC204616BD30B585B004460D468C
:10350000684604F108010822FFF782F92946684657
:1035100000F004FBDDE90023CDE9022394F8380034
:10352000002802A904D0204600F01DF805B030BDE7
:10353000201D00F064FC05B030BD00B583B0002153
:1035400000910022DFF824158A5EDFF81C15ADF823
:103550000420B1F90020ADF806206946026893689E
:10356000984703B000BD38B50D46002100910446D0
:103570006A462946201D00F0BEFC009820B1024694
:103580002946204600F001F831BD2DE9F04F0E46E6
:1035900087B0B6F9041000298046144600F09980DF
:1035A000B6F90600002801E0E469002C40F09280A2
:1035B000F5E0B6F902204A4510DAB6F90410ADF884
:1035C0000220A9EB0200ADF80030ADF80410ADF810
:1035D00006006946E2694046FFF7D7FFB6F90000EA
:1035E000A8420DDA291AADF80000ADF80290ADF846
:1035F0000410ADF806B06946E2694046FFF7C5FF22
:103600003188B0884118781902B20BB29A420EDAAA
:103610004D1BED1BADF80000ADF80290ADF8045065
:10362000ADF806B06946E2694046FFF7AEFF718823
:10363000F08841180BEB090002B20BB29A4214DA7F
:10364000B6F90420B6F90030ADF80200ADF8042058
:10365000A1EB0900A0EB0B00ADF80030ADF80600BF
:103660006946E2694046FFF790FF204600F083FC80
:10367000054602A831460822FFF7CAF8294602A8E3
:1036800000F04CFA04A802A90822FFF7C1F8684626
:1036900004A90822FFF7BCF8BDF9040000281CBFEC
:1036A000BDF90600002814D0204600F083FCBDF8C8
:1036B0000010081AADF80000204600F08FFCBDF89D
:1036C0000210081AADF80200694622689368204685
:1036D000984764E0204600F04EFC314600F0ABFA1B
:1036E00000283FF461AFE0690028BED02268D368AB
:1036F000214602A89847204600F070FC82462046EA
:1037000000F058FCBDF808100818ADF8000031466C
:10371000BDF80A005044ADF80200BDF80C00ADF849
:103720000400BDF80E00ADF80600684600F0F6F99A
:1037300002A869460822FFF76BF8204600F01BFC40
:103740000546684602A90822FFF762F8294668463E
:1037500000F0E4F9BDF90050B6F90030BDF902906F
:10376000BDF90470BDF906B09D4204BFB6F9021060
:10377000894508D1B6F904108F4204BFB6F9061086
:103780008B453FF472AF002F18BFBBF1000F7FF4E1
:1037900010AFE26931464046FFF7F7FE65E707B034
:1037A000BDE8F08F2DE9F04F0F4689B00446387917
:1037B000216B11B1002800F0D780002840F0AC80C8
:1037C000AB48016891F84500411E00220329A286FA
:1037D000E286C0F2988022634FF0FF39A54A81FB50
:1037E000023202EBD2710429A8BF032100269E4AAF
:1037F0009E4B925F9B5F01250129C0F2B5808046F8
:1038000008900591059898FBF0FE681E082873DC67
:103810000FF2C0210394C5F1090001EBC501801C22
:10382000083900EBD0700297ADF80620ADF80430EF
:10383000CDF810E00F46441000200090396804983D
:1038400011FB00FA7868049910FB01FB0298C1880B
:103850000289514408B200285A4444D4BDF90400F6
:103860000BB283423FDA13B2002B3CD4BDF90630D1
:1038700010B2984237DADDF80CC06B4612B209B2CA
:103880000CF1040000F0FBFA0099002918BFB142C6
:1038900029D006A800F0D6FB0298B0F90620BDF9A1
:1038A0001C10BDF91800101A029AB2F90830BDF9BF
:1038B0001A2001EBD171A0EB6100BDF91E109A1A1C
:1038C00001EBD171A2EB6102524300FB002048459D
:1038D00009D20399009E0E6381460398A0F834A094
:1038E0000399A1F836B01037641EA5D1039C029F3E
:1038F000BDF90620BDF904300898804405986D1C78
:10390000A84209DB7EE7B7F90820B7F9061004F1F1
:103910003003201D00F0B3FA216B29B303A800F097
:1039200091FB3B89E08EBDF80E203979C3189A1AB5
:10393000FB88A08E8DF80410C318BDF80C00ADF8FC
:103940000820181AADF8060000204B4BADF80A000D
:1039500000936946206B0268536C9847387918B118
:1039600000212163A186E18609B0BDE8F08FF0B5A2
:10397000044689B00D46216B002971D0684600F0DD
:1039800061FBB4F93430EF88B4F936102A89BDF9F7
:103990000060DF198A1838B2B04237DBBDF800602A
:1039A000BDF8040086193FB230B287422EDABDF965
:1039B000020017B2874229DBBDF806703F1812B229
:1039C0000FFA87FC624521DAAA89BDF900C089187F
:1039D0006A899B181AB262450ADB1BB236B2B3423F
:1039E00006DA0AB2824203DB09B23FB2B9420DDB0A
:1039F00021480090022100208DF80410ADF8060047
:103A000002906946206B0268536C9847216B02A8AC
:103A100000F018FBB4F93630A889BDF90A10B4F9E2
:103A200034201818401A00B201906E89BDF80800C1
:103A30009619361A36B2009628891B18E88812188B
:103A4000BDF808005B1A121A29791BB212B204A839
:103A500000F026FB226B014610461268D36C984793
:103A600009B0F0BDA4B606084E9200204C9200208A
:103A700054920020565555552CBA060830B50446C8
:103A800087B00D46216BE9B101A800F0DBFA6A8925
:103A9000E18EBDF806008A18121A12B200922B8924
:103AA000A18EBDF80400B5F90620CB181B1A2979A0
:103AB0001BB203A800F004FB226B014610461268FB
:103AC000936C984707B030BD0A46011D1046126836
:103AD000536918470000000000000000FFFFFFFFCF
:103AE000FFFFFFFF00000000FFFFFFFF01000000DD
:103AF000FFFFFFFFFFFFFFFF00000000FFFFFFFFD2
:103B000001000000010000000000000001000000B2
:103B10000100000000000000010000002DE9F84154
:103B2000B1F900308A88B0F90040D21816B2B44218
:103B3000BFBF85882D192FB2BB4214DAB1F90260DC
:103B4000B1F806E0B0F902C0B6440FFA8EF7BC45F2
:103B5000BFBFC78867440FFA87F8464503DAA34218
:103B600006DA234604E0002300268380002713E0C2
:103B70006645B8BF66462CB20FFA82FC6445B8BFF2
:103B80002A46D21A82803FB24C88CA88141924B2BD
:103B9000A742C8BF2746BF1BC78046800380BDE839
:103BA000F18170B4B0F90030B1F900409C42A2BF7D
:103BB000B0F90250B1F90260AE4211DB8288D3182D
:103BC0008A8814191BB224B2A34209DBC0884519A4
:103BD000C88886192DB236B2B542A8BF012000DAD6
:103BE000002070BC7047F0B583B0044600200D463D
:103BF0000090019090B2B5F84070B84214D296B2DD
:103C0000684605EBC6010822FEF702FE791E88B25F
:103C10008642A5F8401007D289B205EBC60005EB35
:103C2000C1010822FEF7F4FD204669460822FEF78E
:103C3000EFFD03B0F0BD30B4B1F900308D88B0F9BC
:103C40000040ED182DB2AC42BFBF8288141924B2D7
:103C5000A3420FDAB1F90220C988B0F902308918FD
:103C600009B28B42BFBFC088C3181BB29A42B8BF0B
:103C7000012000DB002030BC70472DE9F003B1F9D2
:103C80000450002D1CBFB1F90640002C3AD0B0F909
:103C90000430002B1CBFB0F90620002A08D0B1F96F
:103CA0000060B0F90090B145B4BFCC46B4460AE01C
:103CB0000A8802804A8842808A888280C988C180B6
:103CC000BDE8F0037047B1F90210B0F90280474631
:103CD0008845C8BF0F464B44AD192EB20FFA83F981
:103CE0004E450C444244B8BF1D4624B212B2944221
:103CF000B8BF1446A0F800C04780A5EB0C05E41B34
:103D00008580C480BDE8F00370471CB513460A46A1
:103D1000B0F840100C46082C0ADACDE90023491C03
:103D2000A0F8401000EBC40069460822FEF770FDC1
:103D300013BD416839B1816819B9C068C10702D59E
:103D400010B1012000E00020C0B270470022FDF752
:103D5000EDBC10B50446FEF75BFD204610BD10B566
:103D6000BDF908400180C4804280838010BD30B519
:103D700083B0002201928DF800206B460468A5688C
:103D800001AAA84703B030BD00218180C180018114
:103D900041818181C1810182418241618161C16131
:103DA000002200F124010A7001224A70024A0260D6
:103DB00000224A60704700BF30AB0608F8B50446E1
:103DC0001E462368BDF918505F6BB8472268936B95
:103DD0003146204698472268D36B29462046BDE8E5
:103DE000F440184700228A614861826A12B98162F0
:103DF0007047024690690028FBD19161704790F8A6
:103E00002520002A00D1704770B586B0866AA6B317
:103E100068460822FEF7FCFCDDE9004596F825001F
:103E200040B3CDE90245311D02A8FFF777FE04A893
:103E300002A90822FEF7ECFC684604A90822FEF756
:103E4000E7FCBDF9040000281CBFBDF906000028EE
:103E500010D0BDF80010B088091AADF80010BDF8F8
:103E60000200F188401AADF8020069463268936892
:103E700030469847B669002ED0D106B070BD2DE906
:103E8000F041174600F124020E4611781D4601B19B
:103E90002860546820E094F82500E0B1B4F90410DB
:103EA0008E4218DB2289521812B2964213DAB4F904
:103EB000062097420FDB63899B181BB29F420ADAE8
:103EC000D4F800C0BA1A711ADCF81C802B4612B262
:103ED00009B22046C047A469002CDCD1BDE8F081BE
:103EE00000B583B000210091019108226946FEF7D8
:103EF0008FFC03B000BDF0B587B00D4690F82510DB
:103F000000291CBF846A002C164632D094F8251074
:103F100061B302A829460822FEF77AFC211D02A8F7
:103F2000FFF7FCFD04A802A90822FEF771FC684611
:103F300004A90822FEF76CFCBDF9040000281CBF90
:103F4000BDF90600002811D0BDF80010A088091A9C
:103F5000ADF800103246BDF80200E188401AADF815
:103F60000200694623681F6E2046B847A469002CEA
:103F7000CCD107B0F0BD1CB50446B4F90C0010F16B
:103F8000010F14D1B4F90A00B4F90810002200920C
:103F9000ADF80410ADF8060069462268136A2046A1
:103FA000984704F10C0069460822FEF731FC04F141
:103FB0000C0016BD1CB50446B4F9201011F1010F18
:103FC00009D12146684600F03DF8BDF80010218473
:103FD000BDF802006084B4F9200016BD1CB504468B
:103FE000B4F9221011F1010F09D12146684600F001
:103FF00029F8BDF800102184BDF802006084B4F9EE
:10400000220016BD38B505460C46A88821884118FF
:104010002180E8886188411861802046291DFFF7CA
:104020007DFDB4F9041000291CBFB4F90600002876
:1040300007D0686928B10268136A2146BDE8344098
:10404000184731BD1CB504460846B0F90A10B0F94E
:10405000082000230093ADF80420ADF8061069464F
:104060000268536A9847204669460822FEF7D0FB4B
:1040700013BD0B888288D3180B80C2884B88D31855
:104080004B80406910B10268536A184770474FF07F
:10409000FF318181018441841168C16110607047E2
:1040A00070B4BDF90C40BDF91050044E0660448157
:1040B00085810171C280038170BC704740BA0608D7
:1040C00030B4BDF90840044D056044810171C280DF
:1040D000038130BC704700BF54BA06082DE9F84F81
:1040E00000250026002A28DD4FF4807983460F46FC
:1040F000984614464146584600F031FCB246064602
:10410000D8B10A2E19D03A68D36831463846984754
:1041100088B1417B3B688688D3F838C00A06827A2A
:104120004CBF4946002111434D19024651463846BD
:10413000E0472D18ADB2641EDCD12846BDE8F28FF1
:1041400070B50546012408008CB0164614D0BDF9A0
:1041500040000191009382B23346294602A800F044
:1041600083FC002102A800F0CAFABDF8080000286C
:1041700018BF641CF5D10CE03146284600F0EFFB77
:104180000A2808BF641C3146284600F0E8FB0028D6
:10419000F6D1A0B20CB070BD36B5DFF8DC121A460D
:1041A0004B6800EB6300DB0783B051BF0D68036809
:1041B00009685D580999089B00910AAC019403A90C
:1041C000A84705B030BD2DE9F14FA8B0DDF8C8B063
:1041D000BBF1000F1EBF1F46386800281CBFBB7B09
:1041E000002B00F01881099107A811460822FEF75C
:1041F0000FFB0998B0F904A0B0F90660B87901285E
:104200004FF0000829D03BD3032801D013D337E067
:10421000BDF92220BDF81E00BDF92010BDF91C30EB
:10422000ADF81E30B41A241AADF81C40ADF82020A9
:10423000ADF8221024E0BDF82200BDF81E10BDF834
:104240002020301A411ABDF81C00ADF81E10AAEB50
:104250000202121AADF81C2012E0BDF92000BDF8D0
:104260001C20BDF92210ADF82010AAEB00039A1A09
:10427000BDF91E30ADF81C30ADF81E20ADF822009F
:10428000B879012818BF032802D15046B246064625
:1042900011A800F04FFB339A594600F0BCFB0BA865
:1042A00000F048FB387930B1339A59460BA800F03A
:1042B000B2FB012400E00024386801680A6B9047D3
:1042C000B9894518BDF91E0090FBF5F917A800F053
:1042D00031FB397C19B1339A594600F09CFB387C8C
:1042E00001901FFA8AF23868009017A97B791DA8FF
:1042F00000F0BAFB387C002800F0B780B9F1010F5C
:1043000026DBAB4636B2B6EB4B0FB4BF0121002122
:104310001DA800F0F4F9BDF88A5009E0797911A8D8
:1043200000F01DFB6D1E1CB179790BA800F017FB86
:10433000A8B20028F2D1BDF874000028D844A6EB3A
:104340000B06A9F1010966D0B9F1000FDAD15D467B
:10435000DFF8280100680168DDF8A0B00A6A90471C
:1043600047F6FF79CDF8A0B0ADF828A02690387CAC
:104370004FF0000B40B136B2B6EB450FACBF002199
:1043800001211DA800F0BBF9002C6CD0387C00285E
:1043900059D0BDF99200397901295BD1BDF92810B6
:1043A00000B2081A00EBD07040108346ADF82AB076
:1043B0000DF12A02387C9DF8961000280CBF484663
:1043C000BDF88A0006910590002111A80490039180
:1043D000029707A9019100922699099A28980FFA45
:1043E00088F300F04DF880B9387CA844761B10B1F2
:1043F00036B2AE4209DBBDF81E00BDF82210081827
:1044000000B20FFA88F18842B1DADFF87000006874
:1044100001684A6A90472CE00A2D07D10098A9F15B
:1044200001098044361AB9F1010F20DB797911A80E
:1044300000F095FA05461CB179790BA800F08FFAC7
:10444000002DE9D115E0396800234A460BA8FFF793
:1044500045FEA0E70229A9D1BDF9281000B2081A2B
:10446000F97B401AA1E7F87B9FE70095DBE7009D09
:104470006EE729B0BDE8F08FF00A002054920020CA
:104480002DE9F14F9B4696B09246229B209F219AA0
:1044900015889688259C269875191E6896F809E057
:1044A000CDF834E02DB2367A0C964FF00009B7F90A
:1044B0000060A64628B1187C04280CBF0220012009
:1044C0008644BEF1000FC84640F31581249F23980F
:1044D000ADF82EB00F901391CDF848A02192229301
:1044E0008DF88C00DDF858B0CDF858B024971095B1
:1044F00025940025CDF844E0259880454F4605DBFE
:104500002298006801684A69904704E09DF88C1081
:10451000249800F024FA81464FF6FF6081451CBFC5
:1045200042F20B00814500F0C680B9F1000F00F0A7
:10453000E280B9F10A0F00F0DC802298006804687C
:10454000D4F808C00BAB0EAA4946E04704000CD0D3
:10455000B4F804909DF88C0000B9AE19617B080690
:104560004CBF4FF4807500250FE022980068016869
:104570000A6990474FF6FF6290421CBF42F20B015E
:10458000884200F09880002595E0A07A05430F98B6
:10459000012808BF761B7FB12298006801688B6BE9
:1045A0009DF88C1000292246394602D198473618CA
:1045B00005E09847361A07E09DF88C0020B90C9862
:1045C0001099301A81427CDB0F98012807D121997C
:1045D0000D9AB1F90000AA18B218824271DB607B13
:1045E000010794F90900A1794CBF4FF480720022B1
:1045F00033182198B0F900000A439A1882425ADB16
:10460000109A934257DA00278642B8BF871B229838
:1046100000680168CA6A9047617BBDF82EC04A06EF
:104620004CBF4FF47E4200228B064CBF4FF4807388
:1046300000231A43237A60441A43801A219AB2F95C
:10464000022000B290424FF0000A83460CDAC906FD
:10465000E3794CBF4FF48071002119434118914216
:1046600029DB9346A2EB000A129914A80822FEF750
:10467000CFF82298817922980A91817B9DF82C00AD
:1046800009910890229988680E99079006910594DF
:10469000219804901FFA8AF00390CDF804B0B8B2C4
:1046A000BF1902903FB20097DDE914231698046801
:1046B0001399A76AB847119808F101088045FFF6D9
:1046C0001BAFB9F1000F9DF88C50249E259C12D091
:1046D000B9F10A0F0DD008F10100A04209DA241A3D
:1046E0002946304600F03BF928B10A2801D0641E63
:1046F000F6D1002000E0012017B0BDE8F08F2DE9D1
:10470000F04F83B0002300240022467A0D0090462B
:104710000CD0032E01D1012412E0042E18BF012E6B
:10472000F9D0022E0CD14FF0010809E0032E01D17F
:10473000012305E0042EFBD0012E14BF022E01221E
:104740000026C6820683B1464FF4807A06468DF86D
:1047500000100293019208E0738B1818F0828918F8
:104760000020F18331837083B0833588317A70689B
:1047700000F0F5F8308000281FBF718B491C718351
:104780000A280CD1B18BF28A708B8218308BF2829E
:1047900009180020F18331837083B0838CE0326983
:1047A000014610461268D36898470200DDD0908811
:1047B0003080202803D1202D18BFB6F81C90507BE4
:1047C000B78B0106907A4CBFD3464FF0000B40EAFE
:1047D0000B0B30690368D3F838C02946E047B18B2A
:1047E000328BB6F814C058444118B183B18B9DF890
:1047F00000008B189C45B4BF4FF0010E4FF0000E27
:10480000D8B12CB9B8F1000F09D03088202806D1D2
:10481000358CF08A5B199C459EDA00289CD0BEF14D
:10482000000F1CBFF08A00289FD0012186F82210BB
:10483000308CF18B4118F1833EE0BEF1000F25D0A2
:10484000029860B1748BF38A601EC318BA18F382A1
:10485000F2830120C91B32837083B1832CE001985D
:1048600000281CBF3388202B3FF47FAFF08A202D17
:1048700008D1748B631E18189144F082A6F81E901C
:10488000BA18E6E700283FF470AF15E0308820281A
:104890003FF46BAF202D7FF468AF738BF08A5B1E03
:1048A0001844F082C91B09EB0200F083BA180120FA
:1048B00032837083B18358E703B0BDE8F08F012BDA
:1048C00007D002D3032B0AD006D3B0F90000081892
:1048D0007047018880881AE0028880881CE0B0F95F
:1048E000000010187047012B07D002D3032B0BD008
:1048F00007D3B0F9020010187047B0F90200081889
:1049000070474188C08802E04288C08804E04118AE
:1049100009B28A1A501E7047821812B2511A481EE4
:10492000704700F124014A78002A1EBF0978002947
:104930001860704710B50446002020606060204673
:1049400000F06BF8204610BD38B50446658AA08A91
:104950006082204600F01DF8A082284632BDF8B5DE
:1049600006460F46FFF7F0FFDFF8F02051681468A5
:1049700014B9CB070CD559B106EB6105C90744BF83
:1049800029680C5901463B4606F112022846A04709
:10499000F2BD38B50546DFF8C8401DE00020287498
:1049A000206802682968136B98476968088880B393
:1049B000022829D1881C6860AA682068AA6052F879
:1049C000041BAA600268136B9847E86000281FBFA9
:1049D0000088002801212974686830B92968C1B1AC
:1049E00020680268136B98476860287C0028DCD038
:1049F000E86800281CBF00880028CFD0E968891C1F
:104A0000E96031F8020D32BD881C6860801E0088A4
:104A100032BD002032BD8260016010B50446002026
:104A20006060E06020742046FFF7B3FF608220469C
:104A3000FFF7AFFFA0820B4B5868196811B9C20786
:104A40000BD550B104EB6002C00702D5106819689D
:104A50004158BDE810401046084710BD8092002024
:104A6000549200207892002070B582B00446069DD2
:104A70000798002626806072256161602372E660D7
:104A8000A282E68226836683A683E683268484F850
:104A90002260206901684A699047050025D0206995
:104AA0000268D36829469847E060427B817A130602
:104AB0004CBF4FF4807200220A43617A2284042999
:104AC00013D12369024618461B6829469D6BA847E7
:104AD000E1684A7B897A13064CBF4FF4807200224A
:104AE000238C0A431018C3182384204676BDF8226D
:104AF0005143084408307047F8B504001BD004F156
:104B00003C05697821B900202870204600F039FC66
:104B1000242169702068026852085200026000F087
:104B20003FFD01466068DFF8B823904205D2DFF808
:104B3000B433994205D20120F2BDDFF8AC038142C3
:104B4000F9D32068DFF8A4334668B1FBF3F3B60964
:104B500043EA861646602668376A6068904206D344
:104B60004FF4967043434FF47A70B3FBF0F35B1C41
:104B7000BF0943EA87133362491E2368DE69676809
:104B8000974206D27F0000F043F8042913D2042193
:104B900011E0A06820B907EB470700F039F805E0FD
:104BA0001920474300F034F841F4804108050CBF58
:104BB000012141F40041DFF8500306400E43DE615D
:104BC00022681368E169206A23F0C0030B430343A2
:104BD00013602268DFF88803936821690340E06866
:104BE0000B43034393602168CA68A3696069120A92
:104BF000034343EA0222CA602068016841F00101D0
:104C0000016000206860202169702063A870F2BDF7
:104C1000B1FBF7F1491CC1F30B0170472DE9F843D3
:104C200004460F4600F0F1F904F13C0605467078A1
:104C300020287DD1009519230122DFF8281300F0E8
:104C40005FFA002874D13078012871D001213170C9
:104C500000F0DFF9212070701021B1700020706029
:104C6000C4F82480A4F82A90608D2085DFF8F8022B
:104C7000E062E16A082918BF012904D081421CBF03
:104C8000206B122801D100F0D2F900950022DDF846
:104C90002080434600F032FA002847D12069B0F561
:104CA000804F08BF07F0FE070FD0F909206801F018
:104CB000060141F0F00101612B464246DFF8AC12DB
:104CC00000F02EFA002831D1FFB22068DFF8A012E0
:104CD00007612B46424600F023FA002826D100F057
:104CE00011FA89690091009A208D002823D02A4664
:104CF00000F02AF8A8B900F0BEF8401E208521680F
:104D00004A69530706D580B220B1606A02780A6109
:104D100000F0A7F82A464146204600F0A3FA0028F2
:104D2000E2D07068042801D100F0F1F9012000E020
:104D30000220BDE8F28300F0EAF920207070002123
:104D4000B17000203070F4E74146204600F060BAB0
:104D50002DE9FC4700F0CCF800F0A8F86CD100F089
:104D6000B8F8002868D13878012865D000F0ABF891
:104D700001D400F044F9234630680A9D00F087F81A
:104D800078701021B97000207860C6F82490A6F8D9
:104D90002AA02A46708DDFF8D0113085F1623046A6
:104DA000414600F04DF900283FD1308D18B101285F
:104DB00004D100F0E4F800F0C6F816E002283068EC
:104DC000016802D100F012F902E041F48061016053
:104DD0000020009000F03EF807E000F09EF8002868
:104DE00023D100F093F800F02DF8308D002826D064
:104DF000042817D20128F0D000F080F80AD100F082
:104E0000B9F8002811D100F0C1F8716A0870706A11
:104E1000421CE8E700F0AEF8002806D100F0CBF81D
:104E200018B9F0E700F079F808B1012005E000F0CA
:104E300079F8DAD50069E8E70220BDE8F68700F0E6
:104E40003BF8FAE7308D7262411E3185708D411E4C
:104E50007185704731684A690092896900910098AC
:104E60007047606A411C6162608D411E6185208DC2
:104E7000411E21857047606A226801781161606A6D
:104E8000411C6162608D411E6185208D7047016803
:104E900021F4006101602220704741F480610160CB
:104EA0002068026842F480720260704706F13C0795
:104EB0000446787820287047202078700021B97047
:104EC0000020387070470121397030680268D107BE
:104ED00070470094192301222249304600F02EB970
:104EE000A186010080841E0000093D0040420F00A1
:104EF0000646884691469A4600F0BCBB0228DFF879
:104F00003C8100942B4670470030FFFF30680169F8
:104F1000706A0170716A4A1C704722462946304601
:104F200000F0BCB930680169706A0170716A308D37
:104F30004A1C411E72623185708D411E7185306838
:104F400041694A077047009031684A6900928B694D
:104F5000009300980A6842F400720A6070470000EB
:104F6000007CFFFF020010000000FFFF08000100AE
:104F70000200010000224146304600F0DFB83068F0
:104F8000016821F480610160002070473068016889
:104F900041F40071016030680169706A0170716AE2
:104FA000308D4A1C411E72623185708D411E7185A3
:104FB0003268106970473068016821F480610160CF
:104FC0002B4630680169706A0170716A308D4A1C25
:104FD000411E726231850022708D411E71850094E0
:104FE0004146304600F0AAB83068016821F480617B
:104FF00001603068026842F4006202607047026833
:1050000042F00102026070470D469046994600F05A
:1050100031BB20680268D10703D4026842F0010264
:1050200002602068016821F4006101607047206817
:10503000016841F4807101607047000004000100C4
:105040002DE9F84304460F46E06A216890460A6855
:1050500042F480620A6008281EBF01283449884251
:105060001E4602D1FFF71CFF04E0206B112801D17E
:10507000FFF7DDFF0096434600F03FF800282ED1F1
:105080002069DFF8B090B0F5804F02D100F04AF807
:1050900022E0FD09216805F0060545F0F0000861F1
:1050A00033464246244900F03BF8C0B92068FFB2BD
:1050B000076100F032F890B900F015F84346009807
:1050C0000A6842F480720A60009600F016F830B95F
:1050D000206845F0F105056100F01FF800B10120DE
:1050E000BDE8F2830000009021684A6900928B6954
:1050F0000093704701600096534600224FF0011163
:1051000020461BE0009021684A69009270472068A1
:10511000016841F4007101607047334642464946D8
:10512000204633E0206847F00107FFB2076170476F
:105130000000FFFF02000100080001002DE9F0411E
:10514000069F05460E4690461C4631022868090E09
:1051500001290CBF40698069304080B2B1B28842F9
:105160000CBF0120002040450DD114F1010FECD0FF
:1051700000F080FAC01B844201D3002CE5D100F07E
:1051800063F8012000E00020BDE8F081F8B5054695
:105190000E4614461F463102090E286801291BD10C
:1051A0004169314089B2B2B291421BD041694A058E
:1051B0001AD500F028F86FF480602A685061002149
:1051C00005F13C002963202242708170426842F060
:1051D00004024260017013E08169314089B2B2B2C9
:1051E0009142E3D10020F2BD14F1010FD3D000F0C1
:1051F00041FAC01B844201D3002CCCD100F024F82A
:105200000120F2BD3068016841F40071016070470F
:1052100070B505460C46164628684169080611D443
:10522000284600F067F858B914F1010FF4D000F0E7
:1052300021FA801B844201D3002CEDD100F004F848
:10524000012070BD002070BD00202863202105F1E1
:105250003C00002241708270416841F020014160B1
:105260000270704770B505460C46164628684169BD
:10527000480711D4284600F03DF858B914F1010F41
:10528000F4D000F0F7F9801B844201D3002CEDD15B
:10529000FFF7DAFF012070BD002070BD70B5054634
:1052A0000C461646286841694A0617D44169CA0661
:1052B0000BD400F0DFF9801B844201D3002CF1D124
:1052C00000F00EF841F0200104E06FF010014161A0
:1052D00000F006F841600270012070BD002070BD32
:1052E00000202863202105F13C00002241708270DB
:1052F0004168704701684A6953050FD56FF48062B1
:105300004A61002101633C30202242708170426872
:1053100042F0040242600170012070470020704793
:1053200082B00020009000225048416841F4804142
:105330004160416801F480410091009900920F2181
:10534000036843F080530360006800F080500090D1
:1053500000986FF0010002B000F0ACB981B00068B5
:10536000434988420BD1002242480092016841F42F
:1053700080510160006800F480500090009801B0F6
:10538000704738B586B000F06CF824683A4DAC42EE
:105390001ED10020374C00901222216841F00201FA
:1053A0002160C021206800F002000090009833487E
:1053B00000F04CF8042100F04FF800200090216923
:1053C00041F400112161206900F400100090009860
:1053D00007B030BD81B00068294988420BD1002256
:1053E00028480092016841F001010160006800F066
:1053F00001000090009801B0704738B586B000F009
:1054000030F82468204DAC421ED1002000900022CC
:105410001848016941F400310161016901F400316A
:105420000091009900926021036843F00803036033
:105430000222006800F0080000900098134800F075
:1054400005F8072100F008F807B030BD019102927D
:1054500001210391032270470591049201A900F0F4
:1054600083B9044601A81421FEF770BC40380240FD
:105470000030024030380240005400400004024036
