:020000040800F2
:10000000E0B30020812C0E08ED210E08EF210E0830
:10001000F1210E08F3210E08F5210E080000000062
:1000200000000000000000000000000021550D0845
:10003000F7210E0800000000C9540D08F9210E0830
:10004000592D0E085D2D0E08612D0E08652D0E0828
:10005000692D0E086D2D0E08712D0E08752D0E08D8
:10006000792D0E087D2D0E08812D0E08852D0E0888
:10007000892D0E088D2D0E08912D0E08952D0E0838
:10008000992D0E089D2D0E08A12D0E08A52D0E08E8
:10009000A92D0E08AD2D0E08B12D0E08B52D0E0898
:1000A000B92D0E08BD2D0E08C12D0E08C52D0E0848
:1000B000C92D0E08CD2D0E08D12D0E08D52D0E08F8
:1000C000D92D0E08DD2D0E08E12D0E08E52D0E08A8
:1000D000E92D0E08ED2D0E08F12D0E08F52D0E0858
:1000E000F92D0E08FD2D0E08012E0E08052E0E0806
:1000F000092E0E080D2E0E08112E0E08152E0E08B4
:1001000007220E08192E0E081D2E0E08212E0E088D
:10011000252E0E08292E0E082D2E0E08312E0E0823
:10012000352E0E08392E0E083D2E0E08412E0E08D3
:10013000452E0E08492E0E084D2E0E08512E0E0883
:10014000552E0E08592E0E085D2E0E08612E0E0833
:10015000652E0E08692E0E086D2E0E08712E0E08E3
:10016000752E0E08792E0E087D2E0E08812E0E0893
:10017000852E0E08892E0E088D2E0E080000000018
:10018000912E0E08952E0E08992E0E089D2E0E0803
:10019000A12E0E08A52E0E08A92E0E08AD2E0E08B3
:1001A0000D220E0811220E0819220E083E3B334183
:1001B0003E353D39323B372F37342C3B382F403ECC
:1001C000353E3A323C39313B39303E3A33413D35A8
:1001D000413D353D3A313E3B333C3930403D35447D
:1001E0004039403C353F3D343E3A323D3A31423E63
:1001F000363F3C343E3C333E3A333E3A3345413A57
:10020000423E363E3B323C38313E3B32433F374242
:100210003E363F3D343F3D343F3C32413F35444123
:1002200038413F35403C343F3B33403E3445403815
:100230004340374440384441383D3A31413E3546E9
:100240004239413F35433F37413F35403D344643D6
:1002500039454138423F36423F36423F36454239C2
:10026000444137444038423E363E3A3246433947AD
:10027000443B433F36423E35423E35454138484592
:100280003B48433B444137413F354441374A473D72
:1002900047443B464339464239433F3648443B494D
:1002A000463C46443A48443B4240364440374D4A37
:1002B000404A473D47443A45413943403649453C29
:1002C00047433B46423949453C4B463D4A463D4BF8
:1002D000463E4A463D48463B4641384642384D49EF
:1002E0004047443A47443A47443A49453C4D4940DF
:1002F0004B473E49453C48433A4742394B473E4DC0
:10030000483F4A473D4643384641384A463D4C48B7
:100310003E49463B49463B4C483F48433A4C483FA0
:100320004E4B404B463D4B473E48443A4B483E4F70
:1003300049404D494049453A4543384E4940504C63
:1003400043504C414A483D4A483D4A463D4E49404B
:100350004E4B414D483F4D483F4B463D4D4A3F4F28
:100360004A414F4A414F4B414D4A3F4F4B41514DFE
:10037000424F4B414E494049443B49443B4E4B4020
:100380004E4B404E49404C4A3E4A473B4E4B4052F2
:100390004E43504D42504D424F4A414F4A41514DBC
:1003A00043514C43534D444C473D4C483D514D43C4
:1003B000514D43514E43544F464E4B3F504D415388
:1003C0005044524D43524D434D493E4D493E544E8B
:1003D00045504D42504B424C493D524F445450457C
:1003E000504E42534E444F4C404E493E534F44565C
:1003F0005147514E434E493F4C493E514C43534F58
:1004000045534F45565148504D414C483E53504539
:10041000565248524D434F4B3F4F4A3F545045541C
:1004200050454F4B3F524F43524D43524F43575409
:1004300048524D43544F454F4B404D483F5752480B
:10044000544F46504B42504B42524D4456504754E5
:100450005046524E44524F444C493D504C425956DE
:100460004B545046524F444C493D504C42575249D0
:10047000544F46504E42504C424F4B4057544957B0
:1004800052494F4B40544F46504D42504D425754A5
:1004900048524D44544F46524D43504B4257524898
:1004A000544F45504D415650464F4A3F524D43548C
:1004B0005045504D41504B414B483C504D4154529A
:1004C000464D493F49443C433F364742394C493EFB
:1004D0004D483F49463C4A473C49453A4E493F4EC4
:1004E0004A3F4A453C49473B4B473D5550475C597D
:1004F0004D59544A5550464D4B3F504C42544E4531
:10050000524D44504B424B483D4E4940544E44524C
:100510004E43524D43504B414D483E524D43544F34
:10052000464F4C414D493F49463A4D493F534F4450
:10053000534F444F4A414D4A3F4A473C4F4C415329
:100540004F454E4C404A453B48433A48443C46425E
:100550003947433A4642394541384542374A463D94
:1005600049463B47433A4A473D47443948443A4B5A
:10057000483E524D45555047524E44524E45514EBD
:10058000444E49414B463E4B483D4C483F504A4102
:100590004C483E4A483D4A463D4A453C4C473E4F02
:1005A0004A414C493E4A473C47443948453A4D49FF
:1005B0003F4D493F4D493F49453C4642394C483FF4
:1005C0004A483D4A483D4844394743394A473D4CEB
:1005D000483E4A453D48443B47433949473C4D49DD
:1005E0003F49453C47453A47433A4642384B463DEA
:1005F0004B473D4A463D4641384642384A463D4BC8
:10060000463E48443B46443948443B48453B4946BE
:100610003C48453B46433946413947433A4B473FBF
:100620004A453D45423848443C45423846423A48AE
:10063000453B48453B48443B45423847443B494697
:100640003C444238464139454339413F35454339B9
:1006500047423A47423A423F35423F3546423A45A1
:100660004238444038444238423E35423E364744A0
:100670003A444038454139424036423E3645413998
:10068000454139434137433F37403D34433F374687
:1006900041394440383E3C323D3A31413E35454196
:1006A00039434037403C343C3A303F3C3343403799
:1006B000423F36413F35433F37403D34413E35446C
:1006C0003F38413E353F3B333D3A313E3A32423E80
:1006D000363F3C33403E34413F363C3830413E3576
:1006E000403C343F3D34413D353F3D34413D353F55
:1006F0003B33423D36403C353D3932403C35403C51
:10070000343E3C33403C343E3A333A362F3F3C345F
:100710003E3B32403E353C3A313C3A313F3C33403F
:100720003D343E3C333B38303B39303D3A323F3D3F
:10073000343F3B343B39303B37303B38303F3C3340
:100740003C3A313A382F3A372F37332C39372E3D50
:100750003932403D34413D36403D343A362E3A3709
:100760002E403E353F3B343C3A313D39313C383008
:10077000413E353E3C33403D34413D363D3B3240C9
:100780003C35403D353F3D33413D353B39303D39CA
:1007900031413E35403D34413D353E3C333E3B31B9
:1007A0004340373E3B32434037423F363E3A324188
:1007B0003D35443F37423F36423E373E3B323F3C79
:1007C00032434037403D344440384540383E3B3268
:1007D000434037454038424036413D353D3A314649
:1007E000413946433943403747433B413D35413C1E
:1007F00034454139413D3447453B444137403D3321
:1008000045413942403647423A4641393F3C3244FD
:10081000403843403643403749453C433F37423EEA
:100820003547423A413E3447443A444137413D35E9
:1008300047443B444238464339464339403C3448B8
:10084000443B4C4A3F48443B48453B454138444083
:10085000374A453D47443A4A463D47433A433F3687
:1008600049463C46433949453C4B463D443F374861
:10087000443B48443B4541384C473E46423846425B
:10088000384A463D4642384D494049453C47433A3F
:100890004D493F4D493F4B473E4A453C4541384D08
:1008A0004A3F4E4C414743394A473D48443B484301
:1008B000394E49404641394B483D4B483D48443A02
:1008C0004E494049463C49473C49473C49453C4BD9
:1008D000493E4B493E4D49404F4C4149443B4744BA
:1008E0003A504C414E4A404C483E4A483D4A453BAE
:1008F0004E4B40504B424B483D4E4A4148453A4B87
:10090000473D524F44524F44514B4249463B4B4660
:100910003C514C424B463C4F4C424C493E49443B77
:10092000524E434E4B404E4B404E4A404C483D5039
:100930004D42524D434E4A404F4A414C473D4C4830
:100940003D544F45514D43514C434D4A3F4A463C1F
:10095000534D445451464F4C41524D434B463D52EA
:100960004D43524E434E49405450444E4B404D48E7
:100970003E544E45504D42504D424E4A404C493DEA
:10098000524F44534F44534F44514C424C493E55AF
:100990004F45534F44514C42554F454E4A3F4E49A7
:1009A0003F565147514C43534F45514F434D483E9D
:1009B000535045565148524D43524F434F4A3F5270
:1009C0004F43504D414D4A3E524F434F4B3F524F84
:1009D000435650464F4B3F565046524D434F4A4068
:1009E000545045524F44524F44544F464D483F5443
:1009F0004F465B564B565247524D444D4A3F504E20
:100A000042565047524F4459564B504E424E4B3F20
:100A100059564B504C42524F44524F444B483D5212
:100A20004F44504D424F4C40575448524D44504B08
:100A300042575248524D43544F45524F434D4A3FFF
:100A400059544A544F45524F43524D434D483E52DC
:100A50004F43545045544F45514D4348453A484300
:100A60003A4A463D48463B4B473E4A453D47443956
:100A7000504B424C473E4A473D4E4A3F49443A4913
:100A8000463B524E4458534A5C564D565146544F7D
:100A90004558534A514D434F4C404E4A404C473DB8
:100AA000524E444D4A3E545045524E4348443952AA
:100AB0004E43544E444D493E524D434E493F4E4B9A
:100AC0003F534F444F4A41534F444D483F48463AA5
:100AD000514D43514D43514C43504D4249443C4A82
:100AE000463D49453C44413748443B4440374441F6
:100AF000364B473D4A463D49443B47423A464238D9
:100B00004A463D49443B4B463D504C434D4A405577
:100B100051475350454F4B40514D4449453B4A4541
:100B20003C4E4A414A463B4E4B404A483D48433A78
:100B30004E49404C473E4A463D4F4A4149443B4955
:100B4000453B4F4A414F4A414F494049453C484542
:100B50003A4E49404E49404B483D4B463D48433A4A
:100B60004E494048443949463B4A473D4641384A48
:100B7000463D4D483F48443B4B473E48433A45423B
:100B8000384B483E4B463E4C473F47433A4440373C
:100B90004A473D47433A4A463D4C483E4642384A1A
:100BA000453D4A463D4642394A453D454137454126
:100BB000374B483D47453B4C473F464139413E3422
:100BC00049443C49443C4A453D48443B423E354506
:100BD000423846443A49453C4A483E434036423F03
:100BE0003547443B46413949453B434036403D3318
:100BF00047443A423F3545413846423A3F3C324409
:100C0000403843403644403847443A403C34413D04
:100C10003545413944403747423A423F36423E36F5
:100C2000454239433F374341374340373D393141EE
:100C30003F35464139444038454239403C33403CD9
:100C400033433F373E3B32423F36423E363E3A32F6
:100C5000423F36413D35413D35413D353E3B3242D7
:100C60003F37423E363F3D33423F363E3A323C38D4
:100C700031403E34403E34444138403C343C3830CE
:100C8000403C34413E35413E353F3D343B37303FBB
:100C90003B33423D363D3B32403C353F3B333E3BB0
:100CA000333E3C333C3930413E353D39313A362FC5
:100CB0003E3B323E3B32403C35403D343B382F409A
:100CC0003C34403D343C39303E3A333A382F3A38A0
:100CD0002F403C353C39313C38313C3A313A372EA3
:100CE0003D3B323D3A323D39323B39313B39303987
:100CF000372E3E3C33423E373E3B333D3A323A3666
:100D00002F3C39314441393F3C343C3A313D393153
:100D10003A372F434038403D34403C353F3C333A2E
:100D2000362E3D3B32423F363F3B34413E353B3829
:100D3000303A382F46423A413E35403C34403C340C
:100D40003F3B3345423A4440383F3C33423E363ED7
:100D50003A32413D35444137413D35403D343D39DE
:100D6000313D3932444138423F36423F36423F36C8
:100D70003E3B32454038444038413D354440383DA3
:100D80003931433F3747443B4340374441383D398D
:100D9000313F3B3349463D433F3745413944413775
:100DA000413D344A453D47443A4440384340363E4D
:100DB0003931433F364A483E46423A434137413E45
:100DC00034413E3448433B47443A4441374340363C
:100DD000413D354A473D47443B464239444238400D
:100DE0003C3448443B4C483F48443B48453B413EEB
:100DF000344541384F4D4349453C46433947453AD0
:100E000045413749453C4B463D48433B46443942C2
:100E10003E354B463E4E4B4147443A48443B4440A6
:100E2000374643384F4C424B473D4B473D49453C85
:100E3000433F364D483F4D493F48453A4A453C4778
:100E400043394D483F4E4A4148443B4A463D46415E
:100E500038484339514E434C483F4B483D49443B49
:100E60004440354B463D4E4B404B483E49473C4540
:100E700042384A473C544F454F4A414A473C4A470B
:100E80003C49453B4E4A404A483D4E49404C483F0C
:100E900048433A555046504B424D483F4F4B4146D0
:100EA00044394F4B41544F464B473D4B493E4B47CE
:100EB0003C4C493E544F46514E434E49404B473CB3
:100EC000474539524E43534E45504C424E4A404A94
:100ED000453C504C42535045504C42514C434A477C
:100EE0003C4C473D545146514C434F4A414F4A4177
:100EF000484339544F46514C434E4B3F4F4B41486A
:100F000044394D483E545044524D43524D444D484F
:100F10003E4D483E545045504B424E4A404E4A404A
:100F20004C493D555247524E44514C42534F444A0E
:100F3000453C514C425A564A534E44534E44514CF0
:100F4000434F4A415A554A555146534F45514C43D8
:100F50004C4A3E58534A555246524F435450454BC3
:100F6000483C544F4559544A524F43524F434D48C1
:100F70003E4B463D565246544F45524D434F4B3FD4
:100F80004D4A3F59564A575448524D44524D434A90
:100F9000473B504B42575448524F44504B424D48A8
:100FA0003F4F4A40575249524F44524D44524D448C
:100FB0004B473D544F46544F46504D42504D424B87
:100FC000483D565046575448524F435652464B4858
:100FD0003D4F4A40575448504D41504D41524D436A
:100FE0004F4A3F59544A545045504D41504D414E3F
:100FF000493E514C424E4B4048453B4A463C454297
:1010000037484339524E444B463E4C493E4A473C92
:101010004A473D524F444D493F49473C524F444E49
:101020004B415B564C615E535553475550464F4AB2
:101030003F4C493D59554A504C42504B424E4A4014
:101040004A473B524D44524D44524D43524D434DFD
:10105000483E4E4B40524D43504D41514D434B48FD
:101060003C4B483C534F44514C434F4A414D4A3FFF
:1010700047433858554A524F444A463D4A463D40F8
:101080003E3447433A4C493F47433A48433B464244
:1010900037423F354C473E47443A49443B49463B3B
:1010A000454238504D43534F4657534A5651484B8B
:1010B000473C4F4C415450474B483D4D4A3F4843B5
:1010C0003A4A453B514E434E4A404C493F4A463DC1
:1010D00047433A504A41504C434F4A414D4A40459C
:1010E00042384B493E524D44504B424F4940464492
:1010F0003949453C514E434B483D4C493F49443B9F
:10110000433F354C493F4F4A414C473E4A463D4399
:101110003E354B483E524E444A453C49453C45428B
:10112000384742394F4B4249453C49443C49463C8B
:10113000433E3649443B4A463D4A473D4A463D4484
:101140003F374A453D4C483F464439464339434181
:10115000364643394D494047453A47453A44413779
:101160004440374D4A4048443C4A453C48453B4151
:101170003C3448453B4E4A4049443C47443B403D53
:1011800033423D354B473F49443B444137433F356C
:10119000413D3445423949453D48433B46433A3F4A
:1011A0003C32423E3546433A444038444138403C64
:1011B00034413D3447443A4440374542394541394A
:1011C000413D34454239464339444038433F373B3B
:1011D000382F413E3548463C4541394440383E3A37
:1011E000323F3C3346433A423F36423E36403C343F
:1011F0003D3B32444138444038413D35423F373B26
:1012000037303E3A32444139423E36423E363C382F
:10121000313B382F45433A403E34403D343E3A332B
:1012200039362D4340384341383E3B323E3B323A1B
:10123000372E3D3A32423F36403C353F3C333B3718
:101240002F3A372F4240373E3C333F3C343C393114
:1012500039352D3F3C343F3C343F3B343F3B333901
:10126000362E3E3C33413D363B39303E3A333835FD
:101270002C38352C413E363B39303B38303A372E0E
:1012800036322B413D363F3C343D393239372E3CE6
:10129000383039372E3E3B334240373D3A323F3CBF
:1012A000343E3A323B3930423E363F3C343C3930B2
:1012B0003E3C333C3930403C344240373D3B323D8C
:1012C0003B323C3A313F3B33433F37413E35413E71
:1012D000353C38303E3A33444038413E363E3C336C
:1012E0003F3B333C3A314440384442393F3B33443E
:1012F00041373F3D333E3B32454139403C343D3B35
:1013000031413D35403C34444038423E36433F371E
:10131000423E363E3B32424036424036413E354107
:101320003E353F3C32403D3347433B444038423FEB
:1013300035433F37433F3746423A423F36444037D2
:10134000454139423E3645423947433A44413846A1
:10135000423A433F3643403648433B423F3546429C
:101360003A454238423E3549473D45413944413787
:1013700044413744413749443C47443B48433B445C
:101380004038403E3448443B4C4A4048443B474246
:101390003A44413747443A4B493E47433A47453A36
:1013A00049463C43403649453C4E49414643394510
:1013B00042384644394A453D4A473D47423A474408
:1013C0003A47443A4643384C493E4C473E47453AF3
:1013D00046423847433A4D493F4D493F4B473E47C8
:1013E000443945413848453B4D483F4A463D4846CB
:1013F0003B4A463D49463B4E4A404C493F4C483F9C
:101400004D483F4644394E49404F494048443A4B85
:10141000473E49453A4C473E504D424C493E4E4A64
:10142000404C493E47433A504A414E494049463B69
:101430004C4A3F4A453B4E4B41504B424B463D4F39
:101440004A414F4A414D483F4D4A3F4A473C514C23
:1014500042514D424B463C514E424E49404B463C18
:101460004E4B4049463B504B42504B424A473B4A09
:10147000473C4A453C4E4C405350454A473C4D48FA
:101480003F514C434C473D534D444D4A3F4D493FDE
:101490004C483D4B463C534F44514D434E493F50C1
:1014A0004D414E4940504B415450444E49404D49A6
:1014B0003E504B424D483E545045504B424E4C409E
:1014C000504D424E493E545145534F44514C425168
:1014D0004E424E4A3E514E425551454F4A414F4C65
:1014E000414E4A3F4F4C41565148534E454E4B3F5B
:1014F000534E45504D41555046524F43524D435621
:101500005046504D41524F43575448504B414D4A1D
:101510003E544F45504D41575248504D414D4A3E23
:101520005652464F4B3F545045545045504D4250F3
:101530004D424D4A3F524F445652474D4A3F4D4807
:101540003F4F4A40504B42575448544F46504B42ED
:10155000524D44504B42544F45524F44524F4452C7
:101560004D434D4A3F524D435650464F4B40504BD2
:1015700041544F45504B4159564A504D41524F43AB
:10158000544F45504B41575248524E444E4C404D9B
:10159000493F45413748443B4C493E48443949441A
:1015A0003A49453A4A463C544F46504C414A473CDA
:1015B0004B473E4B463D55524759544B5651485761
:1015C0005249524E42535044575448534E44544F3C
:1015D000454F4C404F4A40545045504C424D4A3E76
:1015E000524D444D483E524D44524D43504B414E56
:1015F00049404B483D504B41534E444E493F4F4B61
:10160000414F4C414C483D534D444D4A3F4D483F5E
:101610004D484049453B49453C47453A4642394A91
:10162000453C4643394644394C483E474539474492
:101630003A49443C47423949473D4C493F4C4A406E
:10164000565249524F45555048534F454A483D4BD5
:10165000473D4A473C4D483F4E4A414E4A41514E14
:10166000434D4A3F4A463B504B414A483D4A483D1C
:101670004E494047453A4F4C414D49404A473C4C02
:10168000473E49443A4B473E504B4249463C484509
:101690003A4B463D49443B4C493F4C483F4B483D03
:1016A0004A483D4844394C483E4C473E4643384AF8
:1016B000473D4A473C4A453C4B483E4743394845ED
:1016C0003A47453A4642394B473E47443A4A473DF6
:1016D0004A463D4442374C483E4A473D48443B4ACF
:1016E000453D4541384642394A463D49463C4945D3
:1016F0003C43403645403749463C47433A454139EB
:1017000047443A47433A48443B48443B48443B48B3
:10171000443B443F3648433B4C483F4642394643AE
:101720003944413744403749453B47433A444137C0
:10173000454139413E3446433A46433A43413742B4
:101740003F35423E35464239464339424036423EB5
:1017500036413E34444037454239433F37413D34BA
:10176000433F37433F37454238444138433F374191
:101770003F35403C33413E35454239424036413E9B
:1017800035413D35403E3447433B403E343E3A329E
:10179000444038403D34434037413F35423E373F77
:1017A0003D343B392F413D35423F363F3C33403E8F
:1017B000353F3C333F3B33413E36403C34413E3580
:1017C000413D353D3A31423F36423E363D39313B6F
:1017D00039303B39303F3B33403D353D39323E3B7C
:1017E000333E3A333C3930413D353E3A333E3A336D
:1017F0003E3B323A362F3F3B34403C353B372F3B64
:10180000372F39372E3D39323F3B343A382F3C3A67
:10181000313F3B343A362F3F3B343D3A323A362E55
:101820003C38313C38313D3A323E3B333F3B343E2D
:101830003A333E3B3339372E3E3C3345433A413D04
:1018400036403C353A372F3C3A313E3A333F3C3410
:10185000403C343C38303B382F423F37403C353DEC
:101860003A323F3C333D39313B39303F3D34423EE3
:10187000363F3D343D3A313C38303E3C33413D36D5
:10188000403E343E3B313C3A313F3B33433F3746A9
:10189000423A413E353D3A313F3C34413F35434089
:1018A00037444038413D353F3C33403E3445423873
:1018B000454038423E363E3A3242403646443A444B
:1018C0004138423E36403C33433F3746433944413A
:1018D000384541383F3D33413E3445423947423A2D
:1018E000454239413D343E3C324641394642394613
:1018F000433A4442383E3B31423F3549463C4B46F1
:101900003E47423A423E35433F3545433949443BE1
:10191000454139464139423F3549463C4E4C4249A2
:10192000443C443F36423E354440364542384742C7
:101930003A47423A44403744403746433947453AAC
:1019400047453A454137433F364C483F49463C4579
:10195000423848453B46423945423847443A4C476D
:101960003E4C493E4442374642384B463D4C473F49
:1019700049463C49473C4542384B473E4E49414B1E
:10198000483E4A473C4743394541384C473E4F4C17
:10199000414C473E46433949443B4C493F4E4B40FE
:1019A0004E4B4049453C48453A49453C4D493F4FDF
:1019B00049404A473C4541384A453C504C434E4AD1
:1019C000404E494049463B49453B514E434E4A40B3
:1019D000514C434A463B48433A4E4A41504D424F90
:1019E0004B414D4A3F4A473C4B473D524D44524F75
:1019F00044514C4249463B4B473C4C473E4E494084
:101A0000504C424C493E49463B504C42524C434E4E
:101A10004B404E4C404D4A3F4D4A3F4D4A3F524D40
:101A200043514D434A473C4D4A3F4F4A41514C4335
:101A30004F4A414D493F4C483D4C493D4E4B3F522A
:101A40004E43524D434B463D524D43555046524DE9
:101A500043544E444E49404D483E555247544E45DE
:101A6000504C424E4A404C493D524E44514E4251D8
:101A70004C42534E444C493E4E4A3F554F45534FBE
:101A800044514E434F4A414E4A3F4F4C41534F45BC
:101A9000534E45514C434F4A3F534F45555146567F
:101AA00052485450454F4A3F4F4A3F545045565074
:101AB00046565046504D414F4A3F524D43544F4574
:101AC000544F454F4B3F4B483D504B41524F43566F
:101AD00052465450454D483E4F4B4057544856523D
:101AE00046524F434D4A3F524D4357544854504538
:101AF000565046524F434F4B40504D42565046561B
:101B00005046504B424F4B40504B41504D42524D2E
:101B1000435450454F4B3F524D4357524856504601
:101B20005450454D493E49463B4B473E4B493E4A42
:101B3000473D48453A4843394A473C4F4A41504B54
:101B4000414E4A404A463D4C493E4F4D414F4D4221
:101B500055504855514756524858554A59564A5774
:101B60005147504B414E493E4F4A40504C425451D0
:101B7000455450454E493E4D4A3E504D42524D44CB
:101B8000524E444E49404B483D504B4256524852AB
:101B90004E434E493F4D493D4F4D41514D434F4BB3
:101BA00041514D434D4A3F4C493F514B434C493FB6
:101BB00049463D433F35403D3348443B4B473D4A12
:101BC000473D49453B4541374644384D473E4B47E5
:101BD0003D4B463D4C493F4E4941544F46534F457E
:101BE000565148524E444A473D49443C4D483F4F68
:101BF0004A414B473D48443A4B463D504B42514D7C
:101C0000434D4A3F4A463B48433A4E4A404A483D84
:101C10004C493E49463B4543384C493E4D4A404C71
:101C2000493E4A473C45423749473C4D483F494574
:101C30003C4E494049443B48433A4E4B404B463D5D
:101C40004C493F4A483D4641384744394A453D4D55
:101C50004A3F4B483E45413848433A4E49414D483A
:101C60003F4B483E45423846423849443C47443A57
:101C700049463B47433A44423748443B4C483E4A36
:101C8000463D48443B4441374642394C483F48452D
:101C90003B47453B4540374541374541374541384E
:101CA0004A453D45413844403744403646443A4A27
:101CB000463C48443B4440364440384A463D494609
:101CC0003C47433B413F35413F3547433A47443A20
:101CD000454239454138413D3445413848433B440C
:101CE000403846423A433F36403C34423E36454215
:101CF0003947423A423E363F3D33454239423F360C
:101D0000454139423F353D3B3144403847443B44EF
:101D10004038413F353E3A32423E36454239413DF8
:101D200035423E363F3B333F3B33454238444038F3
:101D3000433F37403C343F3C3243403745423942D1
:101D40003E363F3B333D39313D3A31423E364440E9
:101D500038403C343C3A303C3930433E36424036E1
:101D6000413E353D3A313B39303E3A32413D3540D6
:101D70003E353F3C333B382F3C3930403D353E3CCF
:101D800033403C343D3A313A382F3C3A31413C35CE
:101D9000403C353C38313C38313C3A313C38313EBE
:101DA0003B333D393238352D3B39303E3B333E3ABB
:101DB000333F3B343C393138352D3C38313D3B32B3
:101DC0003D3A323B373038342D3B3931423E373E95
:101DD0003B333E3C333C393039362E413F36413D72
:101DE000363D3A323E3B323B38303C3A31423F3668
:101DF000413D35403D343C39303C3830413D364141
:101E00003D363F3C333F3B333B37303E3A32433F36
:101E1000383F3B343E3C323A382F3D3A314441382A
:101E2000434037403E343C3A313A362E44423944FE
:101E300042393F3D33413D353C39303F3C344543E9
:101E400039413D354440383F3B33403C34454238CE
:101E5000423F36423F363D39313E3A3246443A44BB
:101E60004038423E36413D353F3C3346413946439A
:101E700039433F37423F353B392F413E3448453B9C
:101E8000454139444137424036403D344A463D475A
:101E9000443B444238444238403E3446423A494644
:101EA0003D433F37434137413E344440374A453D47
:101EB00049443B49443C464139423F354A463D4905
:101EC000453C464239464239413E3446423A4A450B
:101ED0003C45423847433A413D344540374D4A40FE
:101EE0004B463D49453C423D35423D354E49414CCE
:101EF000493F48453B454238423E3548463B4E4ABD
:101F0000414C473E4A473D4642384340364D4B40A0
:101F10004D473F49463C4742394541384D483F4D82
:101F2000483F4A473C48443B433F3548443B504E7A
:101F3000434C483E4C483F49463B4B463D4F4C4244
:101F40004E49404B483D454037423D344F4B40524F
:101F50004D444D483F4B493E49443A4C493E504D13
:101F6000434A473D4A473D46413849463B5450461F
:101F70004E4A404D4A3F4A463B4B463D534E4550E4
:101F80004B424D4A3F4D4A3F4A463C4F4B41544FCE
:101F9000464F4B414C493E464237474439524E44E6
:101FA000504C424E4B4047433949473B53504553B1
:101FB0004E454E4B404D4A3E4A473C504C42534F93
:101FC000454F4C41514C434744384A453C534F449C
:101FD000514C43514C4349463A4B463C534E445373
:101FE0004E44504B414E4B404E4B40544E44555046
:101FF00046504B42504D424B483D4D493E5550474F
:10200000504D42504C424A453B4E4A3E5551475135
:102010004C42514C424E4A3F4A453C554F45565121
:1020200047514C43534F454C473E514E43585349FB
:102030004F4B41534F454B483C4A463A5551465504
:1020400051465552464F4B3F464137544F455A57DC
:102050004B524D43524F434F4B3F504B415B564BBE
:10206000524F43524D434F4B3F4D4A3E56504654BC
:102070005045545045544F454F4A40565246575488
:1020800048504D41544F45504D41524F4359564A87
:10209000545045544F454B463D4B483D59544A5684
:1020A0005046524D43504D414D483E545045565276
:1020B00046524D435450454D483E4E493F58544971
:1020C0004D483F48453B46423947433A4E4C404DC8
:1020D000493F4A473C4A463A48453A504C41504CA1
:1020E000434C473E4E4A404C4A3F514E445D594D49
:1020F0005754495653484E4A414D4A3F5B584C55F8
:102100005145514C424E4A3E4A453B524E44545032
:1021100045504C42504C424944394D493E57544930
:10212000524D44504B4249443B4D493E565448540D
:102130005046504D414E4B3F4D483D514D435451FB
:10214000464E4B404F4A4148453A49443C4B483E35
:1021500047443A48433B423E354540374D4A404D5F
:10216000483E4B473D49453B4540374C473F524D24
:1021700044534E465754494F4C414C493E545046A7
:102180004F4A414D493F4B493E4B493E524D444DCC
:102190004A3F4B473D4F4A414A453B4B463D504BDA
:1021A000414D483F4C493F49453B4E4940514E43C4
:1021B0004A473D4E4A404A453C49443B504C424BBD
:1021C000493E4B473E4D483F48453A4D483F4F4BAF
:1021D000424E4B4049463B433F354B463D4C493FC1
:1021E00049463B4C493F4A473D48443B4D4A3F4C9A
:1021F000473E4B473E4B473E433F3649453C4E4B9F
:102200004049473C47453A423F3447443A4A473DB4
:102210004A463D49463B44403747423A4B483E4A8E
:10222000453D48453B48453B433F3648433B4E4B85
:102230004149453C4641394340364643394B493E86
:102240004A453D47443A413E34413E3448453B4887
:10225000443B49453C4642393F3B324642394A4677
:102260003D47443B444037413D354543394B473E6C
:1022700043413748433B423F35403E3448433B4669
:10228000433A4442384340363E3C3244403845426B
:10229000394441374440373F3D3343413746423A62
:1022A000454139433F373F3C333F3B334641394358
:1022B00040374240364441383E3C32413D3544414E
:1022C00038423E364340373E3B323F3B334541394F
:1022D000413D35413D353C39303E3C324542394245
:1022E0003E363F3D333F3B333B392F403C35444046
:1022F000383F3B333F3C333C38303D3931423E364A
:102300003E3C333E3C323C39303D3931434037422C
:102310003F363F3B333D39323B382F403D34413D22
:10232000353D3931403D343D3A313A382F423E3621
:102330003F3B343E3A323F3B343A362E3F3B33400C
:102340003C343D3B323B383039372E403D353F3D04
:10235000343B39303C3A3138362D3A372E403D3512
:102360003B38303A382F37342C38342D39352E3D20
:102370003A323E3B333E3B33403C343B382F3D3AD0
:1023800032403E353E3A323F3B343C3A313C3830C5
:10239000423E373E3C333E3C333D39323C3830419F
:1023A0003F363F3C333F3B33423E363A372E3E3B8F
:1023B00032423E363E3C33413D353D3A313D3A3185
:1023C00045433A403C34444038403C353E3B324340
:1023D0004137423E364541394541393C3930413D2E
:1023E000354340373F3B33444038423F363F3C3330
:1023F0004340373E3B32413D35413E353D3A314524
:102400004239423E36403D33464139403C34423FFA
:1024100035464339423F3546423A423F36413D34E4
:1024200047423A47423A48443C423E36403C3448B0
:10243000463C4442384442384A463E423E35433F99
:102440003746433A423E3548433B444137434036A2
:102450004B473F49443C47433B433F363F3C324672
:10246000433949453C48453B4A463C444136454151
:10247000384B473E49443C49443C47443A4643393B
:102480004D4B4045413749453C4642394541374C23
:10249000483F4542384542384B463E4441374A471B
:1024A0003D4D4A4044423749443B47443A4643380D
:1024B0004C493F4B473E4E494049453C433F364AD5
:1024C000473C4E4A414B483E4C473E4643384846BF
:1024D0003B4E4A3F4A463D4F4C4149443B464339B7
:1024E0004C493F49463B4D483F4B483D4744394D99
:1024F000493F4F4A414A473C4B473E49443A4A4785
:102500003C4F4C414E49404C493E48453A4E49406B
:10251000504A414E4B404E4A414D4A3F48433A4F44
:102520004B414D483F4A473C4F4A4149443B4D4946
:102530003F544F464E4B40514E424B463C49463B22
:10254000514C43504C424C473E4C493E4C493E5006
:102550004B42524C43504D424E4C404D483F524DE1
:10256000435552474A453C4C483D4F4A414F4A41EA
:10257000544F464D4A3F514D434F4C414B483C53BD
:102580004F44524E434E4B3F524D434E4940544EA2
:10259000445752484E49405450454E4B404D493E99
:1025A0005450454E4A40504C42524F444E4A3E557C
:1025B0005147514E424E4A3E554F454E4A3F4F4C71
:1025C00040554F454C473E534F444F4C414E493F79
:1025D000585349554F46534E454F4C414C4A3E5334
:1025E0005045535045504D41504D414F4A3F565034
:1025F000465652464F4A3F545045524D43504B4128
:1026000059564A504B41545045524F43504B4157F5
:102610005448524F43524D435652464D483E524FF6
:102620004359544A524D43565246524D43504D41E0
:1026300059564A4F4A404D4A3F504D424D4A3E56E8
:102640005046524F434F4B3F524F434D483E504DE3
:10265000415754484F4A40544E4449453C45413601
:102660004E4B414742384A473C4B483D4843394E20
:102670004A40504B414B463D4C473E49463A4D49F6
:10268000405652495350465E5A50555046524D445A
:10269000575147524D444F4A40534F444F4A40557B
:1026A0004F45534F444F4C40544F454E4A404F4C7A
:1026B000405552474E4A404E4B404D4A3E4E4A408E
:1026C0005552464E49404E4B40524D434B463D5469
:1026D00050465350444F4B41534E444C483F4E4A52
:1026E000414B473E4340374A453D47423A454137D3
:1026F00049463C48453A4D4A3E49473C44413649A3
:10270000473B4D4A404F4A41504B42504E4357522F
:102710004A5652494F4B405350454C473D4B463C1F
:102720004D4B3F4D4A3F514B42524D444A473C4D21
:10273000483F4F4A414D483F4D483F4A463B4C4831
:102740003F504B414C483F504A414C483E4A463D21
:102750004E4A404A453C4A453C4C493E4744394D27
:1027600049404B473E4B473E4D493F4644394B4815
:102770003D4E4B4048443A4C493F4B463D49443B13
:102780004E4A404A473D4E4A414D4A3F4743394AE7
:10279000473D48453B48453B49473C434136484512
:1027A0003A4B473E47453A46433846433847433A13
:1027B0004D494047443A4A473D4C473E4541384BD6
:1027C000463E4644394643394C483F4541374845E3
:1027D0003B4B473D49463C4A473D454139444137DB
:1027E0004A453D48443C47423A454238423F3546D7
:1027F000423A48443B464239444238423D354743D9
:102800003B49463C4441374A473D454139423F35C3
:1028100047433A423F35433F37454238403E3444D0
:10282000403846433A46433947443A413E354240B0
:1028300036454139413E3447423A423F36413E34C3
:1028400047433B423D35413D35403D343C392F43C4
:102850003F37454239444038413D353D3931403DAF
:1028600033454238434037433F373F3C333D3B32AB
:10287000444038433F37413D35403D343D3A314196
:102880003E353F3D33413D35423F363B382F3E3BA1
:1028900032433F373E3C33433E373D3A313C39309B
:1028A000413D353E3C323F3D34413D353D3A31407E
:1028B0003D353F3C333F3B33413D363C39303E3C78
:1028C000334240373D3A31413D353C3A313B383077
:1028D000403E353C38313D3A323C3A3139372E4072
:1028E0003C343E3B3339372E3E3A333F3B343E3A5D
:1028F000333F3B343A372F3D3A323D3B3238362D69
:102900003F3B333C383139372E39372E3B39303A5B
:10291000372F403C34423E373E3C333C3A31383628
:102920002D3C3831413F363F3C343E3C333C3A311C
:102930003C3930413E353E3C333D3B323D39323B04
:10294000382F3F3C33423E363F3B333E3A323B37F3
:10295000303F3C34434138403D343E3C333A382FDD
:102960003A382F444038444038423E363F3C333BAF
:10297000372F3F3D3348443B4441383E3C323F3B98
:1029800032413D3547433B413F35423E363F3B3385
:102990003E3B32454238454038424036403D333E6A
:1029A0003C32424036444138444138433F373C3959
:1029B00030413D344A463D47453B434137413D3434
:1029C000413D344B483E48443C464139433F364004
:1029D0003E3447433B49463C48433B433F373F3CFB
:1029E000334542384C483F47433A454339444037E2
:1029F000433F364A473D47443B46423946423942C7
:102A00003E3549443C4C483F46443A46443A4240AD
:102A1000364440374B473E4B473E47443A433F36A8
:102A200045413749463C4B473D4B483D454237427F
:102A30003F354A453D4C483F4A463D48463B444069
:102A4000374642384D49404A463D4C493E47433A55
:102A50004542374F4B424E494049473C48453A452D
:102A600041384B473E504D434D4A3F4A473D444114
:102A70003648463B504E434C483F49463B46433917
:102A80004643394F4C42514E444E494047443944E5
:102A900040364D493F504D424C493E4A473C4543E4
:102AA0003849453B5250454E4A404C483E49463BCA
:102AB00048433A4E4A40504B414E4A414A453B45B5
:102AC000423748453A4F4A414D4A3F4A473C4744BE
:102AD000394B493E565247514C424F4B414B463C75
:102AE00049463B565147504C42524C43524C434945
:102AF000453B4E4C40534E454E4A404E4A404A4557
:102B00003C4F4A41555247514D43524F444F4C411F
:102B10004A463C534F445653484F4C414E4B3F4C12
:102B2000483D544F465452464D493E504D414E4B00
:102B3000404E4B40544E44524D445450454D4A3EF5
:102B40004B493D555247545045555047504C424EC5
:102B5000493E504C42555145534F444F4C404E4ACC
:102B60003E4E4A3F554F45514E43514C434F4A41CB
:102B70004E493F585349555146555146514E434B86
:102B8000483C554F465A554B514F43504B414D4A87
:102B90003E504B415754485450455652464D4A3E7C
:102BA0004F4B3F59564A59544A544F454F4B3F4F4C
:102BB0004A3F575248575448504D41504B414F4A55
:102BC0003F524D43565046544F45524F434D4A3E57
:102BD000504D41575448524F435450454F4A3F4F30
:102BE0004A3F565046544F45524D43524F43514C25
:102BF000424E4C414B473E49443C49463B47423894
:102C000049443B4F4D424E4A404C483E4B463D4561
:102C10004136504C43534F454F4A42534E46524F14
:102C2000445A574C5E594F565249534E454D4A3FB0
:102C30004C493E565347514E42534E444E4A3E49EC
:102C4000453A534E44575249504E424F4A404A45E6
:102C50003B4E4A40555047524E44504B424B463DE6
:102C60004D483E575248544E44504B414B483D4BC3
:102C7000483D534E44534E454B473E454238413DF7
:102C8000344542374D4B3F48453B46433845423833
:102C9000474239504B424E4B4049453B48433A47E7
:102CA000433A504E435C5A4F565249524F444C4956
:102CB0003F4B463D514E434F4C424E49404B463CA4
:102CC0004B473C524D44514B424D4A3F4A463C478C
:102CD00044394D483F4F4B414D4A3F4D483F484591
:102CE0003A4A453B534E45504A414E494046433887
:102CF0004541384C493E4D49404D49404B473E497E
:102D0000453A4B483E4D493F4B483E4B463D44407B
:102D100035464239514C434F4C424C483F49443B65
:102D200049443B504C434E483F4A463D4A453D444A
:102D30003F3648433B4D483F4B473E4B473E45425D
:102D4000384642394B473E47453A47443A4643386E
:102D50004642384C483E4D4A4048453B464239423F
:102D60003F354542384B483D4B463D464339433F4E
:102D70003647433A4F4B414B473F47443A4340362F
:102D80004340364E4B414B483E46423A454038421E
:102D90003E354442384A463E47443B444238403D33
:102DA00033433F364D49404A473D49443B413D341A
:102DB000413E3448453B45413846433A4542384018
:102DC0003E3444423847443A464239444038403D14
:102DD00033423E36454239433F37423F36413E3427
:102DE000413C34454238444138444038413F353D08
:102DF0003A31423E36444038413E35444038403C0A
:102E0000333F3B33454238454238433F37403C34FB
:102E10003D3932433F374340373F3D343F3B343BFE
:102E20003930413E35444239403E35403C353C3AEC
:102E3000313E3A32433E37413E36413D353C3930F2
:102E40003C3930423E36413D353E3B323F3B343BE0
:102E50003930403D35423F37403D35403D343B37CA
:102E60002F3E3C334541393E3C333F3C3439362DCF
:102E70003A362F433F373F3C343D3B323C393139C2
:102E8000372E3D3B323D3A323D39323E3A333936C8
:102E90002E3B3930403E353B38303D3A323A372EC2
:102EA0003A362E423E373E3A333D39323E3B333B93
:102EB00039303C3930413D363E3B333C3A313B388A
:102EC0002F38352D403E35433F383F3C343F3C346E
:102ED0003A382F3C3930413E35403C343C38303C68
:102EE00039303D3932403D35423E363E3B323B374C
:102EF000303C3930413E35413E353E3C33413E3633
:102F00003C3A30413E36434037403E353E3A323F10
:102F10003D333F3D33413E35443F37413D35413FF1
:102F200035434037454139454339423F363E3A32D1
:102F30003C3830423F3649453D46423A403C333DBD
:102F40003A31424036464239444038433F37413DAA
:102F5000353F3C3345423847433B413E34413D34A5
:102F6000413E3445423947423A45413947433A4068
:102F70003D34423F3548443C444238423F35433F6C
:102F800037423F3548433B48433B45413947433A45
:102F9000403D334340364A473D47443B4440384434
:102FA00042384643394A453C48453B45423845410D
:102FB000384541384542384B473E45413947433A09
:102FC00047453A47433B49453C49463C45423745DE
:102FD000423748443B4B463E4A453D47443A4440CD
:102FE000374441374C473E4D494049443C49463CB3
:102FF00043403647433A4D493F4B483E48433A47A2
:1030000042394742394B473E4E4A414A463D444188
:103010003648463B4C493F4C483F4C493F48433A71
:1030200048443A4B483D4E494049453C4B473E4B4E
:10303000473E49453C4F4B414F4A414C493E4A4728
:103040003C4541384C493E4E4A404C473E4A463D3D
:103050004A463D4A453B504B414E4A414D4A3F4B03
:10306000463D4B463D4F4B414F4B414B483D4A46F9
:103070003C4A473C4F4C414F4B414F4C414B463CE7
:103080004744394C493E524E44535045504C424BB4
:10309000473C49453B504C42524E434E4C404D4AB2
:1030A0003F4A453C534F45534F454D4A3F4F4A4198
:1030B00048443A4F4C41544F46514D434D4B3F4984
:1030C000443B4E4B3F565348524E43524D43504D56
:1030D000414B483D504D42504D42504B42544E455D
:1030E0004B473D504B42545045524F444E4A404C42
:1030F000493D4F4C40544F45565147514C424E4923
:103100003E4E4A3F565147565147514C434E4A3F17
:103110004C473E514E43555146534E454F4C414C02
:103120004A3E514E4358554A555046534F45514FCC
:1031300043504B41545045555246524D434F4B3FDF
:10314000504B41544F45575448524F43524D4350B2
:103150004B41524F4359544A544F45504D41504BA7
:10316000414A463A524D43565046504D41504B41CC
:10317000524F43545045575248545045565046506C
:103180004D414F4A3F545045554F45524D434A4794
:103190003D423F3449463B4D483E4D483F4C493EF9
:1031A0004B463C504B414E4B404E4B404B483C49AC
:1031B000463A4F4B4258554B5D594F565348514E26
:1031C00044565148575448565147514E434E4A3F32
:1031D0004A453C514C42575549514E424F4A404C4A
:1031E000473D4E493E545045524F44524D444E4A3D
:1031F00040494439524D44575249504D42504D4236
:10320000524D43524D43544E444E4B40504B414C13
:10321000483C46433847443B47433A47443A49458C
:103220003C48453B4B463E4C473E4A473C47443969
:103230004542384A473C4E49404F4B42524E455119
:103240004D44524F4358534A5450464D4A3F4744C9
:10325000394B463C514C434E49404C493E514C42FF
:103260004B463C4A463C4F4B414F4A414D4A3F4BEF
:10327000483D48443A4D4A3F504B424D483F4C4AE6
:103280003F48453A4E4A40514C434C493E4C473EDC
:1032900049443B4A453C4F4C414C493E4A473C49D6
:1032A000453A49453C4D483F4D483F4B483D4B46CC
:1032B0003D48433A4B483D4E49404A483D48433AD1
:1032C00046413848463B4C483E48443B4A473D4AC5
:1032D000453C48433B4B483E4D483F4B473E4B47A0
:1032E0003E45403847433A4C493E49443C464338C2
:1032F00044403747443A4C473E4A453D45423844AE
:103300003F374642394B483D49463C4542374643A4
:103310003947433A47453A4D4A404A453D45413889
:1033200043403647443A4A453C46443A454238448D
:10333000403644403849463C47443B46423947447E
:103340003B46413947433A47443A47443A45423974
:10335000413D3445413848433B46423A433F374478
:103360004238433F3643403647423A444038403C77
:1033700033413D3444403747433A4341373F3D337F
:10338000423E35423F354643394641394340373D59
:103390003A313D3931423E36444138423E363E3C78
:1033A000323C3A30423F36454238423E364440385D
:1033B0003F3C323F3B32444038423F37423E363F4B
:1033C0003B333F3D33433F37403E35403E35403E43
:1033D000343E3B31403E344340373E3A333E3C334B
:1033E0003E3A323E3C32423E36413D353E3A323D37
:1033F00039313D3B32403C35413F36403C343C392D
:10340000303D3A31413E35423E363C3A313F3B3425
:103410003A372F3E3A32413D36403D343C38313B1D
:10342000382F3A382F3E3B333F3B3439372E3A372B
:103430002F3C39313E3A333F3B333B37303C3A3116
:1034400039372E3C38313F3C343E3B333E3B333EF4
:103450003A333A372F3B372F3E3B333D3B323D3AF1
:10346000323D3A323C3A313F3C34413C353C3931D3
:103470003E3A333C38303D3A313E3B333B382F42C5
:103480004037403C353B3730433F373F3D343D3993
:10349000313E3B323D3A313E3C33423E3644403889
:1034A0004440383E3A313F3B33434037403E354459
:1034B0004139413D353A372E444137444138413D49
:1034C000354541393D393244403847433B423F3628
:1034D000423F363C3A30423E3646423A413E35441F
:1034E0004038423E363E3C32444038434037434009
:1034F000374542383F3B3343413746423A423F36F5
:1035000048443B413D34423E3642403648443C47C5
:10351000443A403C34403E3446433A46433A4643BC
:103520003A454238413D3445413949473D49473D97
:10353000454339413D3544413749443C423F354795
:10354000433B464239423E3546423A454038464280
:103550003A4A453C413E3445413849453C4A473D5D
:103560004B473F45403745403749453C4341364846
:10357000433B4642394441374A463D48453B48462D
:103580003B4A473D42403547443A49443C47433A29
:1035900049463C4340364643394B473E4743394B07
:1035A000483E4A473C4543384D483F4C483E4C47CF
:1035B0003E4C483E4440374A463D4C493F49463BD5
:1035C0004F4B4246433948443A4F4B424E49405094
:1035D0004D4249473C4540374A473C4D49404F4A98
:1035E000414D49404543384A453C4C493E4E49408F
:1035F000504C414A463D4B463D4C4A3F514E435349
:1036000050454D4A3F4A463B4D4A3F4F4A414F4B3A
:10361000414D4A3F4744394C493E4F4B414B473C53
:103620004F4B4249463B4E4940504C424E49405216
:103630004C434C4A3E4C483D524D43504C42524DF7
:1036400043504D424A453C4D4A3F514D43514C43F6
:103650004F4C414A473C4C483D534F444D4A3F4CE8
:10366000493D4E493F4E493F504B41504D415450CA
:10367000465450444D493E504B42544E44544E459E
:10368000524D444D493E4D493E504D424E4C4054A2
:103690004F45504C424C473D534E44514C42514C87
:1036A00042534E444C493D555145554F454E4A3F76
:1036B000554F454E4A3F514E43555146514E435347
:1036C0004F454F4B414C4A3E58534A58534A53502A
:1036D000455350454D483E545045555246504D4136
:1036E0005650464F4A3F504B41565046544F455412
:1036F0005045504B414F4A3F545045565046575203
:1037000048504B414D483E504D41524D43504B4126
:103710005650464D483E504D4154504554504557E3
:1037200052484D4A3E4543384C473F4B483D47433E
:10373000384A473C49453A4E49404F4C41504B412D
:10374000504F434A453A4C483E514D424E4A4058EC
:10375000534A58554B5451465A554D535045524F64
:10376000445551454E4A3F554F45534F44514C42A5
:10377000514C424A473C514E42565347534F445591
:1037800053474F4C404C493D555247575249544E70
:10379000454E4B404D493E555046545045504D4284
:1037A0005652484E49404E4B3F514E4249463C4787
:1037B000433A444035413E354C473F4D48404D49E2
:1037C0003F4E4B414442364A453D4E4A404A453CB5
:1037D0004C473E4A463D524E445B584D545146502C
:1037E0004E424E4A404C483D524C43504C424C494C
:1037F0003E4F4B4249463B4E49404F4B41514C4254
:103800004F4C4149463B4B473E514D42514D425032
:103810004D424B483D48433A4D483F4E4B414E4A3E
:10382000404E4A4049463B4C493E4E4A404C493E38
:103830004E4A4047443A47433A4A453C49453A4B49
:10384000483E49453C47423949463C4D483F4E4930
:10385000404C483F44423749463B4C493F49443B32
:103860004C493F4744394744394C473E4C483E5207
:103870004D444B473E45413849473C4B473E4D47F9
:103880003F49463C44423749463C46433849463B1B
:103890004D48404641384441374A463D4642394802
:1038A000443B4643394341364C483F49463C4745F3
:1038B0003B49463C43403649453C4A453D47443AEE
:1038C00047443A413E344240354A463C48443B49ED
:1038D000453C48443B43403647433B47443B4B49C8
:1038E0003F4A453D403B33434036443F3748433BE6
:1038F0004541383F3B33423F3548433B403E3447E8
:10390000433B4643393F3C324542394542394240C8
:1039100036454139403D3345423946433A433F37C6
:1039200047453B403C343F3C33464139403D3341C1
:103930003D35423E36403C33424036413D35403CC9
:1039400034433F373F3C33403E34423E36433F37BB
:103950004543393F3B32413D35423E37413E354498
:103960003F373F3D333B392F403C35433F374440A1
:10397000384340373E3A31403D34413D35413D3595
:103980004240363D3A313F3B34423F363E3A324088
:103990003D35403C353C3930413E35403C34403C7F
:1039A00034413E3539372E3C3A31413E35403E3583
:1039B0003F3B343B37303C3831403C343E3B334175
:1039C0003D363D3A323A382F3F3B343D39313C3970
:1039D000313F3C3437352C3C3A313D3B323C3A3177
:1039E0003D3B3239372E3C38313D39323F3D343E54
:1039F0003B333D39323B372F38342D3D3B323F3C52
:103A0000333E3A323E3B3239352D3F3B34413C3533
:103A10003D3931413E353C39303C38304440384402
:103A20004038403C353A372E3B3730433F37413EF4
:103A3000353E3B323F3D343C3930434036434037DE
:103A4000413E36413E363B382F403C3547433B42B2
:103A50003F36423E363F3B333E3A32454139413FA5
:103A600035413F35413D353B372F403E3448443C9E
:103A7000454038423F363C3A30403D3348453C466D
:103A8000443A423E363D3A313D3931444138434073
:103A900037433F374341373D3A30433F3747433B56
:103AA00047433A454139413D34403D334A473D471C
:103AB000443A434036403E34423E354C483F484508
:103AC0003B433F37454238413D3449453D4D4A40EF
:103AD0004541394A453D433F364340364A473D47D5
:103AE000433B464239443F363F3B3248443B4B46DA
:103AF0003E47423A47423A403D3349453C4F4B41AD
:103B000047453A47453A433F364642394C483F4895
:103B1000453B4B463E454238413D334E4A414E4A75
:103B20004147443A49463B43403549463C4D49406C
:103B30004C473E4B463E434036433F364F4B424E4A
:103B40004B414D4A3F474339444136504D43504D18
:103B5000434A463D48443B433F354643394F4A413B
:103B60004C483F4B483D4643394B483D4E49404DFC
:103B7000483F4D483F48453A4542384D4940504CF2
:103B8000424F4A414C493E45433849453B514C43DD
:103B90004E49404E4A4046433846433853504550BC
:103BA0004B424B483D4D483F4744394F4A41524FA5
:103BB000444B493E4B493E4744394E494056514794
:103BC0004F4C424E4B404B463C464238504C425282
:103BD0004C434E4B404A473B474338504D42524D71
:103BE00043504C42504D4248443A524D445551473F
:103BF000514C434F4A414A473C4D493F5651485327
:103C00004D44514D434D493F49443B534E4454521A
:103C100046504D41504B4149463B504B4254504514
:103C2000524E44544E454B493D4D4A3E57524952DF
:103C30004D444F4A404F4A4049443A4F4C405753F5
:103C400049514E424F4A40474439514E42585349D8
:103C50004F4C41514E434C473E4E4A3F58534955B5
:103C60004F46534E454F4B414B483C565348585393
:103C70004A4E4B3F514D434D483E54504556544893
:103C8000504D415550464B483C4D483E5552465488
:103C90004F455552464F4B3F4D4A3E5C594D575448
:103CA00048504B41524D434D483E4F4B3F54504579
:103CB000524F43544F454D4A3E524D43544F464C4C
:103CC000483F49453C4641374340364D4A3F4F4BBC
:103CD000404E4A404E4B404541364D483E544F457C
:103CE0004D4A404F4C43514C4357544A5F5A5257E8
:103CF000534A575249504C414A473B5651475653F5
:103D0000474F4A41514C424A473C4E493F5853491C
:103D1000514E42514C42474439514C425A574C54EF
:103D20005045524E444E4A3E4C493D5754495450DA
:103D300045504B42504B4249453B504B42524E43FB
:103D40004E49404E4A404341374642394A463E4931
:103D5000443C4A463C4542374641374E4A3F4F4A2B
:103D6000414E483F4A453C433F354C493F565349F5
:103D7000575449575549524D434B493E5550475367
:103D80004F444E4B4049473B474339525044524EB3
:103D9000444E49404B473C464237514C42524D44B9
:103DA0004F4B41514B424B483D4D483F514D424D89
:103DB0004A3F4E4B414D483F4B463D514D434C4988
:103DC0003F4C493F4C483F4540364A473D4F4A41AA
:103DD0004C473E4C493E49443A4742394F4B414D8E
:103DE000493F4D493F49473C4540374D483F4C4985
:103DF0003F49463B4B463D4442374A463D4F4C4186
:103E00004C473E4C483E4744394543384E4A414D65
:103E10004A3F4D483F4743394540384D493F4B475E
:103E20003E49463C4B463D44403747433A4D4A4065
:103E30004D48404C483E4441374541384B463E464C
:103E400042394A453D454237433F364E49414B464C
:103E50003D46413947433A403D334543394D49405A
:103E600048443C47423A423E3546423A4E4A40492F
:103E7000453C48433B444238403D3347433B47433E
:103E80003B444037454139403D33413E3448453B52
:103E900046423A46423A403E3444403848443B4722
:103EA000433B464339403C34413D344A473D474417
:103EB0003A4541394542393E3B3243413749453D18
:103EC0004542394440383D39313F3B334441384421
:103ED0004138444138413D353D3931423E36454215
:103EE00038423F36433F37403C34403C3443403710
:103EF000433F37413F353D3B313D39314541394401
:103F00003F37413D353F3B333F3B334440384542EB
:103F10003A403E343E3A333C3830413D35434138F7
:103F20003F3C34413D353A372E3D3A3144403940EB
:103F30003D35413F363F3B3339352E413E354240DA
:103F4000373D3A313D393138352C3E3B33444039E9
:103F50003E3B323F3B3438342D39362E44413840D5
:103F60003C34403D343B383037342B423E37413EC1
:103F7000363C39313A372E36332B3F3B33403C35D4
:103F80003A372F3F3D3439362E38342D3A372F40CB
:103F90003E353E3A3339372E3B372F39372E3F3CAB
:103FA000333D3B323A362F3E3B323C3A313E3B3397
:103FB000413D35413D35423E37403D34403C344043
:103FC0003D35403C353D3A323C39313E3B32423E54
:103FD00036413E353D3931423E363E3A333E3C3342
:103FE000433E373F3B33403E343F3C333E3A32441E
:103FF00042394441393F3B333F3D33413D35443FF6
:1040000038444138413D353F3C333E3B32423E36F9
:10401000454038423F36433F37403C34403D3345CE
:104020004239454239413E353D3A313D3B314440CC
:1040300038434037423D354542393F3D33454139AC
:1040400048433B423E36423E36424036413E35448E
:104050004138464239423E35433F3648433B484368
:104060003B48453B4341374341374441374441375F
:1040700047433A49453B47443B444137444238492A
:10408000443C4A463E49453C46423A44403648450F
:104090003B4B473E45423844413745433949443C10
:1040A0004D494047453A46433946433948433B4CDE
:1040B000493F4B483D4642394541384642394A47D7
:1040C0003D4A473D4C483E4A473D47443A4C473EAF
:1040D0004D494046433849453C47453A49473C4E9F
:1040E0004B414D483F48453B48453B4A453D484587
:1040F0003B4C473E4A473D4A463D49443B4A463D84
:104100004C493F49443B4B463D46443948443A4E6E
:10411000494049453C4B473E4D493F49443A4C474D
:104120003E4F4A414F4C414E494047453A49463B34
:10413000514C434A463D49463B48453A4A463B4E28
:104140004B41504B424D4A3F4A473C48463B4D4805
:104150003F514B424F4B414D493F4C473E514C42E2
:104160004F4C414C473E4C493E49463B4B463C50E8
:104170004C424E4B404B473C4A473B4C483D524DCE
:1041800043504C424E4C40524F434D4A3F4D4A3FA4
:10419000524F444F4C414F4C414D493F4D493F5385
:1041A0004F44514C434D493F4F4B41504B41504D73
:1041B00041504D414D493E504B4149463B504B4289
:1041C000544E454E4B40545045504D424E4A40543B
:1041D0005045524F444F4C404E4A3E4C493D54513D
:1041E00045544F454E493E4F4A404C473E4F4C4048
:1041F000534E444E4A3F4C493E4A473C4E493F533A
:104200004F45514E43534F454F4A414C4A3E5853F8
:104210004A514E43504B41514D434B483C504D4108
:104220005651484F4A3F4B483C4B483C524D4358EF
:10423000554A565248524F43544F45524F43524DA0
:1042400043544F45524F43565246504B41524F43B1
:1042500059544A504D414C473E48433A48443B4AE2
:10426000473D4A473C4C483E4A453C484539524FF9
:1042700044504D434B463D48433949463A4E4C41E4
:1042800057534857534A5654485652495451465723
:104290005348534F454F4C414E493F4C493E555171
:1042A00045554F45514C424F4C404C493D534E446F
:1042B000554F454F4A404F4A404F4A404F4C40545B
:1042C0004F45504C424D493E4C493D4E4A40524E5E
:1042D00044524D444E49404B463D49463B4B463D7A
:1042E00049453B4541374542374542374744394DBB
:1042F00049404A473C48453A48453B4743394D4A7F
:104300003F4E4A404C493F504C43534F465552480C
:10431000555248504B42534E444C483D4B483C55F7
:1043200050474E4B4049463B4B473C4B473C514C1A
:1043300043514C4349463B4C473E4D493F4C493E17
:104340004D4A3F4B483D4F4A414B463D4A463B4E06
:104350004A414E4B414E4B41504B424E4A404E49D2
:10436000404C493F49463B49463B4643384A473C17
:10437000504C4349453B4F4A414D4A4049473C4FC9
:1043800049404F4B404B483D48443A4642394B48E0
:104390003D4C493F48433A49443B46413849463BF6
:1043A0004A473D4744394A473D4541384541384BE6
:1043B000483E4D4A3F4B483E49473C4742394B46B1
:1043C0003E4C473F4643384A463D49443C47433AC2
:1043D00048463B48443B4B463E46443946423948B2
:1043E000453B4C483F49453C4541374641394745A7
:1043F0003A49463C454339444137433E36454138C6
:104400004D484048443B47443A4540384642394984
:10441000453C46423949443C464339403D33474395
:104420003B47433A45413947433A413D34433F379F
:1044300049453D46423A454038423E35433F36487D
:10444000443C444238423E36454139423E3645417D
:104450003948443B454239434137413D34433F3776
:10446000454238423D35403D343D3B31403C33468A
:104470004139423E36444038423E36403C33423F6A
:1044800036423F36423F36454038403D34403C346A
:10449000434037434037413E353F3C343F3B334553
:1044A0004139413E35403C35423E363C3A31403C54
:1044B00034413F363D3A313E3C333E3A333E3A3268
:1044C000413D353E3B323B39303F3B343F3D333F4E
:1044D0003B333D3B323F3B333C38303B372F413D54
:1044E00035413E353E3A333C3A313A362F403C3541
:1044F000413E363D3B323B372F39372E3B382F3D3F
:104500003A323E3A333B38303A382F3C3A31403E2B
:10451000353C3A313B37303A362E3B37303B38303A
:104520003D3A323C383139362E39362E39372E3B2A
:1045300039303E3A333D3B323E3C333B372F3A37FE
:104540002E3F3B343F3B34403E353C39313A362FE9
:104550003F3C34454239423E37413D353B382F3CA4
:104560003930444038423D36403C353E3A323D3A9F
:1045700031434138413D35413E353E3C333A382F99
:10458000403C34413E36444138433F373C38313E6D
:104590003A32413E35413D35423F36413E353E3B64
:1045A00032413F35444038413F354440383E3B324C
:1045B000423E36454238423F36444038403C333E26
:1045C0003A32454239464239424036403D333D3B1E
:1045D00031413D3543413749453C46433A413E34FC
:1045E000433F37413E34444037454239413D3441F1
:1045F0003E3548443C46423A4440384540384340C2
:104600003749453C46423A4541384341373F3D33BF
:104610004541394A453D47443A47443B423D354090
:104620003D334A463D4C483F48443B443F36444076
:104630003648443B47423A47443A49443C433E3675
:1046400047453A49463C47433A4B463D4540374546
:1046500042374B463D4C4A3F4C4A3F443F37423E2F
:10466000354A463D4E4A414C473E4A473D43403617
:1046700044423747453A49463C4B473E48433A4710
:1046800042394B473E4E4B414E4B4148453B4541DD
:10469000384A473D4F4C414F4A414C493F49443BC2
:1046A0004C493F4C483F4B483D4B483D48453A49B3
:1046B000453C48453A4D483F504B4249453A4542B2
:1046C000384D4940524D444F4C414E4A4047453A7F
:1046D00049453B4C483E504A414E4A404A463B4B76
:1046E000483D514D434E4A414D4A3F4D483F474456
:1046F000394F4A41524F444D4A3F4C493E47443955
:104700004C473E514E424E4940504C424B463C4B2A
:10471000473C524E434E4B40504B424E4A404A4714
:104720003C504C42504D42555047504D424A473CF8
:104730004C483D534F44514D434F4C4148463A4DF0
:10474000493F545146514C434F4B414D483D4B46D8
:104750003C524D435450465450444E4B404B463DC2
:10476000504B42524E43544E45524E444D493E509A
:104770004C42544E45504C42504E424F4A404E4996
:104780003E514E424F4C40565347534F444C473D89
:10479000514C424F4C404F4A40514E434C493E4E83
:1047A0004A3F4F4C41554F465653484E4A3F4C485E
:1047B0003E534E4558554A58554A514C434D4A3E32
:1047C000514D43514F43514D43555046504B41522B
:1047D0004D435552465552465450454F4B3F4D4818
:1047E0003E555246565248544F455450454C493D0B
:1047F0004B483D4C473E4A453D49463B464238477B
:1048000044384E4A40504B42504B4148453A484547
:104810003A504E43504C41514D43544F46555247E8
:104820005754495A544B535046504C424C473E4EB5
:104830004A3F514E435651475855494C493E4A47C5
:104840003C555145565347534F444F4C404C493DBE
:10485000514E42544F45545045534E444A453B50A7
:104860004C42544E454E4A404E4B404D4A3E4D49B7
:104870003E5552465350444C473E47443A444036D6
:1048800047433A4A453C4C473E4B483E46413846F2
:1048900043384E483F4E4A3F4F4A414A453D4745BF
:1048A0003A5451475B574D5A564D524F444C473E30
:1048B0004F4B414E4A40504C42524E434C483E4E64
:1048C0004B404E49404C473E514C434C493E4B4770
:1048D0003C4C493E4C473E514D424C493E49463B7B
:1048E0004D4A3F4D483F4B473D4B483D4A453B4A6B
:1048F000463B504D42514D434E4B404B463D464347
:10490000384C483F504C41504C414C493E49443B47
:104910004A473C4C493E4B493E504B4249443A473A
:104920004239504B424E494049463C48443A48433C
:104930003A4B463D4B483D4C493F49463B46413842
:104940004A473D4D4A3F4A463D4A473D4743394322
:1049500041364D493F4E4B4149473C454238434023
:104960003647433A47443A4A473D47443A4440373A
:1049700047443A48463B4C473E4A453D4542384607
:10498000443949463C4B463D4B483D464339433FFD
:104990003649453C4B493F47443A454339413E340B
:1049A00048443B4B473E4A453C46443A443F3644E4
:1049B0003F3648433B4C473F4A463D4440384440DD
:1049C0003745433947433A48443B4541393F3B33F8
:1049D000423F354542384340374540383F3C3242FC
:1049E0003F3547433A47423A47423A413D34413DD9
:1049F0003448443B47433A454139433F37423E35CB
:104A0000423F35413F354340374440383E3C323EDB
:104A10003A3245413948453C46423A403E343E3BB5
:104A200032423F36454038434037423F363C3930CA
:104A3000403C34454339423F37413E353D3A313FB2
:104A40003B33433F37403C353F3C333E3A323C38C2
:104A500031403C343E3C333E3C33403C343C3930C6
:104A60003F3C34413D353F3B34423F363C39313B9E
:104A700039303F3B33403D35413F363A382F3937A7
:104A80002E403D34413E35413E35403C353A362F8F
:104A90003E3B32403D353D3B323D393238362D3B91
:104AA000372F3E3B333F3B343F3B343B37303A3686
:104AB0002F3E3B333F3C333B38303B373037352C90
:104AC0003C39313E3A333A382F3B39303B38303875
:104AD000342D3E3A334340383E3C333F3C333C3840
:104AE000313C3A3146443B403C353E3A323B39302A
:104AF0003A362F413E35423E37403C34403C343B11
:104B0000372F3F3B33444038403C35413E353D3AFA
:104B1000313D3A314542393F3D34413D353E3A33EE
:104B20003D3A3147433B45433A403E34403E353AB7
:104B3000362E403E3547443B413E353F3D343E3CBA
:104B4000323F3C3247443B434037413D35403C34A3
:104B50003E3A3246423A454038433F374542394073
:104B60003C33403C33454139464139444038403C70
:104B7000343D3931454238454238433F37423E366D
:104B80003B392F44413748453B4240364542394046
:104B90003D334442384C473F44403846423A433F15
:104BA00037413C3449463D48433B434137443F3716
:104BB000413D3549453B47443A44413744423840FA
:104BC0003D3343403648443B48443B4A453C4642DB
:104BD0003A4542384B483E4A473D47433A47443AB4
:104BE000413D3447453A4C493F49463C47433B41A8
:104BF0003D334643394F4C424A463D464239444193
:104C000037413E344A473D48463B4A463D47433A92
:104C1000423D344C493E4C473F47453A4B483E4362
:104C20003F3649453C514E434A473C4B473E4A4735
:104C30003D48443B4E483F4A463D49463B4A463D37
:104C400048443A4E4B404C483F49463B4E49404809
:104C5000453A4B463D504D424D483F4D4A404A47EC
:104C60003C49443A504D434C473E4C493E4E4A40E5
:104C70004541364E4940504C414C483F4C4A3F4AD2
:104C8000463B4D4A3F504D424D4A3F4F4A414A46AE
:104C90003C48463B524D444F4B414F4A414B473CA9
:104CA0004440364F4C41544F464F4C42504C424981
:104CB000463B4E4B405350454E4A40504B424D4868
:104CC0003E4A473C524D43504D42504C424D4A3F64
:104CD000474338514C43534F444F4A414F4C414D49
:104CE0004A3F5451465853494F4B414E4B3F4B4816
:104CF0003C4D493D59564B504D41504B414E49401A
:104D000049463B545044555046524E44504D4247FC
:104D100044384C493D555047524F444F4C404C4706
:104D20003D4C473D544F45514E42514E42534E44E7
:104D30004E493E514E42534F44514C43534E444EC4
:104D40004A3F534E44565147514C43554F464E4AA5
:104D50003F4C483E5B584C554F46514E43514F4394
:104D60004C483E58534A5A554B514F43514D434D71
:104D7000483E514D4358534A544F45504D414D4A7A
:104D80003E4F4A3F5654484F4D414B483E49463BA3
:104D90004340354C4A404F4D424E493F4B493E45BA
:104DA00040364C483E524F454C483E4C483E4944A4
:104DB0003B4E493F5F5B515F5B5258534A534F45EF
:104DC0004D4A3E5752495551464F4C41514E434A28
:104DD000473C514E435A554A514C434F4C404E4A22
:104DE0003F4F4C4059564A534E44514C42514E420B
:104DF0004F4A40555147545045524F44504D424CF4
:104E0000493D4E4B40544E45504D42504B424B460F
:104E10003E49463C4D4B404A463C4B463C48443B51
:104E20004542384D483F4D4A3F4C493E4C473E4233
:104E30003F344A453C514C434D4A405651495651E6
:104E400048534E44555047524F444E49404D483FB9
:104E50004A453C524E43504C424C4A3E524C434BC6
:104E6000473C4C493E524E43504B42524E444C47B5
:104E70003E49443B4E4B404D493F4D4A3F4D493FD3
:104E800048443B524D44514B424D483F4D483F46AC
:104E900042384B463D514E434C4A3F4B483D4843B8
:104EA0003A48453A514E434C493E4E4940504C4396
:104EB00047443A4F4C414F4A414D49404D483F4489
:104EC0003F3648453A514E444B483D4B483D484497
:104ED0003A444237514C434C493F4A463D4A473D8C
:104EE00048463B4E4C414C473E4A473C4A453C4372
:104EF000413649473C4D493F48453A49463C454281
:104F0000374340364D494049463C47443A48463B82
:104F10004440374A473D4B483E48443B4A463D465D
:104F200042394542374B463D49463C4B473D45405B
:104F300037403D334F4A414B473E45413845423863
:104F4000403D324542384A453C46423A4644394063
:104F50003E344440384A463D43403647433B46434F
:104F600039413D3547433A48443B47433A4341374B
:104F70003E3B31433F3748453B4440384440383F4F
:104F80003C3244413848463C444138454139403D33
:104F900033413E3448453B433F37433F3745413833
:104FA000403D344340374643394641394641393E16
:104FB0003C32413E3546443A4240363F3C333F3B2B
:104FC000333F3C33454238433F37413D353F3C3228
:104FD0003C3930444038443F38443F374441373E01
:104FE0003A32413E35444238403C35423F363F3C00
:104FF000333B372F433E37413E35403C343F3C3412
:105000003A382F3F3B34413E35403E353F3C333B01
:1050100039303F3B33413D363E3B33403C343C39F5
:105020003038342C413D35413E353F3B343F3B34F5
:105030003A362E3D3B323F3B333D3B323E3B333BEA
:10504000372F3E3A33413E353D3A313D3A313935DD
:105050002E3A362F403C353D3A323B38303E3A33DB
:1050600038342D3E3C333E3B333B38303A382F3DCD
:105070003A323D3A323D39323E3C333E3B33413D9C
:10508000363F3B343B3730413E363F3C343B393092
:10509000413E353C38303E3A333E3C333D3B324175
:1050A0003E353C39303C3930423F36403E35423E59
:1050B000363D3A313B3830433F38423E363E3A3354
:1050C000413E363C39303F3C33423F363C3A314238
:1050D0003E36403E353E3B32444137413E35423E0E
:1050E00037423E373D3931413F35434037403E340A
:1050F000423E363E3A32403E34454038423E3645E6
:105100004139413D35413D3547423A433F374441BE
:10511000384440383D3B31454238434137434137BD
:10512000433F373E3B324541394542394441384699
:105130004139403E3444423848443C433F3645427E
:1051400038454038423F3547433A48433B4341376F
:1051500047433A403D3347433A49443C423F354751
:10516000433B4442384340364A463E4A453C484425
:105170003B48443B42403648443C4A453D45433821
:1051800047433A433F3647433A49463C454037490F
:10519000463C4643394441374A463D48443B4845EE
:1051A0003B48453B4641384A463D49443B47433AE4
:1051B0004C473E45403749453C4D473F49453C4BB0
:1051C000473E48453A4743394D4A3F48443B4A47A2
:1051D0003D504D434441364C483E4E483F4A483D81
:1051E0004E4A4048433A49443B4C493F4D483F4F63
:1051F0004B424B463D48443A4D483F4A453C4C475C
:105200003E4C493E47433A4C493E4A473C4A473D5B
:105210004C473E48433A4C493F4C493F4B483D5030
:105220004D424B463D4A453B4F4A4148453A4B4823
:105230003D4F4B41474439514B424D493F4B463C12
:105240004C493E4742394F4C42514C43504B4253DC
:1052500050454C473E4B473C504C424C483E4E4AD2
:1052600040504D424C473D535045504D424C473DB8
:10527000534F454C473D4D4A3F514C43514D43548C
:1052800051464F4A414D4A3F534D444D493F4E4B85
:105290003F534E444B483D524D43504D414B483D8A
:1052A0004E49404D493E555246544E444A453B4E68
:1052B0004A404D4A3E4E4C40555047504C424E4A53
:1052C000404F4A404C473D534F44534E44514E4249
:1052D0005551454C473D514E42534F444C473E5625
:1052E0005347534F444C493E554F45514C434F4C07
:1052F000414F4A414C473E554F46514E434E4A3F1F
:105300005551464E4A3F534E45534E45504D4151DF
:105310004E434D483E4F4A3F58534A534F45504DD8
:10532000414F4B424441374B473E47443B48433A49
:105330004D483F4742394D4A404F4B414B463D4E09
:105340004A404A463A4A463B514C43524F455753CE
:1053500049575449514E43565349555147504C4271
:10536000554F464C493E514E43554F464E493F538B
:105370004E444F4C414E493F554F45534F44555174
:1053800045534E444A473C534F44514E42524F447A
:105390005552474C473D4F4C40544E454E4B405262
:1053A0004D444D493E4E4A40524F4548443C45408D
:1053B00037454238413F354A473C48433A484439EB
:1053C0004E4C4146423848463B4A463C48443A4D9A
:1053D000493F4E4B405550475A564C524E43524D02
:1053E00045544F464A473D504C424F4C414C473D37
:1053F000524D434B483C504C424E4A404E4940531C
:105400004E454C473E49463B524E444F4B424E4917
:10541000404F4B4149443B4D4B3F4F4A414D493F23
:10542000514B4248443B4B483D514F444B463D4B0A
:10543000463D48453A4A453B4E4B404A463D494623
:105440003B4A483D49463B504C414A473C4D494008
:105450004F4A4149443A4B493E4F4B414D493F4DDC
:10546000483F45423749463C514E444B463D4844EF
:105470003A49443B4643394C483F4A463D4A473DFA
:105480004D483F4743394A473D4B473E4542384DDB
:105490004A3F49453C4542384D493F4B473E4D49BF
:1054A000404B473E4440374C473E49463B47443AD1
:1054B0004A473D4440374642394B483E4A453D4BBA
:1054C000463D48433B46433949463C47433B4641BA
:1054D000394641394340364A453D47443A48453CC0
:1054E0004A473C423E3548443B48453B423E3545B1
:1054F0004038433F36433F3647433B4643394944B0
:105500003B454339413E344B473E434137454139A2
:1055100048453B413C3446423A49443C434036438B
:105520004036403E3442403647443A403D33413EA7
:10553000344541393F3D33454139433F3745423892
:1055400049453C3F3C33413F35464139403D33427C
:105550004036403D33403C33454139403E34423F84
:10556000364540383F3C33434037433F373F3C327A
:105570004340373D39313F3D34423F363F3D334371
:1055800041373F3C333E3B32434037433F37413F57
:10559000363E3A313C38304340363E3C333C38307E
:1055A0003E3B323B38303E3A32433F37403C354158
:1055B0003D363C39303C3930424037403D34403D47
:1055C000343F3C343E3A333F3C343C3A313F3C3448
:1055D000403C353C38313D3A32403D343D3B324031
:1055E0003B343A382F3A382F3F3D343A382F3A3649
:1055F0002F3B393038352D3F3B333F3B333F3D3434
:105600003D3A3239362E3E3A333E3B33403E353E0C
:105610003A333D3A323B383038362D3E3B33413F0A
:10562000363F3B333C38313B3830403C35403E35EB
:105630003E3A333F3C3439372E3D393143413841CE
:105640003D353F3B333C38303B3930433F37433FB8
:10565000373E3B323E3A323C3830434138444138A1
:105660003E3C33403C343B382F3F3C33444038438E
:105670003F37403E353D3A313E3A32443F37443F72
:1056800038413E35403D343D3932434037433F3762
:10569000403E34423F363F3C333E3A324542394445
:1056A0004138444038413D353D3931433F3744412D
:1056B00038434037403D343D393146433A46433A1A
:1056C000433F37423F36403B3344403748453C47F1
:1056D000423A444038403C343F3B3246423A4845E7
:1056E0003B434137423F35423E3549453D49453DC3
:1056F00045433947433A44403744413746433944A8
:10570000423847443B444038423F354C483F4B4683
:105710003E46443A433F373B3930423F36423F37BB
:10572000423E36434137403D344643394C473F497A
:10573000463C4B483D4541374441374C4A3F4B4836
:105740003E4B483E4A473D4440374A473D4D49401D
:105750004A473D4B473D434036433F364E49404E16
:105760004B404D483F48433A4743394E4A414D48E4
:105770003F4A463D4C473E48443B4C483E4A483DE4
:105780004A463D49463B4642394B463D4C483F49D7
:10579000463C4B463D48443A48453A4D483F4947C8
:1057A0003C4C473E4A473C4541384A473C4E4940BD
:1057B0004C493E4E4A4048453A48453A4E49404E8B
:1057C0004B40504D424B463D4542374B483D514B77
:1057D000424F4B414B473D4744394F4A414F4C4163
:1057E000514D424F4B414742394E49405450464E2D
:1057F0004B404E4B404B473C48453A504C42534E31
:1058000045504B424E4C404A453C504D4255504706
:10581000524D444F4C4148453A4C473D55514754F1
:105820004F45514D434C483D4D493F5651484E4BD5
:105830003F4F4B414E493F4B463D544E44504D41E6
:10584000504B42504B414B463D4B483D504D4252D0
:105850004E44504D424E4A404B473D504D425552AA
:1058600047524E444F4C404A473B544F4554514594
:10587000534F44534F444A473C514C425551455372
:105880004F445551454E4A3F4A473C514C43534F74
:1058900044554F45534E454C493E4E4A3F554F4661
:1058A000514C43514E434C483E4F4C415653485146
:1058B0004E43504D414C483E4F4C405451464D494B
:1058C0004047443A4542374541374D493F4F4A42A8
:1058D0004C493E4B483C4644384E49405552464D53
:1058E00049404F4A42514E435451465D594F5A56D2
:1058F0004C544F46504D424C473E4F4A41534E4503
:10590000534E44514E434A473C4C493E56514753EF
:105910004E444F4C404C473E4E493F5653475551DD
:1059200045514E424F4A404C473D4F4C40555047E1
:10593000544F45504C424A473B4C493D524D444FD1
:105940004A414D483F4642384441374F4B404D480D
:105950003E47443A474439443F3749463A504D431D
:105960004F4A414C493E46413748443A5751495CB9
:10597000584E5B554C514C424D4A3F555046534F43
:1059800044514D434D4A3F4A453C534E454E4C4091
:10599000504C42524C434C483E4B473C524C435374
:1059A0004E45504B4249463B4B473C524F44514C6D
:1059B000424F4C414F4C414744394D4A3F524D4470
:1059C0004F4B414D483F4644394F4B414E4B414D63
:1059D000483F504B4248453A48453A4E49404A486C
:1059E0003D4E49404F4C4147443A49453B4F4A415F
:1059F0004C493E4D4A404542384744394F4B404F51
:105A00004B404E4B4048453A4642394E49404E493C
:105A1000404E49404A463D4441374C483E4E4C4139
:105A20004C483E4C473E47433948453B4E4B414B23
:105A3000483E48433A47433947433A4F4B42514C1B
:105A4000434B463D464338433E364A463D4C483E2E
:105A50004A463D48443B413E334542384E4B414B1C
:105A6000483E49463C454237413D3547453A4B471C
:105A70003F49463C444137413E344A473D4A473D11
:105A800047423A48453B4540384542384A483E49F6
:105A9000443C46433944403844423847443B4441FF
:105AA0003747433A4543393F3B33423F3548453B0F
:105AB00048433B46433A403C3446433A47433B44E1
:105AC000403847433A413D343E3A32424036444002
:105AD00037423F36423E36413D3445413949463CE6
