:020000040800F2
:10000000D0AD0120498B1608918016089380160800
:100010009580160897801608998016080000000041
:1000200000000000000000000000000085871508A7
:100030009B801608000000002D8715089D8016087B
:10004000FF8B1608038C1608078C16080B8C1608F5
:100050000F8C1608138C1608178C16081B8C1608A4
:100060001F8C1608238C1608278C16082B8C160854
:100070002F8C1608338C1608378C16083B8C160804
:100080003F8C1608438C1608478C16084B8C1608B4
:100090004F8C1608538C1608578C16085B8C160864
:1000A0005F8C1608638C1608678C16086B8C160814
:1000B0006F8C1608738C1608778C16087B8C1608C4
:1000C0007F8C1608838C1608878C16088B8C160874
:1000D0008F8C1608938C1608978C16089B8C160824
:1000E0009F8C1608A38C1608A78C1608AB8C1608D4
:1000F000AF8C1608B38C1608B78C1608BB8C160884
:10010000AB801608BF8C1608C38C1608C78C16085F
:10011000CB8C1608CF8C1608D38C1608D78C1608F3
:10012000DB8C1608DF8C1608E38C1608E78C1608A3
:10013000EB8C1608EF8C1608F38C1608F78C160853
:10014000FB8C1608FF8C1608038D1608078D160801
:100150000B8D16080F8D1608138D1608178D1608AF
:100160001B8D16081F8D1608238D1608278D16085F
:100170002B8D16082F8D1608338D160800000000F1
:10018000378D16083B8D16083F8D1608438D1608CF
:10019000478D16084B8D16084F8D1608538D16087F
:1001A000B1801608B5801608BD8016080000000052
:1001B0000000000047474740474747594848487EA6
:1001C0004848487E4848487E4848487E4848487ED7
:1001D0004848487E4848487E4848487E4848487EC7
:1001E0004848487E4848487E4848487E4848487EB7
:1001F0004848487E4848487E4848487E4848487EA7
:100800004848487E4848487E484848544747473DFE
:100810000000000000000000000000004848485FA1
:100820007171717E7F7F7F7E7F7F7F7E7F7F7F7E06
:100830007F7F7F7E7F7F7F7E7F7F7F7E7F7F7F7ECC
:100840007F7F7F7E7F7F7F7E7F7F7F7E7F7F7F7EBC
:100850007F7F7F7E7F7F7F7E7F7F7F7E7F7F7F7EAC
:100860007F7F7F7E7F7F7F7E7F7F7F7E7F7F7F7E9C
:100E70007F7F7F7E7F7F7F7E6D6D6D7E4646465A8B
:100E8000000000004B4B4B3D7373737E7F7F7F7E72
:100E90007F7F7F7E7F7F7F7E7F7F7F7E7F7F7F7E66
:100EA0007F7F7F7E7F7F7F7E7F7F7F7E7F7F7F7E56
:100EB0007F7F7F7E7F7F7F7E7F7F7F7E7F7F7F7E46
:100EC0007F7F7F7E7F7F7F7E7F7F7F7E7F7F7F7E36
:1014E0007F7F7F7E7F7F7F7E7171717E4A4A4A3A1D
:1014F000474747647F7F7F7E7F7F7F7E7F7F7F7EC2
:101500007F7F7F7E7F7F7F7E7F7F7F7E7F7F7F7EEF
:101510007F7F7F7E7F7F7F7E7F7F7F7E7F7F7F7EDF
:101520007F7F7F7E7F7F7F7E7F7F7F7E7F7F7F7ECF
:101530007F7F7F7E7F7F7F7E7F7F7F7E7F7F7F7EBF
:101B50007F7F7F7E7D7D7D7E484848624848487E05
:101B60007F7F7F7E7F7F7F7E7F7F7F7E7F7F7F7E89
:101B70007F7F7F7E7F7F7F7E7F7F7F7E7F7F7F7E79
:101B80007F7F7F7E7F7F7F7E7F7F7F7E7F7F7F7E69
:101B90007F7F7F7E7F7F7F7E7F7F7F7E7F7F7F7E59
:1021C0007D7D7D7E4848487E4848487E7F7F7F7E73
:1021D0007F7F7F7E7F7F7F7E7F7F7F7E7F7F7F7E13
:1021E0007F7F7F7E7F7F7F7E7F7F7F7E7F7F7F7E03
:1021F0007F7F7F7E7F7F7F7E7F7F7F7E7F7F7F7EF3
:102200007F7F7F7E7F7F7F7E7F7F7F7E7F7F7F7EE2
:102820007F7F7F7E7F7F7F7E7F7F7F7E7D7D7D7EC2
:102830004848487E4848487E7F7F7F7E7F7F7F7EF6
:102840007F7F7F7E7F7F7F7E7F7F7F7E7F7F7F7E9C
:102850007F7F7F7E7F7F7F7E7F7F7F7E7F7F7F7E8C
:102860007F7F7F7E7F7F7F7E7F7F7F7E7F7F7F7E7C
:102870007F7F7F7E7F7F7F7E7F7F7F7E7F7F7F7E6C
:102E90007F7F7F7E7F7F7F7E7D7D7D7E4848487EF1
:102EA0004848487E7F7F7F7E7F7F7F7E7F7F7F7EDB
:102EB0007F7F7F7E7F7F7F7E7F7F7F7E7F7F7F7E26
:102EC0007F7F7F7E7F7F7F7E7F7F7F7E7F7F7F7E16
:102ED0007F7F7F7E7F7F7F7E7F7F7F7E7F7F7F7E06
:102EE0007F7F7F7E7F7F7F7E7F7F7F7E7F7F7F7EF6
:103500007F7F7F7E7D7D7D7E4848487E4848487E1F
:103510007F7F7F7E7F7F7F7E7F7F7F7E7F7F7F7EBF
:103520007F7F7F7E7F7F7F7E7F7F7F7E7F7F7F7EAF
:103530007F7F7F7E7F7F7F7E7F7F7F7E7F7F7F7E9F
:103540007F7F7F7E7F7F7F7E7F7F7F7E7F7F7F7E8F
:103B70007D7D7D7E4848487E4848487E7F7F7F7EA9
:103B80007F7F7F7E7F7F7F7E7F7F7F7E7F7F7F7E49
:103B90007F7F7F7E7F7F7F7E7F7F7F7E7F7F7F7E39
:103BA0007F7F7F7E7F7F7F7E7F7F7F7E7F7F7F7E29
:103BB0007F7F7F7E7F7F7F7E7F7F7F7E7F7F7F7E19
:1041D0007F7F7F7E7F7F7F7E7F7F7F7E7D7D7D7EF9
:1041E0004848487E4848487E7F7F7F7E7F7F7F7E2D
:1041F0007F7F7F7E7F7F7F7E7F7F7F7E7F7F7F7ED3
:104200007F7F7F7E7F7F7F7E7F7F7F7E7F7F7F7EC2
:104210007F7F7F7E7F7F7F7E7F7F7F7E7F7F7F7EB2
:104220007F7F7F7E7F7F7F7E7F7F7F7E7F7F7F7EA2
:104840007F7F7F7E7F7F7F7E7D7D7D7E4848487E27
:104850004848487E7F7F7F7E7F7F7F7E7F7F7F7E11
:104860007F7F7F7E7F7F7F7E7F7F7F7E7F7F7F7E5C
:104870007F7F7F7E7F7F7F7E7F7F7F7E7F7F7F7E4C
:104880007F7F7F7E7F7F7F7E7F7F7F7E7F7F7F7E3C
:104890007F7F7F7E7F7F7F7E7F7F7F7E7F7F7F7E2C
:104EB0007F7F7F7E7D7D7D7E4848487E4848487E56
:104EC0007F7F7F7E7F7F7F7E7F7F7F7E7F7F7F7EF6
:104ED0007F7F7F7E7F7F7F7E7F7F7F7E7F7F7F7EE6
:104EE0007F7F7F7E7F7F7F7E7F7F7F7E7F7F7F7ED6
:104EF0007F7F7F7E7F7F7F7E7F7F7F7E7F7F7F7EC6
:105520007D7D7D7E4848487E4848487E7F7F7F7EDF
:105530007F7F7F7E7F7F7F7E7F7F7F7E7F7F7F7E7F
:105540007F7F7F7E7F7F7F7E7F7F7F7E7F7F7F7E6F
:105550007F7F7F7E7F7F7F7E7F7F7F7E7F7F7F7E5F
:105560007F7F7F7E7F7F7F7E7F7F7F7E7F7F7F7E4F
:105B80007F7F7F7E7F7F7F7E7F7F7F7E7D7D7D7E2F
:105B90004848487E4848487E7F7F7F7E7F7F7F7E63
:105BA0007F7F7F7E7F7F7F7E7F7F7F7E7F7F7F7E09
:105BB0007F7F7F7E7F7F7F7E7F7F7F7E7F7F7F7EF9
:105BC0007F7F7F7E7F7F7F7E7F7F7F7E7F7F7F7EE9
:105BD0007F7F7F7E7F7F7F7E7F7F7F7E7F7F7F7ED9
:1061F0007F7F7F7E7F7F7F7E7D7D7D7E4848487E5E
:106200004848487E7F7F7F7E7F7F7F7E7F7F7F7E47
:106210007F7F7F7E7F7F7F7E7F7F7F7E7F7F7F7E92
:106220007F7F7F7E7F7F7F7E7F7F7F7E7F7F7F7E82
:106230007F7F7F7E7F7F7F7E7F7F7F7E7F7F7F7E72
:106240007F7F7F7E7F7F7F7E7F7F7F7E7F7F7F7E62
:106860007F7F7F7E7D7D7D7E4848487E4848487E8C
:106870007F7F7F7E7F7F7F7E7F7F7F7E7F7F7F7E2C
:106880007F7F7F7E7F7F7F7E7F7F7F7E7F7F7F7E1C
:106890007F7F7F7E7F7F7F7E7F7F7F7E7F7F7F7E0C
:1068A0007F7F7F7E7F7F7F7E7F7F7F7E7F7F7F7EFC
:106ED0007D7D7D7E4848487E4848487E7F7F7F7E16
:106EE0007F7F7F7E7F7F7F7E7F7F7F7E7F7F7F7EB6
:106EF0007F7F7F7E7F7F7F7E7F7F7F7E7F7F7F7EA6
:106F00007F7F7F7E7F7F7F7E7F7F7F7E7F7F7F7E95
:106F10007F7F7F7E7F7F7F7E7F7F7F7E7F7F7F7E85
:107530007F7F7F7E7F7F7F7E7F7F7F7E7D7D7D7E65
:107540004848487E4848487E7F7F7F7E7F7F7F7E99
:107550007F7F7F7E7F7F7F7E7F7F7F7E7F7F7F7E3F
:107560007F7F7F7E7F7F7F7E7F7F7F7E7F7F7F7E2F
:107570007F7F7F7E7F7F7F7E7F7F7F7E7F7F7F7E1F
:107580007F7F7F7E7F7F7F7E7F7F7F7E7F7F7F7E0F
:107BA0007F7F7F7E7F7F7F7E7D7D7D7E4848487E94
:107BB0004848487E7F7F7F7E7F7F7F7E7F7F7F7E7E
:107BC0007F7F7F7E7F7F7F7E7F7F7F7E7F7F7F7EC9
:107BD0007F7F7F7E7F7F7F7E7F7F7F7E7F7F7F7EB9
:107BE0007F7F7F7E7F7F7F7E7F7F7F7E7F7F7F7EA9
:107BF0007F7F7F7E7F7F7F7E7F7F7F7E7F7F7F7E99
:108210007F7F7F7E7D7D7D7E4848487E4848487EC2
:108220007F7F7F7E7F7F7F7E7F7F7F7E7F7F7F7E62
:108230007F7F7F7E7F7F7F7E7F7F7F7E7F7F7F7E52
:108240007F7F7F7E7F7F7F7E7F7F7F7E7F7F7F7E42
:108250007F7F7F7E7F7F7F7E7F7F7F7E7F7F7F7E32
:108880007D7D7D7E4848487E4848487E7F7F7F7E4C
:108890007F7F7F7E7F7F7F7E7F7F7F7E7F7F7F7EEC
:1088A0007F7F7F7E7F7F7F7E7F7F7F7E7F7F7F7EDC
:1088B0007F7F7F7E7F7F7F7E7F7F7F7E7F7F7F7ECC
:1088C0007F7F7F7E7F7F7F7E7F7F7F7E7F7F7F7EBC
:108EE0007F7F7F7E7F7F7F7E7F7F7F7E7D7D7D7E9C
:108EF0004848487E4848487E7F7F7F7E7F7F7F7ED0
:108F00007F7F7F7E7F7F7F7E7F7F7F7E7F7F7F7E75
:108F10007F7F7F7E7F7F7F7E7F7F7F7E7F7F7F7E65
:108F20007F7F7F7E7F7F7F7E7F7F7F7E7F7F7F7E55
:108F30007F7F7F7E7F7F7F7E7F7F7F7E7F7F7F7E45
:109550007F7F7F7E7F7F7F7E7D7D7D7E4848487ECA
:109560004848487E7F7F7F7E7F7F7F7E7F7F7F7EB4
:109570007F7F7F7E7F7F7F7E7F7F7F7E7F7F7F7EFF
:109580007F7F7F7E7F7F7F7E7F7F7F7E7F7F7F7EEF
:109590007F7F7F7E7F7F7F7E7F7F7F7E7F7F7F7EDF
:1095A0007F7F7F7E7F7F7F7E7F7F7F7E7F7F7F7ECF
:109BC0007F7F7F7E7D7D7D7E4848487E4848487EF9
:109BD0007F7F7F7E7F7F7F7E7F7F7F7E7F7F7F7E99
:109BE0007F7F7F7E7F7F7F7E7F7F7F7E7F7F7F7E89
:109BF0007F7F7F7E7F7F7F7E7F7F7F7E7F7F7F7E79
:109C00007F7F7F7E7F7F7F7E7F7F7F7E7F7F7F7E68
:10A230007D7D7D7E4848487E4848487E7F7F7F7E82
:10A240007F7F7F7E7F7F7F7E7F7F7F7E7F7F7F7E22
:10A250007F7F7F7E7F7F7F7E7F7F7F7E7F7F7F7E12
:10A260007F7F7F7E7F7F7F7E7F7F7F7E7F7F7F7E02
:10A270007F7F7F7E7F7F7F7E7F7F7F7E7F7F7F7EF2
:10A890007F7F7F7E7F7F7F7E7F7F7F7E7D7D7D7ED2
:10A8A0004848487E4848487E7F7F7F7E7F7F7F7E06
:10A8B0007F7F7F7E7F7F7F7E7F7F7F7E7F7F7F7EAC
:10A8C0007F7F7F7E7F7F7F7E7F7F7F7E7F7F7F7E9C
:10A8D0007F7F7F7E7F7F7F7E7F7F7F7E7F7F7F7E8C
:10A8E0007F7F7F7E7F7F7F7E7F7F7F7E7F7F7F7E7C
:10AF00007F7F7F7E7F7F7F7E7D7D7D7E4848487E00
:10AF10004848487E7F7F7F7E7F7F7F7E7F7F7F7EEA
:10AF20007F7F7F7E7F7F7F7E7F7F7F7E7F7F7F7E35
:10AF30007F7F7F7E7F7F7F7E7F7F7F7E7F7F7F7E25
:10AF40007F7F7F7E7F7F7F7E7F7F7F7E7F7F7F7E15
:10AF50007F7F7F7E7F7F7F7E7F7F7F7E7F7F7F7E05
:10B570007F7F7F7E7D7D7D7E4848487E4848487E2F
:10B580007F7F7F7E7F7F7F7E7F7F7F7E7F7F7F7ECF
:10B590007F7F7F7E7F7F7F7E7F7F7F7E7F7F7F7EBF
:10B5A0007F7F7F7E7F7F7F7E7F7F7F7E7F7F7F7EAF
:10B5B0007F7F7F7E7F7F7F7E7F7F7F7E7F7F7F7E9F
:10BBE0007D7D7D7E4848487E4848487E7F7F7F7EB9
:10BBF0007F7F7F7E7F7F7F7E7F7F7F7E7F7F7F7E59
:10BC00007F7F7F7E7F7F7F7E7F7F7F7E7F7F7F7E48
:10BC10007F7F7F7E7F7F7F7E7F7F7F7E7F7F7F7E38
:10BC20007F7F7F7E7F7F7F7E7F7F7F7E7F7F7F7E28
:10C240007F7F7F7E7F7F7F7E7F7F7F7E7D7D7D7E08
:10C250004848487E4848487E7F7F7F7E7F7F7F7E3C
:10C260007F7F7F7E7F7F7F7E7F7F7F7E7F7F7F7EE2
:10C270007F7F7F7E7F7F7F7E7F7F7F7E7F7F7F7ED2
:10C280007F7F7F7E7F7F7F7E7F7F7F7E7F7F7F7EC2
:10C290007F7F7F7E7F7F7F7E7F7F7F7E7F7F7F7EB2
:10C8B0007F7F7F7E7F7F7F7E7D7D7D7E4848487E37
:10C8C0004848487E7F7F7F7E7F7F7F7E7F7F7F7E21
:10C8D0007F7F7F7E7F7F7F7E7F7F7F7E7F7F7F7E6C
:10C8E0007F7F7F7E7F7F7F7E7F7F7F7E7F7F7F7E5C
:10C8F0007F7F7F7E7F7F7F7E7F7F7F7E7F7F7F7E4C
:10C900007F7F7F7E7F7F7F7E7F7F7F7E7F7F7F7E3B
:10CF20007F7F7F7E7D7D7D7E4848487E4848487E65
:10CF30007F7F7F7E7F7F7F7E7F7F7F7E7F7F7F7E05
:10CF40007F7F7F7E7F7F7F7E7F7F7F7E7F7F7F7EF5
:10CF50007F7F7F7E7F7F7F7E7F7F7F7E7F7F7F7EE5
:10CF60007F7F7F7E7F7F7F7E7F7F7F7E7F7F7F7ED5
:10D590007D7D7D7E4848487E4848487E7F7F7F7EEF
:10D5A0007F7F7F7E7F7F7F7E7F7F7F7E7F7F7F7E8F
:10D5B0007F7F7F7E7F7F7F7E7F7F7F7E7F7F7F7E7F
:10D5C0007F7F7F7E7F7F7F7E7F7F7F7E7F7F7F7E6F
:10D5D0007F7F7F7E7F7F7F7E7F7F7F7E7F7F7F7E5F
:10DBF0007F7F7F7E7F7F7F7E7F7F7F7E7D7D7D7E3F
:10DC00004848487E4848487E7F7F7F7E7F7F7F7E72
:10DC10007F7F7F7E7F7F7F7E7F7F7F7E7F7F7F7E18
:10DC20007F7F7F7E7F7F7F7E7F7F7F7E7F7F7F7E08
:10DC30007F7F7F7E7F7F7F7E7F7F7F7E7F7F7F7EF8
:10DC40007F7F7F7E7F7F7F7E7F7F7F7E7F7F7F7EE8
:10E260007F7F7F7E7F7F7F7E7D7D7D7E4848487E6D
:10E270004848487E7F7F7F7E7F7F7F7E7F7F7F7E57
:10E280007F7F7F7E7F7F7F7E7F7F7F7E7F7F7F7EA2
:10E290007F7F7F7E7F7F7F7E7F7F7F7E7F7F7F7E92
:10E2A0007F7F7F7E7F7F7F7E7F7F7F7E7F7F7F7E82
:10E2B0007F7F7F7E7F7F7F7E7F7F7F7E7F7F7F7E72
:10E8D0007F7F7F7E7D7D7D7E4848487E4848487E9C
:10E8E0007F7F7F7E7F7F7F7E7F7F7F7E7F7F7F7E3C
:10E8F0007F7F7F7E7F7F7F7E7F7F7F7E7F7F7F7E2C
:10E900007F7F7F7E7F7F7F7E7F7F7F7E7F7F7F7E1B
:10E910007F7F7F7E7F7F7F7E7F7F7F7E7F7F7F7E0B
:10EF40007D7D7D7E4848487E4848487E7F7F7F7E25
:10EF50007F7F7F7E7F7F7F7E7F7F7F7E7F7F7F7EC5
:10EF60007F7F7F7E7F7F7F7E7F7F7F7E7F7F7F7EB5
:10EF70007F7F7F7E7F7F7F7E7F7F7F7E7F7F7F7EA5
:10EF80007F7F7F7E7F7F7F7E7F7F7F7E7F7F7F7E95
:10F5A0007F7F7F7E7F7F7F7E7F7F7F7E7D7D7D7E75
:10F5B0004848487E4848487E7F7F7F7E7F7F7F7EA9
:10F5C0007F7F7F7E7F7F7F7E7F7F7F7E7F7F7F7E4F
:10F5D0007F7F7F7E7F7F7F7E7F7F7F7E7F7F7F7E3F
:10F5E0007F7F7F7E7F7F7F7E7F7F7F7E7F7F7F7E2F
:10F5F0007F7F7F7E7F7F7F7E7F7F7F7E7F7F7F7E1F
:10FC10007F7F7F7E7F7F7F7E7D7D7D7E4848487EA3
:10FC20004848487E7F7F7F7E7F7F7F7E7F7F7F7E8D
:10FC30007F7F7F7E7F7F7F7E7F7F7F7E7F7F7F7ED8
:10FC40007F7F7F7E7F7F7F7E7F7F7F7E7F7F7F7EC8
:10FC50007F7F7F7E7F7F7F7E7F7F7F7E7F7F7F7EB8
:10FC60007F7F7F7E7F7F7F7E7F7F7F7E7F7F7F7EA8
:020000040801F1
:100280007F7F7F7E7D7D7D7E4848487E4848487ED2
:100290007F7F7F7E7F7F7F7E7F7F7F7E7F7F7F7E72
:1002A0007F7F7F7E7F7F7F7E7F7F7F7E7F7F7F7E62
:1002B0007F7F7F7E7F7F7F7E7F7F7F7E7F7F7F7E52
:1002C0007F7F7F7E7F7F7F7E7F7F7F7E7F7F7F7E42
:1008F0007D7D7D7E4848487E4848487E7F7F7F7E5C
:100900007F7F7F7E7F7F7F7E7F7F7F7E7F7F7F7EFB
:100910007F7F7F7E7F7F7F7E7F7F7F7E7F7F7F7EEB
:100920007F7F7F7E7F7F7F7E7F7F7F7E7F7F7F7EDB
:100930007F7F7F7E7F7F7F7E7F7F7F7E7F7F7F7ECB
:100F50007F7F7F7E7F7F7F7E7F7F7F7E7D7D7D7EAB
:100F60004848487E4848487E7F7F7F7E7F7F7F7EDF
:100F70007F7F7F7E7F7F7F7E7F7F7F7E7F7F7F7E85
:100F80007F7F7F7E7F7F7F7E7F7F7F7E7F7F7F7E75
:100F90007F7F7F7E7F7F7F7E7F7F7F7E7F7F7F7E65
:100FA0007F7F7F7E7F7F7F7E7F7F7F7E7F7F7F7E55
:1015C0007F7F7F7E7F7F7F7E7D7D7D7E4848487EDA
:1015D0004848487E7F7F7F7E7F7F7F7E7F7F7F7EC4
:1015E0007F7F7F7E7F7F7F7E7F7F7F7E7F7F7F7E0F
:1015F0007F7F7F7E7F7F7F7E7F7F7F7E7F7F7F7EFF
:101600007F7F7F7E7F7F7F7E7F7F7F7E7F7F7F7EEE
:101610007F7F7F7E7F7F7F7E7F7F7F7E7F7F7F7EDE
:101C30007F7F7F7E7D7D7D7E4848487E4848487E08
:101C40007F7F7F7E7F7F7F7E7F7F7F7E7F7F7F7EA8
:101C50007F7F7F7E7F7F7F7E7F7F7F7E7F7F7F7E98
:101C60007F7F7F7E7F7F7F7E7F7F7F7E7F7F7F7E88
:101C70007F7F7F7E7F7F7F7E7F7F7F7E7F7F7F7E78
:1022A0007D7D7D7E4848487E4848487E7F7F7F7E92
:1022B0007F7F7F7E7F7F7F7E7F7F7F7E7F7F7F7E32
:1022C0007F7F7F7E7F7F7F7E7F7F7F7E7F7F7F7E22
:1022D0007F7F7F7E7F7F7F7E7F7F7F7E7F7F7F7E12
:1022E0007F7F7F7E7F7F7F7E7F7F7F7E7F7F7F7E02
:102900007F7F7F7E7F7F7F7E7F7F7F7E7D7D7D7EE1
:102910004848487E4848487E7F7F7F7E7F7F7F7E15
:102920007F7F7F7E7F7F7F7E7F7F7F7E7F7F7F7EBB
:102930007F7F7F7E7F7F7F7E7F7F7F7E7F7F7F7EAB
:102940007F7F7F7E7F7F7F7E7F7F7F7E7F7F7F7E9B
:102950007F7F7F7E7F7F7F7E7F7F7F7E7F7F7F7E8B
:102F70007F7F7F7E7F7F7F7E7D7D7D7E4848487E10
:102F80004848487E7F7F7F7E7F7F7F7E7F7F7F7EFA
:102F90007F7F7F7E7F7F7F7E7F7F7F7E7F7F7F7E45
:102FA0007F7F7F7E7F7F7F7E7F7F7F7E7F7F7F7E35
:102FB0007F7F7F7E7F7F7F7E7F7F7F7E7F7F7F7E25
:102FC0007F7F7F7E7F7F7F7E7F7F7F7E7F7F7F7E15
:1035E0007F7F7F7E7D7D7D7E4848487E4848487E3F
:1035F0007F7F7F7E7F7F7F7E7F7F7F7E7F7F7F7EDF
:103600007F7F7F7E7F7F7F7E7F7F7F7E7F7F7F7ECE
:103610007F7F7F7E7F7F7F7E7F7F7F7E7F7F7F7EBE
:103620007F7F7F7E7F7F7F7E7F7F7F7E7F7F7F7EAE
:103C50007D7D7D7E4848487E4848487E7F7F7F7EC8
:103C60007F7F7F7E7F7F7F7E7F7F7F7E7F7F7F7E68
:103C70007F7F7F7E7F7F7F7E7F7F7F7E7F7F7F7E58
:103C80007F7F7F7E7F7F7F7E7F7F7F7E7F7F7F7E48
:103C90007F7F7F7E7F7F7F7E7F7F7F7E7F7F7F7E38
:1042B0007F7F7F7E7F7F7F7E7F7F7F7E7D7D7D7E18
:1042C0004848487E4848487E7F7F7F7E7F7F7F7E4C
:1042D0007F7F7F7E7F7F7F7E7F7F7F7E7F7F7F7EF2
:1042E0007F7F7F7E7F7F7F7E7F7F7F7E7F7F7F7EE2
:1042F0007F7F7F7E7F7F7F7E7F7F7F7E7F7F7F7ED2
:104300007F7F7F7E7F7F7F7E7F7F7F7E7F7F7F7EC1
:104920007F7F7F7E7F7F7F7E7D7D7D7E4848487E46
:104930004848487E7F7F7F7E7F7F7F7E7F7F7F7E30
:104940007F7F7F7E7F7F7F7E7F7F7F7E7F7F7F7E7B
:104950007F7F7F7E7F7F7F7E7F7F7F7E7F7F7F7E6B
:104960007F7F7F7E7F7F7F7E7F7F7F7E7F7F7F7E5B
:104970007F7F7F7E7F7F7F7E7F7F7F7E7F7F7F7E4B
:104F90007F7F7F7E7D7D7D7E4848487E4848487E75
:104FA0007F7F7F7E7F7F7F7E7F7F7F7E7F7F7F7E15
:104FB0007F7F7F7E7F7F7F7E7F7F7F7E7F7F7F7E05
:104FC0007F7F7F7E7F7F7F7E7F7F7F7E7F7F7F7EF5
:104FD0007F7F7F7E7F7F7F7E7F7F7F7E7F7F7F7EE5
:105600007D7D7D7E4848487E4848487E7F7F7F7EFE
:105610007F7F7F7E7F7F7F7E7F7F7F7E7F7F7F7E9E
:105620007F7F7F7E7F7F7F7E7F7F7F7E7F7F7F7E8E
:105630007F7F7F7E7F7F7F7E7F7F7F7E7F7F7F7E7E
:105640007F7F7F7E7F7F7F7E7F7F7F7E7F7F7F7E6E
:105C60007F7F7F7E7F7F7F7E7F7F7F7E7D7D7D7E4E
:105C70004848487E4848487E7F7F7F7E7F7F7F7E82
:105C80007F7F7F7E7F7F7F7E7F7F7F7E7F7F7F7E28
:105C90007F7F7F7E7F7F7F7E7F7F7F7E7F7F7F7E18
:105CA0007F7F7F7E7F7F7F7E7F7F7F7E7F7F7F7E08
:105CB0007F7F7F7E7F7F7F7E7F7F7F7E7F7F7F7EF8
:1062D0007F7F7F7E7F7F7F7E7D7D7D7E4848487E7D
:1062E0004848487E7F7F7F7E7F7F7F7E7F7F7F7E67
:1062F0007F7F7F7E7F7F7F7E7F7F7F7E7F7F7F7EB2
:106300007F7F7F7E7F7F7F7E7F7F7F7E7F7F7F7EA1
:106310007F7F7F7E7F7F7F7E7F7F7F7E7F7F7F7E91
:106320007F7F7F7E7F7F7F7E7F7F7F7E7F7F7F7E81
:106940007F7F7F7E7D7D7D7E4848487E4848487EAB
:106950007F7F7F7E7F7F7F7E7F7F7F7E7F7F7F7E4B
:106960007F7F7F7E7F7F7F7E7F7F7F7E7F7F7F7E3B
:106970007F7F7F7E7F7F7F7E7F7F7F7E7F7F7F7E2B
:106980007F7F7F7E7F7F7F7E7F7F7F7E7F7F7F7E1B
:106FB0007D7D7D7E4848487E4848487E7F7F7F7E35
:106FC0007F7F7F7E7F7F7F7E7F7F7F7E7F7F7F7ED5
:106FD0007F7F7F7E7F7F7F7E7F7F7F7E7F7F7F7EC5
:106FE0007F7F7F7E7F7F7F7E7F7F7F7E7F7F7F7EB5
:106FF0007F7F7F7E7F7F7F7E7F7F7F7E7F7F7F7EA5
:107610007F7F7F7E7F7F7F7E7F7F7F7E7D7D7D7E84
:107620004848487E4848487E7F7F7F7E7F7F7F7EB8
:107630007F7F7F7E7F7F7F7E7F7F7F7E7F7F7F7E5E
:107640007F7F7F7E7F7F7F7E7F7F7F7E7F7F7F7E4E
:107650007F7F7F7E7F7F7F7E7F7F7F7E7F7F7F7E3E
:107660007F7F7F7E7F7F7F7E7F7F7F7E7F7F7F7E2E
:107C80007F7F7F7E7F7F7F7E7D7D7D7E4848487EB3
:107C90004848487E7F7F7F7E7F7F7F7E7F7F7F7E9D
:107CA0007F7F7F7E7F7F7F7E7F7F7F7E7F7F7F7EE8
:107CB0007F7F7F7E7F7F7F7E7F7F7F7E7F7F7F7ED8
:107CC0007F7F7F7E7F7F7F7E7F7F7F7E7F7F7F7EC8
:107CD0007F7F7F7E7F7F7F7E7F7F7F7E7F7F7F7EB8
:1082F0007F7F7F7E7D7D7D7E4848487E4848487EE2
:108300007F7F7F7E7F7F7F7E7F7F7F7E7F7F7F7E81
:108310007F7F7F7E7F7F7F7E7F7F7F7E7F7F7F7E71
:108320007F7F7F7E7F7F7F7E7F7F7F7E7F7F7F7E61
:108330007F7F7F7E7F7F7F7E7F7F7F7E7F7F7F7E51
:108960007D7D7D7E4848487E4848487E7F7F7F7E6B
:108970007F7F7F7E7F7F7F7E7F7F7F7E7F7F7F7E0B
:108980007F7F7F7E7F7F7F7E7F7F7F7E7F7F7F7EFB
:108990007F7F7F7E7F7F7F7E7F7F7F7E7F7F7F7EEB
:1089A0007F7F7F7E7F7F7F7E7F7F7F7E7F7F7F7EDB
:108FC0007F7F7F7E7F7F7F7E7F7F7F7E7D7D7D7EBB
:108FD0004848487E4848487E7F7F7F7E7F7F7F7EEF
:108FE0007F7F7F7E7F7F7F7E7F7F7F7E7F7F7F7E95
:108FF0007F7F7F7E7F7F7F7E7F7F7F7E7F7F7F7E85
:109000007F7F7F7E7F7F7F7E7F7F7F7E7F7F7F7E74
:109010007F7F7F7E7F7F7F7E7F7F7F7E7F7F7F7E64
:109630007F7F7F7E7F7F7F7E7D7D7D7E4848487EE9
:109640004848487E7F7F7F7E7F7F7F7E7F7F7F7ED3
:109650007F7F7F7E7F7F7F7E7F7F7F7E7F7F7F7E1E
:109660007F7F7F7E7F7F7F7E7F7F7F7E7F7F7F7E0E
:109670007F7F7F7E7F7F7F7E7F7F7F7E7F7F7F7EFE
:109680007F7F7F7E7F7F7F7E7F7F7F7E7F7F7F7EEE
:109CA0007F7F7F7E7D7D7D7E4848487E4848487E18
:109CB0007F7F7F7E7F7F7F7E7F7F7F7E7F7F7F7EB8
:109CC0007F7F7F7E7F7F7F7E7F7F7F7E7F7F7F7EA8
:109CD0007F7F7F7E7F7F7F7E7F7F7F7E7F7F7F7E98
:109CE0007F7F7F7E7F7F7F7E7F7F7F7E7F7F7F7E88
:10A310007D7D7D7E4848487E4848487E7F7F7F7EA1
:10A320007F7F7F7E7F7F7F7E7F7F7F7E7F7F7F7E41
:10A330007F7F7F7E7F7F7F7E7F7F7F7E7F7F7F7E31
:10A340007F7F7F7E7F7F7F7E7F7F7F7E7F7F7F7E21
:10A350007F7F7F7E7F7F7F7E7F7F7F7E7F7F7F7E11
:10A970007F7F7F7E7F7F7F7E7F7F7F7E7D7D7D7EF1
:10A980004848487E4848487E7F7F7F7E7F7F7F7E25
:10A990007F7F7F7E7F7F7F7E7F7F7F7E7F7F7F7ECB
:10A9A0007F7F7F7E7F7F7F7E7F7F7F7E7F7F7F7EBB
:10A9B0007F7F7F7E7F7F7F7E7F7F7F7E7F7F7F7EAB
:10A9C0007F7F7F7E7F7F7F7E7F7F7F7E7F7F7F7E9B
:10AFE0007F7F7F7E7F7F7F7E7D7D7D7E4848487E20
:10AFF0004848487E7F7F7F7E7F7F7F7E7F7F7F7E0A
:10B000007F7F7F7E7F7F7F7E7F7F7F7E7F7F7F7E54
:10B010007F7F7F7E7F7F7F7E7F7F7F7E7F7F7F7E44
:10B020007F7F7F7E7F7F7F7E7F7F7F7E7F7F7F7E34
:10B030007F7F7F7E7F7F7F7E7F7F7F7E7F7F7F7E24
:10B650007F7F7F7E7D7D7D7E4848487E4848487E4E
:10B660007F7F7F7E7F7F7F7E7F7F7F7E7F7F7F7EEE
:10B670007F7F7F7E7F7F7F7E7F7F7F7E7F7F7F7EDE
:10B680007F7F7F7E7F7F7F7E7F7F7F7E7F7F7F7ECE
:10B690007F7F7F7E7F7F7F7E7F7F7F7E7F7F7F7EBE
:10BCC0007D7D7D7E4848487E4848487E7F7F7F7ED8
:10BCD0007F7F7F7E7F7F7F7E7F7F7F7E7F7F7F7E78
:10BCE0007F7F7F7E7F7F7F7E7F7F7F7E7F7F7F7E68
:10BCF0007F7F7F7E7F7F7F7E7F7F7F7E7F7F7F7E58
:10BD00007F7F7F7E7F7F7F7E7F7F7F7E7F7F7F7E47
:10C320007F7F7F7E7F7F7F7E7F7F7F7E7D7D7D7E27
:10C330004848487E4848487E7F7F7F7E7F7F7F7E5B
:10C340007F7F7F7E7F7F7F7E7F7F7F7E7F7F7F7E01
:10C350007F7F7F7E7F7F7F7E7F7F7F7E7F7F7F7EF1
:10C360007F7F7F7E7F7F7F7E7F7F7F7E7F7F7F7EE1
:10C370007F7F7F7E7F7F7F7E7F7F7F7E7F7F7F7ED1
:10C990007F7F7F7E7F7F7F7E7D7D7D7E4848487E56
:10C9A0004848487E7F7F7F7E7F7F7F7E7F7F7F7E40
:10C9B0007F7F7F7E7F7F7F7E7F7F7F7E7F7F7F7E8B
:10C9C0007F7F7F7E7F7F7F7E7F7F7F7E7F7F7F7E7B
:10C9D0007F7F7F7E7F7F7F7E7F7F7F7E7F7F7F7E6B
:10C9E0007F7F7F7E7F7F7F7E7F7F7F7E7F7F7F7E5B
:10D000007F7F7F7E7D7D7D7E4848487E4848487E84
:10D010007F7F7F7E7F7F7F7E7F7F7F7E7F7F7F7E24
:10D020007F7F7F7E7F7F7F7E7F7F7F7E7F7F7F7E14
:10D030007F7F7F7E7F7F7F7E7F7F7F7E7F7F7F7E04
:10D040007F7F7F7E7F7F7F7E7F7F7F7E7F7F7F7EF4
:10D670007D7D7D7E4848487E4848487E7F7F7F7E0E
:10D680007F7F7F7E7F7F7F7E7F7F7F7E7F7F7F7EAE
:10D690007F7F7F7E7F7F7F7E7F7F7F7E7F7F7F7E9E
:10D6A0007F7F7F7E7F7F7F7E7F7F7F7E7F7F7F7E8E
:10D6B0007F7F7F7E7F7F7F7E7F7F7F7E7F7F7F7E7E
:10DCD0007F7F7F7E7F7F7F7E7F7F7F7E7D7D7D7E5E
:10DCE0004848487E4848487E7F7F7F7E7F7F7F7E92
:10DCF0007F7F7F7E7F7F7F7E7F7F7F7E7F7F7F7E38
:10DD00007F7F7F7E7F7F7F7E7F7F7F7E7F7F7F7E27
:10DD10007F7F7F7E7F7F7F7E7F7F7F7E7F7F7F7E17
:10DD20007F7F7F7E7F7F7F7E7F7F7F7E7F7F7F7E07
:10E340007F7F7F7E7F7F7F7E7D7D7D7E4848487E8C
:10E350004848487E7F7F7F7E7F7F7F7E7F7F7F7E76
:10E360007F7F7F7E7F7F7F7E7F7F7F7E7F7F7F7EC1
:10E370007F7F7F7E7F7F7F7E7F7F7F7E7F7F7F7EB1
:10E380007F7F7F7E7F7F7F7E7F7F7F7E7F7F7F7EA1
:10E390007F7F7F7E7F7F7F7E7F7F7F7E7F7F7F7E91
:10E9B0007F7F7F7E7D7D7D7E4848487E4848487EBB
:10E9C0007F7F7F7E7F7F7F7E7F7F7F7E7F7F7F7E5B
:10E9D0007F7F7F7E7F7F7F7E7F7F7F7E7F7F7F7E4B
:10E9E0007F7F7F7E7F7F7F7E7F7F7F7E7F7F7F7E3B
:10E9F0007F7F7F7E7F7F7F7E7F7F7F7E7F7F7F7E2B
:10F020007D7D7D7E4848487E4848487E7F7F7F7E44
:10F030007F7F7F7E7F7F7F7E7F7F7F7E7F7F7F7EE4
:10F040007F7F7F7E7F7F7F7E7F7F7F7E7F7F7F7ED4
:10F050007F7F7F7E7F7F7F7E7F7F7F7E7F7F7F7EC4
:10F060007F7F7F7E7F7F7F7E7F7F7F7E7F7F7F7EB4
:10F680007F7F7F7E7F7F7F7E7F7F7F7E7D7D7D7E94
:10F690004848487E4848487E7F7F7F7E7F7F7F7EC8
:10F6A0007F7F7F7E7F7F7F7E7F7F7F7E7F7F7F7E6E
:10F6B0007F7F7F7E7F7F7F7E7F7F7F7E7F7F7F7E5E
:10F6C0007F7F7F7E7F7F7F7E7F7F7F7E7F7F7F7E4E
:10F6D0007F7F7F7E7F7F7F7E7F7F7F7E7F7F7F7E3E
:10FCF0007F7F7F7E7F7F7F7E7D7D7D7E4848487EC3
:10FD00004848487E7F7F7F7E7F7F7F7E7F7F7F7EAC
:10FD10007F7F7F7E7F7F7F7E7F7F7F7E7F7F7F7EF7
:10FD20007F7F7F7E7F7F7F7E7F7F7F7E7F7F7F7EE7
:10FD30007F7F7F7E7F7F7F7E7F7F7F7E7F7F7F7ED7
:10FD40007F7F7F7E7F7F7F7E7F7F7F7E7F7F7F7EC7
:020000040802F0
:100360007F7F7F7E7D7D7D7E4848487E4848487EF1
:100370007F7F7F7E7F7F7F7E7F7F7F7E7F7F7F7E91
:100380007F7F7F7E7F7F7F7E7F7F7F7E7F7F7F7E81
:100390007F7F7F7E7F7F7F7E7F7F7F7E7F7F7F7E71
:1003A0007F7F7F7E7F7F7F7E7F7F7F7E7F7F7F7E61
:1009D0007D7D7D7E4848487E4848487E7F7F7F7E7B
:1009E0007F7F7F7E7F7F7F7E7F7F7F7E7F7F7F7E1B
:1009F0007F7F7F7E7F7F7F7E7F7F7F7E7F7F7F7E0B
:100A00007F7F7F7E7F7F7F7E7F7F7F7E7F7F7F7EFA
:100A10007F7F7F7E7F7F7F7E7F7F7F7E7F7F7F7EEA
:101030007F7F7F7E7F7F7F7E7F7F7F7E7D7D7D7ECA
:101040004848487E4848487E7F7F7F7E7F7F7F7EFE
:101050007F7F7F7E7F7F7F7E7F7F7F7E7F7F7F7EA4
:101060007F7F7F7E7F7F7F7E7F7F7F7E7F7F7F7E94
:101070007F7F7F7E7F7F7F7E7F7F7F7E7F7F7F7E84
:101080007F7F7F7E7F7F7F7E7F7F7F7E7F7F7F7E74
:1016A0007F7F7F7E7F7F7F7E7D7D7D7E4848487EF9
:1016B0004848487E7F7F7F7E7F7F7F7E7F7F7F7EE3
:1016C0007F7F7F7E7F7F7F7E7F7F7F7E7F7F7F7E2E
:1016D0007F7F7F7E7F7F7F7E7F7F7F7E7F7F7F7E1E
:1016E0007F7F7F7E7F7F7F7E7F7F7F7E7F7F7F7E0E
:1016F0007F7F7F7E7F7F7F7E7F7F7F7E7F7F7F7EFE
:101D10007F7F7F7E7D7D7D7E4848487E4848487E27
:101D20007F7F7F7E7F7F7F7E7F7F7F7E7F7F7F7EC7
:101D30007F7F7F7E7F7F7F7E7F7F7F7E7F7F7F7EB7
:101D40007F7F7F7E7F7F7F7E7F7F7F7E7F7F7F7EA7
:101D50007F7F7F7E7F7F7F7E7F7F7F7E7F7F7F7E97
:102380007D7D7D7E4848487E4848487E7F7F7F7EB1
:102390007F7F7F7E7F7F7F7E7F7F7F7E7F7F7F7E51
:1023A0007F7F7F7E7F7F7F7E7F7F7F7E7F7F7F7E41
:1023B0007F7F7F7E7F7F7F7E7F7F7F7E7F7F7F7E31
:1023C0007F7F7F7E7F7F7F7E7F7F7F7E7F7F7F7E21
:1029E0007F7F7F7E7F7F7F7E7F7F7F7E7D7D7D7E01
:1029F0004848487E4848487E7F7F7F7E7F7F7F7E35
:102A00007F7F7F7E7F7F7F7E7F7F7F7E7F7F7F7EDA
:102A10007F7F7F7E7F7F7F7E7F7F7F7E7F7F7F7ECA
:102A20007F7F7F7E7F7F7F7E7F7F7F7E7F7F7F7EBA
:102A30007F7F7F7E7F7F7F7E7F7F7F7E7F7F7F7EAA
:103050007F7F7F7E7F7F7F7E7D7D7D7E4848487E2F
:103060004848487E7F7F7F7E7F7F7F7E7F7F7F7E19
:103070007F7F7F7E7F7F7F7E7F7F7F7E7F7F7F7E64
:103080007F7F7F7E7F7F7F7E7F7F7F7E7F7F7F7E54
:103090007F7F7F7E7F7F7F7E7F7F7F7E7F7F7F7E44
:1030A0007F7F7F7E7F7F7F7E7F7F7F7E7F7F7F7E34
:1036C0007F7F7F7E7D7D7D7E4848487E4848487E5E
:1036D0007F7F7F7E7F7F7F7E7F7F7F7E7F7F7F7EFE
:1036E0007F7F7F7E7F7F7F7E7F7F7F7E7F7F7F7EEE
:1036F0007F7F7F7E7F7F7F7E7F7F7F7E7F7F7F7EDE
:103700007F7F7F7E7F7F7F7E7F7F7F7E7F7F7F7ECD
:103D30007D7D7D7E4848487E4848487E7F7F7F7EE7
:103D40007F7F7F7E7F7F7F7E7F7F7F7E7F7F7F7E87
:103D50007F7F7F7E7F7F7F7E7F7F7F7E7F7F7F7E77
:103D60007F7F7F7E7F7F7F7E7F7F7F7E7F7F7F7E67
:103D70007F7F7F7E7F7F7F7E7F7F7F7E7F7F7F7E57
:104390007F7F7F7E7F7F7F7E7F7F7F7E7D7D7D7E37
:1043A0004848487E4848487E7F7F7F7E7F7F7F7E6B
:1043B0007F7F7F7E7F7F7F7E7F7F7F7E7F7F7F7E11
:1043C0007F7F7F7E7F7F7F7E7F7F7F7E7F7F7F7E01
:1043D0007F7F7F7E7F7F7F7E7F7F7F7E7F7F7F7EF1
:1043E0007F7F7F7E7F7F7F7E7F7F7F7E7F7F7F7EE1
:104A00007F7F7F7E7F7F7F7E7D7D7D7E4848487E65
:104A10004848487E7F7F7F7E7F7F7F7E7F7F7F7E4F
:104A20007F7F7F7E7F7F7F7E7F7F7F7E7F7F7F7E9A
:104A30007F7F7F7E7F7F7F7E7F7F7F7E7F7F7F7E8A
:104A40007F7F7F7E7F7F7F7E7F7F7F7E7F7F7F7E7A
:104A50007F7F7F7E7F7F7F7E7F7F7F7E7F7F7F7E6A
:105070007F7F7F7E7D7D7D7E4848487E4848487E94
:105080007F7F7F7E7F7F7F7E7F7F7F7E7F7F7F7E34
:105090007F7F7F7E7F7F7F7E7F7F7F7E7F7F7F7E24
:1050A0007F7F7F7E7F7F7F7E7F7F7F7E7F7F7F7E14
:1050B0007F7F7F7E7F7F7F7E7F7F7F7E7F7F7F7E04
:1056E0007D7D7D7E4848487E4848487E7F7F7F7E1E
:1056F0007F7F7F7E7F7F7F7E7F7F7F7E7F7F7F7EBE
:105700007F7F7F7E7F7F7F7E7F7F7F7E7F7F7F7EAD
:105710007F7F7F7E7F7F7F7E7F7F7F7E7F7F7F7E9D
:105720007F7F7F7E7F7F7F7E7F7F7F7E7F7F7F7E8D
:105D40007F7F7F7E7F7F7F7E7F7F7F7E7D7D7D7E6D
:105D50004848487E4848487E7F7F7F7E7F7F7F7EA1
:105D60007F7F7F7E7F7F7F7E7F7F7F7E7F7F7F7E47
:105D70007F7F7F7E7F7F7F7E7F7F7F7E7F7F7F7E37
:105D80007F7F7F7E7F7F7F7E7F7F7F7E7F7F7F7E27
:105D90007F7F7F7E7F7F7F7E7F7F7F7E7F7F7F7E17
:1063B0007F7F7F7E7F7F7F7E7D7D7D7E4848487E9C
:1063C0004848487E7F7F7F7E7F7F7F7E7F7F7F7E86
:1063D0007F7F7F7E7F7F7F7E7F7F7F7E7F7F7F7ED1
:1063E0007F7F7F7E7F7F7F7E7F7F7F7E7F7F7F7EC1
:1063F0007F7F7F7E7F7F7F7E7F7F7F7E7F7F7F7EB1
:106400007F7F7F7E7F7F7F7E7F7F7F7E7F7F7F7EA0
:106A20007F7F7F7E7D7D7D7E4848487E4848487ECA
:106A30007F7F7F7E7F7F7F7E7F7F7F7E7F7F7F7E6A
:106A40007F7F7F7E7F7F7F7E7F7F7F7E7F7F7F7E5A
:106A50007F7F7F7E7F7F7F7E7F7F7F7E7F7F7F7E4A
:106A60007F7F7F7E7F7F7F7E7F7F7F7E7F7F7F7E3A
:107090007D7D7D7E4848487E4848487E7F7F7F7E54
:1070A0007F7F7F7E7F7F7F7E7F7F7F7E7F7F7F7EF4
:1070B0007F7F7F7E7F7F7F7E7F7F7F7E7F7F7F7EE4
:1070C0007F7F7F7E7F7F7F7E7F7F7F7E7F7F7F7ED4
:1070D0007F7F7F7E7F7F7F7E7F7F7F7E7F7F7F7EC4
:1076F0007F7F7F7E7F7F7F7E7F7F7F7E7D7D7D7EA4
:107700004848487E4848487E7F7F7F7E7F7F7F7ED7
:107710007F7F7F7E7F7F7F7E7F7F7F7E7F7F7F7E7D
:107720007F7F7F7E7F7F7F7E7F7F7F7E7F7F7F7E6D
:107730007F7F7F7E7F7F7F7E7F7F7F7E7F7F7F7E5D
:107740007F7F7F7E7F7F7F7E7F7F7F7E7F7F7F7E4D
:107D60007F7F7F7E7F7F7F7E7D7D7D7E4848487ED2
:107D70004848487E7F7F7F7E7F7F7F7E7F7F7F7EBC
:107D80007F7F7F7E7F7F7F7E7F7F7F7E7F7F7F7E07
:107D90007F7F7F7E7F7F7F7E7F7F7F7E7F7F7F7EF7
:107DA0007F7F7F7E7F7F7F7E7F7F7F7E7F7F7F7EE7
:107DB0007F7F7F7E7F7F7F7E7F7F7F7E7F7F7F7ED7
:1083D0007F7F7F7E7D7D7D7E4848487E4848487E01
:1083E0007F7F7F7E7F7F7F7E7F7F7F7E7F7F7F7EA1
:1083F0007F7F7F7E7F7F7F7E7F7F7F7E7F7F7F7E91
:108400007F7F7F7E7F7F7F7E7F7F7F7E7F7F7F7E80
:108410007F7F7F7E7F7F7F7E7F7F7F7E7F7F7F7E70
:108A40007D7D7D7E4848487E4848487E7F7F7F7E8A
:108A50007F7F7F7E7F7F7F7E7F7F7F7E7F7F7F7E2A
:108A60007F7F7F7E7F7F7F7E7F7F7F7E7F7F7F7E1A
:108A70007F7F7F7E7F7F7F7E7F7F7F7E7F7F7F7E0A
:108A80007F7F7F7E7F7F7F7E7F7F7F7E7F7F7F7EFA
:1090A0007F7F7F7E7F7F7F7E7F7F7F7E7D7D7D7EDA
:1090B0004848487E4848487E7F7F7F7E7F7F7F7E0E
:1090C0007F7F7F7E7F7F7F7E7F7F7F7E7F7F7F7EB4
:1090D0007F7F7F7E7F7F7F7E7F7F7F7E7F7F7F7EA4
:1090E0007F7F7F7E7F7F7F7E7F7F7F7E7F7F7F7E94
:1090F0007F7F7F7E7F7F7F7E7F7F7F7E7F7F7F7E84
:109710007F7F7F7E7F7F7F7E7D7D7D7E4848487E08
:109720004848487E7F7F7F7E7F7F7F7E7F7F7F7EF2
:109730007F7F7F7E7F7F7F7E7F7F7F7E7F7F7F7E3D
:109740007F7F7F7E7F7F7F7E7F7F7F7E7F7F7F7E2D
:109750007F7F7F7E7F7F7F7E7F7F7F7E7F7F7F7E1D
:109760007F7F7F7E7F7F7F7E7F7F7F7E7F7F7F7E0D
:109D80007F7F7F7E7D7D7D7E4848487E4848487E37
:109D90007F7F7F7E7F7F7F7E7F7F7F7E7F7F7F7ED7
:109DA0007F7F7F7E7F7F7F7E7F7F7F7E7F7F7F7EC7
:109DB0007F7F7F7E7F7F7F7E7F7F7F7E7F7F7F7EB7
:109DC0007F7F7F7E7F7F7F7E7F7F7F7E7F7F7F7EA7
:10A3F0007D7D7D7E4848487E4848487E7F7F7F7EC1
:10A400007F7F7F7E7F7F7F7E7F7F7F7E7F7F7F7E60
:10A410007F7F7F7E7F7F7F7E7F7F7F7E7F7F7F7E50
:10A420007F7F7F7E7F7F7F7E7F7F7F7E7F7F7F7E40
:10A430007F7F7F7E7F7F7F7E7F7F7F7E7F7F7F7E30
:10AA50007F7F7F7E7F7F7F7E7F7F7F7E7D7D7D7E10
:10AA60004848487E4848487E7F7F7F7E7F7F7F7E44
:10AA70007F7F7F7E7F7F7F7E7F7F7F7E7F7F7F7EEA
:10AA80007F7F7F7E7F7F7F7E7F7F7F7E7F7F7F7EDA
:10AA90007F7F7F7E7F7F7F7E7F7F7F7E7F7F7F7ECA
:10AAA0007F7F7F7E7F7F7F7E7F7F7F7E7F7F7F7EBA
:10B0C0007F7F7F7E7F7F7F7E7D7D7D7E4848487E3F
:10B0D0004848487E7F7F7F7E7F7F7F7E7F7F7F7E29
:10B0E0007F7F7F7E7F7F7F7E7F7F7F7E7F7F7F7E74
:10B0F0007F7F7F7E7F7F7F7E7F7F7F7E7F7F7F7E64
:10B100007F7F7F7E7F7F7F7E7F7F7F7E7F7F7F7E53
:10B110007F7F7F7E7F7F7F7E7F7F7F7E7F7F7F7E43
:10B730007F7F7F7E7D7D7D7E4848487E4848487E6D
:10B740007F7F7F7E7F7F7F7E7F7F7F7E7F7F7F7E0D
:10B750007F7F7F7E7F7F7F7E7F7F7F7E7F7F7F7EFD
:10B760007F7F7F7E7F7F7F7E7F7F7F7E7F7F7F7EED
:10B770007F7F7F7E7F7F7F7E7F7F7F7E7F7F7F7EDD
:10BDA0007D7D7D7E4848487E4848487E7F7F7F7EF7
:10BDB0007F7F7F7E7F7F7F7E7F7F7F7E7F7F7F7E97
:10BDC0007F7F7F7E7F7F7F7E7F7F7F7E7F7F7F7E87
:10BDD0007F7F7F7E7F7F7F7E7F7F7F7E7F7F7F7E77
:10BDE0007F7F7F7E7F7F7F7E7F7F7F7E7F7F7F7E67
:10C400007F7F7F7E7F7F7F7E7F7F7F7E7D7D7D7E46
:10C410004848487E4848487E7F7F7F7E7F7F7F7E7A
:10C420007F7F7F7E7F7F7F7E7F7F7F7E7F7F7F7E20
:10C430007F7F7F7E7F7F7F7E7F7F7F7E7F7F7F7E10
:10C440007F7F7F7E7F7F7F7E7F7F7F7E7F7F7F7E00
:10C450007F7F7F7E7F7F7F7E7F7F7F7E7F7F7F7EF0
:10CA70007F7F7F7E7F7F7F7E7D7D7D7E4848487E75
:10CA80004848487E7F7F7F7E7F7F7F7E7F7F7F7E5F
:10CA90007F7F7F7E7F7F7F7E7F7F7F7E7F7F7F7EAA
:10CAA0007F7F7F7E7F7F7F7E7F7F7F7E7F7F7F7E9A
:10CAB0007F7F7F7E7F7F7F7E7F7F7F7E7F7F7F7E8A
:10CAC0007F7F7F7E7F7F7F7E7F7F7F7E7F7F7F7E7A
:10D0E0007F7F7F7E7D7D7D7E4848487E4848487EA4
:10D0F0007F7F7F7E7F7F7F7E7F7F7F7E7F7F7F7E44
:10D100007F7F7F7E7F7F7F7E7F7F7F7E7F7F7F7E33
:10D110007F7F7F7E7F7F7F7E7F7F7F7E7F7F7F7E23
:10D120007F7F7F7E7F7F7F7E7F7F7F7E7F7F7F7E13
:10D750007D7D7D7E4848487E4848487E7F7F7F7E2D
:10D760007F7F7F7E7F7F7F7E7F7F7F7E7F7F7F7ECD
:10D770007F7F7F7E7F7F7F7E7F7F7F7E7F7F7F7EBD
:10D780007F7F7F7E7F7F7F7E7F7F7F7E7F7F7F7EAD
:10D790007F7F7F7E7F7F7F7E7F7F7F7E7F7F7F7E9D
:10DDB0007F7F7F7E7F7F7F7E7F7F7F7E7D7D7D7E7D
:10DDC0004848487E4848487E7F7F7F7E7F7F7F7EB1
:10DDD0007F7F7F7E7F7F7F7E7F7F7F7E7F7F7F7E57
:10DDE0007F7F7F7E7F7F7F7E7F7F7F7E7F7F7F7E47
:10DDF0007F7F7F7E7F7F7F7E7F7F7F7E7F7F7F7E37
:10DE00007F7F7F7E7F7F7F7E7F7F7F7E7F7F7F7E26
:10E420007F7F7F7E7F7F7F7E7D7D7D7E4848487EAB
:10E430004848487E7F7F7F7E7F7F7F7E7F7F7F7E95
:10E440007F7F7F7E7F7F7F7E7F7F7F7E7F7F7F7EE0
:10E450007F7F7F7E7F7F7F7E7F7F7F7E7F7F7F7ED0
:10E460007F7F7F7E7F7F7F7E7F7F7F7E7F7F7F7EC0
:10E470007F7F7F7E7F7F7F7E7F7F7F7E7F7F7F7EB0
:10EA90007F7F7F7E7D7D7D7E4848487E4848487EDA
:10EAA0007F7F7F7E7F7F7F7E7F7F7F7E7F7F7F7E7A
:10EAB0007F7F7F7E7F7F7F7E7F7F7F7E7F7F7F7E6A
:10EAC0007F7F7F7E7F7F7F7E7F7F7F7E7F7F7F7E5A
:10EAD0007F7F7F7E7F7F7F7E7F7F7F7E7F7F7F7E4A
:10F100007D7D7D7E4848487E4848487E7F7F7F7E63
:10F110007F7F7F7E7F7F7F7E7F7F7F7E7F7F7F7E03
:10F120007F7F7F7E7F7F7F7E7F7F7F7E7F7F7F7EF3
:10F130007F7F7F7E7F7F7F7E7F7F7F7E7F7F7F7EE3
:10F140007F7F7F7E7F7F7F7E7F7F7F7E7F7F7F7ED3
:10F760007F7F7F7E7F7F7F7E7F7F7F7E7D7D7D7EB3
:10F770004848487E4848487E7F7F7F7E7F7F7F7EE7
:10F780007F7F7F7E7F7F7F7E7F7F7F7E7F7F7F7E8D
:10F790007F7F7F7E7F7F7F7E7F7F7F7E7F7F7F7E7D
:10F7A0007F7F7F7E7F7F7F7E7F7F7F7E7F7F7F7E6D
:10F7B0007F7F7F7E7F7F7F7E7F7F7F7E7F7F7F7E5D
:10FDD0007F7F7F7E7F7F7F7E7D7D7D7E4848487EE2
:10FDE0004848487E7F7F7F7E7F7F7F7E7F7F7F7ECC
:10FDF0007F7F7F7E7F7F7F7E7F7F7F7E7F7F7F7E17
:10FE00007F7F7F7E7F7F7F7E7F7F7F7E7F7F7F7E06
:10FE10007F7F7F7E7F7F7F7E7F7F7F7E7F7F7F7EF6
:10FE20007F7F7F7E7F7F7F7E7F7F7F7E7F7F7F7EE6
:020000040803EF
:100440007F7F7F7E7D7D7D7E4848487E4848487E10
:100450007F7F7F7E7F7F7F7E7F7F7F7E7F7F7F7EB0
:100460007F7F7F7E7F7F7F7E7F7F7F7E7F7F7F7EA0
:100470007F7F7F7E7F7F7F7E7F7F7F7E7F7F7F7E90
:100480007F7F7F7E7F7F7F7E7F7F7F7E7F7F7F7E80
:100AB0007D7D7D7E4848487E4848487E7F7F7F7E9A
:100AC0007F7F7F7E7F7F7F7E7F7F7F7E7F7F7F7E3A
:100AD0007F7F7F7E7F7F7F7E7F7F7F7E7F7F7F7E2A
:100AE0007F7F7F7E7F7F7F7E7F7F7F7E7F7F7F7E1A
:100AF0007F7F7F7E7F7F7F7E7F7F7F7E7F7F7F7E0A
:101110007F7F7F7E7F7F7F7E7F7F7F7E7D7D7D7EE9
:101120004848487E4848487E7F7F7F7E7F7F7F7E1D
:101130007F7F7F7E7F7F7F7E7F7F7F7E7F7F7F7EC3
:101140007F7F7F7E7F7F7F7E7F7F7F7E7F7F7F7EB3
:101150007F7F7F7E7F7F7F7E7F7F7F7E7F7F7F7EA3
:101160007F7F7F7E7F7F7F7E7F7F7F7E7F7F7F7E93
:101780007F7F7F7E7F7F7F7E7D7D7D7E4848487E18
:101790004848487E7F7F7F7E7F7F7F7E7F7F7F7E02
:1017A0007F7F7F7E7F7F7F7E7F7F7F7E7F7F7F7E4D
:1017B0007F7F7F7E7F7F7F7E7F7F7F7E7F7F7F7E3D
:1017C0007F7F7F7E7F7F7F7E7F7F7F7E7F7F7F7E2D
:1017D0007F7F7F7E7F7F7F7E7F7F7F7E7F7F7F7E1D
:101DF0007F7F7F7E7D7D7D7E4848487E4848487E47
:101E00007F7F7F7E7F7F7F7E7F7F7F7E7F7F7F7EE6
:101E10007F7F7F7E7F7F7F7E7F7F7F7E7F7F7F7ED6
:101E20007F7F7F7E7F7F7F7E7F7F7F7E7F7F7F7EC6
:101E30007F7F7F7E7F7F7F7E7F7F7F7E7F7F7F7EB6
:102460007D7D7D7E4848487E4848487E7F7F7F7ED0
:102470007F7F7F7E7F7F7F7E7F7F7F7E7F7F7F7E70
:102480007F7F7F7E7F7F7F7E7F7F7F7E7F7F7F7E60
:102490007F7F7F7E7F7F7F7E7F7F7F7E7F7F7F7E50
:1024A0007F7F7F7E7F7F7F7E7F7F7F7E7F7F7F7E40
:102AC0007F7F7F7E7F7F7F7E7F7F7F7E7D7D7D7E20
:102AD0004848487E4848487E7F7F7F7E7F7F7F7E54
:102AE0007F7F7F7E7F7F7F7E7F7F7F7E7F7F7F7EFA
:102AF0007F7F7F7E7F7F7F7E7F7F7F7E7F7F7F7EEA
:102B00007F7F7F7E7F7F7F7E7F7F7F7E7F7F7F7ED9
:102B10007F7F7F7E7F7F7F7E7F7F7F7E7F7F7F7EC9
:103130007F7F7F7E7F7F7F7E7D7D7D7E4848487E4E
:103140004848487E7F7F7F7E7F7F7F7E7F7F7F7E38
:103150007F7F7F7E7F7F7F7E7F7F7F7E7F7F7F7E83
:103160007F7F7F7E7F7F7F7E7F7F7F7E7F7F7F7E73
:103170007F7F7F7E7F7F7F7E7F7F7F7E7F7F7F7E63
:103180007F7F7F7E7F7F7F7E7F7F7F7E7F7F7F7E53
:1037A0007F7F7F7E7D7D7D7E4848487E4848487E7D
:1037B0007F7F7F7E7F7F7F7E7F7F7F7E7F7F7F7E1D
:1037C0007F7F7F7E7F7F7F7E7F7F7F7E7F7F7F7E0D
:1037D0007F7F7F7E7F7F7F7E7F7F7F7E7F7F7F7EFD
:1037E0007F7F7F7E7F7F7F7E7F7F7F7E7F7F7F7EED
:103E10007D7D7D7E4848487E4848487E7F7F7F7E06
:103E20007F7F7F7E7F7F7F7E7F7F7F7E7F7F7F7EA6
:103E30007F7F7F7E7F7F7F7E7F7F7F7E7F7F7F7E96
:103E40007F7F7F7E7F7F7F7E7F7F7F7E7F7F7F7E86
:103E50007F7F7F7E7F7F7F7E7F7F7F7E7F7F7F7E76
:104470007F7F7F7E7F7F7F7E7F7F7F7E7D7D7D7E56
:104480004848487E4848487E7F7F7F7E7F7F7F7E8A
:104490007F7F7F7E7F7F7F7E7F7F7F7E7F7F7F7E30
:1044A0007F7F7F7E7F7F7F7E7F7F7F7E7F7F7F7E20
:1044B0007F7F7F7E7F7F7F7E7F7F7F7E7F7F7F7E10
:1044C0007F7F7F7E7F7F7F7E7F7F7F7E7F7F7F7E00
:104AE0007F7F7F7E7F7F7F7E7D7D7D7E4848487E85
:104AF0004848487E7F7F7F7E7F7F7F7E7F7F7F7E6F
:104B00007F7F7F7E7F7F7F7E7F7F7F7E7F7F7F7EB9
:104B10007F7F7F7E7F7F7F7E7F7F7F7E7F7F7F7EA9
:104B20007F7F7F7E7F7F7F7E7F7F7F7E7F7F7F7E99
:104B30007F7F7F7E7F7F7F7E7F7F7F7E7F7F7F7E89
:105150007F7F7F7E7D7D7D7E4848487E4848487EB3
:105160007F7F7F7E7F7F7F7E7F7F7F7E7F7F7F7E53
:105170007F7F7F7E7F7F7F7E7F7F7F7E7F7F7F7E43
:105180007F7F7F7E7F7F7F7E7F7F7F7E7F7F7F7E33
:105190007F7F7F7E7F7F7F7E7F7F7F7E7F7F7F7E23
:1057C0007D7D7D7E4848487E4848487E7F7F7F7E3D
:1057D0007F7F7F7E7F7F7F7E7F7F7F7E7F7F7F7EDD
:1057E0007F7F7F7E7F7F7F7E7F7F7F7E7F7F7F7ECD
:1057F0007F7F7F7E7F7F7F7E7F7F7F7E7F7F7F7EBD
:105800007F7F7F7E7F7F7F7E7F7F7F7E7F7F7F7EAC
:105E20007F7F7F7E7F7F7F7E7F7F7F7E7D7D7D7E8C
:105E30004848487E4848487E7F7F7F7E7F7F7F7EC0
:105E40007F7F7F7E7F7F7F7E7F7F7F7E7F7F7F7E66
:105E50007F7F7F7E7F7F7F7E7F7F7F7E7F7F7F7E56
:105E60007F7F7F7E7F7F7F7E7F7F7F7E7F7F7F7E46
:105E70007F7F7F7E7F7F7F7E7F7F7F7E7F7F7F7E36
:106490007F7F7F7E7F7F7F7E7D7D7D7E4848487EBB
:1064A0004848487E7F7F7F7E7F7F7F7E7F7F7F7EA5
:1064B0007F7F7F7E7F7F7F7E7F7F7F7E7F7F7F7EF0
:1064C0007F7F7F7E7F7F7F7E7F7F7F7E7F7F7F7EE0
:1064D0007F7F7F7E7F7F7F7E7F7F7F7E7F7F7F7ED0
:1064E0007F7F7F7E7F7F7F7E7F7F7F7E7F7F7F7EC0
:106B00007F7F7F7E7D7D7D7E4848487E4848487EE9
:106B10007F7F7F7E7F7F7F7E7F7F7F7E7F7F7F7E89
:106B20007F7F7F7E7F7F7F7E7F7F7F7E7F7F7F7E79
:106B30007F7F7F7E7F7F7F7E7F7F7F7E7F7F7F7E69
:106B40007F7F7F7E7F7F7F7E7F7F7F7E7F7F7F7E59
:107170007D7D7D7E4848487E4848487E7F7F7F7E73
:107180007F7F7F7E7F7F7F7E7F7F7F7E7F7F7F7E13
:107190007F7F7F7E7F7F7F7E7F7F7F7E7F7F7F7E03
:1071A0007F7F7F7E7F7F7F7E7F7F7F7E7F7F7F7EF3
:1071B0007F7F7F7E7F7F7F7E7F7F7F7E7F7F7F7EE3
:1077D0007F7F7F7E7F7F7F7E7F7F7F7E7D7D7D7EC3
:1077E0004848487E4848487E7F7F7F7E7F7F7F7EF7
:1077F0007F7F7F7E7F7F7F7E7F7F7F7E7F7F7F7E9D
:107800007F7F7F7E7F7F7F7E7F7F7F7E7F7F7F7E8C
:107810007F7F7F7E7F7F7F7E7F7F7F7E7F7F7F7E7C
:107820007F7F7F7E7F7F7F7E7F7F7F7E7F7F7F7E6C
:107E40007F7F7F7E7F7F7F7E7D7D7D7E4848487EF1
:107E50004848487E7F7F7F7E7F7F7F7E7F7F7F7EDB
:107E60007F7F7F7E7F7F7F7E7F7F7F7E7F7F7F7E26
:107E70007F7F7F7E7F7F7F7E7F7F7F7E7F7F7F7E16
:107E80007F7F7F7E7F7F7F7E7F7F7F7E7F7F7F7E06
:107E90007F7F7F7E7F7F7F7E7F7F7F7E7F7F7F7EF6
:1084B0007F7F7F7E7D7D7D7E4848487E4848487E20
:1084C0007F7F7F7E7F7F7F7E7F7F7F7E7F7F7F7EC0
:1084D0007F7F7F7E7F7F7F7E7F7F7F7E7F7F7F7EB0
:1084E0007F7F7F7E7F7F7F7E7F7F7F7E7F7F7F7EA0
:1084F0007F7F7F7E7F7F7F7E7F7F7F7E7F7F7F7E90
:108B20007D7D7D7E4848487E4848487E7F7F7F7EA9
:108B30007F7F7F7E7F7F7F7E7F7F7F7E7F7F7F7E49
:108B40007F7F7F7E7F7F7F7E7F7F7F7E7F7F7F7E39
:108B50007F7F7F7E7F7F7F7E7F7F7F7E7F7F7F7E29
:108B60007F7F7F7E7F7F7F7E7F7F7F7E7F7F7F7E19
:109180007F7F7F7E7F7F7F7E7F7F7F7E7D7D7D7EF9
:109190004848487E4848487E7F7F7F7E7F7F7F7E2D
:1091A0007F7F7F7E7F7F7F7E7F7F7F7E7F7F7F7ED3
:1091B0007F7F7F7E7F7F7F7E7F7F7F7E7F7F7F7EC3
:1091C0007F7F7F7E7F7F7F7E7F7F7F7E7F7F7F7EB3
:1091D0007F7F7F7E7F7F7F7E7F7F7F7E7F7F7F7EA3
:1097F0007F7F7F7E7F7F7F7E7D7D7D7E4848487E28
:109800004848487E7F7F7F7E7F7F7F7E7F7F7F7E11
:109810007F7F7F7E7F7F7F7E7F7F7F7E7F7F7F7E5C
:109820007F7F7F7E7F7F7F7E7F7F7F7E7F7F7F7E4C
:109830007F7F7F7E7F7F7F7E7F7F7F7E7F7F7F7E3C
:109840007F7F7F7E7F7F7F7E7F7F7F7E7F7F7F7E2C
:109E60007F7F7F7E7D7D7D7E4848487E4848487E56
:109E70007F7F7F7E7F7F7F7E7F7F7F7E7F7F7F7EF6
:109E80007F7F7F7E7F7F7F7E7F7F7F7E7F7F7F7EE6
:109E90007F7F7F7E7F7F7F7E7F7F7F7E7F7F7F7ED6
:109EA0007F7F7F7E7F7F7F7E7F7F7F7E7F7F7F7EC6
:10A4D0007D7D7D7E4848487E4848487E7F7F7F7EE0
:10A4E0007F7F7F7E7F7F7F7E7F7F7F7E7F7F7F7E80
:10A4F0007F7F7F7E7F7F7F7E7F7F7F7E7F7F7F7E70
:10A500007F7F7F7E7F7F7F7E7F7F7F7E7F7F7F7E5F
:10A510007F7F7F7E7F7F7F7E7F7F7F7E7F7F7F7E4F
:10AB30007F7F7F7E7F7F7F7E7F7F7F7E7D7D7D7E2F
:10AB40004848487E4848487E7F7F7F7E7F7F7F7E63
:10AB50007F7F7F7E7F7F7F7E7F7F7F7E7F7F7F7E09
:10AB60007F7F7F7E7F7F7F7E7F7F7F7E7F7F7F7EF9
:10AB70007F7F7F7E7F7F7F7E7F7F7F7E7F7F7F7EE9
:10AB80007F7F7F7E7F7F7F7E7F7F7F7E7F7F7F7ED9
:10B1A0007F7F7F7E7F7F7F7E7D7D7D7E4848487E5E
:10B1B0004848487E7F7F7F7E7F7F7F7E7F7F7F7E48
:10B1C0007F7F7F7E7F7F7F7E7F7F7F7E7F7F7F7E93
:10B1D0007F7F7F7E7F7F7F7E7F7F7F7E7F7F7F7E83
:10B1E0007F7F7F7E7F7F7F7E7F7F7F7E7F7F7F7E73
:10B1F0007F7F7F7E7F7F7F7E7F7F7F7E7F7F7F7E63
:10B810007F7F7F7E7D7D7D7E4848487E4848487E8C
:10B820007F7F7F7E7F7F7F7E7F7F7F7E7F7F7F7E2C
:10B830007F7F7F7E7F7F7F7E7F7F7F7E7F7F7F7E1C
:10B840007F7F7F7E7F7F7F7E7F7F7F7E7F7F7F7E0C
:10B850007F7F7F7E7F7F7F7E7F7F7F7E7F7F7F7EFC
:10BE80007D7D7D7E4848487E4848487E7F7F7F7E16
:10BE90007F7F7F7E7F7F7F7E7F7F7F7E7F7F7F7EB6
:10BEA0007F7F7F7E7F7F7F7E7F7F7F7E7F7F7F7EA6
:10BEB0007F7F7F7E7F7F7F7E7F7F7F7E7F7F7F7E96
:10BEC0007F7F7F7E7F7F7F7E7F7F7F7E7F7F7F7E86
:10C4E0007F7F7F7E7F7F7F7E7F7F7F7E7D7D7D7E66
:10C4F0004848487E4848487E7F7F7F7E7F7F7F7E9A
:10C500007F7F7F7E7F7F7F7E7F7F7F7E7F7F7F7E3F
:10C510007F7F7F7E7F7F7F7E7F7F7F7E7F7F7F7E2F
:10C520007F7F7F7E7F7F7F7E7F7F7F7E7F7F7F7E1F
:10C530007F7F7F7E7F7F7F7E7F7F7F7E7F7F7F7E0F
:10CB50007F7F7F7E7F7F7F7E7D7D7D7E4848487E94
:10CB60004848487E7F7F7F7E7F7F7F7E7F7F7F7E7E
:10CB70007F7F7F7E7F7F7F7E7F7F7F7E7F7F7F7EC9
:10CB80007F7F7F7E7F7F7F7E7F7F7F7E7F7F7F7EB9
:10CB90007F7F7F7E7F7F7F7E7F7F7F7E7F7F7F7EA9
:10CBA0007F7F7F7E7F7F7F7E7F7F7F7E7F7F7F7E99
:10D1C0007F7F7F7E7D7D7D7E4848487E4848487EC3
:10D1D0007F7F7F7E7F7F7F7E7F7F7F7E7F7F7F7E63
:10D1E0007F7F7F7E7F7F7F7E7F7F7F7E7F7F7F7E53
:10D1F0007F7F7F7E7F7F7F7E7F7F7F7E7F7F7F7E43
:10D200007F7F7F7E7F7F7F7E7F7F7F7E7F7F7F7E32
:10D830007D7D7D7E4848487E4848487E7F7F7F7E4C
:10D840007F7F7F7E7F7F7F7E7F7F7F7E7F7F7F7EEC
:10D850007F7F7F7E7F7F7F7E7F7F7F7E7F7F7F7EDC
:10D860007F7F7F7E7F7F7F7E7F7F7F7E7F7F7F7ECC
:10D870007F7F7F7E7F7F7F7E7F7F7F7E7F7F7F7EBC
:10DE90007F7F7F7E7F7F7F7E7F7F7F7E7D7D7D7E9C
:10DEA0004848487E4848487E7F7F7F7E7F7F7F7ED0
:10DEB0007F7F7F7E7F7F7F7E7F7F7F7E7F7F7F7E76
:10DEC0007F7F7F7E7F7F7F7E7F7F7F7E7F7F7F7E66
:10DED0007F7F7F7E7F7F7F7E7F7F7F7E7F7F7F7E56
:10DEE0007F7F7F7E7F7F7F7E7F7F7F7E7F7F7F7E46
:10E500007F7F7F7E7F7F7F7E7D7D7D7E4848487ECA
:10E510004848487E7F7F7F7E7F7F7F7E7F7F7F7EB4
:10E520007F7F7F7E7F7F7F7E7F7F7F7E7F7F7F7EFF
:10E530007F7F7F7E7F7F7F7E7F7F7F7E7F7F7F7EEF
:10E540007F7F7F7E7F7F7F7E7F7F7F7E7F7F7F7EDF
:10E550007F7F7F7E7F7F7F7E7F7F7F7E7F7F7F7ECF
:10EB70007F7F7F7E7D7D7D7E4848487E4848487EF9
:10EB80007F7F7F7E7F7F7F7E7F7F7F7E7F7F7F7E99
:10EB90007F7F7F7E7F7F7F7E7F7F7F7E7F7F7F7E89
:10EBA0007F7F7F7E7F7F7F7E7F7F7F7E7F7F7F7E79
:10EBB0007F7F7F7E7F7F7F7E7F7F7F7E7F7F7F7E69
:10F1E0007D7D7D7E4848487E4848487E7F7F7F7E83
:10F1F0007F7F7F7E7F7F7F7E7F7F7F7E7F7F7F7E23
:10F200007F7F7F7E7F7F7F7E7F7F7F7E7F7F7F7E12
:10F210007F7F7F7E7F7F7F7E7F7F7F7E7F7F7F7E02
:10F220007F7F7F7E7F7F7F7E7F7F7F7E7F7F7F7EF2
:10F840007F7F7F7E7F7F7F7E7F7F7F7E7D7D7D7ED2
:10F850004848487E4848487E7F7F7F7E7F7F7F7E06
:10F860007F7F7F7E7F7F7F7E7F7F7F7E7F7F7F7EAC
:10F870007F7F7F7E7F7F7F7E7F7F7F7E7F7F7F7E9C
:10F880007F7F7F7E7F7F7F7E7F7F7F7E7F7F7F7E8C
:10F890007F7F7F7E7F7F7F7E7F7F7F7E7F7F7F7E7C
:10FEB0007F7F7F7E7F7F7F7E7D7D7D7E4848487E01
:10FEC0004848487E7F7F7F7E7F7F7F7E7F7F7F7EEB
:10FED0007F7F7F7E7F7F7F7E7F7F7F7E7F7F7F7E36
:10FEE0007F7F7F7E7F7F7F7E7F7F7F7E7F7F7F7E26
:10FEF0007F7F7F7E7F7F7F7E7F7F7F7E7F7F7F7E16
:10FF00007F7F7F7E7F7F7F7E7F7F7F7E7F7F7F7E05
:020000040804EE
:100520007F7F7F7E7D7D7D7E4848487E4848487E2F
:100530007F7F7F7E7F7F7F7E7F7F7F7E7F7F7F7ECF
:100540007F7F7F7E7F7F7F7E7F7F7F7E7F7F7F7EBF
:100550007F7F7F7E7F7F7F7E7F7F7F7E7F7F7F7EAF
:100560007F7F7F7E7F7F7F7E7F7F7F7E7F7F7F7E9F
:100B90007D7D7D7E4848487E4848487E7F7F7F7EB9
:100BA0007F7F7F7E7F7F7F7E7F7F7F7E7F7F7F7E59
:100BB0007F7F7F7E7F7F7F7E7F7F7F7E7F7F7F7E49
:100BC0007F7F7F7E7F7F7F7E7F7F7F7E7F7F7F7E39
:100BD0007F7F7F7E7F7F7F7E7F7F7F7E7F7F7F7E29
:1011F0007F7F7F7E7F7F7F7E7F7F7F7E7D7D7D7E09
:101200004848487E4848487E7F7F7F7E7F7F7F7E3C
:101210007F7F7F7E7F7F7F7E7F7F7F7E7F7F7F7EE2
:101220007F7F7F7E7F7F7F7E7F7F7F7E7F7F7F7ED2
:101230007F7F7F7E7F7F7F7E7F7F7F7E7F7F7F7EC2
:101240007F7F7F7E7F7F7F7E7F7F7F7E7F7F7F7EB2
:101860007F7F7F7E7F7F7F7E7D7D7D7E4848487E37
:101870004848487E7F7F7F7E7F7F7F7E7F7F7F7E21
:101880007F7F7F7E7F7F7F7E7F7F7F7E7F7F7F7E6C
:101890007F7F7F7E7F7F7F7E7F7F7F7E7F7F7F7E5C
:1018A0007F7F7F7E7F7F7F7E7F7F7F7E7F7F7F7E4C
:1018B0007F7F7F7E7F7F7F7E7F7F7F7E7F7F7F7E3C
:101ED0007F7F7F7E7D7D7D7E4848487E4848487E66
:101EE0007F7F7F7E7F7F7F7E7F7F7F7E7F7F7F7E06
:101EF0007F7F7F7E7F7F7F7E7F7F7F7E7F7F7F7EF6
:101F00007F7F7F7E7F7F7F7E7F7F7F7E7F7F7F7EE5
:101F10007F7F7F7E7F7F7F7E7F7F7F7E7F7F7F7ED5
:102540007D7D7D7E4848487E4848487E7F7F7F7EEF
:102550007F7F7F7E7F7F7F7E7F7F7F7E7F7F7F7E8F
:102560007F7F7F7E7F7F7F7E7F7F7F7E7F7F7F7E7F
:102570007F7F7F7E7F7F7F7E7F7F7F7E7F7F7F7E6F
:102580007F7F7F7E7F7F7F7E7F7F7F7E7F7F7F7E5F
:102BA0007F7F7F7E7F7F7F7E7F7F7F7E7D7D7D7E3F
:102BB0004848487E4848487E7F7F7F7E7F7F7F7E73
:102BC0007F7F7F7E7F7F7F7E7F7F7F7E7F7F7F7E19
:102BD0007F7F7F7E7F7F7F7E7F7F7F7E7F7F7F7E09
:102BE0007F7F7F7E7F7F7F7E7F7F7F7E7F7F7F7EF9
:102BF0007F7F7F7E7F7F7F7E7F7F7F7E7F7F7F7EE9
:103210007F7F7F7E7F7F7F7E7D7D7D7E4848487E6D
:103220004848487E7F7F7F7E7F7F7F7E7F7F7F7E57
:103230007F7F7F7E7F7F7F7E7F7F7F7E7F7F7F7EA2
:103240007F7F7F7E7F7F7F7E7F7F7F7E7F7F7F7E92
:103250007F7F7F7E7F7F7F7E7F7F7F7E7F7F7F7E82
:103260007F7F7F7E7F7F7F7E7F7F7F7E7F7F7F7E72
:103880007F7F7F7E7D7D7D7E4848487E4848487E9C
:103890007F7F7F7E7F7F7F7E7F7F7F7E7F7F7F7E3C
:1038A0007F7F7F7E7F7F7F7E7F7F7F7E7F7F7F7E2C
:1038B0007F7F7F7E7F7F7F7E7F7F7F7E7F7F7F7E1C
:1038C0007F7F7F7E7F7F7F7E7F7F7F7E7F7F7F7E0C
:103EF0007D7D7D7E4848487E4848487E7F7F7F7E26
:103F00007F7F7F7E7F7F7F7E7F7F7F7E7F7F7F7EC5
:103F10007F7F7F7E7F7F7F7E7F7F7F7E7F7F7F7EB5
:103F20007F7F7F7E7F7F7F7E7F7F7F7E7F7F7F7EA5
:103F30007F7F7F7E7F7F7F7E7F7F7F7E7F7F7F7E95
:104550007F7F7F7E7F7F7F7E7F7F7F7E7D7D7D7E75
:104560004848487E4848487E7F7F7F7E7F7F7F7EA9
:104570007F7F7F7E7F7F7F7E7F7F7F7E7F7F7F7E4F
:104580007F7F7F7E7F7F7F7E7F7F7F7E7F7F7F7E3F
:104590007F7F7F7E7F7F7F7E7F7F7F7E7F7F7F7E2F
:1045A0007F7F7F7E7F7F7F7E7F7F7F7E7F7F7F7E1F
:104BC0007F7F7F7E7F7F7F7E7D7D7D7E4848487EA4
:104BD0004848487E7F7F7F7E7F7F7F7E7F7F7F7E8E
:104BE0007F7F7F7E7F7F7F7E7F7F7F7E7F7F7F7ED9
:104BF0007F7F7F7E7F7F7F7E7F7F7F7E7F7F7F7EC9
:104C00007F7F7F7E7F7F7F7E7F7F7F7E7F7F7F7EB8
:104C10007F7F7F7E7F7F7F7E7F7F7F7E7F7F7F7EA8
:105230007F7F7F7E7D7D7D7E4848487E4848487ED2
:105240007F7F7F7E7F7F7F7E7F7F7F7E7F7F7F7E72
:105250007F7F7F7E7F7F7F7E7F7F7F7E7F7F7F7E62
:105260007F7F7F7E7F7F7F7E7F7F7F7E7F7F7F7E52
:105270007F7F7F7E7F7F7F7E7F7F7F7E7F7F7F7E42
:1058A0007D7D7D7E4848487E4848487E7F7F7F7E5C
:1058B0007F7F7F7E7F7F7F7E7F7F7F7E7F7F7F7EFC
:1058C0007F7F7F7E7F7F7F7E7F7F7F7E7F7F7F7EEC
:1058D0007F7F7F7E7F7F7F7E7F7F7F7E7F7F7F7EDC
:1058E0007F7F7F7E7F7F7F7E7F7F7F7E7F7F7F7ECC
:105F00007F7F7F7E7F7F7F7E7F7F7F7E7D7D7D7EAB
:105F10004848487E4848487E7F7F7F7E7F7F7F7EDF
:105F20007F7F7F7E7F7F7F7E7F7F7F7E7F7F7F7E85
:105F30007F7F7F7E7F7F7F7E7F7F7F7E7F7F7F7E75
:105F40007F7F7F7E7F7F7F7E7F7F7F7E7F7F7F7E65
:105F50007F7F7F7E7F7F7F7E7F7F7F7E7F7F7F7E55
:106570007F7F7F7E7F7F7F7E7D7D7D7E4848487EDA
:106580004848487E7F7F7F7E7F7F7F7E7F7F7F7EC4
:106590007F7F7F7E7F7F7F7E7F7F7F7E7F7F7F7E0F
:1065A0007F7F7F7E7F7F7F7E7F7F7F7E7F7F7F7EFF
:1065B0007F7F7F7E7F7F7F7E7F7F7F7E7F7F7F7EEF
:1065C0007F7F7F7E7F7F7F7E7F7F7F7E7F7F7F7EDF
:106BE0007F7F7F7E7D7D7D7E4848487E4848487E09
:106BF0007F7F7F7E7F7F7F7E7F7F7F7E7F7F7F7EA9
:106C00007F7F7F7E7F7F7F7E7F7F7F7E7F7F7F7E98
:106C10007F7F7F7E7F7F7F7E7F7F7F7E7F7F7F7E88
:106C20007F7F7F7E7F7F7F7E7F7F7F7E7F7F7F7E78
:107250007D7D7D7E4848487E4848487E7F7F7F7E92
:107260007F7F7F7E7F7F7F7E7F7F7F7E7F7F7F7E32
:107270007F7F7F7E7F7F7F7E7F7F7F7E7F7F7F7E22
:107280007F7F7F7E7F7F7F7E7F7F7F7E7F7F7F7E12
:107290007F7F7F7E7F7F7F7E7F7F7F7E7F7F7F7E02
:1078B0007F7F7F7E7F7F7F7E7F7F7F7E7D7D7D7EE2
:1078C0004848487E4848487E7F7F7F7E7F7F7F7E16
:1078D0007F7F7F7E7F7F7F7E7F7F7F7E7F7F7F7EBC
:1078E0007F7F7F7E7F7F7F7E7F7F7F7E7F7F7F7EAC
:1078F0007F7F7F7E7F7F7F7E7F7F7F7E7F7F7F7E9C
:107900007F7F7F7E7F7F7F7E7F7F7F7E7F7F7F7E8B
:107F20007F7F7F7E7F7F7F7E7D7D7D7E4848487E10
:107F30004848487E7F7F7F7E7F7F7F7E7F7F7F7EFA
:107F40007F7F7F7E7F7F7F7E7F7F7F7E7F7F7F7E45
:107F50007F7F7F7E7F7F7F7E7F7F7F7E7F7F7F7E35
:107F60007F7F7F7E7F7F7F7E7F7F7F7E7F7F7F7E25
:107F70007F7F7F7E7F7F7F7E7F7F7F7E7F7F7F7E15
:108590007F7F7F7E7D7D7D7E4848487E4848487E3F
:1085A0007F7F7F7E7F7F7F7E7F7F7F7E7F7F7F7EDF
:1085B0007F7F7F7E7F7F7F7E7F7F7F7E7F7F7F7ECF
:1085C0007F7F7F7E7F7F7F7E7F7F7F7E7F7F7F7EBF
:1085D0007F7F7F7E7F7F7F7E7F7F7F7E7F7F7F7EAF
:108C00007D7D7D7E4848487E4848487E7F7F7F7EC8
:108C10007F7F7F7E7F7F7F7E7F7F7F7E7F7F7F7E68
:108C20007F7F7F7E7F7F7F7E7F7F7F7E7F7F7F7E58
:108C30007F7F7F7E7F7F7F7E7F7F7F7E7F7F7F7E48
:108C40007F7F7F7E7F7F7F7E7F7F7F7E7F7F7F7E38
:109260007F7F7F7E7F7F7F7E7F7F7F7E7D7D7D7E18
:109270004848487E4848487E7F7F7F7E7F7F7F7E4C
:109280007F7F7F7E7F7F7F7E7F7F7F7E7F7F7F7EF2
:109290007F7F7F7E7F7F7F7E7F7F7F7E7F7F7F7EE2
:1092A0007F7F7F7E7F7F7F7E7F7F7F7E7F7F7F7ED2
:1092B0007F7F7F7E7F7F7F7E7F7F7F7E7F7F7F7EC2
:1098D0007F7F7F7E7F7F7F7E7D7D7D7E4848487E47
:1098E0004848487E7F7F7F7E7F7F7F7E7F7F7F7E31
:1098F0007F7F7F7E7F7F7F7E7F7F7F7E7F7F7F7E7C
:109900007F7F7F7E7F7F7F7E7F7F7F7E7F7F7F7E6B
:109910007F7F7F7E7F7F7F7E7F7F7F7E7F7F7F7E5B
:109920007F7F7F7E7F7F7F7E7F7F7F7E7F7F7F7E4B
:109F40007F7F7F7E7D7D7D7E4848487E4848487E75
:109F50007F7F7F7E7F7F7F7E7F7F7F7E7F7F7F7E15
:109F60007F7F7F7E7F7F7F7E7F7F7F7E7F7F7F7E05
:109F70007F7F7F7E7F7F7F7E7F7F7F7E7F7F7F7EF5
:109F80007F7F7F7E7F7F7F7E7F7F7F7E7F7F7F7EE5
:10A5B0007D7D7D7E4848487E4848487E7F7F7F7EFF
:10A5C0007F7F7F7E7F7F7F7E7F7F7F7E7F7F7F7E9F
:10A5D0007F7F7F7E7F7F7F7E7F7F7F7E7F7F7F7E8F
:10A5E0007F7F7F7E7F7F7F7E7F7F7F7E7F7F7F7E7F
:10A5F0007F7F7F7E7F7F7F7E7F7F7F7E7F7F7F7E6F
:10AC10007F7F7F7E7F7F7F7E7F7F7F7E7D7D7D7E4E
:10AC20004848487E4848487E7F7F7F7E7F7F7F7E82
:10AC30007F7F7F7E7F7F7F7E7F7F7F7E7F7F7F7E28
:10AC40007F7F7F7E7F7F7F7E7F7F7F7E7F7F7F7E18
:10AC50007F7F7F7E7F7F7F7E7F7F7F7E7F7F7F7E08
:10AC60007F7F7F7E7F7F7F7E7F7F7F7E7F7F7F7EF8
:10B280007F7F7F7E7F7F7F7E7D7D7D7E4848487E7D
:10B290004848487E7F7F7F7E7F7F7F7E7F7F7F7E67
:10B2A0007F7F7F7E7F7F7F7E7F7F7F7E7F7F7F7EB2
:10B2B0007F7F7F7E7F7F7F7E7F7F7F7E7F7F7F7EA2
:10B2C0007F7F7F7E7F7F7F7E7F7F7F7E7F7F7F7E92
:10B2D0007F7F7F7E7F7F7F7E7F7F7F7E7F7F7F7E82
:10B8F0007F7F7F7E7D7D7D7E4848487E4848487EAC
:10B900007F7F7F7E7F7F7F7E7F7F7F7E7F7F7F7E4B
:10B910007F7F7F7E7F7F7F7E7F7F7F7E7F7F7F7E3B
:10B920007F7F7F7E7F7F7F7E7F7F7F7E7F7F7F7E2B
:10B930007F7F7F7E7F7F7F7E7F7F7F7E7F7F7F7E1B
:10BF60007D7D7D7E4848487E4848487E7F7F7F7E35
:10BF70007F7F7F7E7F7F7F7E7F7F7F7E7F7F7F7ED5
:10BF80007F7F7F7E7F7F7F7E7F7F7F7E7F7F7F7EC5
:10BF90007F7F7F7E7F7F7F7E7F7F7F7E7F7F7F7EB5
:10BFA0007F7F7F7E7F7F7F7E7F7F7F7E7F7F7F7EA5
:10C5C0007F7F7F7E7F7F7F7E7F7F7F7E7D7D7D7E85
:10C5D0004848487E4848487E7F7F7F7E7F7F7F7EB9
:10C5E0007F7F7F7E7F7F7F7E7F7F7F7E7F7F7F7E5F
:10C5F0007F7F7F7E7F7F7F7E7F7F7F7E7F7F7F7E4F
:10C600007F7F7F7E7F7F7F7E7F7F7F7E7F7F7F7E3E
:10C610007F7F7F7E7F7F7F7E7F7F7F7E7F7F7F7E2E
:10CC30007F7F7F7E7F7F7F7E7D7D7D7E4848487EB3
:10CC40004848487E7F7F7F7E7F7F7F7E7F7F7F7E9D
:10CC50007F7F7F7E7F7F7F7E7F7F7F7E7F7F7F7EE8
:10CC60007F7F7F7E7F7F7F7E7F7F7F7E7F7F7F7ED8
:10CC70007F7F7F7E7F7F7F7E7F7F7F7E7F7F7F7EC8
:10CC80007F7F7F7E7F7F7F7E7F7F7F7E7F7F7F7EB8
:10D2A0007F7F7F7E7D7D7D7E4848487E4848487EE2
:10D2B0007F7F7F7E7F7F7F7E7F7F7F7E7F7F7F7E82
:10D2C0007F7F7F7E7F7F7F7E7F7F7F7E7F7F7F7E72
:10D2D0007F7F7F7E7F7F7F7E7F7F7F7E7F7F7F7E62
:10D2E0007F7F7F7E7F7F7F7E7F7F7F7E7F7F7F7E52
:10D910007D7D7D7E4848487E4848487E7F7F7F7E6B
:10D920007F7F7F7E7F7F7F7E7F7F7F7E7F7F7F7E0B
:10D930007F7F7F7E7F7F7F7E7F7F7F7E7F7F7F7EFB
:10D940007F7F7F7E7F7F7F7E7F7F7F7E7F7F7F7EEB
:10D950007F7F7F7E7F7F7F7E7F7F7F7E7F7F7F7EDB
:10DF70007F7F7F7E7F7F7F7E7F7F7F7E7D7D7D7EBB
:10DF80004848487E4848487E7F7F7F7E7F7F7F7EEF
:10DF90007F7F7F7E7F7F7F7E7F7F7F7E7F7F7F7E95
:10DFA0007F7F7F7E7F7F7F7E7F7F7F7E7F7F7F7E85
:10DFB0007F7F7F7E7F7F7F7E7F7F7F7E7F7F7F7E75
:10DFC0007F7F7F7E7F7F7F7E7F7F7F7E7F7F7F7E65
:10E5E0007F7F7F7E7F7F7F7E7D7D7D7E4848487EEA
:10E5F0004848487E7F7F7F7E7F7F7F7E7F7F7F7ED4
:10E600007F7F7F7E7F7F7F7E7F7F7F7E7F7F7F7E1E
:10E610007F7F7F7E7F7F7F7E7F7F7F7E7F7F7F7E0E
:10E620007F7F7F7E7F7F7F7E7F7F7F7E7F7F7F7EFE
:10E630007F7F7F7E7F7F7F7E7F7F7F7E7F7F7F7EEE
:10EC50007F7F7F7E7D7D7D7E4848487E4848487E18
:10EC60007F7F7F7E7F7F7F7E7F7F7F7E7F7F7F7EB8
:10EC70007F7F7F7E7F7F7F7E7F7F7F7E7F7F7F7EA8
:10EC80007F7F7F7E7F7F7F7E7F7F7F7E7F7F7F7E98
:10EC90007F7F7F7E7F7F7F7E7F7F7F7E7F7F7F7E88
:10F2C0007D7D7D7E4848487E4848487E7F7F7F7EA2
:10F2D0007F7F7F7E7F7F7F7E7F7F7F7E7F7F7F7E42
:10F2E0007F7F7F7E7F7F7F7E7F7F7F7E7F7F7F7E32
:10F2F0007F7F7F7E7F7F7F7E7F7F7F7E7F7F7F7E22
:10F300007F7F7F7E7F7F7F7E7F7F7F7E7F7F7F7E11
:10F920007F7F7F7E7F7F7F7E7F7F7F7E7D7D7D7EF1
:10F930004848487E4848487E7F7F7F7E7F7F7F7E25
:10F940007F7F7F7E7F7F7F7E7F7F7F7E7F7F7F7ECB
:10F950007F7F7F7E7F7F7F7E7F7F7F7E7F7F7F7EBB
:10F960007F7F7F7E7F7F7F7E7F7F7F7E7F7F7F7EAB
:10F970007F7F7F7E7F7F7F7E7F7F7F7E7F7F7F7E9B
:10FF90007F7F7F7E7F7F7F7E7D7D7D7E4848487E20
:10FFA0004848487E7F7F7F7E7F7F7F7E7F7F7F7E0A
:10FFB0007F7F7F7E7F7F7F7E7F7F7F7E7F7F7F7E55
:10FFC0007F7F7F7E7F7F7F7E7F7F7F7E7F7F7F7E45
:10FFD0007F7F7F7E7F7F7F7E7F7F7F7E7F7F7F7E35
:10FFE0007F7F7F7E7F7F7F7E7F7F7F7E7F7F7F7E25
:020000040805ED
:100600007F7F7F7E7D7D7D7E4848487E4848487E4E
:100610007F7F7F7E7F7F7F7E7F7F7F7E7F7F7F7EEE
:100620007F7F7F7E7F7F7F7E7F7F7F7E7F7F7F7EDE
:100630007F7F7F7E7F7F7F7E7F7F7F7E7F7F7F7ECE
:100640007F7F7F7E7F7F7F7E7F7F7F7E7F7F7F7EBE
:100C70007D7D7D7E4848487E4848487E7F7F7F7ED8
:100C80007F7F7F7E7F7F7F7E7F7F7F7E7F7F7F7E78
:100C90007F7F7F7E7F7F7F7E7F7F7F7E7F7F7F7E68
:100CA0007F7F7F7E7F7F7F7E7F7F7F7E7F7F7F7E58
:100CB0007F7F7F7E7F7F7F7E7F7F7F7E7F7F7F7E48
:1012D0007F7F7F7E7F7F7F7E7F7F7F7E7D7D7D7E28
:1012E0004848487E4848487E7F7F7F7E7F7F7F7E5C
:1012F0007F7F7F7E7F7F7F7E7F7F7F7E7F7F7F7E02
:101300007F7F7F7E7F7F7F7E7F7F7F7E7F7F7F7EF1
:101310007F7F7F7E7F7F7F7E7F7F7F7E7F7F7F7EE1
:101320007F7F7F7E7F7F7F7E7F7F7F7E7F7F7F7ED1
:101940007F7F7F7E7F7F7F7E7D7D7D7E4848487E56
:101950004848487E7F7F7F7E7F7F7F7E7F7F7F7E40
:101960007F7F7F7E7F7F7F7E7F7F7F7E7F7F7F7E8B
:101970007F7F7F7E7F7F7F7E7F7F7F7E7F7F7F7E7B
:101980007F7F7F7E7F7F7F7E7F7F7F7E7F7F7F7E6B
:101990007F7F7F7E7F7F7F7E7F7F7F7E7F7F7F7E5B
:101FB0007F7F7F7E7D7D7D7E4848487E4848487E85
:101FC0007F7F7F7E7F7F7F7E7F7F7F7E7F7F7F7E25
:101FD0007F7F7F7E7F7F7F7E7F7F7F7E7F7F7F7E15
:101FE0007F7F7F7E7F7F7F7E7F7F7F7E7F7F7F7E05
:101FF0007F7F7F7E7F7F7F7E7F7F7F7E7F7F7F7EF5
:102620007D7D7D7E4848487E4848487E7F7F7F7E0E
:102630007F7F7F7E7F7F7F7E7F7F7F7E7F7F7F7EAE
:102640007F7F7F7E7F7F7F7E7F7F7F7E7F7F7F7E9E
:102650007F7F7F7E7F7F7F7E7F7F7F7E7F7F7F7E8E
:102660007F7F7F7E7F7F7F7E7F7F7F7E7F7F7F7E7E
:102C80007F7F7F7E7F7F7F7E7F7F7F7E7D7D7D7E5E
:102C90004848487E4848487E7F7F7F7E7F7F7F7E92
:102CA0007F7F7F7E7F7F7F7E7F7F7F7E7F7F7F7E38
:102CB0007F7F7F7E7F7F7F7E7F7F7F7E7F7F7F7E28
:102CC0007F7F7F7E7F7F7F7E7F7F7F7E7F7F7F7E18
:102CD0007F7F7F7E7F7F7F7E7F7F7F7E7F7F7F7E08
:1032F0007F7F7F7E7F7F7F7E7D7D7D7E4848487E8D
:103300004848487E7F7F7F7E7F7F7F7E7F7F7F7E76
:103310007F7F7F7E7F7F7F7E7F7F7F7E7F7F7F7EC1
:103320007F7F7F7E7F7F7F7E7F7F7F7E7F7F7F7EB1
:103330007F7F7F7E7F7F7F7E7F7F7F7E7F7F7F7EA1
:103340007F7F7F7E7F7F7F7E7F7F7F7E7F7F7F7E91
:103960007F7F7F7E7D7D7D7E4848487E4848487EBB
:103970007F7F7F7E7F7F7F7E7F7F7F7E7F7F7F7E5B
:103980007F7F7F7E7F7F7F7E7F7F7F7E7F7F7F7E4B
:103990007F7F7F7E7F7F7F7E7F7F7F7E7F7F7F7E3B
:1039A0007F7F7F7E7F7F7F7E7F7F7F7E7F7F7F7E2B
:103FD0007D7D7D7E4848487E4848487E7F7F7F7E45
:103FE0007F7F7F7E7F7F7F7E7F7F7F7E7F7F7F7EE5
:103FF0007F7F7F7E7F7F7F7E7F7F7F7E7F7F7F7ED5
:104000007F7F7F7E7F7F7F7E7F7F7F7E7F7F7F7EC4
:104010007F7F7F7E7F7F7F7E7F7F7F7E7F7F7F7EB4
:104630007F7F7F7E7F7F7F7E7F7F7F7E7D7D7D7E94
:104640004848487E4848487E7F7F7F7E7F7F7F7EC8
:104650007F7F7F7E7F7F7F7E7F7F7F7E7F7F7F7E6E
:104660007F7F7F7E7F7F7F7E7F7F7F7E7F7F7F7E5E
:104670007F7F7F7E7F7F7F7E7F7F7F7E7F7F7F7E4E
:104680007F7F7F7E7F7F7F7E7F7F7F7E7F7F7F7E3E
:104CA0007F7F7F7E7F7F7F7E7D7D7D7E4848487EC3
:104CB0004848487E7F7F7F7E7F7F7F7E7F7F7F7EAD
:104CC0007F7F7F7E7F7F7F7E7F7F7F7E7F7F7F7EF8
:104CD0007F7F7F7E7F7F7F7E7F7F7F7E7F7F7F7EE8
:104CE0007F7F7F7E7F7F7F7E7F7F7F7E7F7F7F7ED8
:104CF0007F7F7F7E7F7F7F7E7F7F7F7E7F7F7F7EC8
:105310007F7F7F7E7D7D7D7E4848487E4848487EF1
:105320007F7F7F7E7F7F7F7E7F7F7F7E7F7F7F7E91
:105330007F7F7F7E7F7F7F7E7F7F7F7E7F7F7F7E81
:105340007F7F7F7E7F7F7F7E7F7F7F7E7F7F7F7E71
:105350007F7F7F7E7F7F7F7E7F7F7F7E7F7F7F7E61
:105980007D7D7D7E4848487E4848487E7F7F7F7E7B
:105990007F7F7F7E7F7F7F7E7F7F7F7E7F7F7F7E1B
:1059A0007F7F7F7E7F7F7F7E7F7F7F7E7F7F7F7E0B
:1059B0007F7F7F7E7F7F7F7E7F7F7F7E7F7F7F7EFB
:1059C0007F7F7F7E7F7F7F7E7F7F7F7E7F7F7F7EEB
:105FE0007F7F7F7E7F7F7F7E7F7F7F7E7D7D7D7ECB
:105FF0004848487E4848487E7F7F7F7E7F7F7F7EFF
:106000007F7F7F7E7F7F7F7E7F7F7F7E7F7F7F7EA4
:106010007F7F7F7E7F7F7F7E7F7F7F7E7F7F7F7E94
:106020007F7F7F7E7F7F7F7E7F7F7F7E7F7F7F7E84
:106030007F7F7F7E7F7F7F7E7F7F7F7E7F7F7F7E74
:106650007F7F7F7E7F7F7F7E7D7D7D7E4848487EF9
:106660004848487E7F7F7F7E7F7F7F7E7F7F7F7EE3
:106670007F7F7F7E7F7F7F7E7F7F7F7E7F7F7F7E2E
:106680007F7F7F7E7F7F7F7E7F7F7F7E7F7F7F7E1E
:106690007F7F7F7E7F7F7F7E7F7F7F7E7F7F7F7E0E
:1066A0007F7F7F7E7F7F7F7E7F7F7F7E7F7F7F7EFE
:106CC0007F7F7F7E7D7D7D7E4848487E4848487E28
:106CD0007F7F7F7E7F7F7F7E7F7F7F7E7F7F7F7EC8
:106CE0007F7F7F7E7F7F7F7E7F7F7F7E7F7F7F7EB8
:106CF0007F7F7F7E7F7F7F7E7F7F7F7E7F7F7F7EA8
:106D00007F7F7F7E7F7F7F7E7F7F7F7E7F7F7F7E97
:107330007D7D7D7E4848487E4848487E7F7F7F7EB1
:107340007F7F7F7E7F7F7F7E7F7F7F7E7F7F7F7E51
:107350007F7F7F7E7F7F7F7E7F7F7F7E7F7F7F7E41
:107360007F7F7F7E7F7F7F7E7F7F7F7E7F7F7F7E31
:107370007F7F7F7E7F7F7F7E7F7F7F7E7F7F7F7E21
:107990007F7F7F7E7F7F7F7E7F7F7F7E7D7D7D7E01
:1079A0004848487E4848487E7F7F7F7E7F7F7F7E35
:1079B0007F7F7F7E7F7F7F7E7F7F7F7E7F7F7F7EDB
:1079C0007F7F7F7E7F7F7F7E7F7F7F7E7F7F7F7ECB
:1079D0007F7F7F7E7F7F7F7E7F7F7F7E7F7F7F7EBB
:1079E0007F7F7F7E7F7F7F7E7F7F7F7E7F7F7F7EAB
:108000007F7F7F7E7F7F7F7E7D7D7D7E4848487E2F
:108010004848487E7F7F7F7E7F7F7F7E7F7F7F7E19
:108020007F7F7F7E7F7F7F7E7F7F7F7E7F7F7F7E64
:108030007F7F7F7E7F7F7F7E7F7F7F7E7F7F7F7E54
:108040007F7F7F7E7F7F7F7E7F7F7F7E7F7F7F7E44
:108050007F7F7F7E7F7F7F7E7F7F7F7E7F7F7F7E34
:108670007F7F7F7E7D7D7D7E4848487E4848487E5E
:108680007F7F7F7E7F7F7F7E7F7F7F7E7F7F7F7EFE
:108690007F7F7F7E7F7F7F7E7F7F7F7E7F7F7F7EEE
:1086A0007F7F7F7E7F7F7F7E7F7F7F7E7F7F7F7EDE
:1086B0007F7F7F7E7F7F7F7E7F7F7F7E7F7F7F7ECE
:108CE0007D7D7D7E4848487E4848487E7F7F7F7EE8
:108CF0007F7F7F7E7F7F7F7E7F7F7F7E7F7F7F7E88
:108D00007F7F7F7E7F7F7F7E7F7F7F7E7F7F7F7E77
:108D10007F7F7F7E7F7F7F7E7F7F7F7E7F7F7F7E67
:108D20007F7F7F7E7F7F7F7E7F7F7F7E7F7F7F7E57
:109340007F7F7F7E7F7F7F7E7F7F7F7E7D7D7D7E37
:109350004848487E4848487E7F7F7F7E7F7F7F7E6B
:109360007F7F7F7E7F7F7F7E7F7F7F7E7F7F7F7E11
:109370007F7F7F7E7F7F7F7E7F7F7F7E7F7F7F7E01
:109380007F7F7F7E7F7F7F7E7F7F7F7E7F7F7F7EF1
:109390007F7F7F7E7F7F7F7E7F7F7F7E7F7F7F7EE1
:1099B0007F7F7F7E7F7F7F7E7D7D7D7E4848487E66
:1099C0004848487E7F7F7F7E7F7F7F7E7F7F7F7E50
:1099D0007F7F7F7E7F7F7F7E7F7F7F7E7F7F7F7E9B
:1099E0007F7F7F7E7F7F7F7E7F7F7F7E7F7F7F7E8B
:1099F0007F7F7F7E7F7F7F7E7F7F7F7E7F7F7F7E7B
:109A00007F7F7F7E7F7F7F7E7F7F7F7E7F7F7F7E6A
:10A020007F7F7F7E7D7D7D7E4848487E4848487E94
:10A030007F7F7F7E7F7F7F7E7F7F7F7E7F7F7F7E34
:10A040007F7F7F7E7F7F7F7E7F7F7F7E7F7F7F7E24
:10A050007F7F7F7E7F7F7F7E7F7F7F7E7F7F7F7E14
:10A060007F7F7F7E7F7F7F7E7F7F7F7E7F7F7F7E04
:10A690007D7D7D7E4848487E4848487E7F7F7F7E1E
:10A6A0007F7F7F7E7F7F7F7E7F7F7F7E7F7F7F7EBE
:10A6B0007F7F7F7E7F7F7F7E7F7F7F7E7F7F7F7EAE
:10A6C0007F7F7F7E7F7F7F7E7F7F7F7E7F7F7F7E9E
:10A6D0007F7F7F7E7F7F7F7E7F7F7F7E7F7F7F7E8E
:10ACF0007F7F7F7E7F7F7F7E7F7F7F7E7D7D7D7E6E
:10AD00004848487E4848487E7F7F7F7E7F7F7F7EA1
:10AD10007F7F7F7E7F7F7F7E7F7F7F7E7F7F7F7E47
:10AD20007F7F7F7E7F7F7F7E7F7F7F7E7F7F7F7E37
:10AD30007F7F7F7E7F7F7F7E7F7F7F7E7F7F7F7E27
:10AD40007F7F7F7E7F7F7F7E7F7F7F7E7F7F7F7E17
:10B360007F7F7F7E7F7F7F7E7D7D7D7E4848487E9C
:10B370004848487E7F7F7F7E7F7F7F7E7F7F7F7E86
:10B380007F7F7F7E7F7F7F7E7F7F7F7E7F7F7F7ED1
:10B390007F7F7F7E7F7F7F7E7F7F7F7E7F7F7F7EC1
:10B3A0007F7F7F7E7F7F7F7E7F7F7F7E7F7F7F7EB1
:10B3B0007F7F7F7E7F7F7F7E7F7F7F7E7F7F7F7EA1
:10B9D0007F7F7F7E7D7D7D7E4848487E4848487ECB
:10B9E0007F7F7F7E7F7F7F7E7F7F7F7E7F7F7F7E6B
:10B9F0007F7F7F7E7F7F7F7E7F7F7F7E7F7F7F7E5B
:10BA00007F7F7F7E7F7F7F7E7F7F7F7E7F7F7F7E4A
:10BA10007F7F7F7E7F7F7F7E7F7F7F7E7F7F7F7E3A
:10C040007D7D7D7E4848487E4848487E7F7F7F7E54
:10C050007F7F7F7E7F7F7F7E7F7F7F7E7F7F7F7EF4
:10C060007F7F7F7E7F7F7F7E7F7F7F7E7F7F7F7EE4
:10C070007F7F7F7E7F7F7F7E7F7F7F7E7F7F7F7ED4
:10C080007F7F7F7E7F7F7F7E7F7F7F7E7F7F7F7EC4
:10C6A0007F7F7F7E7F7F7F7E7F7F7F7E7D7D7D7EA4
:10C6B0004848487E4848487E7F7F7F7E7F7F7F7ED8
:10C6C0007F7F7F7E7F7F7F7E7F7F7F7E7F7F7F7E7E
:10C6D0007F7F7F7E7F7F7F7E7F7F7F7E7F7F7F7E6E
:10C6E0007F7F7F7E7F7F7F7E7F7F7F7E7F7F7F7E5E
:10C6F0007F7F7F7E7F7F7F7E7F7F7F7E7F7F7F7E4E
:10CD10007F7F7F7E7F7F7F7E7D7D7D7E4848487ED2
:10CD20004848487E7F7F7F7E7F7F7F7E7F7F7F7EBC
:10CD30007F7F7F7E7F7F7F7E7F7F7F7E7F7F7F7E07
:10CD40007F7F7F7E7F7F7F7E7F7F7F7E7F7F7F7EF7
:10CD50007F7F7F7E7F7F7F7E7F7F7F7E7F7F7F7EE7
:10CD60007F7F7F7E7F7F7F7E7F7F7F7E7F7F7F7ED7
:10D380007F7F7F7E7D7D7D7E4848487E4848487E01
:10D390007F7F7F7E7F7F7F7E7F7F7F7E7F7F7F7EA1
:10D3A0007F7F7F7E7F7F7F7E7F7F7F7E7F7F7F7E91
:10D3B0007F7F7F7E7F7F7F7E7F7F7F7E7F7F7F7E81
:10D3C0007F7F7F7E7F7F7F7E7F7F7F7E7F7F7F7E71
:10D9F0007D7D7D7E4848487E4848487E7F7F7F7E8B
:10DA00007F7F7F7E7F7F7F7E7F7F7F7E7F7F7F7E2A
:10DA10007F7F7F7E7F7F7F7E7F7F7F7E7F7F7F7E1A
:10DA20007F7F7F7E7F7F7F7E7F7F7F7E7F7F7F7E0A
:10DA30007F7F7F7E7F7F7F7E7F7F7F7E7F7F7F7EFA
:10E050007F7F7F7E7F7F7F7E7F7F7F7E7D7D7D7EDA
:10E060004848487E4848487E7F7F7F7E7F7F7F7E0E
:10E070007F7F7F7E7F7F7F7E7F7F7F7E7F7F7F7EB4
:10E080007F7F7F7E7F7F7F7E7F7F7F7E7F7F7F7EA4
:10E090007F7F7F7E7F7F7F7E7F7F7F7E7F7F7F7E94
:10E0A0007F7F7F7E7F7F7F7E7F7F7F7E7F7F7F7E84
:10E6C0007F7F7F7E7F7F7F7E7D7D7D7E4848487E09
:10E6D0004848487E7F7F7F7E7F7F7F7E7F7F7F7EF3
:10E6E0007F7F7F7E7F7F7F7E7F7F7F7E7F7F7F7E3E
:10E6F0007F7F7F7E7F7F7F7E7F7F7F7E7F7F7F7E2E
:10E700007F7F7F7E7F7F7F7E7F7F7F7E7F7F7F7E1D
:10E710007F7F7F7E7F7F7F7E7F7F7F7E7F7F7F7E0D
:10ED30007F7F7F7E7D7D7D7E4848487E4848487E37
:10ED40007F7F7F7E7F7F7F7E7F7F7F7E7F7F7F7ED7
:10ED50007F7F7F7E7F7F7F7E7F7F7F7E7F7F7F7EC7
:10ED60007F7F7F7E7F7F7F7E7F7F7F7E7F7F7F7EB7
:10ED70007F7F7F7E7F7F7F7E7F7F7F7E7F7F7F7EA7
:10F3A0007D7D7D7E4848487E4848487E7F7F7F7EC1
:10F3B0007F7F7F7E7F7F7F7E7F7F7F7E7F7F7F7E61
:10F3C0007F7F7F7E7F7F7F7E7F7F7F7E7F7F7F7E51
:10F3D0007F7F7F7E7F7F7F7E7F7F7F7E7F7F7F7E41
:10F3E0007F7F7F7E7F7F7F7E7F7F7F7E7F7F7F7E31
:10FA00007F7F7F7E7F7F7F7E7F7F7F7E7D7D7D7E10
:10FA10004848487E4848487E7F7F7F7E7F7F7F7E44
:10FA20007F7F7F7E7F7F7F7E7F7F7F7E7F7F7F7EEA
:10FA30007F7F7F7E7F7F7F7E7F7F7F7E7F7F7F7EDA
:10FA40007F7F7F7E7F7F7F7E7F7F7F7E7F7F7F7ECA
:10FA50007F7F7F7E7F7F7F7E7F7F7F7E7F7F7F7EBA
:020000040806EC
:100070007F7F7F7E7F7F7F7E7D7D7D7E4848487E3F
:100080004848487E7F7F7F7E7F7F7F7E7F7F7F7E29
:100090007F7F7F7E7F7F7F7E7F7F7F7E7F7F7F7E74
:1000A0007F7F7F7E7F7F7F7E7F7F7F7E7F7F7F7E64
:1000B0007F7F7F7E7F7F7F7E7F7F7F7E7F7F7F7E54
:1000C0007F7F7F7E7F7F7F7E7F7F7F7E7F7F7F7E44
:1006E0007F7F7F7E7D7D7D7E4848487E4848487E6E
:1006F0007F7F7F7E7F7F7F7E7F7F7F7E7F7F7F7E0E
:100700007F7F7F7E7F7F7F7E7F7F7F7E7F7F7F7EFD
:100710007F7F7F7E7F7F7F7E7F7F7F7E7F7F7F7EED
:100720007F7F7F7E7F7F7F7E7F7F7F7E7F7F7F7EDD
:100D50007D7D7D7E4848487E4848487E7F7F7F7EF7
:100D60007F7F7F7E7F7F7F7E7F7F7F7E7F7F7F7E97
:100D70007F7F7F7E7F7F7F7E7F7F7F7E7F7F7F7E87
:100D80007F7F7F7E7F7F7F7E7F7F7F7E7F7F7F7E77
:100D90007F7F7F7E7F7F7F7E7F7F7F7E7F7F7F7E67
:1013B0007F7F7F7E7F7F7F7E7F7F7F7E7D7D7D7E47
:1013C0004848487E4848487E7F7F7F7E7F7F7F7E7B
:1013D0007F7F7F7E7F7F7F7E7F7F7F7E7F7F7F7E21
:1013E0007F7F7F7E7F7F7F7E7F7F7F7E7F7F7F7E11
:1013F0007F7F7F7E7F7F7F7E7F7F7F7E7F7F7F7E01
:101400007F7F7F7E7F7F7F7E7F7F7F7E7F7F7F7EF0
:101A20007F7F7F7E7F7F7F7E7D7D7D7E4848487E75
:101A30004848487E7F7F7F7E7F7F7F7E7F7F7F7E5F
:101A40007F7F7F7E7F7F7F7E7F7F7F7E7F7F7F7EAA
:101A50007F7F7F7E7F7F7F7E7F7F7F7E7F7F7F7E9A
:101A60007F7F7F7E7F7F7F7E7F7F7F7E7F7F7F7E8A
:101A70007F7F7F7E7F7F7F7E7F7F7F7E7F7F7F7E7A
:102090007F7F7F7E7D7D7D7E4848487E4848487EA4
:1020A0007F7F7F7E7F7F7F7E7F7F7F7E7F7F7F7E44
:1020B0007F7F7F7E7F7F7F7E7F7F7F7E7F7F7F7E34
:1020C0007F7F7F7E7F7F7F7E7F7F7F7E7F7F7F7E24
:1020D0007F7F7F7E7F7F7F7E7F7F7F7E7F7F7F7E14
:102700007D7D7D7E4848487E4848487E7F7F7F7E2D
:102710007F7F7F7E7F7F7F7E7F7F7F7E7F7F7F7ECD
:102720007F7F7F7E7F7F7F7E7F7F7F7E7F7F7F7EBD
:102730007F7F7F7E7F7F7F7E7F7F7F7E7F7F7F7EAD
:102740007F7F7F7E7F7F7F7E7F7F7F7E7F7F7F7E9D
:102D60007F7F7F7E7F7F7F7E7F7F7F7E7D7D7D7E7D
:102D70004848487E4848487E7F7F7F7E7F7F7F7EB1
:102D80007F7F7F7E7F7F7F7E7F7F7F7E7F7F7F7E57
:102D90007F7F7F7E7F7F7F7E7F7F7F7E7F7F7F7E47
:102DA0007F7F7F7E7F7F7F7E7F7F7F7E7F7F7F7E37
:102DB0007F7F7F7E7F7F7F7E7F7F7F7E7F7F7F7E27
:1033D0007F7F7F7E7F7F7F7E7D7D7D7E4848487EAC
:1033E0004848487E7F7F7F7E7F7F7F7E7F7F7F7E96
:1033F0007F7F7F7E7F7F7F7E7F7F7F7E7F7F7F7EE1
:103400007F7F7F7E7F7F7F7E7F7F7F7E7F7F7F7ED0
:103410007F7F7F7E7F7F7F7E7F7F7F7E7F7F7F7EC0
:103420007F7F7F7E7F7F7F7E7F7F7F7E7F7F7F7EB0
:103A40007F7F7F7E7D7D7D7E4848487E4848487EDA
:103A50007F7F7F7E7F7F7F7E7F7F7F7E7F7F7F7E7A
:103A60007F7F7F7E7F7F7F7E7F7F7F7E7F7F7F7E6A
:103A70007F7F7F7E7F7F7F7E7F7F7F7E7F7F7F7E5A
:103A80007F7F7F7E7F7F7F7E7F7F7F7E7F7F7F7E4A
:1040B0007D7D7D7E4848487E4848487E7F7F7F7E64
:1040C0007F7F7F7E7F7F7F7E7F7F7F7E7F7F7F7E04
:1040D0007F7F7F7E7F7F7F7E7F7F7F7E7F7F7F7EF4
:1040E0007F7F7F7E7F7F7F7E7F7F7F7E7F7F7F7EE4
:1040F0007F7F7F7E7F7F7F7E7F7F7F7E7F7F7F7ED4
:104710007F7F7F7E7F7F7F7E7F7F7F7E7D7D7D7EB3
:104720004848487E4848487E7F7F7F7E7F7F7F7EE7
:104730007F7F7F7E7F7F7F7E7F7F7F7E7F7F7F7E8D
:104740007F7F7F7E7F7F7F7E7F7F7F7E7F7F7F7E7D
:104750007F7F7F7E7F7F7F7E7F7F7F7E7F7F7F7E6D
:104760007F7F7F7E7F7F7F7E7F7F7F7E7F7F7F7E5D
:104D80007F7F7F7E7F7F7F7E7D7D7D7E4848487EE2
:104D9000474747687F7F7F7E7F7F7F7E7F7F7F7EE5
:104DA0007F7F7F7E7F7F7F7E7F7F7F7E7F7F7F7E17
:104DB0007F7F7F7E7F7F7F7E7F7F7F7E7F7F7F7E07
:104DC0007F7F7F7E7F7F7F7E7F7F7F7E7F7F7F7EF7
:104DD0007F7F7F7E7F7F7F7E7F7F7F7E7F7F7F7EE7
:1053F0007F7F7F7E7D7D7D7E4747476F4B4B4B3D5B
:105400007373737E7F7F7F7E7F7F7F7E7F7F7F7ED4
:105410007F7F7F7E7F7F7F7E7F7F7F7E7F7F7F7EA0
:105420007F7F7F7E7F7F7F7E7F7F7F7E7F7F7F7E90
:105430007F7F7F7E7F7F7F7E7F7F7F7E7F7F7F7E80
:105440007F7F7F7E7F7F7F7E7F7F7F7E7F7F7F7E70
:105A60007171717E3E3E3E51555555034A4A4A601A
:105A70007171717E7F7F7F7E7F7F7F7E7F7F7F7E64
:105A80007F7F7F7E7F7F7F7E7F7F7F7E7F7F7F7E2A
:105A90007F7F7F7E7F7F7F7E7F7F7F7E7F7F7F7E1A
:105AA0007F7F7F7E7F7F7F7E7F7F7F7E7F7F7F7E0A
:105AB0007F7F7F7E7F7F7F7E7F7F7F7E7F7F7F7EFA
:1060C0007F7F7F7E7F7F7F7E6F6F6F7E47474767D3
:1060D0002828281300000000000000024B4B4B4012
:1060E0004A4A4A594A4A4A7E4A4A4A7E4A4A4A7E65
:1060F0004A4A4A7E4A4A4A7E4A4A4A7E4A4A4A7E30
:106100004A4A4A7E4A4A4A7E4A4A4A7E4A4A4A7E1F
:106110004A4A4A7E4A4A4A7E4A4A4A7E4A4A4A7E0F
:106120004A4A4A7E4A4A4A7E4A4A4A7E4A4A4A7EFF
:106730004646467B4545454617171716000000009C
:10674000A09BB89E9CBA9A98B79796B29A95AE9429
:1067500091A69193A89292A89891A7988FA4938DAF
:10676000A2908DA49190A58E8C9F938DA0958FA5BE
:106770008F8DA4908EA48E8D9D8C8A988C8A9990F2
:106780008A9A8E87968D8797908B9B8E889D8F8611
:10679000999186968C85978A859B89859A8C86990E
:1067A0008E879890879A9083958F8293857E8F812C
:1067B000808B8783898A8188837B85857C8B82789F
:1067C00087837A887F78817F7985827A8881777FCD
:1067D0007E747F7C74847B767F7A797F7B73807B09
:1067E00070827873827A75867F74888074867E75ED
:1067F0008282778B80768F8079877F7A887D779188
:10680000817C96817C98827D9A827C9A86809D8408
:10681000829D8280A28383AA888CB2878EB68B9356
:10682000C09398C79195C29194BF939AC38F9AC30E
:10683000939EC7949ECC949DD1939ECB919DC791DE
:106840009DC7919EC7929DC8949ECB94A0CC95A2C3
