:020000040800F2
:10000000189C0020DD560C08894E0C088B4E0C08FD
:100010008D4E0C088F4E0C08914E0C08000000000D
:10002000000000000000000000000000059D0B081B
:10003000934E0C0800000000AD9C0B08954E0C0878
:1000400085570C0889570C088D570C0891570C08D8
:1000500095570C0899570C089D570C08A1570C0888
:10006000A5570C08A9570C08AD570C08B1570C0838
:10007000B5570C08B9570C08BD570C08C1570C08E8
:10008000C5570C08C9570C08CD570C08D1570C0898
:10009000D5570C08D9570C08DD570C08E1570C0848
:1000A000E5570C08E9570C08ED570C08F1570C08F8
:1000B000F5570C08F9570C08FD570C0801580C08A7
:1000C00005580C0809580C080D580C0811580C0854
:1000D00015580C0819580C081D580C0821580C0804
:1000E00025580C0829580C082D580C0831580C08B4
:1000F00035580C0839580C083D580C0841580C0864
:10010000A34E0C0845580C0849580C084D580C08CB
:1001100051580C0855580C0859580C085D580C08D3
:1001200061580C0865580C0869580C086D580C0883
:1001300071580C0875580C0879580C087D580C0833
:1001400081580C0885580C0889580C088D580C08E3
:1001500091580C0895580C0899580C089D580C0893
:10016000A1580C08A5580C08A9580C08AD580C0843
:10017000B1580C08B5580C08B9580C08000000001C
:10018000BD580C08C1580C08C5580C08C9580C08B3
:10019000CD580C08D1580C08D5580C08D9580C0863
:1001A000A94E0C08AD4E0C08B54E0C08000000001E
:1001B000000000000000000000000000000000003F
:1001C000000000000000000000000000000000002F
:1001D000000000000000000000000000000000001F
:1001E000000000000000000000000000000000000F
:020000040805ED
:10FBA0000000000000000000000000007F7F7F7F59
:10FBB0007F7F7F7F7F7F7F7F7F7F7F7F7F7F7F7F55
:10FBC0007F7F7F7F7F7F7F7F7F7F7F7F7F7F7F7F45
:10FBD0007F7F7F7F7F7F7F7F7F7F7F7F7F7F7F7F35
:10FBE0007F7F7F7F7F7F7F7F7F7F7F7F7F7F7F7F25
:02000004080AE8
:102970007F7F7F7F7F7F7F7F7F7F00000000000061
:102980000000000000000000000000000000000047
:102990000000000000000000000000000000000037
:1029A0000000000000000000000000000000000027
:1029B0000000000000000000000000000000000017
:102C6000000000000000000100000002000000055C
:102C7000000000080000000A0000000B0000000C2B
:102C80000000000C0000000C0000000C0000000C14
:102C90000000000C0000000C0000000C0000000C04
:102CA0000000000C0000000C0000000C0000000CF4
:102CB0000000000C0000000C0000000C0000000CE4
:102CC0000000000C0000000C0000000C0000000CD4
:102CD0000000000C0000000C0000000C0000000CC4
:102CE0000000000C0000000C0000000C0000000CB4
:102CF0000000000C0000000C0000000C0000000CA4
:102D00000000000C0000000C0000000C0000000B94
:102D10000000000A0000000800000005000000029A
:102D200000000001000000000000000000000000A2
:102D30000000000000000000000000000000000093
:102D40000000000000000000000000000000000083
:102D500000000001000000050000000C000000154C
:102D60000000001C000000210000002300000024DF
:102D700000000024000000240000002400000024C3
:102D800000000024000000240000002400000024B3
:102D900000000024000000240000002400000024A3
:102DA0000000002400000024000000240000002493
:102DB0000000002400000024000000240000002483
:102DC0000000002400000024000000240000002473
:102DD0000000002400000024000000240000002463
:102DE0000000002400000024000000240000002453
:102DF0000000002400000024000000240000002344
:102E0000000000210000001C000000150000000C64
:102E100000000005000000010000000000000000AC
:102E200000000000000000000000000000000000A2
:102E30000000000000000000000000000000000191
:102E4000000000063D331818B79B497FCBAC51D129
:102E5000CEAB45FAC6991AFFC39513FFC29513FF6F
:102E6000C29412FFC19412FFC19311FFC09211FFCF
:102E7000C09210FFBF9110FFBE910FFFBE900FFFD9
:102E8000BD8F0EFFBC8F0EFFBC8E0DFFBB8D0DFFE7
:102E9000BA8D0CFFBA8C0CFFB98C0BFFB88B0BFFF3
:102EA000B88A0AFFB78A0AFFB68909FFB68809FF00
:102EB000B58808FFB48708FFB48607FFB38607FF0D
:102EC000B28506FFB28506FFB18406FFB18305FF18
:102ED000B08305FFB08204FFAF8204FFAE8103FF21
:102EE000AE8103FFAD8003FFAA7D02FF936D02F662
:102EF000836102D66C500190130E01350000002052
:102F000000000011000000060000000100000000A9
:102F100000000000000000000000000000000000B1
:102F2000000000000000000000000001000000059B
:102F30008A74372ACEAF53D7D5B354FFC69919FF39
:102F4000C49614FFC49613FFC39513FFC29513FFD5
:102F5000C29412FFC19412FFC19311FFC09211FFDE
:102F6000C09210FFBF9110FFBE910FFFBE900FFFE8
:102F7000BD8F0EFFBC8F0EFFBC8E0DFFBB8D0DFFF6
:102F8000BA8D0CFFBA8C0CFFB98C0BFFB88B0BFF02
:102F9000B88A0AFFB78A0AFFB68909FFB68809FF0F
:102FA000B58808FFB48708FFB48607FFB38607FF1C
:102FB000B28506FFB28506FFB18406FFB18305FF27
:102FC000B08305FFB08204FFAF8204FFAE8103FF30
:102FD000AE8103FFAD8003FFAD8002FFAD7F02FF36
:102FE000AA7E02FF8E6901FF836101DF3023004F5B
:102FF0000000002500000011000000050000000195
:1030000000000000000000000000000000000000C0
:10301000000000000000000000000002473C1D12FC
:10302000D0B054D5D5B556FFC69919FFC59714FF32
:10303000C49614FFC49613FFC39513FFC29513FFE4
:10304000C29412FFC19412FFC19311FFC09211FFED
:10305000C09210FFBF9110FFBE910FFFBE900FFFF7
:10306000BD8F0EFFBC8F0EFFBC8E0DFFBB8D0DFF05
:10307000BA8D0CFFBA8C0CFFB98C0BFFB88B0BFF11
:10308000B88A0AFFB78A0AFFB68909FFB68809FF1E
:10309000B58808FFB48708FFB48607FFB38607FF2B
:1030A000B28506FFB28506FFB18406FFB18305FF36
:1030B000B08305FFB08204FFAF8204FFAE8103FF3F
:1030C000AE8103FFAD8003FFAD8002FFAD7F02FF45
:1030D000AC7F02FFAA7E01FF8C6701FF836001DFE6
:1030E0000D0A003F000000200000000C000000025C
:1030F00000000000000000000000000000000000D0
:10310000000000000000000000000005C1A34E7A8E
:10311000D6B556FFD1AD46FFC59714FFC59714FF2E
:10312000C49614FFC49613FFC39513FFC29513FFF3
:10313000C29412FFC19412FFC19311FFC09211FFFC
:10314000C09210FFBF9110FFBE910FFFBE900FFF06
:10315000BD8F0EFFBC8F0EFFBC8E0DFFBB8D0DFF14
:10316000BA8D0CFFBA8C0CFFB98C0BFFB88B0BFF20
:10317000B88A0AFFB78A0AFFB68909FFB68809FF2D
:10318000B58808FFB48708FFB48607FFB38607FF3A
:10319000B28506FFB28506FFB18406FFB18305FF45
:1031A000B08305FFB08204FFAF8204FFAE8103FF4E
:1031B000AE8103FFAD8003FFAD8002FFAD7F02FF54
:1031C000AC7F02FFAC7F01FF946D01FF8C6701FFB4
:1031D000654A009A0000002F00000015000000055D
:1031E00000000000000000000000000000000000DF
:1031F000000000000000000000000008D0B054CD26
:10320000D6B556FFC79B1CFFC59714FFC59714FF83
:10321000C49614FFC49613FFC39513FFC29513FF02
:10322000C29412FFC19412FFC19311FFC09211FF0B
:10323000C09210FFBF9110FFBE910FFFBE900FFF15
:10324000BD8F0EFFBC8F0EFFBC8E0DFFBB8D0DFF23
:10325000BA8D0CFFBA8C0CFFB98C0BFFB88B0BFF2F
:10326000B88A0AFFB78A0AFFB68909FFB68809FF3C
:10327000B58808FFB48708FFB48607FFB38607FF49
:10328000B28506FFB28506FFB18406FFB18305FF54
:10329000B08305FFB08204FFAF8204FFAE8103FF5D
:1032A000AE8103FFAD8003FFAD8002FFAD7F02FF63
:1032B000AC7F02FFAC7F01FFA87C01FF8C6701FFA0
:1032C000805F00DD0000003C0000001C00000008E2
:1032D00000000000000000000000000000000000EE
:1032E00000000000000000000000000AD4B455F502
:1032F000D6B556FFC59815FFC59714FFC59714FF9F
:10330000C49614FFC49613FFC39513FFC29513FF11
:10331000C29412FFC19412FFC19311FFC09211FF1A
:10332000C09210FFBF9110FFBE910FFFBE900FFF24
:10333000BD8F0EFFBC8F0EFFBC8E0DFFBB8D0DFF32
:10334000BA8D0CFFBA8C0CFFB98C0BFFB88B0BFF3E
:10335000B88A0AFFB78A0AFFB68909FFB68809FF4B
:10336000B58808FFB48708FFB48607FFB38607FF58
:10337000B28506FFB28506FFB18406FFB18305FF63
:10338000B08305FFB08204FFAF8204FFAE8103FF6C
:10339000AE8103FFAD8003FFAD8002FFAD7F02FF72
:1033A000AC7F02FFAC7F01FFAB7E01FF8C6701FFAA
:1033B0008A6500F800000043000000210000000AB8
:1033C00000000000000000000000000000000000FD
:1033D00000000000000000000000000BD6B556FF02
:1033E000D6B556FFC59815FFC59714FFC59714FFAE
:1033F000C49614FFC49613FFC39513FFC29513FF21
:10340000C29412FFC19412FFC19311FFC09211FF29
:10341000C09210FFBF9110FFBE910FFFBE900FFF33
:10342000BD8F0EFFBC8F0EFFBC8E0DFFBB8D0DFF41
:10343000BA8D0CFFBA8C0CFFB98C0BFFB88B0BFF4D
:10344000B88A0AFFB78A0AFFB68909FFB68809FF5A
:10345000B58808FFB48708FFB48607FFB38607FF67
:10346000B28506FFB28506FFB18406FFB18305FF72
:10347000B08305FFB08204FFAF8204FFAE8103FF7B
:10348000AE8103FFAD8003FFAD8002FFAD7F02FF81
:10349000AC7F02FFAC7F01FFAB7E01FF8C6701FFB9
:1034A0008C6700FF00000046000000230000000BB6
:1034B000000000000000000000000000000000000C
:1034C00000000000000000000000000CD6B556FF10
:1034D000D6B556FFC59815FFC59714FFC59714FFBD
:1034E000C49614FFC49613FFC39513FFC29513FF30
:1034F000C29412FFC19412FFC19311FFC09211FF39
:10350000C09210FFBF9110FFBE910FFFBE900FFF42
:10351000BD8F0EFFBC8F0EFFBC8E0DFFBB8D0DFF50
:10352000BA8D0CFFBA8C0CFFB98C0BFFB88B0BFF5C
:10353000B88A0AFFB78A0AFFB68909FFB68809FF69
:10354000B58808FFB48708FFB48607FFB38607FF76
:10355000B28506FFB28506FFB18406FFB18305FF81
:10356000B08305FFB08204FFAF8204FFAE8103FF8A
:10357000AE8103FFAD8003FFAD8002FFAD7F02FF90
:10358000AC7F02FFAC7F01FFAB7E01FF8C6701FFC8
:103590008C6700FF00000047000000240000000CC2
:1035A000000000000000000000000000000000001B
:1035B00000000000000000000000000CD6B556FF1F
:1035C000D6B556FFC59815FFC59714FFC59714FFCC
:1035D000C49614FFC49613FFC39513FFC29513FF3F
:1035E000C29412FFC19412FFC19311FFC09211FF48
:1035F000C09210FFBF9110FFBE910FFFBE900FFF52
:10360000BD8F0EFFBC8F0EFFBC8E0DFFBB8D0DFF5F
:10361000BA8D0CFFBA8C0CFFB98C0BFFB88B0BFF6B
:10362000B88A0AFFB78A0AFFB68909FFB68809FF78
:10363000B58808FFB48708FFB48607FFB38607FF85
:10364000B28506FFB28506FFB18406FFB18305FF90
:10365000B08305FFB08204FFAF8204FFAE8103FF99
:10366000AE8103FFAD8003FFAD8002FFAD7F02FF9F
:10367000AC7F02FFAC7F01FFAB7E01FF8C6701FFD7
:103680008C6700FF00000047000000240000000CD1
:10369000000000000000000000000000000000002A
:1036A00000000000000000000000000CD6B556FF2E
:1036B000D6B556FFC59815FFC59714FFC59714FFDB
:1036C000C49614FFC49613FFC39513FFC29513FF4E
:1036D000C29412FFC19412FFC19311FFC09211FF57
:1036E000C09210FFBF9110FFBE910FFFBE900FFF61
:1036F000BD8F0EFFBC8F0EFFBC8E0DFFBB8D0DFF6F
:10370000BA8D0CFFBA8C0CFFB98C0BFFB88B0BFF7A
:10371000B88A0AFFB78A0AFFB68909FFB68809FF87
:10372000B58808FFB48708FFB48607FFB38607FF94
:10373000B28506FFB28506FFB18406FFB18305FF9F
:10374000B08305FFB08204FFAF8204FFAE8103FFA8
:10375000AE8103FFAD8003FFAD8002FFAD7F02FFAE
:10376000AC7F02FFAC7F01FFAB7E01FF8C6701FFE6
:103770008C6700FF00000047000000240000000CE0
:103780000000000000000000000000000000000039
:1037900000000000000000000000000CD6B556FF3D
:1037A000D6B556FFC59815FFC59714FFC59714FFEA
:1037B000C49614FFC49613FFC39513FFC29513FF5D
:1037C000C29412FFC19412FFC19311FFC09211FF66
:1037D000C09210FFBF9110FFBE910FFFBE900FFF70
:1037E000BD8F0EFFBC8F0EFFBC8E0DFFBB8D0DFF7E
:1037F000BA8D0CFFBA8C0CFFB98C0BFFB88B0BFF8A
:10380000B88A0AFFB78A0AFFB68909FFB68809FF96
:10381000B58808FFB48708FFB48607FFB38607FFA3
:10382000B28506FFB28506FFB18406FFB18305FFAE
:10383000B08305FFB08204FFAF8204FFAE8103FFB7
:10384000AE8103FFAD8003FFAD8002FFAD7F02FFBD
:10385000AC7F02FFAC7F01FFAB7E01FF8C6701FFF5
:103860008C6700FF00000047000000240000000CEF
:103870000000000000000000000000000000000048
:1038800000000000000000000000000CD6B556FF4C
:10389000D6B556FFC59815FFC59714FFC59714FFF9
:1038A000C49614FFC49613FFC39513FFC29513FF6C
:1038B000C29412FFC19412FFC19311FFC09211FF75
:1038C000C09210FFBF9110FFBE910FFFBE900FFF7F
:1038D000BD8F0EFFBC8F0EFFBC8E0DFFBB8D0DFF8D
:1038E000BA8D0CFFBA8C0CFFB98C0BFFB88B0BFF99
:1038F000B88A0AFFB78A0AFFB68909FFB68809FFA6
:10390000B58808FFB48708FFB48607FFB38607FFB2
:10391000B28506FFB28506FFB18406FFB18305FFBD
:10392000B08305FFB08204FFAF8204FFAE8103FFC6
:10393000AE8103FFAD8003FFAD8002FFAD7F02FFCC
:10394000AC7F02FFAC7F01FFAB7E01FF8C6701FF04
:103950008C6700FF00000047000000240000000CFE
:103960000000000000000000000000000000000057
:1039700000000000000000000000000CD6B556FF5B
:10398000D6B556FFC59815FFC59714FFC59714FF08
:10399000C49614FFC49613FFC39513FFC29513FF7B
:1039A000C29412FFC19412FFC19311FFC09211FF84
:1039B000C09210FFBF9110FFBE910FFFBE900FFF8E
:1039C000BD8F0EFFBC8F0EFFBC8E0DFFBB8D0DFF9C
:1039D000BA8D0CFFBA8C0CFFB98C0BFFB88B0BFFA8
:1039E000B88A0AFFB78A0AFFB68909FFB68809FFB5
:1039F000B58808FFB48708FFB48607FFB38607FFC2
:103A0000B28506FFB28506FFB18406FFB18305FFCC
:103A1000B08305FFB08204FFAF8204FFAE8103FFD5
:103A2000AE8103FFAD8003FFAD8002FFAD7F02FFDB
:103A3000AC7F02FFAC7F01FFAB7E01FF8C6701FF13
:103A40008C6700FF00000047000000240000000C0D
:103A50000000000000000000000000000000000066
:103A600000000000000000000000000CD6B556FF6A
:103A7000D6B556FFC59815FFC59714FFC59714FF17
:103A8000C49614FFC49613FFC39513FFC29513FF8A
:103A9000C29412FFC19412FFC19311FFC09211FF93
:103AA000C09210FFBF9110FFBE910FFFBE900FFF9D
:103AB000BD8F0EFFBC8F0EFFBC8E0DFFBB8D0DFFAB
:103AC000BA8D0CFFBA8C0CFFB98C0BFFB88B0BFFB7
:103AD000B88A0AFFB78A0AFFB68909FFB68809FFC4
:103AE000B58808FFB48708FFB48607FFB38607FFD1
:103AF000B28506FFB28506FFB18406FFB18305FFDC
:103B0000B08305FFB08204FFAF8204FFAE8103FFE4
:103B1000AE8103FFAD8003FFAD8002FFAD7F02FFEA
:103B2000AC7F02FFAC7F01FFAB7E01FF8C6701FF22
:103B30008C6700FF00000047000000240000000C1C
:103B40000000000000000000000000000000000075
:103B500000000000000000000000000CD6B556FF79
:103B6000D6B556FFC59815FFC59714FFC59714FF26
:103B7000C49614FFC49613FFC39513FFC29513FF99
:103B8000C29412FFC19412FFC19311FFC09211FFA2
:103B9000C09210FFBF9110FFBE910FFFBE900FFFAC
:103BA000BD8F0EFFBC8F0EFFBC8E0DFFBB8D0DFFBA
:103BB000BA8D0CFFBA8C0CFFB98C0BFFB88B0BFFC6
:103BC000B88A0AFFB78A0AFFB68909FFB68809FFD3
:103BD000B58808FFB48708FFB48607FFB38607FFE0
:103BE000B28506FFB28506FFB18406FFB18305FFEB
:103BF000B08305FFB08204FFAF8204FFAE8103FFF4
:103C0000AE8103FFAD8003FFAD8002FFAD7F02FFF9
:103C1000AC7F02FFAC7F01FFAB7E01FF8C6701FF31
:103C20008C6700FF00000047000000240000000C2B
:103C30000000000000000000000000000000000084
:103C400000000000000000000000000CD6B556FF88
:103C5000D6B556FFC59815FFC59714FFC59714FF35
:103C6000C49614FFC49613FFC39513FFC29513FFA8
:103C7000C29412FFC19412FFC19311FFC09211FFB1
:103C8000C09210FFBF9110FFBE910FFFBE900FFFBB
:103C9000BD8F0EFFBC8F0EFFBC8E0DFFBB8D0DFFC9
:103CA000BA8D0CFFBA8C0CFFB98C0BFFB88B0BFFD5
:103CB000B88A0AFFB78A0AFFB68909FFB68809FFE2
:103CC000B58808FFB48708FFB48607FFB38607FFEF
:103CD000B28506FFB28506FFB18406FFB18305FFFA
:103CE000B08305FFB08204FFAF8204FFAE8103FF03
:103CF000AE8103FFAD8003FFAD8002FFAD7F02FF09
:103D0000AC7F02FFAC7F01FFAB7E01FF8C6701FF40
:103D10008C6700FF00000047000000240000000C3A
:103D20000000000000000000000000000000000093
:103D300000000000000000000000000CD6B556FF97
:103D4000D6B556FFC59815FFC59714FFC59714FF44
:103D5000C49614FFC49613FFC39513FFC29513FFB7
:103D6000C29412FFC19412FFC19311FFC09211FFC0
:103D7000C09210FFBF9110FFBE910FFFBE900FFFCA
:103D8000BD8F0EFFBC8F0EFFBC8E0DFFBB8D0DFFD8
:103D9000BA8D0CFFBA8C0CFFB98C0BFFB88B0BFFE4
:103DA000B88A0AFFB78A0AFFB68909FFB68809FFF1
:103DB000B58808FFB48708FFB48607FFB38607FFFE
:103DC000B28506FFB28506FFB18406FFB18305FF09
:103DD000B08305FFB08204FFAF8204FFAE8103FF12
:103DE000AE8103FFAD8003FFAD8002FFAD7F02FF18
:103DF000AC7F02FFAC7F01FFAB7E01FF8C6701FF50
:103E00008C6700FF00000047000000240000000C49
:103E100000000000000000000000000000000000A2
:103E200000000000000000000000000CD6B556FFA6
:103E3000D6B556FFC59815FFC59714FFC59714FF53
:103E4000C49614FFC49613FFC39513FFC29513FFC6
:103E5000C29412FFC19412FFC19311FFC09211FFCF
:103E6000C09210FFBF9110FFBE910FFFBE900FFFD9
:103E7000BD8F0EFFBC8F0EFFBC8E0DFFBB8D0DFFE7
:103E8000BA8D0CFFBA8C0CFFB98C0BFFB88B0BFFF3
:103E9000B88A0AFFB78A0AFFB68909FFB68809FF00
:103EA000B58808FFB48708FFB48607FFB38607FF0D
:103EB000B28506FFB28506FFB18406FFB18305FF18
:103EC000B08305FFB08204FFAF8204FFAE8103FF21
:103ED000AE8103FFAD8003FFAD8002FFAD7F02FF27
:103EE000AC7F02FFAC7F01FFAB7E01FF8C6701FF5F
:103EF0008C6700FF00000047000000240000000C59
:103F000000000000000000000000000000000000B1
:103F100000000000000000000000000CD6B556FFB5
:103F2000D6B556FFC59815FFC59714FFC59714FF62
:103F3000C49614FFC49613FFC39513FFC29513FFD5
:103F4000C29412FFC19412FFC19311FFC09211FFDE
:103F5000C09210FFBF9110FFBE910FFFBE900FFFE8
:103F6000BD8F0EFFBC8F0EFFBC8E0DFFBB8D0DFFF6
:103F7000BA8D0CFFBA8C0CFFB98C0BFFB88B0BFF02
:103F8000B88A0AFFB78A0AFFB68909FFB68809FF0F
:103F9000B58808FFB48708FFB48607FFB38607FF1C
:103FA000B28506FFB28506FFB18406FFB18305FF27
:103FB000B08305FFB08204FFAF8204FFAE8103FF30
:103FC000AE8103FFAD8003FFAD8002FFAD7F02FF36
:103FD000AC7F02FFAC7F01FFAB7E01FF8C6701FF6E
:103FE0008C6700FF00000047000000240000000C68
:103FF00000000000000000000000000000000000C1
:1040000000000000000000000000000CD6B556FFC4
:10401000D6B556FFC59815FFC59714FFC59714FF71
:10402000C49614FFC49613FFC39513FFC29513FFE4
:10403000C29412FFC19412FFC19311FFC09211FFED
:10404000C09210FFBF9110FFBE910FFFBE900FFFF7
:10405000BD8F0EFFBC8F0EFFBC8E0DFFBB8D0DFF05
:10406000BA8D0CFFBA8C0CFFB98C0BFFB88B0BFF11
:10407000B88A0AFFB78A0AFFB68909FFB68809FF1E
:10408000B58808FFB48708FFB48607FFB38607FF2B
:10409000B28506FFB28506FFB18406FFB18305FF36
:1040A000B08305FFB08204FFAF8204FFAE8103FF3F
:1040B000AE8103FFAD8003FFAD8002FFAD7F02FF45
:1040C000AC7F02FFAC7F01FFAB7E01FF8C6701FF7D
:1040D0008C6700FF00000047000000240000000C77
:1040E00000000000000000000000000000000000D0
:1040F00000000000000000000000000CD6B556FFD4
:10410000D6B556FFC59815FFC59714FFC59714FF80
:10411000C49614FFC49613FFC39513FFC29513FFF3
:10412000C29412FFC19412FFC19311FFC09211FFFC
:10413000C09210FFBF9110FFBE910FFFBE900FFF06
:10414000BD8F0EFFBC8F0EFFBC8E0DFFBB8D0DFF14
:10415000BA8D0CFFBA8C0CFFB98C0BFFB88B0BFF20
:10416000B88A0AFFB78A0AFFB68909FFB68809FF2D
:10417000B58808FFB48708FFB48607FFB38607FF3A
:10418000B28506FFB28506FFB18406FFB18305FF45
:10419000B08305FFB08204FFAF8204FFAE8103FF4E
:1041A000AE8103FFAD8003FFAD8002FFAD7F02FF54
:1041B000AC7F02FFAC7F01FFAB7E01FF8C6701FF8C
:1041C0008C6700FF00000047000000240000000C86
:1041D00000000000000000000000000000000000DF
:1041E00000000000000000000000000CD6B556FFE3
:1041F000D6B556FFC59815FFC59714FFC59714FF90
:10420000C49614FFC49613FFC39513FFC29513FF02
:10421000C29412FFC19412FFC19311FFC09211FF0B
:10422000C09210FFBF9110FFBE910FFFBE900FFF15
:10423000BD8F0EFFBC8F0EFFBC8E0DFFBB8D0DFF23
:10424000BA8D0CFFBA8C0CFFB98C0BFFB88B0BFF2F
:10425000B88A0AFFB78A0AFFB68909FFB68809FF3C
:10426000B58808FFB48708FFB48607FFB38607FF49
:10427000B28506FFB28506FFB18406FFB18305FF54
:10428000B08305FFB08204FFAF8204FFAE8103FF5D
:10429000AE8103FFAD8003FFAD8002FFAD7F02FF63
:1042A000AC7F02FFAC7F01FFAB7E01FF8C6701FF9B
:1042B0008C6700FF00000047000000240000000C95
:1042C00000000000000000000000000000000000EE
:1042D00000000000000000000000000CD6B556FFF2
:1042E000D6B556FFC59815FFC59714FFC59714FF9F
:1042F000C49614FFC49613FFC39513FFC29513FF12
:10430000C29412FFC19412FFC19311FFC09211FF1A
:10431000C09210FFBF9110FFBE910FFFBE900FFF24
:10432000BD8F0EFFBC8F0EFFBC8E0DFFBB8D0DFF32
:10433000BA8D0CFFBA8C0CFFB98C0BFFB88B0BFF3E
:10434000B88A0AFFB78A0AFFB68909FFB68809FF4B
:10435000B58808FFB48708FFB48607FFB38607FF58
:10436000B28506FFB28506FFB18406FFB18305FF63
:10437000B08305FFB08204FFAF8204FFAE8103FF6C
:10438000AE8103FFAD8003FFAD8002FFAD7F02FF72
:10439000AC7F02FFAC7F01FFAB7E01FF8C6701FFAA
:1043A0008C6700FF00000047000000240000000CA4
:1043B00000000000000000000000000000000000FD
:1043C00000000000000000000000000CD6B556FF01
:1043D000D6B556FFC59815FFC59714FFC59714FFAE
:1043E000C49614FFC49613FFC39513FFC29513FF21
:1043F000C29412FFC19412FFC19311FFC09211FF2A
:10440000C09210FFBF9110FFBE910FFFBE900FFF33
:10441000BD8F0EFFBC8F0EFFBC8E0DFFBB8D0DFF41
:10442000BA8D0CFFBA8C0CFFB98C0BFFB88B0BFF4D
:10443000B88A0AFFB78A0AFFB68909FFB68809FF5A
:10444000B58808FFB48708FFB48607FFB38607FF67
:10445000B28506FFB28506FFB18406FFB18305FF72
:10446000B08305FFB08204FFAF8204FFAE8103FF7B
:10447000AE8103FFAD8003FFAD8002FFAD7F02FF81
:10448000AC7F02FFAC7F01FFAB7E01FF8C6701FFB9
:104490008C6700FF00000047000000240000000CB3
:1044A000000000000000000000000000000000000C
:1044B00000000000000000000000000CD6B556FF10
:1044C000D6B556FFC59815FFC59714FFC59714FFBD
:1044D000C49614FFC49613FFC39513FFC29513FF30
:1044E000C29412FFC19412FFC19311FFC09211FF39
:1044F000C09210FFBF9110FFBE910FFFBE900FFF43
:10450000BD8F0EFFBC8F0EFFBC8E0DFFBB8D0DFF50
:10451000BA8D0CFFBA8C0CFFB98C0BFFB88B0BFF5C
:10452000B88A0AFFB78A0AFFB68909FFB68809FF69
:10453000B58808FFB48708FFB48607FFB38607FF76
:10454000B28506FFB28506FFB18406FFB18305FF81
:10455000B08305FFB08204FFAF8204FFAE8103FF8A
:10456000AE8103FFAD8003FFAD8002FFAD7F02FF90
:10457000AC7F02FFAC7F01FFAB7E01FF8C6701FFC8
:104580008C6700FF00000047000000240000000CC2
:10459000000000000000000000000000000000001B
:1045A00000000000000000000000000CD6B556FF1F
:1045B000D6B556FFC59815FFC59714FFC59714FFCC
:1045C000C49614FFC49613FFC39513FFC29513FF3F
:1045D000C29412FFC19412FFC19311FFC09211FF48
:1045E000C09210FFBF9110FFBE910FFFBE900FFF52
:1045F000BD8F0EFFBC8F0EFFBC8E0DFFBB8D0DFF60
:10460000BA8D0CFFBA8C0CFFB98C0BFFB88B0BFF6B
:10461000B88A0AFFB78A0AFFB68909FFB68809FF78
:10462000B58808FFB48708FFB48607FFB38607FF85
:10463000B28506FFB28506FFB18406FFB18305FF90
:10464000B08305FFB08204FFAF8204FFAE8103FF99
:10465000AE8103FFAD8003FFAD8002FFAD7F02FF9F
:10466000AC7F02FFAC7F01FFAB7E01FF8C6701FFD7
:104670008C6700FF00000047000000240000000CD1
:10468000000000000000000000000000000000002A
:1046900000000000000000000000000CD6B556FF2E
:1046A000D6B556FFC59815FFC59714FFC59714FFDB
:1046B000C49614FFC49613FFC39513FFC29513FF4E
:1046C000C29412FFC19412FFC19311FFC09211FF57
:1046D000C09210FFBF9110FFBE910FFFBE900FFF61
:1046E000BD8F0EFFBC8F0EFFBC8E0DFFBB8D0DFF6F
:1046F000BA8D0CFFBA8C0CFFB98C0BFFB88B0BFF7B
:10470000B88A0AFFB78A0AFFB68909FFB68809FF87
:10471000B58808FFB48708FFB48607FFB38607FF94
:10472000B28506FFB28506FFB18406FFB18305FF9F
:10473000B08305FFB08204FFAF8204FFAE8103FFA8
:10474000AE8103FFAD8003FFAD8002FFAD7F02FFAE
:10475000AC7F02FFAC7F01FFAB7E01FF8C6701FFE6
:104760008C6700FF00000047000000240000000CE0
:104770000000000000000000000000000000000039
:1047800000000000000000000000000CD6B556FF3D
:10479000D6B556FFC59815FFC59714FFC59714FFEA
:1047A000C49614FFC49613FFC39513FFC29513FF5D
:1047B000C29412FFC19412FFC19311FFC09211FF66
:1047C000C09210FFBF9110FFBE910FFFBE900FFF70
:1047D000BD8F0EFFBC8F0EFFBC8E0DFFBB8D0DFF7E
:1047E000BA8D0CFFBA8C0CFFB98C0BFFB88B0BFF8A
:1047F000B88A0AFFB78A0AFFB68909FFB68809FF97
:10480000B58808FFB48708FFB48607FFB38607FFA3
:10481000B28506FFB28506FFB18406FFB18305FFAE
:10482000B08305FFB08204FFAF8204FFAE8103FFB7
:10483000AE8103FFAD8003FFAD8002FFAD7F02FFBD
:10484000AC7F02FFAC7F01FFAB7E01FF8C6701FFF5
:104850008C6700FF00000047000000240000000CEF
:104860000000000000000000000000000000000048
:1048700000000000000000000000000CD6B556FF4C
:10488000D6B556FFC59815FFC59714FFC59714FFF9
:10489000C49614FFC49613FFC39513FFC29513FF6C
:1048A000C29412FFC19412FFC19311FFC09211FF75
:1048B000C09210FFBF9110FFBE910FFFBE900FFF7F
:1048C000BD8F0EFFBC8F0EFFBC8E0DFFBB8D0DFF8D
:1048D000BA8D0CFFBA8C0CFFB98C0BFFB88B0BFF99
:1048E000B88A0AFFB78A0AFFB68909FFB68809FFA6
:1048F000B58808FFB48708FFB48607FFB38607FFB3
:10490000B28506FFB28506FFB18406FFB18305FFBD
:10491000B08305FFB08204FFAF8204FFAE8103FFC6
:10492000AE8103FFAD8003FFAD8002FFAD7F02FFCC
:10493000AC7F02FFAC7F01FFAB7E01FF8C6701FF04
:104940008C6700FF00000047000000240000000CFE
:104950000000000000000000000000000000000057
:1049600000000000000000000000000CD6B556FF5B
:10497000D6B556FFC59815FFC59714FFC59714FF08
:10498000C49614FFC49613FFC39513FFC29513FF7B
:10499000C29412FFC19412FFC19311FFC09211FF84
:1049A000C09210FFBF9110FFBE910FFFBE900FFF8E
:1049B000BD8F0EFFBC8F0EFFBC8E0DFFBB8D0DFF9C
:1049C000BA8D0CFFBA8C0CFFB98C0BFFB88B0BFFA8
:1049D000B88A0AFFB78A0AFFB68909FFB68809FFB5
:1049E000B58808FFB48708FFB48607FFB38607FFC2
:1049F000B28506FFB28506FFB18406FFB18305FFCD
:104A0000B08305FFB08204FFAF8204FFAE8103FFD5
:104A1000AE8103FFAD8003FFAD8002FFAD7F02FFDB
:104A2000AC7F02FFAC7F01FFAB7E01FF8C6701FF13
:104A30008C6700FF00000047000000240000000C0D
:104A40000000000000000000000000000000000066
:104A500000000000000000000000000CD6B556FF6A
:104A6000D6B556FFC59815FFC59714FFC59714FF17
:104A7000C49614FFC49613FFC39513FFC29513FF8A
:104A8000C29412FFC19412FFC19311FFC09211FF93
:104A9000C09210FFBF9110FFBE910FFFBE900FFF9D
:104AA000BD8F0EFFBC8F0EFFBC8E0DFFBB8D0DFFAB
:104AB000BA8D0CFFBA8C0CFFB98C0BFFB88B0BFFB7
:104AC000B88A0AFFB78A0AFFB68909FFB68809FFC4
:104AD000B58808FFB48708FFB48607FFB38607FFD1
:104AE000B28506FFB28506FFB18406FFB18305FFDC
:104AF000B08305FFB08204FFAF8204FFAE8103FFE5
:104B0000AE8103FFAD8003FFAD8002FFAD7F02FFEA
:104B1000AC7F02FFAC7F01FFAB7E01FF8C6701FF22
:104B20008C6700FF00000047000000240000000C1C
:104B30000000000000000000000000000000000075
:104B400000000000000000000000000CD6B556FF79
:104B5000D6B556FFC59815FFC59714FFC59714FF26
:104B6000C49614FFC49613FFC39513FFC29513FF99
:104B7000C29412FFC19412FFC19311FFC09211FFA2
:104B8000C09210FFBF9110FFBE910FFFBE900FFFAC
:104B9000BD8F0EFFBC8F0EFFBC8E0DFFBB8D0DFFBA
:104BA000BA8D0CFFBA8C0CFFB98C0BFFB88B0BFFC6
:104BB000B88A0AFFB78A0AFFB68909FFB68809FFD3
:104BC000B58808FFB48708FFB48607FFB38607FFE0
:104BD000B28506FFB28506FFB18406FFB18305FFEB
:104BE000B08305FFB08204FFAF8204FFAE8103FFF4
:104BF000AE8103FFAD8003FFAD8002FFAD7F02FFFA
:104C0000AC7F02FFAC7F01FFAB7E01FF8C6701FF31
:104C10008C6700FF00000047000000240000000C2B
:104C20000000000000000000000000000000000084
:104C300000000000000000000000000CD6B556FF88
:104C4000D6B556FFC59815FFC59714FFC59714FF35
:104C5000C49614FFC49613FFC39513FFC29513FFA8
:104C6000C29412FFC19412FFC19311FFC09211FFB1
:104C7000C09210FFBF9110FFBE910FFFBE900FFFBB
:104C8000BD8F0EFFBC8F0EFFBC8E0DFFBB8D0DFFC9
:104C9000BA8D0CFFBA8C0CFFB98C0BFFB88B0BFFD5
:104CA000B88A0AFFB78A0AFFB68909FFB68809FFE2
:104CB000B58808FFB48708FFB48607FFB38607FFEF
:104CC000B28506FFB28506FFB18406FFB18305FFFA
:104CD000B08305FFB08204FFAF8204FFAE8103FF03
:104CE000AE8103FFAD8003FFAD8002FFAD7F02FF09
:104CF000AC7F02FFAC7F01FFAB7E01FF8C6701FF41
:104D00008C6700FF00000047000000240000000C3A
:104D10000000000000000000000000000000000093
:104D200000000000000000000000000CD6B556FF97
:104D3000D6B556FFC59815FFC59714FFC59714FF44
:104D4000C49614FFC49613FFC39513FFC29513FFB7
:104D5000C29412FFC19412FFC19311FFC09211FFC0
:104D6000C09210FFBF9110FFBE910FFFBE900FFFCA
:104D7000BD8F0EFFBC8F0EFFBC8E0DFFBB8D0DFFD8
:104D8000BA8D0CFFBA8C0CFFB98C0BFFB88B0BFFE4
:104D9000B88A0AFFB78A0AFFB68909FFB68809FFF1
:104DA000B58808FFB48708FFB48607FFB38607FFFE
:104DB000B28506FFB28506FFB18406FFB18305FF09
:104DC000B08305FFB08204FFAF8204FFAE8103FF12
:104DD000AE8103FFAD8003FFAD8002FFAD7F02FF18
:104DE000AC7F02FFAC7F01FFAB7E01FF8C6701FF50
:104DF0008C6700FF00000047000000240000000C4A
:104E000000000000000000000000000000000000A2
:104E100000000000000000000000000CD6B556FFA6
:104E2000D6B556FFC59815FFC59714FFC59714FF53
:104E3000C49614FFC49613FFC39513FFC29513FFC6
:104E4000C29412FFC19412FFC19311FFC09211FFCF
:104E5000C09210FFBF9110FFBE910FFFBE900FFFD9
:104E6000BD8F0EFFBC8F0EFFBC8E0DFFBB8D0DFFE7
:104E7000BA8D0CFFBA8C0CFFB98C0BFFB88B0BFFF3
:104E8000B88A0AFFB78A0AFFB68909FFB68809FF00
:104E9000B58808FFB48708FFB48607FFB38607FF0D
:104EA000B28506FFB28506FFB18406FFB18305FF18
:104EB000B08305FFB08204FFAF8204FFAE8103FF21
:104EC000AE8103FFAD8003FFAD8002FFAD7F02FF27
:104ED000AC7F02FFAC7F01FFAB7E01FF8C6701FF5F
:104EE0008C6700FF00000047000000240000000C59
:104EF00000000000000000000000000000000000B2
:104F000000000000000000000000000CD6B556FFB5
:104F1000D6B556FFC59815FFC59714FFC59714FF62
:104F2000C49614FFC49613FFC39513FFC29513FFD5
:104F3000C29412FFC19412FFC19311FFC09211FFDE
:104F4000C09210FFBF9110FFBE910FFFBE900FFFE8
:104F5000BD8F0EFFBC8F0EFFBC8E0DFFBB8D0DFFF6
:104F6000BA8D0CFFBA8C0CFFB98C0BFFB88B0BFF02
:104F7000B88A0AFFB78A0AFFB68909FFB68809FF0F
:104F8000B58808FFB48708FFB48607FFB38607FF1C
:104F9000B28506FFB28506FFB18406FFB18305FF27
:104FA000B08305FFB08204FFAF8204FFAE8103FF30
:104FB000AE8103FFAD8003FFAD8002FFAD7F02FF36
:104FC000AC7F02FFAC7F01FFAB7E01FF8C6701FF6E
:104FD0008C6700FF00000047000000240000000C68
:104FE00000000000000000000000000000000000C1
:104FF00000000000000000000000000CD6B556FFC5
:10500000D6B556FFC59815FFC59714FFC59714FF71
:10501000C49614FFC49613FFC39513FFC29513FFE4
:10502000C29412FFC19412FFC19311FFC09211FFED
:10503000C09210FFBF9110FFBE910FFFBE900FFFF7
:10504000BD8F0EFFBC8F0EFFBC8E0DFFBB8D0DFF05
:10505000BA8D0CFFBA8C0CFFB98C0BFFB88B0BFF11
:10506000B88A0AFFB78A0AFFB68909FFB68809FF1E
:10507000B58808FFB48708FFB48607FFB38607FF2B
:10508000B28506FFB28506FFB18406FFB18305FF36
:10509000B08305FFB08204FFAF8204FFAE8103FF3F
:1050A000AE8103FFAD8003FFAD8002FFAD7F02FF45
:1050B000AC7F02FFAC7F01FFAB7E01FF8C6701FF7D
:1050C0008C6700FF00000047000000240000000C77
:1050D00000000000000000000000000000000000D0
:1050E00000000000000000000000000CD6B556FFD4
:1050F000D6B556FFC59815FFC59714FFC59714FF81
:10510000C49614FFC49613FFC39513FFC29513FFF3
:10511000C29412FFC19412FFC19311FFC09211FFFC
:10512000C09210FFBF9110FFBE910FFFBE900FFF06
:10513000BD8F0EFFBC8F0EFFBC8E0DFFBB8D0DFF14
:10514000BA8D0CFFBA8C0CFFB98C0BFFB88B0BFF20
:10515000B88A0AFFB78A0AFFB68909FFB68809FF2D
:10516000B58808FFB48708FFB48607FFB38607FF3A
:10517000B28506FFB28506FFB18406FFB18305FF45
:10518000B08305FFB08204FFAF8204FFAE8103FF4E
:10519000AE8103FFAD8003FFAD8002FFAD7F02FF54
:1051A000AC7F02FFAC7F01FFAB7E01FF8C6701FF8C
:1051B0008C6700FF00000047000000240000000C86
:1051C00000000000000000000000000000000000DF
:1051D00000000000000000000000000CD6B556FFE3
:1051E000D6B556FFC59815FFC59714FFC59714FF90
:1051F000C49614FFC49613FFC39513FFC29513FF03
:10520000C29412FFC19412FFC19311FFC09211FF0B
:10521000C09210FFBF9110FFBE910FFFBE900FFF15
:10522000BD8F0EFFBC8F0EFFBC8E0DFFBB8D0DFF23
:10523000BA8D0CFFBA8C0CFFB98C0BFFB88B0BFF2F
:10524000B88A0AFFB78A0AFFB68909FFB68809FF3C
:10525000B58808FFB48708FFB48607FFB38607FF49
:10526000B28506FFB28506FFB18406FFB18305FF54
:10527000B08305FFB08204FFAF8204FFAE8103FF5D
:10528000AE8103FFAD8003FFAD8002FFAD7F02FF63
:10529000AC7F02FFAC7F01FFAB7E01FF8C6701FF9B
:1052A0008C6700FF00000047000000240000000C95
:1052B00000000000000000000000000000000000EE
:1052C00000000000000000000000000CD6B556FFF2
:1052D000D6B556FFC59815FFC59714FFC59714FF9F
:1052E000C49614FFC49613FFC39513FFC29513FF12
:1052F000C29412FFC19412FFC19311FFC09211FF1B
:10530000C09210FFBF9110FFBE910FFFBE900FFF24
:10531000BD8F0EFFBC8F0EFFBC8E0DFFBB8D0DFF32
:10532000BA8D0CFFBA8C0CFFB98C0BFFB88B0BFF3E
:10533000B88A0AFFB78A0AFFB68909FFB68809FF4B
:10534000B58808FFB48708FFB48607FFB38607FF58
:10535000B28506FFB28506FFB18406FFB18305FF63
:10536000B08305FFB08204FFAF8204FFAE8103FF6C
:10537000AE8103FFAD8003FFAD8002FFAD7F02FF72
:10538000AC7F02FFAC7F01FFAB7E01FF8C6701FFAA
:105390008C6700FF00000047000000240000000CA4
:1053A00000000000000000000000000000000000FD
:1053B00000000000000000000000000CD6B556FF01
:1053C000D6B556FFC59815FFC59714FFC59714FFAE
:1053D000C49614FFC49613FFC39513FFC29513FF21
:1053E000C29412FFC19412FFC19311FFC09211FF2A
:1053F000C09210FFBF9110FFBE910FFFBE900FFF34
:10540000BD8F0EFFBC8F0EFFBC8E0DFFBB8D0DFF41
:10541000BA8D0CFFBA8C0CFFB98C0BFFB88B0BFF4D
:10542000B88A0AFFB78A0AFFB68909FFB68809FF5A
:10543000B58808FFB48708FFB48607FFB38607FF67
:10544000B28506FFB28506FFB18406FFB18305FF72
:10545000B08305FFB08204FFAF8204FFAE8103FF7B
:10546000AE8103FFAD8003FFAD8002FFAD7F02FF81
:10547000AC7F02FFAC7F01FFAB7E01FF8C6701FFB9
:105480008C6700FF00000047000000240000000CB3
:10549000000000000000000000000000000000000C
:1054A00000000000000000000000000CD6B556FF10
:1054B000D6B556FFC59815FFC59714FFC59714FFBD
:1054C000C49614FFC49613FFC39513FFC29513FF30
:1054D000C29412FFC19412FFC19311FFC09211FF39
:1054E000C09210FFBF9110FFBE910FFFBE900FFF43
:1054F000BD8F0EFFBC8F0EFFBC8E0DFFBB8D0DFF51
:10550000BA8D0CFFBA8C0CFFB98C0BFFB88B0BFF5C
:10551000B88A0AFFB78A0AFFB68909FFB68809FF69
:10552000B58808FFB48708FFB48607FFB38607FF76
:10553000B28506FFB28506FFB18406FFB18305FF81
:10554000B08305FFB08204FFAF8204FFAE8103FF8A
:10555000AE8103FFAD8003FFAD8002FFAD7F02FF90
:10556000AC7F02FFAC7F01FFAB7E01FF8C6701FFC8
:105570008C6700FF00000047000000240000000CC2
:10558000000000000000000000000000000000001B
:1055900000000000000000000000000CD6B556FF1F
:1055A000D6B556FFC59815FFC59714FFC59714FFCC
:1055B000C49614FFC49613FFC39513FFC29513FF3F
:1055C000C29412FFC19412FFC19311FFC09211FF48
:1055D000C09210FFBF9110FFBE910FFFBE900FFF52
:1055E000BD8F0EFFBC8F0EFFBC8E0DFFBB8D0DFF60
:1055F000BA8D0CFFBA8C0CFFB98C0BFFB88B0BFF6C
:10560000B88A0AFFB78A0AFFB68909FFB68809FF78
:10561000B58808FFB48708FFB48607FFB38607FF85
:10562000B28506FFB28506FFB18406FFB18305FF90
:10563000B08305FFB08204FFAF8204FFAE8103FF99
:10564000AE8103FFAD8003FFAD8002FFAD7F02FF9F
:10565000AC7F02FFAC7F01FFAB7E01FF8C6701FFD7
:105660008C6700FF00000047000000240000000CD1
:10567000000000000000000000000000000000002A
:1056800000000000000000000000000CD6B556FF2E
:10569000D6B556FFC59815FFC59714FFC59714FFDB
:1056A000C49614FFC49613FFC39513FFC29513FF4E
:1056B000C29412FFC19412FFC19311FFC09211FF57
:1056C000C09210FFBF9110FFBE910FFFBE900FFF61
:1056D000BD8F0EFFBC8F0EFFBC8E0DFFBB8D0DFF6F
:1056E000BA8D0CFFBA8C0CFFB98C0BFFB88B0BFF7B
:1056F000B88A0AFFB78A0AFFB68909FFB68809FF88
:10570000B58808FFB48708FFB48607FFB38607FF94
:10571000B28506FFB28506FFB18406FFB18305FF9F
:10572000B08305FFB08204FFAF8204FFAE8103FFA8
:10573000AE8103FFAD8003FFAD8002FFAD7F02FFAE
:10574000AC7F02FFAC7F01FFAB7E01FF8C6701FFE6
:105750008C6700FF00000047000000240000000CE0
:105760000000000000000000000000000000000039
:1057700000000000000000000000000CD6B556FF3D
:10578000D6B556FFC59815FFC59714FFC59714FFEA
:10579000C49614FFC49613FFC39513FFC29513FF5D
:1057A000C29412FFC19412FFC19311FFC09211FF66
:1057B000C09210FFBF9110FFBE910FFFBE900FFF70
:1057C000BD8F0EFFBC8F0EFFBC8E0DFFBB8D0DFF7E
:1057D000BA8D0CFFBA8C0CFFB98C0BFFB88B0BFF8A
:1057E000B88A0AFFB78A0AFFB68909FFB68809FF97
:1057F000B58808FFB48708FFB48607FFB38607FFA4
:10580000B28506FFB28506FFB18406FFB18305FFAE
:10581000B08305FFB08204FFAF8204FFAE8103FFB7
:10582000AE8103FFAD8003FFAD8002FFAD7F02FFBD
:10583000AC7F02FFAC7F01FFAB7E01FF8C6701FFF5
:105840008C6700FF00000047000000240000000CEF
:105850000000000000000000000000000000000048
:1058600000000000000000000000000CD6B556FF4C
:10587000D6B556FFC59815FFC59714FFC59714FFF9
:10588000C49614FFC49613FFC39513FFC29513FF6C
:10589000C29412FFC19412FFC19311FFC09211FF75
:1058A000C09210FFBF9110FFBE910FFFBE900FFF7F
:1058B000BD8F0EFFBC8F0EFFBC8E0DFFBB8D0DFF8D
:1058C000BA8D0CFFBA8C0CFFB98C0BFFB88B0BFF99
:1058D000B88A0AFFB78A0AFFB68909FFB68809FFA6
:1058E000B58808FFB48708FFB48607FFB38607FFB3
:1058F000B28506FFB28506FFB18406FFB18305FFBE
:10590000B08305FFB08204FFAF8204FFAE8103FFC6
:10591000AE8103FFAD8003FFAD8002FFAD7F02FFCC
:10592000AC7F02FFAC7F01FFAB7E01FF8C6701FF04
:105930008C6700FF00000047000000240000000CFE
:105940000000000000000000000000000000000057
:1059500000000000000000000000000CD6B556FF5B
:10596000D6B556FFC59815FFC59714FFC59714FF08
:10597000C49614FFC49613FFC39513FFC29513FF7B
:10598000C29412FFC19412FFC19311FFC09211FF84
:10599000C09210FFBF9110FFBE910FFFBE900FFF8E
:1059A000BD8F0EFFBC8F0EFFBC8E0DFFBB8D0DFF9C
:1059B000BA8D0CFFBA8C0CFFB98C0BFFB88B0BFFA8
:1059C000B88A0AFFB78A0AFFB68909FFB68809FFB5
:1059D000B58808FFB48708FFB48607FFB38607FFC2
:1059E000B28506FFB28506FFB18406FFB18305FFCD
:1059F000B08305FFB08204FFAF8204FFAE8103FFD6
:105A0000AE8103FFAD8003FFAD8002FFAD7F02FFDB
:105A1000AC7F02FFAC7F01FFAB7E01FF8C6701FF13
:105A20008C6700FF00000047000000240000000C0D
:105A30000000000000000000000000000000000066
:105A400000000000000000000000000CD6B556FF6A
:105A5000D6B556FFC59815FFC59714FFC59714FF17
:105A6000C49614FFC49613FFC39513FFC29513FF8A
:105A7000C29412FFC19412FFC19311FFC09211FF93
:105A8000C09210FFBF9110FFBE910FFFBE900FFF9D
:105A9000BD8F0EFFBC8F0EFFBC8E0DFFBB8D0DFFAB
:105AA000BA8D0CFFBA8C0CFFB98C0BFFB88B0BFFB7
:105AB000B88A0AFFB78A0AFFB68909FFB68809FFC4
:105AC000B58808FFB48708FFB48607FFB38607FFD1
:105AD000B28506FFB28506FFB18406FFB18305FFDC
:105AE000B08305FFB08204FFAF8204FFAE8103FFE5
:105AF000AE8103FFAD8003FFAD8002FFAD7F02FFEB
:105B0000AC7F02FFAC7F01FFAB7E01FF8C6701FF22
:105B10008C6700FF00000047000000240000000C1C
:105B20000000000000000000000000000000000075
:105B300000000000000000000000000CD6B556FF79
:105B4000D6B556FFC59815FFC59714FFC59714FF26
:105B5000C49614FFC49613FFC39513FFC29513FF99
:105B6000C29412FFC19412FFC19311FFC09211FFA2
:105B7000C09210FFBF9110FFBE910FFFBE900FFFAC
:105B8000BD8F0EFFBC8F0EFFBC8E0DFFBB8D0DFFBA
:105B9000BA8D0CFFBA8C0CFFB98C0BFFB88B0BFFC6
:105BA000B88A0AFFB78A0AFFB68909FFB68809FFD3
:105BB000B58808FFB48708FFB48607FFB38607FFE0
:105BC000B28506FFB28506FFB18406FFB18305FFEB
:105BD000B08305FFB08204FFAF8204FFAE8103FFF4
:105BE000AE8103FFAD8003FFAD8002FFAD7F02FFFA
:105BF000AC7F02FFAC7F01FFAB7E01FF8C6701FF32
:105C00008C6700FF00000047000000240000000C2B
:105C10000000000000000000000000000000000084
:105C200000000000000000000000000CD6B556FF88
:105C3000D6B556FFC59815FFC59714FFC59714FF35
:105C4000C49614FFC49613FFC39513FFC29513FFA8
:105C5000C29412FFC19412FFC19311FFC09211FFB1
:105C6000C09210FFBF9110FFBE910FFFBE900FFFBB
:105C7000BD8F0EFFBC8F0EFFBC8E0DFFBB8D0DFFC9
:105C8000BA8D0CFFBA8C0CFFB98C0BFFB88B0BFFD5
:105C9000B88A0AFFB78A0AFFB68909FFB68809FFE2
:105CA000B58808FFB48708FFB48607FFB38607FFEF
:105CB000B28506FFB28506FFB18406FFB18305FFFA
:105CC000B08305FFB08204FFAF8204FFAE8103FF03
:105CD000AE8103FFAD8003FFAD8002FFAD7F02FF09
:105CE000AC7F02FFAC7F01FFAB7E01FF8C6701FF41
:105CF0008C6700FF00000047000000240000000C3B
:105D00000000000000000000000000000000000093
:105D100000000000000000000000000CD6B556FF97
:105D2000D6B556FFC59815FFC59714FFC59714FF44
:105D3000C49614FFC49613FFC39513FFC29513FFB7
:105D4000C29412FFC19412FFC19311FFC09211FFC0
:105D5000C09210FFBF9110FFBE910FFFBE900FFFCA
:105D6000BD8F0EFFBC8F0EFFBC8E0DFFBB8D0DFFD8
:105D7000BA8D0CFFBA8C0CFFB98C0BFFB88B0BFFE4
:105D8000B88A0AFFB78A0AFFB68909FFB68809FFF1
:105D9000B58808FFB48708FFB48607FFB38607FFFE
:105DA000B28506FFB28506FFB18406FFB18305FF09
:105DB000B08305FFB08204FFAF8204FFAE8103FF12
:105DC000AE8103FFAD8003FFAD8002FFAD7F02FF18
:105DD000AC7F02FFAC7F01FFAB7E01FF8C6701FF50
:105DE0008C6700FF00000047000000240000000C4A
:105DF00000000000000000000000000000000000A3
:105E000000000000000000000000000CD6B556FFA6
:105E1000D6B556FFC59815FFC59714FFC59714FF53
:105E2000C49614FFC49613FFC39513FFC29513FFC6
:105E3000C29412FFC19412FFC19311FFC09211FFCF
:105E4000C09210FFBF9110FFBE910FFFBE900FFFD9
:105E5000BD8F0EFFBC8F0EFFBC8E0DFFBB8D0DFFE7
:105E6000BA8D0CFFBA8C0CFFB98C0BFFB88B0BFFF3
:105E7000B88A0AFFB78A0AFFB68909FFB68809FF00
:105E8000B58808FFB48708FFB48607FFB38607FF0D
:105E9000B28506FFB28506FFB18406FFB18305FF18
:105EA000B08305FFB08204FFAF8204FFAE8103FF21
:105EB000AE8103FFAD8003FFAD8002FFAD7F02FF27
:105EC000AC7F02FFAC7F01FFAB7E01FF8C6701FF5F
:105ED0008C6700FF00000047000000240000000C59
:105EE00000000000000000000000000000000000B2
:105EF00000000000000000000000000CD6B556FFB6
:105F0000D6B556FFC59815FFC59714FFC59714FF62
:105F1000C49614FFC49613FFC39513FFC29513FFD5
:105F2000C29412FFC19412FFC19311FFC09211FFDE
:105F3000C09210FFBF9110FFBE910FFFBE900FFFE8
:105F4000BD8F0EFFBC8F0EFFBC8E0DFFBB8D0DFFF6
:105F5000BA8D0CFFBA8C0CFFB98C0BFFB88B0BFF02
:105F6000B88A0AFFB78A0AFFB68909FFB68809FF0F
:105F7000B58808FFB48708FFB48607FFB38607FF1C
:105F8000B28506FFB28506FFB18406FFB18305FF27
:105F9000B08305FFB08204FFAF8204FFAE8103FF30
:105FA000AE8103FFAD8003FFAD8002FFAD7F02FF36
:105FB000AC7F02FFAC7F01FFAB7E01FF8C6701FF6E
:105FC0008C6700FF00000047000000240000000C68
:105FD00000000000000000000000000000000000C1
:105FE00000000000000000000000000CD6B556FFC5
:105FF000D6B556FFC59815FFC59714FFC59714FF72
:10600000C49614FFC49613FFC39513FFC29513FFE4
:10601000C29412FFC19412FFC19311FFC09211FFED
:10602000C09210FFBF9110FFBE910FFFBE900FFFF7
:10603000BD8F0EFFBC8F0EFFBC8E0DFFBB8D0DFF05
:10604000BA8D0CFFBA8C0CFFB98C0BFFB88B0BFF11
:10605000B88A0AFFB78A0AFFB68909FFB68809FF1E
:10606000B58808FFB48708FFB48607FFB38607FF2B
:10607000B28506FFB28506FFB18406FFB18305FF36
:10608000B08305FFB08204FFAF8204FFAE8103FF3F
:10609000AE8103FFAD8003FFAD8002FFAD7F02FF45
:1060A000AC7F02FFAC7F01FFAB7E01FF8C6701FF7D
:1060B0008C6700FF00000047000000240000000C77
:1060C00000000000000000000000000000000000D0
:1060D00000000000000000000000000CD6B556FFD4
:1060E000D6B556FFC59815FFC59714FFC59714FF81
:1060F000C49614FFC49613FFC39513FFC29513FFF4
:10610000C29412FFC19412FFC19311FFC09211FFFC
:10611000C09210FFBF9110FFBE910FFFBE900FFF06
:10612000BD8F0EFFBC8F0EFFBC8E0DFFBB8D0DFF14
:10613000BA8D0CFFBA8C0CFFB98C0BFFB88B0BFF20
:10614000B88A0AFFB78A0AFFB68909FFB68809FF2D
:10615000B58808FFB48708FFB48607FFB38607FF3A
:10616000B28506FFB28506FFB18406FFB18305FF45
:10617000B08305FFB08204FFAF8204FFAE8103FF4E
:10618000AE8103FFAD8003FFAD8002FFAD7F02FF54
:10619000AC7F02FFAC7F01FFAB7E01FF8C6701FF8C
:1061A0008C6700FF00000047000000240000000C86
:1061B00000000000000000000000000000000000DF
:1061C00000000000000000000000000CD6B556FFE3
:1061D000D6B556FFC59815FFC59714FFC59714FF90
:1061E000C49614FFC49613FFC39513FFC29513FF03
:1061F000C29412FFC19412FFC19311FFC09211FF0C
:10620000C09210FFBF9110FFBE910FFFBE900FFF15
:10621000BD8F0EFFBC8F0EFFBC8E0DFFBB8D0DFF23
:10622000BA8D0CFFBA8C0CFFB98C0BFFB88B0BFF2F
:10623000B88A0AFFB78A0AFFB68909FFB68809FF3C
:10624000B58808FFB48708FFB48607FFB38607FF49
:10625000B28506FFB28506FFB18406FFB18305FF54
:10626000B08305FFB08204FFAF8204FFAE8103FF5D
:10627000AE8103FFAD8003FFAD8002FFAD7F02FF63
:10628000AC7F02FFAC7F01FFAB7E01FF8C6701FF9B
:106290008C6700FF00000047000000240000000C95
:1062A00000000000000000000000000000000000EE
:1062B00000000000000000000000000CD6B556FFF2
:1062C000D6B556FFC59815FFC59714FFC59714FF9F
:1062D000C49614FFC49613FFC39513FFC29513FF12
:1062E000C29412FFC19412FFC19311FFC09211FF1B
:1062F000C09210FFBF9110FFBE910FFFBE900FFF25
:10630000BD8F0EFFBC8F0EFFBC8E0DFFBB8D0DFF32
:10631000BA8D0CFFBA8C0CFFB98C0BFFB88B0BFF3E
:10632000B88A0AFFB78A0AFFB68909FFB68809FF4B
:10633000B58808FFB48708FFB48607FFB38607FF58
:10634000B28506FFB28506FFB18406FFB18305FF63
:10635000B08305FFB08204FFAF8204FFAE8103FF6C
:10636000AE8103FFAD8003FFAD8002FFAD7F02FF72
:10637000AC7F02FFAC7F01FFAB7E01FF8C6701FFAA
:106380008C6700FF00000047000000240000000CA4
:1063900000000000000000000000000000000000FD
:1063A00000000000000000000000000CD6B556FF01
:1063B000D6B556FFC59815FFC59714FFC59714FFAE
:1063C000C49614FFC49613FFC39513FFC29513FF21
:1063D000C29412FFC19412FFC19311FFC09211FF2A
:1063E000C09210FFBF9110FFBE910FFFBE900FFF34
:1063F000BD8F0EFFBC8F0EFFBC8E0DFFBB8D0DFF42
:10640000BA8D0CFFBA8C0CFFB98C0BFFB88B0BFF4D
:10641000B88A0AFFB78A0AFFB68909FFB68809FF5A
:10642000B58808FFB48708FFB48607FFB38607FF67
:10643000B28506FFB28506FFB18406FFB18305FF72
:10644000B08305FFB08204FFAF8204FFAE8103FF7B
:10645000AE8103FFAD8003FFAD8002FFAD7F02FF81
:10646000AC7F02FFAC7F01FFAB7E01FF8C6701FFB9
:106470008C6700FF00000047000000240000000CB3
:10648000000000000000000000000000000000000C
:1064900000000000000000000000000CD6B556FF10
:1064A000D6B556FFC59815FFC59714FFC59714FFBD
:1064B000C49614FFC49613FFC39513FFC29513FF30
:1064C000C29412FFC19412FFC19311FFC09211FF39
:1064D000C09210FFBF9110FFBE910FFFBE900FFF43
:1064E000BD8F0EFFBC8F0EFFBC8E0DFFBB8D0DFF51
:1064F000BA8D0CFFBA8C0CFFB98C0BFFB88B0BFF5D
:10650000B88A0AFFB78A0AFFB68909FFB68809FF69
:10651000B58808FFB48708FFB48607FFB38607FF76
:10652000B28506FFB28506FFB18406FFB18305FF81
:10653000B08305FFB08204FFAF8204FFAE8103FF8A
:10654000AE8103FFAD8003FFAD8002FFAD7F02FF90
:10655000AC7F02FFAC7F01FFAB7E01FF8C6701FFC8
:106560008C6700FF00000047000000240000000CC2
:10657000000000000000000000000000000000001B
:1065800000000000000000000000000CD6B556FF1F
:10659000D6B556FFC59815FFC59714FFC59714FFCC
:1065A000C49614FFC49613FFC39513FFC29513FF3F
:1065B000C29412FFC19412FFC19311FFC09211FF48
:1065C000C09210FFBF9110FFBE910FFFBE900FFF52
:1065D000BD8F0EFFBC8F0EFFBC8E0DFFBB8D0DFF60
:1065E000BA8D0CFFBA8C0CFFB98C0BFFB88B0BFF6C
:1065F000B88A0AFFB78A0AFFB68909FFB68809FF79
:10660000B58808FFB48708FFB48607FFB38607FF85
:10661000B28506FFB28506FFB18406FFB18305FF90
:10662000B08305FFB08204FFAF8204FFAE8103FF99
:10663000AE8103FFAD8003FFAD8002FFAD7F02FF9F
:10664000AC7F02FFAC7F01FFAB7E01FF8C6701FFD7
:106650008C6700FF00000047000000240000000CD1
:10666000000000000000000000000000000000002A
:1066700000000000000000000000000CD6B556FF2E
:10668000D6B556FFC59815FFC59714FFC59714FFDB
:10669000C49614FFC49613FFC39513FFC29513FF4E
:1066A000C29412FFC19412FFC19311FFC09211FF57
:1066B000C09210FFBF9110FFBE910FFFBE900FFF61
:1066C000BD8F0EFFBC8F0EFFBC8E0DFFBB8D0DFF6F
:1066D000BA8D0CFFBA8C0CFFB98C0BFFB88B0BFF7B
:1066E000B88A0AFFB78A0AFFB68909FFB68809FF88
:1066F000B58808FFB48708FFB48607FFB38607FF95
:10670000B28506FFB28506FFB18406FFB18305FF9F
:10671000B08305FFB08204FFAF8204FFAE8103FFA8
:10672000AE8103FFAD8003FFAD8002FFAD7F02FFAE
:10673000AC7F02FFAC7F01FFAB7E01FF8C6701FFE6
:106740008C6700FF00000047000000240000000CE0
:106750000000000000000000000000000000000039
:1067600000000000000000000000000CD6B556FF3D
:10677000D6B556FFC59815FFC59714FFC59714FFEA
:10678000C49614FFC49613FFC39513FFC29513FF5D
:10679000C29412FFC19412FFC19311FFC09211FF66
:1067A000C09210FFBF9110FFBE910FFFBE900FFF70
:1067B000BD8F0EFFBC8F0EFFBC8E0DFFBB8D0DFF7E
:1067C000BA8D0CFFBA8C0CFFB98C0BFFB88B0BFF8A
:1067D000B88A0AFFB78A0AFFB68909FFB68809FF97
:1067E000B58808FFB48708FFB48607FFB38607FFA4
:1067F000B28506FFB28506FFB18406FFB18305FFAF
:10680000B08305FFB08204FFAF8204FFAE8103FFB7
:10681000AE8103FFAD8003FFAD8002FFAD7F02FFBD
:10682000AC7F02FFAC7F01FFAB7E01FF8C6701FFF5
:106830008C6700FF00000047000000240000000CEF
:106840000000000000000000000000000000000048
:1068500000000000000000000000000CD6B556FF4C
:10686000D6B556FFC59815FFC59714FFC59714FFF9
:10687000C49614FFC49613FFC39513FFC29513FF6C
:10688000C29412FFC19412FFC19311FFC09211FF75
:10689000C09210FFBF9110FFBE910FFFBE900FFF7F
:1068A000BD8F0EFFBC8F0EFFBC8E0DFFBB8D0DFF8D
:1068B000BA8D0CFFBA8C0CFFB98C0BFFB88B0BFF99
:1068C000B88A0AFFB78A0AFFB68909FFB68809FFA6
:1068D000B58808FFB48708FFB48607FFB38607FFB3
:1068E000B28506FFB28506FFB18406FFB18305FFBE
:1068F000B08305FFB08204FFAF8204FFAE8103FFC7
:10690000AE8103FFAD8003FFAD8002FFAD7F02FFCC
:10691000AC7F02FFAC7F01FFAB7E01FF8C6701FF04
:106920008C6700FF00000047000000240000000CFE
:106930000000000000000000000000000000000057
:1069400000000000000000000000000CD6B556FF5B
:10695000D6B556FFC59815FFC59714FFC59714FF08
:10696000C49614FFC49613FFC39513FFC29513FF7B
:10697000C29412FFC19412FFC19311FFC09211FF84
:10698000C09210FFBF9110FFBE910FFFBE900FFF8E
:10699000BD8F0EFFBC8F0EFFBC8E0DFFBB8D0DFF9C
:1069A000BA8D0CFFBA8C0CFFB98C0BFFB88B0BFFA8
:1069B000B88A0AFFB78A0AFFB68909FFB68809FFB5
:1069C000B58808FFB48708FFB48607FFB38607FFC2
:1069D000B28506FFB28506FFB18406FFB18305FFCD
:1069E000B08305FFB08204FFAF8204FFAE8103FFD6
:1069F000AE8103FFAD8003FFAD8002FFAD7F02FFDC
:106A0000AC7F02FFAC7F01FFAB7E01FF8C6701FF13
:106A10008C6700FF00000047000000240000000C0D
:106A20000000000000000000000000000000000066
:106A300000000000000000000000000CD6B556FF6A
:106A4000D6B556FFC59815FFC59714FFC59714FF17
:106A5000C49614FFC49613FFC39513FFC29513FF8A
:106A6000C29412FFC19412FFC19311FFC09211FF93
:106A7000C09210FFBF9110FFBE910FFFBE900FFF9D
:106A8000BD8F0EFFBC8F0EFFBC8E0DFFBB8D0DFFAB
:106A9000BA8D0CFFBA8C0CFFB98C0BFFB88B0BFFB7
:106AA000B88A0AFFB78A0AFFB68909FFB68809FFC4
:106AB000B58808FFB48708FFB48607FFB38607FFD1
:106AC000B28506FFB28506FFB18406FFB18305FFDC
:106AD000B08305FFB08204FFAF8204FFAE8103FFE5
:106AE000AE8103FFAD8003FFAD8002FFAD7F02FFEB
:106AF000AC7F02FFAC7F01FFAB7E01FF8C6701FF23
:106B00008C6700FF00000047000000240000000C1C
:106B10000000000000000000000000000000000075
:106B200000000000000000000000000CD6B556FF79
:106B3000D6B556FFC59815FFC59714FFC59714FF26
:106B4000C49614FFC49613FFC39513FFC29513FF99
:106B5000C29412FFC19412FFC19311FFC09211FFA2
:106B6000C09210FFBF9110FFBE910FFFBE900FFFAC
:106B7000BD8F0EFFBC8F0EFFBC8E0DFFBB8D0DFFBA
:106B8000BA8D0CFFBA8C0CFFB98C0BFFB88B0BFFC6
:106B9000B88A0AFFB78A0AFFB68909FFB68809FFD3
:106BA000B58808FFB48708FFB48607FFB38607FFE0
:106BB000B28506FFB28506FFB18406FFB18305FFEB
:106BC000B08305FFB08204FFAF8204FFAE8103FFF4
:106BD000AE8103FFAD8003FFAD8002FFAD7F02FFFA
:106BE000AC7F02FFAC7F01FFAB7E01FF8C6701FF32
:106BF0008C6700FF00000047000000240000000C2C
:106C00000000000000000000000000000000000084
:106C100000000000000000000000000CD6B556FF88
:106C2000D6B556FFC59815FFC59714FFC59714FF35
:106C3000C49614FFC49613FFC39513FFC29513FFA8
:106C4000C29412FFC19412FFC19311FFC09211FFB1
:106C5000C09210FFBF9110FFBE910FFFBE900FFFBB
:106C6000BD8F0EFFBC8F0EFFBC8E0DFFBB8D0DFFC9
:106C7000BA8D0CFFBA8C0CFFB98C0BFFB88B0BFFD5
:106C8000B88A0AFFB78A0AFFB68909FFB68809FFE2
:106C9000B58808FFB48708FFB48607FFB38607FFEF
:106CA000B28506FFB28506FFB18406FFB18305FFFA
:106CB000B08305FFB08204FFAF8204FFAE8103FF03
:106CC000AE8103FFAD8003FFAD8002FFAD7F02FF09
:106CD000AC7F02FFAC7F01FFAB7E01FF8C6701FF41
:106CE0008C6700FF00000047000000240000000C3B
:106CF0000000000000000000000000000000000094
:106D000000000000000000000000000CD6B556FF97
:106D1000D6B556FFC59815FFC59714FFC59714FF44
:106D2000C49614FFC49613FFC39513FFC29513FFB7
:106D3000C29412FFC19412FFC19311FFC09211FFC0
:106D4000C09210FFBF9110FFBE910FFFBE900FFFCA
:106D5000BD8F0EFFBC8F0EFFBC8E0DFFBB8D0DFFD8
:106D6000BA8D0CFFBA8C0CFFB98C0BFFB88B0BFFE4
:106D7000B88A0AFFB78A0AFFB68909FFB68809FFF1
:106D8000B58808FFB48708FFB48607FFB38607FFFE
:106D9000B28506FFB28506FFB18406FFB18305FF09
:106DA000B08305FFB08204FFAF8204FFAE8103FF12
:106DB000AE8103FFAD8003FFAD8002FFAD7F02FF18
:106DC000AC7F02FFAC7F01FFAB7E01FF8C6701FF50
:106DD0008C6700FF00000047000000240000000C4A
:106DE00000000000000000000000000000000000A3
:106DF00000000000000000000000000CD6B556FFA7
:106E0000D6B556FFC59815FFC59714FFC59714FF53
:106E1000C49614FFC49613FFC39513FFC29513FFC6
:106E2000C29412FFC19412FFC19311FFC09211FFCF
:106E3000C09210FFBF9110FFBE910FFFBE900FFFD9
:106E4000BD8F0EFFBC8F0EFFBC8E0DFFBB8D0DFFE7
:106E5000BA8D0CFFBA8C0CFFB98C0BFFB88B0BFFF3
:106E6000B88A0AFFB78A0AFFB68909FFB68809FF00
:106E7000B58808FFB48708FFB48607FFB38607FF0D
:106E8000B28506FFB28506FFB18406FFB18305FF18
:106E9000B08305FFB08204FFAF8204FFAE8103FF21
:106EA000AE8103FFAD8003FFAD8002FFAD7F02FF27
:106EB000AC7F02FFAC7F01FFAB7E01FF8C6701FF5F
:106EC0008C6700FF00000047000000240000000C59
:106ED00000000000000000000000000000000000B2
:106EE00000000000000000000000000CD6B556FFB6
:106EF000D6B556FFC59815FFC59714FFC59714FF63
:106F0000C49614FFC49613FFC39513FFC29513FFD5
:106F1000C29412FFC19412FFC19311FFC09211FFDE
:106F2000C09210FFBF9110FFBE910FFFBE900FFFE8
:106F3000BD8F0EFFBC8F0EFFBC8E0DFFBB8D0DFFF6
:106F4000BA8D0CFFBA8C0CFFB98C0BFFB88B0BFF02
:106F5000B88A0AFFB78A0AFFB68909FFB68809FF0F
:106F6000B58808FFB48708FFB48607FFB38607FF1C
:106F7000B28506FFB28506FFB18406FFB18305FF27
:106F8000B08305FFB08204FFAF8204FFAE8103FF30
:106F9000AE8103FFAD8003FFAD8002FFAD7F02FF36
:106FA000AC7F02FFAC7F01FFAB7E01FF8C6701FF6E
:106FB0008C6700FF00000047000000240000000C68
:106FC00000000000000000000000000000000000C1
:106FD00000000000000000000000000CD6B556FFC5
:106FE000D6B556FFC59815FFC59714FFC59714FF72
:106FF000C49614FFC49613FFC39513FFC29513FFE5
:10700000C29412FFC19412FFC19311FFC09211FFED
:10701000C09210FFBF9110FFBE910FFFBE900FFFF7
:10702000BD8F0EFFBC8F0EFFBC8E0DFFBB8D0DFF05
:10703000BA8D0CFFBA8C0CFFB98C0BFFB88B0BFF11
:10704000B88A0AFFB78A0AFFB68909FFB68809FF1E
:10705000B58808FFB48708FFB48607FFB38607FF2B
:10706000B28506FFB28506FFB18406FFB18305FF36
:10707000B08305FFB08204FFAF8204FFAE8103FF3F
:10708000AE8103FFAD8003FFAD8002FFAD7F02FF45
:10709000AC7F02FFAC7F01FFAB7E01FF8C6701FF7D
:1070A0008C6700FF00000047000000240000000C77
:1070B00000000000000000000000000000000000D0
:1070C00000000000000000000000000CD6B556FFD4
:1070D000D6B556FFC59815FFC59714FFC59714FF81
:1070E000C49614FFC49613FFC39513FFC29513FFF4
:1070F000C29412FFC19412FFC19311FFC09211FFFD
:10710000C09210FFBF9110FFBE910FFFBE900FFF06
:10711000BD8F0EFFBC8F0EFFBC8E0DFFBB8D0DFF14
:10712000BA8D0CFFBA8C0CFFB98C0BFFB88B0BFF20
:10713000B88A0AFFB78A0AFFB68909FFB68809FF2D
:10714000B58808FFB48708FFB48607FFB38607FF3A
:10715000B28506FFB28506FFB18406FFB18305FF45
:10716000B08305FFB08204FFAF8204FFAE8103FF4E
:10717000AE8103FFAD8003FFAD8002FFAD7F02FF54
:10718000AC7F02FFAC7F01FFAB7E01FF8C6701FF8C
:107190008C6700FF00000047000000240000000C86
:1071A00000000000000000000000000000000000DF
:1071B00000000000000000000000000CD6B556FFE3
:1071C000D6B556FFC59815FFC59714FFC59714FF90
:1071D000C49614FFC49613FFC39513FFC29513FF03
:1071E000C29412FFC19412FFC19311FFC09211FF0C
:1071F000C09210FFBF9110FFBE910FFFBE900FFF16
:10720000BD8F0EFFBC8F0EFFBC8E0DFFBB8D0DFF23
:10721000BA8D0CFFBA8C0CFFB98C0BFFB88B0BFF2F
:10722000B88A0AFFB78A0AFFB68909FFB68809FF3C
:10723000B58808FFB48708FFB48607FFB38607FF49
:10724000B28506FFB28506FFB18406FFB18305FF54
:10725000B08305FFB08204FFAF8204FFAE8103FF5D
:10726000AE8103FFAD8003FFAD8002FFAD7F02FF63
:10727000AC7F02FFAC7F01FFAB7E01FF8C6701FF9B
:107280008C6700FF00000047000000240000000C95
:1072900000000000000000000000000000000000EE
:1072A00000000000000000000000000CD6B556FFF2
:1072B000D6B556FFC59815FFC59714FFC59714FF9F
:1072C000C49614FFC49613FFC39513FFC29513FF12
:1072D000C29412FFC19412FFC19311FFC09211FF1B
:1072E000C09210FFBF9110FFBE910FFFBE900FFF25
:1072F000BD8F0EFFBC8F0EFFBC8E0DFFBB8D0DFF33
:10730000BA8D0CFFBA8C0CFFB98C0BFFB88B0BFF3E
:10731000B88A0AFFB78A0AFFB68909FFB68809FF4B
:10732000B58808FFB48708FFB48607FFB38607FF58
:10733000B28506FFB28506FFB18406FFB18305FF63
:10734000B08305FFB08204FFAF8204FFAE8103FF6C
:10735000AE8103FFAD8003FFAD8002FFAD7F02FF72
:10736000AC7F02FFAC7F01FFAB7E01FF8C6701FFAA
:107370008C6700FF00000047000000240000000CA4
:1073800000000000000000000000000000000000FD
:1073900000000000000000000000000CD6B556FF01
:1073A000D6B556FFC59815FFC59714FFC59714FFAE
:1073B000C49614FFC49613FFC39513FFC29513FF21
:1073C000C29412FFC19412FFC19311FFC09211FF2A
:1073D000C09210FFBF9110FFBE910FFFBE900FFF34
:1073E000BD8F0EFFBC8F0EFFBC8E0DFFBB8D0DFF42
:1073F000BA8D0CFFBA8C0CFFB98C0BFFB88B0BFF4E
:10740000B88A0AFFB78A0AFFB68909FFB68809FF5A
:10741000B58808FFB48708FFB48607FFB38607FF67
:10742000B28506FFB28506FFB18406FFB18305FF72
:10743000B08305FFB08204FFAF8204FFAE8103FF7B
:10744000AE8103FFAD8003FFAD8002FFAD7F02FF81
:10745000AC7F02FFAC7F01FFAB7E01FF8C6701FFB9
:107460008C6700FF00000047000000240000000CB3
:10747000000000000000000000000000000000000C
:1074800000000000000000000000000CD6B556FF10
:10749000D6B556FFC59815FFC59714FFC59714FFBD
:1074A000C49614FFC49613FFC39513FFC29513FF30
:1074B000C29412FFC19412FFC19311FFC09211FF39
:1074C000C09210FFBF9110FFBE910FFFBE900FFF43
:1074D000BD8F0EFFBC8F0EFFBC8E0DFFBB8D0DFF51
:1074E000BA8D0CFFBA8C0CFFB98C0BFFB88B0BFF5D
:1074F000B88A0AFFB78A0AFFB68909FFB68809FF6A
:10750000B58808FFB48708FFB48607FFB38607FF76
:10751000B28506FFB28506FFB18406FFB18305FF81
:10752000B08305FFB08204FFAF8204FFAE8103FF8A
:10753000AE8103FFAD8003FFAD8002FFAD7F02FF90
:10754000AC7F02FFAC7F01FFAB7E01FF8C6701FFC8
:107550008C6700FF00000047000000240000000CC2
:10756000000000000000000000000000000000001B
:1075700000000000000000000000000CD6B556FF1F
:10758000D6B556FFC59815FFC59714FFC59714FFCC
:10759000C49614FFC49613FFC39513FFC29513FF3F
:1075A000C29412FFC19412FFC19311FFC09211FF48
:1075B000C09210FFBF9110FFBE910FFFBE900FFF52
:1075C000BD8F0EFFBC8F0EFFBC8E0DFFBB8D0DFF60
:1075D000BA8D0CFFBA8C0CFFB98C0BFFB88B0BFF6C
:1075E000B88A0AFFB78A0AFFB68909FFB68809FF79
:1075F000B58808FFB48708FFB48607FFB38607FF86
:10760000B28506FFB28506FFB18406FFB18305FF90
:10761000B08305FFB08204FFAF8204FFAE8103FF99
:10762000AE8103FFAD8003FFAD8002FFAD7F02FF9F
:10763000AC7F02FFAC7F01FFAB7E01FF8C6701FFD7
:107640008C6700FF00000047000000240000000CD1
:10765000000000000000000000000000000000002A
:1076600000000000000000000000000CD6B556FF2E
:10767000D6B556FFC59815FFC59714FFC59714FFDB
:10768000C49614FFC49613FFC39513FFC29513FF4E
:10769000C29412FFC19412FFC19311FFC09211FF57
:1076A000C09210FFBF9110FFBE910FFFBE900FFF61
:1076B000BD8F0EFFBC8F0EFFBC8E0DFFBB8D0DFF6F
:1076C000BA8D0CFFBA8C0CFFB98C0BFFB88B0BFF7B
:1076D000B88A0AFFB78A0AFFB68909FFB68809FF88
:1076E000B58808FFB48708FFB48607FFB38607FF95
:1076F000B28506FFB28506FFB18406FFB18305FFA0
:10770000B08305FFB08204FFAF8204FFAE8103FFA8
:10771000AE8103FFAD8003FFAD8002FFAD7F02FFAE
:10772000AC7F02FFAC7F01FFAB7E01FF8C6701FFE6
:107730008C6700FF00000047000000240000000CE0
:107740000000000000000000000000000000000039
:1077500000000000000000000000000CD6B556FF3D
:10776000D6B556FFC59815FFC59714FFC59714FFEA
:10777000C49614FFC49613FFC39513FFC29513FF5D
:10778000C29412FFC19412FFC19311FFC09211FF66
:10779000C09210FFBF9110FFBE910FFFBE900FFF70
:1077A000BD8F0EFFBC8F0EFFBC8E0DFFBB8D0DFF7E
:1077B000BA8D0CFFBA8C0CFFB98C0BFFB88B0BFF8A
:1077C000B88A0AFFB78A0AFFB68909FFB68809FF97
:1077D000B58808FFB48708FFB48607FFB38607FFA4
:1077E000B28506FFB28506FFB18406FFB18305FFAF
:1077F000B08305FFB08204FFAF8204FFAE8103FFB8
:10780000AE8103FFAD8003FFAD8002FFAD7F02FFBD
:10781000AC7F02FFAC7F01FFAB7E01FF8C6701FFF5
:107820008C6700FF00000047000000240000000CEF
:107830000000000000000000000000000000000048
:1078400000000000000000000000000CD6B556FF4C
:10785000D6B556FFC59815FFC59714FFC59714FFF9
:10786000C49614FFC49613FFC39513FFC29513FF6C
:10787000C29412FFC19412FFC19311FFC09211FF75
:10788000C09210FFBF9110FFBE910FFFBE900FFF7F
:10789000BD8F0EFFBC8F0EFFBC8E0DFFBB8D0DFF8D
:1078A000BA8D0CFFBA8C0CFFB98C0BFFB88B0BFF99
:1078B000B88A0AFFB78A0AFFB68909FFB68809FFA6
:1078C000B58808FFB48708FFB48607FFB38607FFB3
:1078D000B28506FFB28506FFB18406FFB18305FFBE
:1078E000B08305FFB08204FFAF8204FFAE8103FFC7
:1078F000AE8103FFAD8003FFAD8002FFAD7F02FFCD
:10790000AC7F02FFAC7F01FFAB7E01FF8C6701FF04
:107910008C6700FF00000047000000240000000CFE
:107920000000000000000000000000000000000057
:1079300000000000000000000000000CD6B556FF5B
:10794000D6B556FFC59815FFC59714FFC59714FF08
:10795000C49614FFC49613FFC39513FFC29513FF7B
:10796000C29412FFC19412FFC19311FFC09211FF84
:10797000C09210FFBF9110FFBE910FFFBE900FFF8E
:10798000BD8F0EFFBC8F0EFFBC8E0DFFBB8D0DFF9C
:10799000BA8D0CFFBA8C0CFFB98C0BFFB88B0BFFA8
:1079A000B88A0AFFB78A0AFFB68909FFB68809FFB5
:1079B000B58808FFB48708FFB48607FFB38607FFC2
:1079C000B28506FFB28506FFB18406FFB18305FFCD
:1079D000B08305FFB08204FFAF8204FFAE8103FFD6
:1079E000AE8103FFAD8003FFAD8002FFAD7F02FFDC
:1079F000AC7F02FFAC7F01FFAB7E01FF8C6701FF14
:107A00008C6700FF00000047000000240000000C0D
:107A10000000000000000000000000000000000066
:107A200000000000000000000000000CD6B556FF6A
:107A3000D6B556FFC59815FFC59714FFC59714FF17
:107A4000C49614FFC49613FFC39513FFC29513FF8A
:107A5000C29412FFC19412FFC19311FFC09211FF93
:107A6000C09210FFBF9110FFBE910FFFBE900FFF9D
:107A7000BD8F0EFFBC8F0EFFBC8E0DFFBB8D0DFFAB
:107A8000BA8D0CFFBA8C0CFFB98C0BFFB88B0BFFB7
:107A9000B88A0AFFB78A0AFFB68909FFB68809FFC4
:107AA000B58808FFB48708FFB48607FFB38607FFD1
:107AB000B28506FFB28506FFB18406FFB18305FFDC
:107AC000B08305FFB08204FFAF8204FFAE8103FFE5
:107AD000AE8103FFAD8003FFAD8002FFAD7F02FFEB
:107AE000AC7F02FFAC7F01FFAB7E01FF8C6701FF23
:107AF0008C6700FF00000047000000240000000C1D
:107B00000000000000000000000000000000000075
:107B100000000000000000000000000CD6B556FF79
:107B2000D6B556FFC59815FFC59714FFC59714FF26
:107B3000C49614FFC49613FFC39513FFC29513FF99
:107B4000C29412FFC19412FFC19311FFC09211FFA2
:107B5000C09210FFBF9110FFBE910FFFBE900FFFAC
:107B6000BD8F0EFFBC8F0EFFBC8E0DFFBB8D0DFFBA
:107B7000BA8D0CFFBA8C0CFFB98C0BFFB88B0BFFC6
:107B8000B88A0AFFB78A0AFFB68909FFB68809FFD3
:107B9000B58808FFB48708FFB48607FFB38607FFE0
:107BA000B28506FFB28506FFB18406FFB18305FFEB
:107BB000B08305FFB08204FFAF8204FFAE8103FFF4
:107BC000AE8103FFAD8003FFAD8002FFAD7F02FFFA
:107BD000AC7F02FFAC7F01FFAB7E01FF8C6701FF32
:107BE0008C6700FF00000047000000240000000C2C
:107BF0000000000000000000000000000000000085
:107C000000000000000000000000000CD6B556FF88
:107C1000D6B556FFC59815FFC59714FFC59714FF35
:107C2000C49614FFC49613FFC39513FFC29513FFA8
:107C3000C29412FFC19412FFC19311FFC09211FFB1
:107C4000C09210FFBF9110FFBE910FFFBE900FFFBB
:107C5000BD8F0EFFBC8F0EFFBC8E0DFFBB8D0DFFC9
:107C6000BA8D0CFFBA8C0CFFB98C0BFFB88B0BFFD5
:107C7000B88A0AFFB78A0AFFB68909FFB68809FFE2
:107C8000B58808FFB48708FFB48607FFB38607FFEF
:107C9000B28506FFB28506FFB18406FFB18305FFFA
:107CA000B08305FFB08204FFAF8204FFAE8103FF03
:107CB000AE8103FFAD8003FFAD8002FFAD7F02FF09
:107CC000AC7F02FFAC7F01FFAB7E01FF8C6701FF41
:107CD0008C6700FF00000047000000240000000C3B
:107CE0000000000000000000000000000000000094
:107CF00000000000000000000000000CD6B556FF98
:107D0000D6B556FFC59815FFC59714FFC59714FF44
:107D1000C49614FFC49613FFC39513FFC29513FFB7
:107D2000C29412FFC19412FFC19311FFC09211FFC0
:107D3000C09210FFBF9110FFBE910FFFBE900FFFCA
:107D4000BD8F0EFFBC8F0EFFBC8E0DFFBB8D0DFFD8
:107D5000BA8D0CFFBA8C0CFFB98C0BFFB88B0BFFE4
:107D6000B88A0AFFB78A0AFFB68909FFB68809FFF1
:107D7000B58808FFB48708FFB48607FFB38607FFFE
:107D8000B28506FFB28506FFB18406FFB18305FF09
:107D9000B08305FFB08204FFAF8204FFAE8103FF12
:107DA000AE8103FFAD8003FFAD8002FFAD7F02FF18
:107DB000AC7F02FFAC7F01FFAB7E01FF8C6701FF50
:107DC0008C6700FF00000047000000240000000C4A
:107DD00000000000000000000000000000000000A3
:107DE00000000000000000000000000CD6B556FFA7
:107DF000D6B556FFC59815FFC59714FFC59714FF54
:107E0000C49614FFC49613FFC39513FFC29513FFC6
:107E1000C29412FFC19412FFC19311FFC09211FFCF
:107E2000C09210FFBF9110FFBE910FFFBE900FFFD9
:107E3000BD8F0EFFBC8F0EFFBC8E0DFFBB8D0DFFE7
:107E4000BA8D0CFFBA8C0CFFB98C0BFFB88B0BFFF3
:107E5000B88A0AFFB78A0AFFB68909FFB68809FF00
:107E6000B58808FFB48708FFB48607FFB38607FF0D
:107E7000B28506FFB28506FFB18406FFB18305FF18
:107E8000B08305FFB08204FFAF8204FFAE8103FF21
:107E9000AE8103FFAD8003FFAD8002FFAD7F02FF27
:107EA000AC7F02FFAC7F01FFAB7E01FF8C6701FF5F
:107EB0008C6700FF00000047000000240000000C59
:107EC00000000000000000000000000000000000B2
:107ED00000000000000000000000000CD6B556FFB6
:107EE000D6B556FFC59815FFC59714FFC59714FF63
:107EF000C49614FFC49613FFC39513FFC29513FFD6
:107F0000C29412FFC19412FFC19311FFC09211FFDE
:107F1000C09210FFBF9110FFBE910FFFBE900FFFE8
:107F2000BD8F0EFFBC8F0EFFBC8E0DFFBB8D0DFFF6
:107F3000BA8D0CFFBA8C0CFFB98C0BFFB88B0BFF02
:107F4000B88A0AFFB78A0AFFB68909FFB68809FF0F
:107F5000B58808FFB48708FFB48607FFB38607FF1C
:107F6000B28506FFB28506FFB18406FFB18305FF27
:107F7000B08305FFB08204FFAF8204FFAE8103FF30
:107F8000AE8103FFAD8003FFAD8002FFAD7F02FF36
:107F9000AC7F02FFAC7F01FFAB7E01FF8C6701FF6E
:107FA0008C6700FF00000047000000240000000C68
:107FB00000000000000000000000000000000000C1
:107FC00000000000000000000000000CD6B556FFC5
:107FD000D6B556FFC59815FFC59714FFC59714FF72
:107FE000C49614FFC49613FFC39513FFC29513FFE5
:107FF000C29412FFC19412FFC19311FFC09211FFEE
:10800000C09210FFBF9110FFBE910FFFBE900FFFF7
:10801000BD8F0EFFBC8F0EFFBC8E0DFFBB8D0DFF05
:10802000BA8D0CFFBA8C0CFFB98C0BFFB88B0BFF11
:10803000B88A0AFFB78A0AFFB68909FFB68809FF1E
:10804000B58808FFB48708FFB48607FFB38607FF2B
:10805000B28506FFB28506FFB18406FFB18305FF36
:10806000B08305FFB08204FFAF8204FFAE8103FF3F
:10807000AE8103FFAD8003FFAD8002FFAD7F02FF45
:10808000AC7F02FFAC7F01FFAB7E01FF8C6701FF7D
:108090008C6700FF00000047000000240000000C77
:1080A00000000000000000000000000000000000D0
:1080B00000000000000000000000000CD6B556FFD4
:1080C000D6B556FFC59815FFC59714FFC59714FF81
:1080D000C49614FFC49613FFC39513FFC29513FFF4
:1080E000C29412FFC19412FFC19311FFC09211FFFD
:1080F000C09210FFBF9110FFBE910FFFBE900FFF07
:10810000BD8F0EFFBC8F0EFFBC8E0DFFBB8D0DFF14
:10811000BA8D0CFFBA8C0CFFB98C0BFFB88B0BFF20
:10812000B88A0AFFB78A0AFFB68909FFB68809FF2D
:10813000B58808FFB48708FFB48607FFB38607FF3A
:10814000B28506FFB28506FFB18406FFB18305FF45
:10815000B08305FFB08204FFAF8204FFAE8103FF4E
:10816000AE8103FFAD8003FFAD8002FFAD7F02FF54
:10817000AC7F02FFAC7F01FFAB7E01FF8C6701FF8C
:108180008C6700FF00000047000000240000000C86
:1081900000000000000000000000000000000000DF
:1081A00000000000000000000000000CD6B556FFE3
:1081B000D6B556FFC59815FFC59714FFC59714FF90
:1081C000C49614FFC49613FFC39513FFC29513FF03
:1081D000C29412FFC19412FFC19311FFC09211FF0C
:1081E000C09210FFBF9110FFBE910FFFBE900FFF16
:1081F000BD8F0EFFBC8F0EFFBC8E0DFFBB8D0DFF24
:10820000BA8D0CFFBA8C0CFFB98C0BFFB88B0BFF2F
:10821000B88A0AFFB78A0AFFB68909FFB68809FF3C
:10822000B58808FFB48708FFB48607FFB38607FF49
:10823000B28506FFB28506FFB18406FFB18305FF54
:10824000B08305FFB08204FFAF8204FFAE8103FF5D
:10825000AE8103FFAD8003FFAD8002FFAD7F02FF63
:10826000AC7F02FFAC7F01FFAB7E01FF8C6701FF9B
:108270008C6700FF00000047000000240000000C95
:1082800000000000000000000000000000000000EE
:1082900000000000000000000000000CD6B556FFF2
:1082A000D6B556FFC59815FFC59714FFC59714FF9F
:1082B000C49614FFC49613FFC39513FFC29513FF12
:1082C000C29412FFC19412FFC19311FFC09211FF1B
:1082D000C09210FFBF9110FFBE910FFFBE900FFF25
:1082E000BD8F0EFFBC8F0EFFBC8E0DFFBB8D0DFF33
:1082F000BA8D0CFFBA8C0CFFB98C0BFFB88B0BFF3F
:10830000B88A0AFFB78A0AFFB68909FFB68809FF4B
:10831000B58808FFB48708FFB48607FFB38607FF58
:10832000B28506FFB28506FFB18406FFB18305FF63
:10833000B08305FFB08204FFAF8204FFAE8103FF6C
:10834000AE8103FFAD8003FFAD8002FFAD7F02FF72
:10835000AC7F02FFAC7F01FFAB7E01FF8C6701FFAA
:108360008C6700FF00000047000000240000000CA4
:1083700000000000000000000000000000000000FD
:1083800000000000000000000000000CD6B556FF01
:10839000D6B556FFC59815FFC59714FFC59714FFAE
:1083A000C49614FFC49613FFC39513FFC29513FF21
:1083B000C29412FFC19412FFC19311FFC09211FF2A
:1083C000C09210FFBF9110FFBE910FFFBE900FFF34
:1083D000BD8F0EFFBC8F0EFFBC8E0DFFBB8D0DFF42
:1083E000BA8D0CFFBA8C0CFFB98C0BFFB88B0BFF4E
:1083F000B88A0AFFB78A0AFFB68909FFB68809FF5B
:10840000B58808FFB48708FFB48607FFB38607FF67
:10841000B28506FFB28506FFB18406FFB18305FF72
:10842000B08305FFB08204FFAF8204FFAE8103FF7B
:10843000AE8103FFAD8003FFAD8002FFAD7F02FF81
:10844000AC7F02FFAC7F01FFAB7E01FF8C6701FFB9
:108450008C6700FF00000047000000240000000CB3
:10846000000000000000000000000000000000000C
:1084700000000000000000000000000CD6B556FF10
:10848000D6B556FFC59815FFC59714FFC59714FFBD
:10849000C49614FFC49613FFC39513FFC29513FF30
