:020000040800F2
:1000000030A30120017F0E0879760E087B760E085A
:100010007D760E087F760E0881760E0800000000BF
:1000200000000000000000000000000069CE0D0884
:1000300083760E080000000011CE0D0885760E08AC
:10004000B57F0E08B97F0E08BD7F0E08C17F0E0870
:10005000C57F0E08C97F0E08CD7F0E08D17F0E0820
:10006000D57F0E08D97F0E08DD7F0E08E17F0E08D0
:10007000E57F0E08E97F0E08ED7F0E08F17F0E0880
:10008000F57F0E08F97F0E08FD7F0E0801800E082F
:1000900005800E0809800E080D800E0811800E08DC
:1000A00015800E0819800E081D800E0821800E088C
:1000B00025800E0829800E082D800E0831800E083C
:1000C00035800E0839800E083D800E0841800E08EC
:1000D00045800E0849800E084D800E0851800E089C
:1000E00055800E0859800E085D800E0861800E084C
:1000F00065800E0869800E086D800E0871800E08FC
:1001000093760E0875800E0879800E087D800E08A3
:1001100081800E0885800E0889800E088D800E086B
:1001200091800E0895800E0899800E089D800E081B
:10013000A1800E08A5800E08A9800E08AD800E08CB
:10014000B1800E08B5800E08B9800E08BD800E087B
:10015000C1800E08C5800E08C9800E08CD800E082B
:10016000D1800E08D5800E08D9800E08DD800E08DB
:10017000E1800E08E5800E08E9800E08000000000E
:10018000ED800E08F1800E08F5800E08F9800E084B
:10019000FD800E0801810E0805810E0809810E08F8
:1001A00099760E089D760E08A5760E08A09BB89E3F
:1001B0009CBA9A98B79796B29A95AE9491A6919355
:1001C000A89292A89891A7988FA4938DA2908DA49D
:1001D0009190A58E8C9F938DA0958FA58F8DA490C7
:1001E0008EA48E8D9D8C8A988C8A99908A9A8E87FF
:1001F000968D8797908B9B8E889D8F8699918696FA
:100200008C85978A859B89859A8C86998E8798900C
:10021000879A9083958F8293857E8F81808B878349
:10022000898A8188837B85857C8B827887837A889D
:100230007F78817F7985827A8881777F7E747F7CE1
:1002400074847B767F7A797F7B73807B708278730E
:10025000827A75867F74888074867E758282778BB9
:1002600080768F8079877F7A887D7791817C96816F
:100270007C98827D9A827C9A86809D84829D8280F1
:10028000A28383AA888CB2878EB68B93C09398C7BB
:100290009195C29194BF939AC38F9AC3939EC7942A
:1002A0009ECC949DD1939ECB919DC7919DC7919ECD
:1002B000C7929DC8949ECB94A0CC95A2D096A3D271
:1002C00097A2D398A3D693A4D792A5D992A5D9964D
:1002D000A6DD98A7DF98ABE29AACE39BACE59AABBE
:1002E000E39CACE89AADE89FB3ED9EB4EF9DB5F307
:1002F000A2BAF9ABC2FFB0C5FFB2C8FFB2C8FFB027
:10030000C8FFB2C9FFB8D0FFBFD7FFC6DDFFC7DF48
:10031000FFC5E0FFCEEAFFAFC6F08B9CD4909DCD29
:10032000919DC6939DC993A1CE8D9BC58C95BD8A89
:1003300095BC8D9AC09096BD8D91B88A93B78892DE
:10034000B5858FB6838FB7828EB38590B7838FB90B
:10035000818DBB8295CD97AEF295ACF08A9FD48704
:1003600098CB899CD99BB2F69DB3F59BB3F29BB415
:10037000F49BB3F29FB6F59FB9F79CB9F69AB6F421
:100380009EB9F69FB8F49BB4EF9BB4ED9BB5EE9A83
:10039000B4EE98B2EC96B0EC96AEE898AFE698AFB3
:1003A000E697ADE595ADE595AFE49BB1E6A6BAF469
:1003B000858BAC7168747B73796D6264624C506735
:1003C000505261545656494C5141455343464B3E59
:1003D0003A443A335A4C5057484E3E3232645B6D81
:1003E000605C7D4E4152504F6A4344655A4C5842BE
:1003F00033361A111527191727171223141622132B
:100400001B2C181D2719192313112D171520101532
:100410002719253E374A26264132405849546E4511
:1004200043685A60865C5B7C48415A443C503D348A
:10043000472E3043232A3F252133271E281D151F11
:1004400029212D3128322420281F1E2718121C2C68
:100450002536564D654739492A1B1F3D3538362A02
:100460002B1B10165B6482383D5A30345444476964
:100470008088B4828EC4414A6A6A6F8D9394AF9724
:1004800098A87C7696CFC9DB837A8541385154543D
:100490007146446A45406258566F5E5B755B586DA5
:1004A000595469615C715E5974666183706C8C67C4
:1004B00068806971917C7E9F61576B4E43495C54A3
:1004C0005F3E3644251C292D242C31292D403B3FED
:1004D0004B45515452656667796D6C80868CA2B32A
:1004E000BCD49CA8C58B98B4AEB3C6D0CCDAD0CE61
:1004F000D6C6C1CBC2B9C69A98A573738A696886F5
:100500005A5D7852526D5B5A744B4B6055536A6B0F
:10051000637772697F6C6B8461617B9C90A6978C1A
:10052000AA5B5D7E5B617E6361805C5577676485F5
:10053000605D7F59557A565B807C81A262608760DE
:100540005C8561607F5350756A658B62617F5A5626
:1005500080605D7E7A769257547157587E595D81DE
:100560005657795E5886626088747394706E988D61
:100570008EAC948FAF555675625E8B6A658C6361E5
:100580008559577B63618460617F5D607A616682B3
:10059000545479645E81605F836369914F5377310E
:1005A000355042436050506F4041512B223E2D1F29
:1005B00041261A364C4A6246485C26223845455C3C
:1005C0004D4E675651685F5468544A5F5956674E9E
:1005D0004C5E4C4A5D59566A4C4B615E5C79625D7B
:1005E0007B5854735455758789A8706C8951496636
:1005F0004F4C67494A624A495D514F64443F5843F2
:100600003D574A48664E4F6F4B4762483C4D362F28
:100610004434334D37364E31324C282A37221B3082
:10062000221B39242533211F352A28462D2E45210A
:10063000223624213D1D193423203B2E2844191431
:10064000210E0D1628283F2221362B25402E254429
:100650001E14271B151E1C182A27233D262338226B
:1006600020352B2A412423392322332B2A382A2BC5
:100670003A2A28302A272E2C2B392D29422D264183
:10068000332D453330462F2B3C382E3E352E3C2B18
:1006900027362C26332A2231312A3937313C302A69
:1006A00036393044372E42342F3C312F39332838F5
:1006B0003B2C34332E3534303F4B3C49332B3230D6
:1006C0002D3339343C2D252E342A35322833292236
:1006D0002F2926352B27343B313E3324333427361C
:1006E0003C354334323E312E342B272A2E26362FEA
:1006F000263B2E2A322D29342A263929252F2A2530
:10070000312B2B3B2C2A382B232E31273231293207
:100710002B25312A263326202F24212B2A282D2948
:10072000242D2C222D2A202C2B232D2A232C241D52
:1007300028271E29271E292A212C241D2428222966
:10074000281F32221C2C25232D2A272DA19FBA9C3D
:100750009BB79A98B79894B29792AF9593AA9393B0
:10076000A99392A99490A6948DA3938DA3928FA5FB
:100770008D8AA5938EAC958EA7938EA69491A79201
:10078000909E8F8E9A8F8B9D8F8B9C8C88998E8A52
:10079000988E8D9B8B8C9A928A989289978F889746
:1007A0008D899A8C87979189938B88958886989262
:1007B00086999584978F819286829182828E898292
:1007C0008C8C818C897F8B857B89877A88867C89D4
:1007D000817A827E76827F75837F737E7F75817E4C
:1007E00075857B737F7C76817E75837B707E787068
:1007F000807870807D72837E75837F77837D768835
:100800007D758C7D76887C76897D768F7F7A9482E3
:100810007E99827D9A817C9A807B97847E97858061
:10082000A08785A9878BAD898FB48A92BD8E93BD31
:100830009598C09296BF9098C18D98C3919CC9938A
:100840009CCD949ECF929CC9919CC7939DC9919C2D
:10085000C8919CC8939ECB949ECB929ECC92A0D0E4
:1008600095A2D297A3D494A5D694A6D794A5D998A7
:10087000A7DC99A8E097A9E299ABE29BACE49AAB1C
:10088000E49CADE799ADE99BAFE99EB2EEA0B5F36C
:10089000A3B9F9A9BFFEB1C7FFB5CAFFB8CEFFB66D
:1008A000CFFFB2CAFFB5CDFFBCD4FFC8DFFFC9E29E
:1008B000FFD0E9FFCCE1FF91A1DC8996CD949ECBDE
:1008C0008E98BD8E97C1909EC88B9AC08D95BD8C19
:1008D00096BD8A97BC8A93BB8C90BA878FB3808A67
:1008E000B0828BB4848FB68790B7838DB47F89B480
:1008F000838DB88898CF99B0F496ABEF8B9DD38554
:1009000095C88C9FDC9DB4F99DB5F799B3F49AB462
:10091000F39BB3F19EB6F5A0B7F69FB9F79CB9F675
:100920009DB8F59DB6F29BB5EF9CB6EF9AB4EE98E4
:10093000B3ED96B2EB97B0EB98B1EA97AFE597AD10
:10094000E496ADE499B0E799B0E69AAFE4A7BBF4BA
:10095000878DAF736975786D746C5F635C474C5FAE
:100960004B4F5F5457564D5255494D544A4E453D95
:10097000324C42314633313E2D2152463E5A4F7061
:1009800060548956496B4D506C44455E57474F4201
:100990002E2D1F101525161A271618251617211289
:1009A0001527161729151823121B211515170A0EBE
:1009B000514D6E656A964D53784F5B81515C854C05
:1009C000527B444E70474C6D54547A575D82545953
:1009D00077373149272132282735221D261C151D3E
:1009E00025202829252C1B19221E1E2718151A29F7
:1009F00022386C6889504A5B1C0E1443373E3631EE
:100A00003D302F41525775292D3E282B42494A6BC4
:100A10007C84B48294CA4B54796A6E8D9C9BB79F38
:100A20009FAF868298CDCCD7716A77443A55514FA3
:100A30006C403D5E4A45635B566E5E5B745F5C7105
:100A40005B566B625C705C5772676284706A89681F
:100A5000677B6E748F7C7B9B62576A52424D5F54FA
:100A600063423B432820262D24292C25264540433C
:100A700054515C56516468687C6D7287878AA2B451
:100A8000B7CF919DBA828FADB6B8CBD2CED9D1CEE9
:100A9000D4D0CAD5B1A8B5787587616382686685F8
:100AA0004F4D6157566863637749495D534E66738E
:100AB00068816F62796360706364768782A27A79F5
:100AC0009A5F667F60647E706C8758506C5858726D
:100AD00063617C5D5274655D828881A26359806523
:100AE0005C86605C8466668B6766875F5A82585650
:100AF000766A63888B829D64627852506E56547514
:100B00005F5E8159547F5F598468648362617F7C32
:100B10007D989796B05F608057567D6E6992686247
:100B2000905751785B57745451694F52654C5368D4
:100B30006B6B8E6765895C61855C658B3131553A7D
:100B400036554F495F4E465838313F3B314A3B316D
:100B50004F2A223D504C6537344B3D38505D5C7117
:100B600036364C221F36625F716D6E7D5752694F6B
:100B70004B654C4E675053685253655E5D754E4DE4
:100B8000684C4B66535470787896736E8E413E5C19
:100B9000494965494A6443435C47445A4E455E3C73
:100BA000354A4A4961514B733D3455463C4F4D4798
:100BB0005C34324E35324B2B2C402222302B263ADD
:100BC0002520381B1B2D1C1C352725401B152626D0
:100BD000202E18152D22203D26253E262338110EC5
:100BE000170E0D172122341B1B2E222031262234F2
:100BF0002921341E1C291C1B2E2B283B24242F2486
:100C000022352E2D4229283D2B293827243327270A
:100C1000362925352A2637292738302C422E2A41D5
:100C20002B25382C283D292437342A39352E3C31C0
:100C30002E37342F35342E3736313C3D393F38335B
:100C40003C322C3A383241342E39322B332F29376B
:100C500038333B2F3139262737362C3D322A32376D
:100C6000343A343037353139322B36312A34352560
:100C7000353627382C26342D2735352A3A34253574
:100C8000332838302C3E282938262A332826382E77
:100C9000263F3028372D28322A25372B24302D2780
:100CA000342B2A3A2523312B252D3028322A213185
:100CB0002D2336322B3928222A28242E26232D278D
:100CC000212C3128342E2531261E2A281F2D291F9C
:100CD0002F281D2D261B2B2C2131291E2E271C2CA5
:100CE000231B2C231E29231F26241F259E9CB699D7
:100CF0009AB59998B69995B49895B09694AD959300
:100D0000AD9693A9928FA5928CA4928BA3928DA558
:100D10008F8BA7918DA7948DA7938CA89390A99260
:100D200090A3928FA1938CA391899F908A9D8D8A85
:100D30009C8B8A9E8C8C9F938B9B938B9B8F8C9E82
:100D40008C8BA18E8A9D9189958E87958B86988CA8
:100D500084978F85978F83938F86968D88968B82C5
:100D6000908B7C8D887E8A867C85867985837B8541
:100D7000827A837E74817D72817F727D7F74817CB3
:100D800073837E74827E76838074838173827A70AB
:100D90007F7A70817B727F807A858179897C758783
:100DA0007C74887E768C7D788A7D798B817D91803C
:100DB0007D937E7B93827E96847F95877E978580C8
:100DC0009C8683A28789A9858BAF8990B89096BDB0
:100DD0009599BF9297BE9298C1929AC78F9AC792DF
:100DE0009BCC949DCC919AC8919BC6919BC5939D99
:100DF000C8959ECA95A0CB96A0CD959FCD929FCE2B
:100E000094A0D196A2D395A3D494A5D594A5D79711
:100E1000A7DA99A9DD96A9DE97A9E09AAAE29BAC88
:100E2000E59CAFE79DB0EB9BAFEA9DB1EEA2B6F4B7
:100E3000A5BAF8A7BDFDB0C6FFB6CBFFBAD1FFB9C2
:100E4000D1FFB5CCFFB3CAFFB6CCFFC3D9FFD1E801
:100E5000FFB4CAF496A7DF8F9CD2929DC7939DC121
:100E60008F97BC9299C38F9CC58C9BC18A94B98B78
:100E700097BB8793B8878EB68A8FB7868EB0828AE3
:100E8000AE848CB3838CB3858EB3828CB17E87AEF7
:100E90008189AF8794C996ABED92A8EA8B9DD487E0
:100EA00094C78B9DDA98B0F49EB7F897B4F699B3CF
:100EB000F49DB3F29EB5F4A0B8F7A1B9F89DB7F5CB
:100EC0009CB5F39DB6F39BB5F09CB6F099B4EE9744
:100ED000B2EC97B1EC98B1EC99B1EB98B0E698AF61
:100EE000E698AFE797AFE699AFE59DB0E7A6BAF30E
:100EF0008389AA7469757A6D7567595D614B506015
:100F00004B4F5F5357594F5456484D51434B4A40EE
:100F10003F4F423A5B454B51423B5A585C635F84BA
:100F200045334354465355546D4B49645546553CDF
:100F300029301C0B1427151C2A191C2716182414D9
:100F4000152314152E18182511181C120E1C100C20
:100F50004844634D4D744649634E567C4D51773A33
:100F6000425C3741523F40653F38733B3B67474BDC
:100F700068473A4F2F253418232F1B2731201F2471
:100F8000251F2529262C1F20271F1F2918151E3035
:100F90002A3C6A677F47445018090A4635413B346A
:100FA0004D3735515056731C1F2D25263847466A3C
:100FB000747EB295AAE3626C967176987F7E9D9658
:100FC00094A69997AAB9B9C663596A40364F423E6A
:100FD00057423D59514B635A546A5C57715F5A6F7F
:100FE0005E586E5E596E605A756963846B64866E76
:100FF000678676769A7C789E63556B4D3C45645740
:1010000065463E442C2226352A2D2A2222342E32B1
:101010004F4B56635C6B7E7A8B7E82958F90A3C418
:10102000C1D7A1A9C4909EBAA8ABC1C2C2D0C3C245
:10103000CCC1BFCDABA6B776788A6A6F875F5F7683
:101040004F4D5B615C6C67637C625F795E5B716B6B
:1010500063806B5E80615B766A6C846E7193707482
:1010600094666A845E5D786E6682625774635D7BA7
:1010700056536E514A6B5E567A6D66865E577C5D3E
:101080005B8259598268628A5C5678625B875D5DD3
:1010900076635F81958FA760617543425E5451729C
:1010A00063638752517755517A60597A706E885FC1
:1010B0005F7D76749056567A5C5C8577749D6D6B17
:1010C000954E476E564D6E5B557756527B595883F9
:1010D000666685534F70605E824D476A241B393DBA
:1010E0003852514D5F4D4554362E403E37523632C0
:1010F000514B4865504C602D27374C485D44435454
:101100000C0D1A060312191728363548554C68611C
:101110005A7A5F607D4E4F665453675E5D754241FB
:101120005D5A5A765655716A68857F7B9C52496B29
:1011300054476A463D5B3D3A56413F58483F5B55F0
:101140004B664F4C644A45613C35533B334E383215
:10115000483230463030462222331C1B2A1E1C2FB8
:101160001D1A2E1C192C221D30201B330D0A1C1891
:101170001525211D33211C301E1B31110F220501A5
:101180000D1715241D1D2F2220331A192A1F1C2E5E
:10119000241F32110D1D1C192E28273A22202A2621
:1011A0002132282636232030262230312C3A292796
:1011B000382621352723362D2B3D3230452F2C4123
:1011C0002C28362D2A3F302D43332D3B37324039E2
:1011D00036413532393D38433C364339343E3B366F
:1011E000423730413A344438313D362E36372F3D80
:1011F0003A303A312A35252336292536312B3732F4
:101200002D382E2934302C37322B39342B3C362BC9
:1012100039342936322A36302834332A3737343EA7
:101220003A37423A334429263621242F2A2A382EA7
:1012300025392F25342F262E2E27343028312D25E1
:101240002F2C263827222C2F282F3028352D2337D6
:1012500031253B2F25352A23292B262F2621302BDC
:1012600024323127372C2232241A2A261D2C2A23F5
:101270002F27212C271D29271E2A261F2C241C2C12
:10128000231C2D292330261F2B231C259998AD962E
:1012900095B09B99B69894B19C96B29894AD96935C
:1012A000AA9693AA9290A5918EA3908CA2928BA3BA
:1012B000928EA68E8DA29790A6958FAA928DAA93B4
:1012C0008EAB938EA8938BA39288A09289A1908ACB
:1012D0009F8F8BA08F8CA1908CA1928CA0908CA1C1
:1012E000908EA58F8CA08E89988E84958F86988CF1
:1012F00087998D86968E86959086968E86958C8417
:10130000928F8190887F8C887E888377827E767E9C
:101310008078817E75827D738181747F8176827F02
:1013200076857D78857A78847A73817C7280757110
:101330007E7873827D78817D78847F788A7E7789D4
:101340007C75867D74897F798B7F7C89807E8E7D9C
:101350007B8D807D92827E93848192858097837F2E
:101360009A83819E8687A5878AAC8D91B89096BD19
:101370009297BE9298BE9399C0959CC6919AC69139
:101380009BC9939BCA949DCB929CC6909BC2939EF3
:10139000C595A0CA94A0CA95A0CB96A0CD959ECD88
:1013A000939FD094A1D199A3D396A5D495A4D59A6F
:1013B000A8DB99AADD96AADC97A9DF9AA9E29AACE4
:1013C000E39AADE49BAEE69BB0EB9EB1EEA1B4F226
:1013D000A5B8F5A5BBFBAFC5FFB4CCFFB5CEFFB636
:1013E000CEFFB4CBFFB5CAFFB6CBFFCADFFFC0D775
:1013F000F98798D38895C9939FC5919CBB9099BB59
:101400008C96BC9199C48E99C38A96BD8C94BA8BE4
:1014100095B98893B98A91B98B92B8878FB0858C2A
:10142000AF878DB3868EB3838BAF838AAD8288AA54
:101430008086A8838FBD8B9FDC8FA4E38E9FD88886
:1014400096CD8FA2DF9AB2F59BB3F699B3F69BB314
:10145000F4A1B7F69FB6F59DB6F5A1B9F7A2B9F814
:101460009FB7F79CB5F39AB3F099B3ED9AB5EE9A9E
:10147000B4EF98B1ED96AFEA97AFE898B0E699B0BF
:10148000E797AFE696ADE59AADE49DB1E7A5BCF46C
:10149000828AAB706773796B7369595E675257665E
:1014A00050535B4C5158494F5C4B4F4F40424F405B
:1014B00042514245524248463D3E55535E6B698219
:1014C000584D5B514B624C4E724A4666584A573DE6
:1014D0002D241D0B0928171D29181C24141326144C
:1014E0001228181823151E22142123110C1D060082
:1014F0004538494543673D4460414A6B494A783F16
:10150000446C3B3D5842476243486D3E42674E52F1
:101510006B443E50292434252C3A22283719181FB1
:101520001D171E2521291E1E261C1C281814212EBD
:10153000253B67607B4D48551F11114133393E3AB9
:10154000461E1B2B484A66181B2C30304857577DC7
:101550006B76ABA1B4F167729E454C6C666685AC48
:10156000A9BBB8B5C7A9A9BA554E62372D463A35B9
:1015700049514C5F595465524F605E58725F586EC6
:101580005B55695E586E645C776C658469618569DA
:10159000648B797DA576789E5E546A51464E5C5583
:1015A0006042393F2E232732292A28212139343716
:1015B000504B57605D707A7B91777C939294ACB777
:1015C000BBD57F8CAC8C99B8BCBBD3CFC8D9B5B1D7
:1015D000BFC1BCCEB4ACC4817F94767C8B6264778F
:1015E0005B5B6B5E596D655D7C615A796F6875797F
:1015F0006F836D5F7F716887666380696A856B6BD7
:101600008A646083655E7E6E63806F6381726987C2
:10161000544E6C5251725454776B6C886E6C8D6260
:101620006387575A7D635B80615879645D8461602C
:101630007D5959777D7B9355577269688569678AAB
:1016400053557C5C61815D5B7F68628561617F73FE
:10165000719573708F61608865638B76739C7B7BFB
:10166000A4656287554F715B56765B567B626286D6
:10167000515873626080615C7E2A223F1B122837BA
:10168000384C484A5D413C4B3B32493B36542F2E47
:101690004D4C4C673D3C473B39434747572D2C3811
:1016A000030105110B150C071307030C1A11233343
:1016B0002B3F423F524B4A575956644D4F6B52563F
:1016C0007956597D474866767692807DA15452724C
:1016D0003E3A553F39543E3C56302F4941355253DE
:1016E000476549445C44424C342F412D244519142C
:1016F0002D1A1A2A25273B21212E181526161426C5
:101700001515241E1C2C1D15231915291A1B3022F2
:10171000253A28253C110B16191527151027120BF1
:101720001B100C1A141222110E1E1614261D1B312A
:101730001A1326090410221D2F2A26382C27342795
:10174000213126223229263027222B2F29352C28F9
:101750003A2F293D302C3D2B28392D283E36314754
:10176000352F3F2E2B3F322E453932423D38463AF7
:1017700037473835413933403831423933413932CE
:10178000433830443931443B3442332E38342D3CD5
:10179000392A373527342D27392E2B3B312C3A2F38
:1017A0002836312838312837372D3D382D40342E12
:1017B000392F2C322E2730342A343C323D363840F3
:1017C00035393F362D3C2C24352C292F2C2A2E330D
:1017D0002C383329342B22282D242F31282E31293F
:1017E000302E28332B242C2C242D2F253531273730
:1017F0003027372B222F2C242728232B2823342F44
:1018000026372A21312A21302A20312A2231252245
:1018100029262325262223211C2325212C231E2F84
:10182000261F31271F30271E2E291F2E9A97AA996F
:1018300096AE9896B29894B09991AD9A94AB9592D1
:10184000A79390A5918EA2908DA1928FA3978FA61A
:10185000938EA58F8EA49891A79992AC9691AD95F1
:101860008FAD938EA7928D9F91899D948A9F958D20
:10187000A0918999948C9E8D8CA7938CA3988E9F10
:10188000958E9F918B9D908A9B8F8A998E88998F38
:1018900086998F83959186968E88978985958C8376
:1018A000938F8291867E8A887F888479817D767CF9
:1018B0007F78817E76837B71807F737E8075818166
:1018C0007A897C76877773837B73817C7280787367
:1018D000807974807C76817D76867E768E7C758933
:1018E0007D768481778880788A7F7B897F7C8B7EF8
:1018F0007C8E7F7C91807C92807E917F7F948280A1
:101900009C8483A08586A3898BAE8D8FB78B94BD75
:101910008F96BF9197BE939AC09399C09499C093A4
:101920009BC6929CCB939CC8959FC8929DC4909B4C
:10193000C2949EC7949FCA94A0CA949FCC949ECCF4
:10194000959FCF95A0D1979FCF96A2D395A5D497D9
:10195000A5D698A7DA95AADD98AAE099A8E29AAC4C
:10196000E398ABE298ACE49CB1E9A0B2EEA3B2F08C
:10197000A4B6F4A7BCFBACC2FFADC6FFB0C8FFB3B2
:10198000CAFFB4CCFFB7CFFFBCD3FFC5DAFF98AC1A
:10199000E18893C8979FC7959CBE969AC48F96C3BB
:1019A0008A99BC939BC49098C68A95BD8D93BA8C36
:1019B00094BC8B93BC8A90B88990B6878FB0858C85
:1019C000AE868CB28B8EB68B90B4848DAB8088A59E
:1019D0008184A37F8AB3889DD391A6E28FA4DC8CF7
:1019E0009DD292A5E19CB3F89FB5F99FB5F89CB341
:1019F000F49FB6F49FB6F5A0B7F6A0B8F8A2BAF96E
:101A0000A1B9F79EB6F59CB5F29BB4F09BB5EE9AE2
:101A1000B4F098B2EE97B1EC96AFE897AEE498AF19
:101A2000E597AEE697AEE699AEE499AFE4A4BEF6CC
:101A30008F9BBA6D6873776C736A5E616150546591
:101A40005153594B4E5345495C484D4D38354F3BEA
:101A50003F4E4350453E44483B4B69576C524143CF
:101A60004F4047514B664E506E4A4862564B5D3967
:101A70002A2B200B032816172314162715102916B6
:101A80000F27171B1F15152014132D232A2F2C3A4F
:101A90004A475C484A631E2A41272F4751567B45D7
:101AA0004D75473F684243623C476641436A545024
:101AB0006E40465B21283A2826371B1B2A15121D2B
:101AC0001D171F2A262F2525302122301C16273FBF
:101AD0003748686275473D4D12090E3030364D4C1F
:101AE000551A12192F2E453734513C3D6052577C00
:101AF0006672A7AFC0FF6D7CA81F2C409492AABE4F
:101B0000BACAC6C7D49DA1B041394E382E45474404
:101B1000534E4B58534F5C504F5E605C73736D83F4
:101B2000605A6E5D566B68627C6860836C65866E19
:101B30006C877378987677975B506452454E5C5308
:101B40006043383D2D20233226282C2524312B308C
:101B5000463F4F605F7474798F74768F848BA3B621
:101B6000C1D98F9EBE828FAFB6B7CDC9C4D4CECAFD
:101B7000D7C7C3D59795AC89899D7377895A5E7706
:101B8000565971605E786E678352495E615367840F
:101B90007B8E68667B66627E60577A6D678566635A
:101BA000826861826E68866E6A867470896C657BF5
:101BB00069607C645F885254796C6F8A706E8E7F26
:101BC0007A9A6E6D854F4E6F5D5A7C616078636165
:101BD00085575571726D8864628A5E597C776F97FC
:101BE0005F5F8B585D7C6C66876F678D5053726F3B
:101BF0006F978D8AA86C6A906260817B779B5E5E2E
:101C0000866B6C90646487615F825856754A49643C
:101C10004A48626260814446681F1C35261E333381
:101C2000364B44495B37333E483A533229453431C9
:101C30004C473F5639373C42464F35384A151521F7
:101C40000300010E050F150A1A1D14200E0C1309AE
:101C5000070C050106120E182726332C2A3F3B3E9F
:101C60005931344F151525302F3A2F2D411F1E3075
:101C7000140F1C2119263232423133473D324A3982
:101C80002D4B312941342D38221E27262336332F60
:101C9000472C2944201E321C1621251B2E181426E1
:101CA0000D0C18100819140F21221F352221332082
:101CB00021301513281A1828221D300B05150B0486
:101CC0000E140E1707050F0000041410211F1D30FD
:101CD0000F0A150C080A1E1823271E303024342939
:101CE000212F231E2C35313A332C332A232D322D2C
:101CF0003E322A3C3A34432F2A3A302A3F322B4292
:101D0000342B3D352F3F3933403E353E4139453D3B
:101D100035473B34453932423934443C36443B3311
:101D200044352C413730433C35462B2838302F4042
:101D3000333039352D36312A3E2F293B332C36307E
:101D40002932352C37372E383A3039382C3B342A63
:101D50003629242D29262E3D373F372F3830293379
:101D60003232372D2C372C2538302931332D2F3571
:101D700031372D272E2B242B2B26343029332F2996
:101D8000302A29352C26312C22302F25352C252E92
:101D90002E272D2B23282B232326202B2722342DBF
:101DA0002434281E2F2A21322B2033271E2F2521B1
:101DB0002B2A252A2A252528222828212F292133A4
:101DC00024202D251D2B281C2B271D2B9C99AD9ADB
:101DD00098AE9594AD9792AD9791A99993AB969340
:101DE000A99291A5928FA7908FA4908FA1918DA376
:101DF0008F8CA7908DA99992AF9C94B49A94B59822
:101E000095B29593A88F8C9E8D899C938CA0918A76
:101E10009C90889991899B908CA3938DA2948A9B86
:101E2000928999958D9E948B9D8E8A9C8F8B9E9284
:101E300087999084959285968F88978986968982CE
:101E400094897F8E847B87837B8782798580778363
:101E50007F757E7F75817E72807B6E7A7D717D7FDE
:101E600075847E71807E73817F72818072817C73C4
:101E7000817C74817C75827E798A7F798D7D77857E
:101E800080798381788680798A7D7A8C7C798C814F
:101E90007D92847E93827C92827C92817F96807FE9
:101EA0009A82819F8383A28888AB8C8AB48B92BEEE
:101EB0008D96C09298C09399BE9297BD9395BD940C
:101EC0009BC6959FCD909AC6909CC5919CC5929FAC
:101ED000C8919CC7929CC895A1CD95A0CD959FCD4A
:101EE000979FD198A2D396A0D095A2D395A4D5942C
:101EF000A2D498A6D896A9DA96A9DC99AAE099ABBB
:101F0000E09AACE49CAEE99CB0EB9EB1EDA2B3F0DC
:101F1000A4B7F4A8BBFAAABFFFABC2FFB0C7FFB219
:101F2000CAFFB5CDFFB8D1FFBCD5FFBBD2FF8BA098
:101F3000D98D97C0969EBF9399BE9299C48E97C330
:101F4000929CC7929AC78F9AC38B96BD8A91B88D7F
:101F500094B88B92B78B91B78991B5848CAE828AF5
:101F6000AC878DB1888DB2858CAE818AA97F85A31F
:101F700080849D8089AE8B9CDB92A7E790A5DB8D4A
:101F80009ED68FA2E29BB1F79CB3F79BB3F69CB4AD
:101F9000F59DB5F39EB5F49EB6F5A0B8F7A1B9F9D5
:101FA000A0B9F89FB7F69DB5F29DB6F19BB3EF9A35
:101FB000B2EE9BB4EF98B2ED98B0EA98AFE797AE67
:101FC000E598AFE696ADE597AFE59CB2E8A5BCF322
:101FD0008993B469636E7468706B61626356536011
:101FE0004F5057474959484B574145523F3F564636
:101FF00052493D563E394F483D5A523D593F283788
:102000004129344F48594D536A4542565646553B2F
:10201000232D1C080425161125171425130F281627
:102020001425161A271A161A0707453A576B75A36F
:102030004F58803B3A5C455075545C854B4A72471B
:102040004F753F40643B4469364468403F664B48A7
:102050006A4347632C34491D202E19161C150F1492
:102060001B181E302E392F2B3E262034221C3143C4
:102070003E4C67606B3F3442190E18292533565188
:1020800060281E2C19162930324C46496E51537D5A
:102090007C88C0A1B4F53B4466505D72989FB79BA5
:1020A00098A6C2BFC59E9FAA3D364C3C33494744C3
:1020B0005248435157536259596C625E78746B8130
:1020C0006961765B53686C647E6B64847067857449
:1020D0006E866F718E7A77995C4F6152414662527B
:1020E0005F42333C27192031252A2D26282C293000
:1020F0003E3E4A6163717575876B6B808E94AAB39F
:10210000BDD78D99BB8894AFADB3C5BDBECDC7C893
:10211000D5B8B7C69A98AC8C8CA3595B6E5D5D77C9
:1021200067667F6160796B697F5C566A574D6B7A31
:10213000768C80809163627B5D5A7E6C668F6A5F6D
:1021400088655B8069668270718961637969667F81
:10215000777291776E9958537E565B7B6165807C70
:102160007D9A6967845253736563875958776461B0
:102170008B504D697773867D779E4D466F635A8588
:1021800065618C555575625D7F6764845E608066AD
:1021900066888A88A4585380736F97827F9F504EB9
:1021A0006F615F875F5C8765628946436745426808
:1021B000615C7F5A517A36335C302E4F3E3951453F
:1021C0003E56433D5238323C41394D2D2B453D3D25
:1021D000593E3F503E3D443D3D4C3A3D5119192436
:1021E00000000010050E1106151F18231A19261CD1
:1021F0001A28140F1D04000E1210210E0B1A1A19A2
:102200002A2B2A3C140E130400000400040E070EAF
:102210002C1F28221721150F19252330372E402176
:102220001A2F2C273C332A3A2D283013121A1D1C42
:102230002E28243C1C18280C061023192C140E20C0
:102240000B06140F06170E0E231F203323202D1C00
:10225000172319152722213824203505010B0C08D6
:102260000F27202C181320000000110C181E172B0C
:10227000120B141713120C090F1610212E273827D2
:10228000202F29262F3B373C3933393029333A3038
:10229000423C33423D394436303E38304331293EAA
:1022A0003C34464039433D363C3F383C3C353F3C6E
:1022B00034414134424032433F3847383340343070
:1022C0003E3832423B334439303E3A313F35323F7B
:1022D000312B353A313C342F3A332A34392F3831C7
:1022E0002930352D333A333D39313E342C383B31AA
:1022F0003E362D3B3A384334333E29212F3528379B
:1023000037303B322D3C2F26382E252B352F3230BF
:102310002B382825332D27342B28342A2730272300
:10232000302624382825362D2434322B37312730D7
:1023300030242A30272D2B222A251C2C2721352812
:1023400022362C24342D2331261D2B252029242010
:1023500026271F28292229251D2428202C2920341E
:1023600028203326202B251C26241C279999B0933E
:1023700093A99492A79693A79693A89490A89392C2
:10238000A59391A69390AC9190A58F8EA08F8DA5CB
:10239000908EA98F8EA79491AE9C97BA9D98BD966A
:1023A00096B19293A68F89A18E8AA18F8DA18F8AD3
:1023B000A08D889E908CA1978E9F948B9C90899CD9
:1023C000948EA0948EA0948F9F968EA4938A9F90B3
:1023D00089988F87969087969288918F88928A8421
:1023E00094897F8F897E8E857C887F78857E7883AF
:1023F00080777F7C707C7F727D7E707B7F747E7F38
:10240000748181737F81737C7D727E7D74827E7521
:10241000847E78857C78887C77887E78877E7A82CF
:102420007E788081788581798B7F7B917F7B91829B
:102430007B91847B90827E90848093878097807E3E
:1024400097807F9C84829F8984A78D88B28C8FB966
:102450008F95BD8F96BB9398BD9499BF9294C0926F
:1024600097C5939ECA919CCA919BC9919BC794A200
:10247000CE919FCD939DCB939DCB939ECB96A0CE9B
:10248000969FD196A0D295A3D393A2D293A1D3978E
:10249000A4D798A5D899A7D995A8D999ACDC9CAC14
:1024A000E09CACE59CACE99DADED9CB0ED9FB4EF3C
:1024B000A4B6F4A7B9F8AABDFDAEC0FFB0C4FFB181
:1024C000C8FFB3CBFFB6CEFFB8D0FFC3DDFFA5BFBB
:1024D000EF8691CC9297CB8D96C68895B9939CBC8C
:1024E000989ECF8E99C98C98BC8A93B98B93B98EDC
:1024F00094B28C91B1898EB3878FB0858DB3838B65
:10250000B0848CAC858DAF838CAF8189A78285A682
:102510007D849A7E86AA9BA4EF9BACF5899BD48F81
:10252000A0E19AADF49CB3F699B3F599B5F69AB3D8
:10253000F59DB5F59DB5F49BB3F29EB6F4A2B9F93D
:10254000A1B9FA9CB5F29DB6F19EB5F09BB3EF9B95
:10255000B4EF9CB4EE9AB1ED98B0EB97B0E797AFBB
:10256000E699B0E797AEE594ADE498B0E8AFC1F670
:102570008B91B46E636B76676C64585761554E618E
:1025800054515F50515444474F40444F4447534681
:10259000484A363F3E2E404131433C293934253E9E
:1025A000432E434D465147526D434159544651378E
:1025B000282E1B0C1126161424140F24151525156E
:1025C000182413162415181F0F1040314440446579
:1025D000323B5D56577F5B6F9A4E628D4B47724C14
:1025E0004D763C41603A41693E42673B4361424A15
:1025F0006B4C4868313349222E37231D1D22181792
:10260000181517201D28362D462D223F2621364726
:102610004658646070372E3C180C171B121A595814
:102620005D3E3A47190C211F2131595D77454669B6
:10263000565A7B3B42600700125C617E7084A19514
:1026400096A7D2CCD18D8C98362D4453485C4A4104
:10265000514E45555D546A5D5975625D79675F7984
:10266000665D785A516C665F7A6E66846F678473B4
:102670006D8C75759A7974995D52615041426251C1
:102680005B3F34402D242C322A2F2720252F2B323C
:10269000413F4561626E7372886C6E83949CB2ABED
:1026A000B5D57B84AC8C96AFB7BCC7C1C2D0C8CA05
:1026B000D4BCB9C3A49AAE87849A57586D716D86FD
:1026C0006D6A8062637563627667647E64617A6D49
:1026D000677F9285A08077955759757D7D96887C18
:1026E000A16C61895D5C7856576E51516A6C69893D
:1026F0007B7E9C847D9B72658C5150725A57738A85
:102700008AA5746D905F597C5A587E6967926360A0
:102710008847456266667369657E5A567B5D5B7E57
:10272000514D6C524C6C5D5C7B6062765A567661A2
:102730005E798A87A5756E9BABA7C99490AF484414
:10274000645C597D645F8A514D6E504C6958567C6B
:102750005D5F8668638D4A4770424B6B45496256A0
:10276000445F432D4842374C3332433737524C4B4A
:10277000673438454745523D3A5036384E16171F94
:102780000200000D02080E0810181818201B2C2932
:10279000253D252338211F2F201C3026283C2D2E97
:1027A00042312F471B1322110307120A100C060F88
:1027B00046424D5C5567140B1401000019111C4072
:1027C0003D4B2C2938372E3A3D343D070309080983
:1027D00010100D190B05111715211A17260D0918C0
:1027E0001B142619142411132311111E120F1B1769
:1027F000111F0A04131E192E2723360A0712141359
:102800001D2B2537150F1D00000008040C1B132875
:10281000150F190F0C10131016292534322D411DD8
:10282000192A2C2C333E3C3F353038302937392F8C
:102830003E3D3443403A47342D3C31283C3A324403
:10284000433B47413A3F3F373D433B433B394137A9
:10285000373E41353E4535443F3546342F393230D9
:102860003A3A36443F37433C313B37333A2F303BDB
:102870003F30433C2E3F2D30363735373F323B38E3
:102880002C37352C39352E3C37303F342D3D363002
:102890003F352E3D3431402F2D3E2B26362E283607
:1028A00033283736293C3024362F2A2D342D372D26
:1028B000273E2D293D2F27352E272E2B252E28214B
:1028C0003627213A2725392926332A262C362A313C
:1028D0003728312C25302D24352B1D2E2B20362743
:1028E000213826212C281F27261E252A2625262486
:1028F00025251F2A2A222E271F26231E28251E3281
:10290000281B37261F2F251E27251C2B9996AB9297
:102910008FA59391A59693A79793A99390A6908D31
:102920009F928EA39490A8928EA4908CA1918CA437
:10293000938FA69290A49393A89696AE9896AF94F0
:1029400090A5908B9D918BA1938DA3918CA0918C40
:10295000A1918C9F928C9E92859D95899E9991A123
:102960009692A09391A29190A49691A6948F9F91F4
:102970008B999189988F87969089918C868B8B847F
:102980008C8B808F887C8E86798681797D7F797922
:102990007E777F7C737E7D727D7C717C7E757F7E91
:1029A00076827E75807C737D7D72817D7283827874
:1029B0008981768A7E768A7D77897D76887E77851D
:1029C0007F77827F7685807689847A8D857D8F82F8
:1029D0007B8D80798C7F8090808391837F90807EB7
:1029E0009382839A84849C84849F8989AA8C8FB7DC
:1029F0008F94BB9195BB9497BD9196BD9395BE90D6
:102A000096C3909CC8949ECC929CC9939CC7959D5C
:102A1000CA949ECC929DCA939ECB949ECC959FCDFA
:102A2000959FCD969FD096A2D395A1D193A1D194F5
:102A3000A3D598A4D798A5D895A6D796A8D99BAA88
:102A4000DF9DADE49BABE69BACE99EB2EEA0B5EF9B
:102A5000A2B5F2A3B8F6A5BAF9A8BEFEADC2FFB101
:102A6000C6FFB2C9FFB6CDFFBBD2FFC1D8FFC4DBE2
:102A7000FF9FAFF4959FE599A2E2919ACB939CC1F9
:102A8000919DC6909CC68E99BE8992B78A92B78A4C
:102A900090B08B90B0858CAE858CAE868DB1838ADC
:102AA000AD838CAB858DAE848BAE7F87A87E83A4EF
:102AB0007E859F7984A89BA5EC9EAFFE8EA1EA9CA3
:102AC000AEF8A1B6FE9AB1F49BB4F49DB5F89BB4F0
:102AD000F69CB5F39DB5F49DB6F5A1B9F8A3BBFA84
:102AE000A2BAFA9CB5F29DB5F29EB6F19DB5F19AE7
:102AF000B2EE99B1EC9AB2ED96AEEA95AEE698AF29
:102B0000E598AFE697AEE599AEE599AFE6ACBFF2D2
:102B10008F94B370666C78686A6253535A4B4965F8
:102B200056576152545146484E46484B45464B40D5
:102B3000404B3B374C373650363C66516064617AC7
:102B40004F4E684343514C536F48455F5549563883
:102B50002A241E0F0E2515172414142211122515D0
:102B6000172312152013161F1313423C48464961C0
:102B700036395554597C49608C465C8C525C86438E
:102B80004C71434360434162414561434565474958
:102B90006C4A4B6B384156293841181F1F211E1CA7
:102BA000150D0E1B121B2C25392B283D241C2E46DF
:102BB00042555F6072352F3B1B141C241F264A4D63
:102BC0005450505C2919281C0F1E302E4339405395
:102BD0001413190D000013071225283E6A7A97A7CF
:102BE000ADC6C7C8D9818292382D3E5143544F4358
:102BF00055594C605F53695D566C5C5A7362617DD8
:102C00006C6A855C5A7564607E6A67886A678770DB
:102C10006B8A7070977271925A505E53444A635334
:102C20005D3B343E2F2A2F312A2C292025352C3587
:102C30004F454F605E6D727189797B929DA4B9AAF0
:102C4000B2CD9198B7A3ABC3B4B8C6C4C5CBC7CAFD
:102C5000CFB8B2C2877F927B7A8B76779274769365
:102C600064657E5D586D5F596A6664746B65796BE7
:102C7000647A675C786D62826967838788989896C2
:102C8000A785839A61627A5D5E77676681696280F3
:102C90008688A2777D90615B704A445C79708D9CD8
:102CA00096B166607D5B567B504E6E6D6E8B77760F
:102CB0009459587357546A5C5B745658754F4F6BF0
:102CC00057546F5D577057516C665F7C5752736CE9
:102CD000688B9590B59B99B2C2C3CEA19BBA5C5943
:102CE0007E4D526C595D7E625F835C55765A537699
:102CF00068678A5457762C344C32394C4544584BCB
:102D0000405738304E3D3A5A211F3E42425B4645BD
:102D100056332E3947425243435D363B4E15161CFF
:102D20000000000100000B070D1718181E1D291EBA
:102D30001D2D2323311B1A261514232C2C4230332E
:102D40004C2E3651191C2D0C060C170F190D05169B
:102D50003B344550495A0E0A100000000C080F443D
:102D6000424E3C3541483F473930370D070D020090
:102D7000030B060E100B140A0611100D1A14111F66
:102D8000150F1F120C1A100F19070512100A1A112D
:102D90000A1A170F20100C1906040F16121F17130A
:102DA0001D1C16250D081500000101000717172826
:102DB0001614201F17262A212F2F25343025381DC1
:102DC000192A312F393A353E2F2A35322D3C322BF4
:102DD0003B3E3546463C4D362E3F2E27383A314055
:102DE000443E423C35393F35404039433C3A453812
:102DF00038443734403E354438303F38343C323143
:102E00003A35303F3A353F383038362E3C38354544
:102E1000403147382B3E32314038313B392D323644
:102E20002E3C362F41312A30302727372E3A312B8E
:102E3000352C29302D2B38302D3D2D2A382D293297
:102E4000332F322D29312A26352E2E372D2A352C97
:102E50002638322A373228303127323227322D2491
:102E6000302C27342825372C283628252E2D282F9E
:102E70002D283127272F231F2B2C1F2A2E222F2AC4
:102E80002232282129281F2829202B2C24282F26CC
:102E90002C2A273026202A29202927212D201D2EC3
:102EA000231A31221E2F251E2B261C2B9994AA94FF
:102EB0008FA49390A49591A59390A5938FA5938F9C
:102EC000A1928EA09590A4918CA1908BA0938EA49A
:102ED000948EA4948FA39191A49192A59591A89872
:102EE0008DA3978B9F928A9F938CA0928B9E9089A3
:102EF0009B918A9C928C9E9189A29890A59A94A36A
:102F00009792A09590A39793AB948FA68F8B9B904D
:102F10008C9B8F8A998D86968F86938A838D8981E3
:102F20008C897F8D877D8B837A85827A7E7F797B82
:102F30007C747C7C717D7D707C7B6F7A7D737D7C05
:102F4000737F7B747C7D76807C73837F74867F73D4
:102F50008A7F728B7D748B80788C82798A80788767
:102F60008078867E748683798D867E8E857E90833A
:102F70007C8D847B8D827D8F7F7E90807E90807E15
:102F80009582829985849B83839D8587A78B8FB447
:102F90009095BA9297BC9296BB9396BC9599BF8F29
:102FA00097C08F9BC795A0CE949CC9979DC8999DAB
:102FB000CA949CCA939FCA939FCB939ECC96A0CD54
:102FC00095A0CE96A2CF95A2D297A3D396A3D29442
:102FD000A3D397A5D798A5D897A7D897A7D997A7E8
:102FE000DB99A9E09BACE59CAEE69FB0EAA1B4EF0B
:102FF0009FB4EFA2B6F4A3B9F7A4BBFCACC1FFB376
:10300000C7FFB6CBFFB9CFFFBDD3FFC1D6FFC9DF26
:10301000FFC8E5FFC7E0FFC6DCFFA5B8ED8794C594
:10302000919BC8929CC68E98BA8C93B68B91B387AD
:103030008DA9868DAB868CAC888FAF878CAF858B46
:10304000AC848BA9868DAB8188AB7E85A77F82A35C
:103050007B809E7A84A9919BE3A3B4FFA3B6FFA0D3
:10306000B3FF9CB2FD9BB2F49EB6F5A0B5F99EB538
:10307000F89BB3F29EB5F4A0B8F7A2B9F8A3BAFAD8
:10308000A1B9FA9DB7F49EB6F29FB6F19BB3EE9B41
:10309000B3EF9BB3EF99B1EC97B0EB97B1E998AF71
:1030A000E697AEE695ACE499B0E69CB2E9A8BEF12D
:1030B0008B92B6706571796A6C7060625D4B4C5F23
:1030C0004D505C484D5A494C5A4A4F4F41434B4131
:1030D0003948393446302F583A44846F7C7D7B938D
:1030E00058526D48404F464B6852516F685C6B3880
:1030F000231D1F100F281A1C281A1B25171623140E
:10310000152516192415191B1010413C4649455622
:103110002E243950567851628D565E8E58648C49F3
:1031200051754345643D44623947643D40624142C4
:10313000654C4F6F3C425A272F3C151A1E18171624
:10314000170D0E24161A2D29322C2C3A2C2331530C
:103150004B5D645C712E2130190B141D11192F2742
:1031600032615F6A3232311F1821221B36302E4AFB
:103170001915270F061015081327243A8B9AB86ED5
:103180007998B1B6CE8E8A9A3C343E3F364350464B
:1031900057594D63574F6565627565657B63637EFF
:1031A000676680605F796665806666846865856845
:1031B00063837778A0737492564C5954464E5E5090
:1031C0005B392D372B20263026292E252A373238F9
:1031D0005D5A6369697C78799183839CA2A7BAA5BB
:1031E000ACC5898FAAA3AAC4BABDD2CECED3C6C558
:1031F000CEA299B18D869F999AAD7E7E9668708891
:103200006A708561596D5A4F625C576D6460765A79
:103210005A6A4E4E596F6A7E8684A17E79A0858156
:103220009D6B6D8065657F737290777491746D8608
:103230006762796B657A6058684F4B60756F8F77FE
:10324000749156567266628956557462657F6D6FC9
:103250008B6465825753715D597C59597B4A4A6D1D
:10326000605F7E635F7E575374636388696A8D6BAA
:10327000668D8781A8C5C8D5A5A9BC7875A36D67DB
:10328000904746615C57795C517B5750768683A89E
:103290006C6B932B284C2C223B6B58676354632533
:1032A000223631334A3938593B375C4A495F27283F
:1032B00032403C4A49465A484961373952252539F6
:1032C00006060B0000000E0B0E1410191B18241B11
:1032D00019281C1C2A0C0916150F1F201D32292E17
:1032E00045323E58222B3B110D121C121A0C0613AC
:1032F000251E2F433C4E1512190000000000031735
:103300001420332E3A453D47251D290B070E00009A
:103310000009050C18131C0D091108070F0D0B15DA
:103320000F0A170A06120803090F0914110A1B0FC6
:10333000071A120B1C08040D03020609060E140ED0
:103340001A140E1C110C19130F160202081715225D
:10335000241F3030263B282032201B2828233128E8
:10336000203339324136303D3029383830413D350F
:10337000463F36433F35433D3644352F3E3D34438B
:103380003F37403E36403F35423F37453A35423C75
:1033900036443C35443E3545382F3F382F3E3B348C
:1033A000423A32413C33423B323E35303937343D8C
:1033B0003A303D392F3D333139322D343B313C36B3
:1033C000324130323C312B3234282C3730332E2BE3
:1033D0002E332F35312B3B312C3E2E2A3A2D2B33D9
:1033E0002F2E2E2C292A2E2D3A3131412B283630E2
:1033F0002631372A31342830372B392F25322D27E3
:103400002A2927292323302C26372C28342B273010
:1034100026242E25262E2B242F2E232A251E262930
:10342000213027222A2D2532281F2F2B1F2B2C1F1E
:103430002722202823212A261C2727202A22212C44
:10344000241E2D201F2A211A27251C2A9A95A89868
:1034500091A69791A29592A19491A4918EA39590F3
:10346000A2918D9D918D9D938DA1908AA09590A301
:10347000938DA2918BA19190A09494A7928EA598E0
:103480008CA3978A9E92889B958C9E948D9F928AFE
:103490009C8F8A9A8F8B9B9090A49494A59995A6C3
:1034A0009B96A89991A39B90A5948DA3918E9F9193
:1034B0008C9D8F889B8A83968D85958B81948B813B
:1034C00095867E8C847D85817B817E777F7D747EF1
:1034D00080747E80717D7E707B7F717C7E6F7A7C54
:1034E000707D7C747F7C74807C73827E74867B703C
:1034F000867D728A80748C81758C847B8C827A87BD
:103500007E76837F74897F788C817F8C83808F86A1
:103510007E90867B8F877B91867E93817F94817F4F
:103520009883809B85819C84839E8285A5878DAEB0
:103530008F93B69093BA9296BD969AC19299BC8E8B
:1035400096BF919BC9929DCA949CC9999FCA979D09
:10355000CA949CC9959ECA959FCB939FCB949FCDAF
:1035600094A1CE93A1CE96A3D297A4D496A3D39997
:10357000A5D599A7D798A6D897A7D995A6D897A73C
:10358000DA98A7DC99ABE09AADE39CAEE6A0B1EC8B
:10359000A1B2EFA2B6F2A0B7F5A2BAF9A9BFFEB2E6
:1035A000C5FFB7CCFFBCD2FFBDD4FFC1D7FFC4DB82
:1035B000FFD2EEFFDAF5FFD5F1FFACC5FA8D9BD453
:1035C000949EC8929BC28D94B58C92B28B91B1851A
:1035D0008CA6848BA7858BA9888DAB898DAF878DB1
:1035E000AC868CA8868CAB8388AB8186A57F829FB6
:1035F0007D7F9E7982A6939FE2AABAFF9EB1FF9E2D
:10360000B1FF9EB2FE9AB1F69FB6F69EB4F79EB495
:10361000F89FB5F59FB6F49EB5F4A1B8F6A4BAFB31
:10362000A0B7F99CB6F39CB4F09FB7F29CB4EF9BA3
:10363000B3EE9BB3EE99B2ED98B1EC97B0E899B0C8
:10364000E798AFE798AFE699B0E897B0EAA6BEF87A
:103650008B97BF69616F7B6F716F65685C51545F59
:1036600050555F4D5359474C57444B4A3A3A4C3D9D
:10367000374D3E3F4132395D435367505F6F667748
:10368000533E4E4435414C51714A4A695B4B5B3D58
:103690002123200E1326171B251718241716221472
:1036A000142414172312161C0C0E49404C49405088
:1036B00023152451527059648D515B8457678B498F
:1036C00050713F42663B42643643673C42633D3F34
:1036D000614A4E6D41415B352D40322A36231F2011
:1036E000130B0B2315192A242B35343F2A232F5370
:1036F000495C645C712C1F2D24171C352B302C2544
:10370000325B51605B5056191A2333364E3B3A55A3
:103710002320331E1A261D1222332B413F486438C2
:103720004264AAB1CA827A89372A34473E4B4B4158
:10373000524C3F5555496166617667657D68658085
:1037400065637D5E5B7567647F6B6A866966816AA7
:1037500066897879A671748F534D585445525C4FE1
:103760005C382E342C222630252A2A2125352D3569
:10377000524B596E6C7E7D7E957C7C94A0A6BBA836
:10378000B0C9858CA89AA1BABCBED1D1CFD4DCD7A0
:10379000E0BFB7CB9A93AB9293A4777A8B596074BE
:1037A000666A7F635B72695D766B65806A69804D6E
:1037B00050655D5C7286809B72718E626080716FF5
:1037C0008D5C5B7B686488646083615E7B878094CA
:1037D000625A705D58745E5E72565871696688638D
:1037E00055796C63846C6891636383656883515514
:1037F000745A5B7E5F5C8165608467648857577923
:1038000060617E565975686D8E6C70965355735B0A
:103810005572837992C2BFCC8081A35E5D8B888410
:10382000A17A748D6A5C7E53456A5C5C78747A9583
:10383000564E7D3B365E473E587161704A3B491F8C
:10384000192739384A363150403A5D3636493133D6
:103850003F4141584042563D415230304F44416310
:103860002C2B430000000F0D0F160B1D1A142122E4
:103870001C2D231D311912261D1525262133292E15
:103880004137425A292E400C060B11070C0D080D2A
:103890001E1B2228242F1A131E02000300000208F8
:1038A000071223202E2E273818142404040F010099
:1038B00004030004120D16130E170A070E0D0A1248
:1038C0000E09161008160C040B09020B0B04120E3D
:1038D00007180903120A040F0905080100020E0760
:1038E000140B0612120E1619151F09030B1E1521B3
:1038F000271D2F261B302B243723232F24242F2C46
:1039000024362D2635342D3C312A3B3731423F3980
:10391000483C36393B37383B36403A324542394FDE
:103920003D34463D35433A33423C344342374641C9
:1039300035434033444034473E34463B31403D31CB
:10394000433C30433D32443A314035313B342E3AEA
:10395000352D39352D3B352E3B38323F3B31463501
:10396000333B313331322C39372D402F2C282C2941
:1039700029322D3A32293B372F44322C3E2C2A361D
:1039800029272D2D27292D28332E283C2A23333370
:10399000262E33262D312932342A392E253227235B
:1039A000242624262E2D352D27342D263531283951
:1039B0002F253526242D2D232D2C252B25222D2A70
:1039C0002335292632252331251E302B202F2B1E6F
:1039D0002D29252F1F1E27201A24251F26262327A1
:1039E0002B262B24222A231C28271F289E95A99C9E
:1039F00093A59892A2938F9F9593A3918FA3918D56
:103A00009F938F9C928F9B918C9E8E88A0918DA06E
:103A1000918C9F938DA2928F9C908B9B8F8B9E916C
:103A20008B9F8F899993899B92899C918B9C908C79
:103A30009B928E9D928F9D90919E9292A29791A81B
:103A40009C95AE9892A6968F9D928E9E8E8B9A8F05
:103A50008A978E87978D84968D84948B80928B80A5
:103A600096887E8E837B888079837F757E82767C44
:103A700080757E7F717D7E717B7E717C796B7679BE
:103A80006C797C717F7B707F7D74837C73847C74A4
:103A9000867E77897F748784778B847A8C837B8911
:103AA0007F77847C76877E788B827C8D837D8F8404
:103AB0007C90857991867C93857F968281968281A0
:103AC0009A84809A84809883829C8286A4898CAE12
:103AD0009092B69395BC9496C09499C0929BBD8FDA
:103AE00097BF9098C6939DCB939CC9949BC7939D79
:103AF000C994A0CC949ECA959ECA96A1CC95A1CEFD
:103B0000929FCD95A1CE94A2CE94A1D096A3D39905
:103B1000A6D69BA7D798A6D595A6D696A8D998A895
:103B2000D999A9DC97A9DD98ADDF9AABE29DABE608
:103B3000A1B1EDA4B6F2A2B7F5A2BAF8A9BFFEAF43
:103B4000C3FFB4CAFFBBD3FFC0D9FFC3DAFFC8DFCE
:103B5000FFC9DEFFB4C7F2A4B8E594A4DA919CC70C
:103B60008D9BBE8D96BB8C93B28C92B0898EAD84AA
:103B70008BA5838BA5858CA8898DAD8B8EB0868B0C
:103B8000AA878CA7858AA78689AB8486A380819A19
:103B900080829D78819C8A96D4ADBAFF9FB2FB9DAE
:103BA000AFFA9FB2FF9AB0F99FB4F8A0B6FA9EB4EC
:103BB000F89FB6F59EB6F3A1B8F7A1B7F6A2B9F98A
:103BC000A0B7F89EB7F49EB6F29EB6F19EB6F19BF2
:103BD000B4EF98B1EC9AB2ED99B1EC97B0E898AF28
:103BE000E698AFE699B0E79AB0E595AFE8A5BCF8DE
:103BF0008D99C2675F6C7A6A6D6F63675C525664B9
:103C0000565C5C4C5356484E5042485C4E535342AF
:103C1000454E3C3F4A3C3F58484F75626E7D6E7E34
:103C2000503C3F3E33404F567942405B504148370D
:103C300023271C0B142313172213162416162316DE
:103C400014211315231314200F1046394B4C4557DC
:103C5000392F3D54516E5B628A495C8B4E628946B6
:103C60004D6E3C426940456544476C43476A434456
:103C7000664B4F6F44425F36273F3123341C131885
:103C80001C1615201B1B2C252B3C3640352F365877
:103C900054655D5970231E27100709181218100F5C
:103CA0001C2A24376A5C6F322D3A1A1B2E393E517A
:103CB0002B2932251B24150A191507151111244B20
:103CC00054739AA4C27872864334434E44514E4290
:103CD000524E4155594D6569617D6A658266617CC8
:103CE000625E78645E7A6963816F6C8A6C6A866DE5
:103CF0006A8D7E7EAD747990534F584F41545C4F1E
:103D00005D3A2F342B1F242F23272C23283F3842A2
:103D10005148596A6777807E94787990A4ADC295AE
:103D20009DBC7C83A89FA7BFB8BAC6CDC8D4E3DD2D
:103D3000E4CBC2CE9994A6767A8A787B8D6D6C8618
:103D4000636279666479736E846461787A768B5B7A
:103D50005C715E5A767467897973905C5D6D7C7A6C
:103D6000917C799D7876976E6C8B6E6D88908AA227
:103D7000615D76555B7A575B7D6164835B57766CDA
:103D80005B7F7E76996963855C5877615F7E5B595E
:103D90007D57537A5854796F6B8E5F5D7E525470A5
:103DA00055566F5C5B747172916B6A8C4F4B675B9D
:103DB0005574A49EB39592AA4F4B73565372737168
:103DC00087817F9D8882AA4D486B4F51675E607ADC
:103DD0004A446937365840435A4142503934414188
:103DE00035463732482826413F3A56302E41404129
:103DF0004F48485D3D405742465E393A554344601E
:103E00003B3B561313250A061611091E17111E1CDB
:103E10001A271F1C311A162B1D1828292737363749
:103E20004D353D5A282C420F080D0C040A0F0B107B
:103E300018131B0A070C221A220F0A0D000000009B
:103E4000000208060E1D1829302D3D2F2C3A0300C4
:103E500006040002140C16141018120C16140D1B74
:103E6000120B1A0D041309020A0601070C0910159A
:103E7000111B0B071208020F150D1209050602008F
:103E80000707010C0B070D19141E0E08162E2735F7
:103E90002E2735241C2C2D27372623312B26342D75
:103EA0002534221C2A3D3647342E40312D3E3533F1
:103EB0003D3A363C3C393E3936413E394C3C364B36
:103EC0003C34473C343E38343B39353F3E32423B4C
:103ED0002E3D3B32403934443C36463A313F3B314B
:103EE000413E344539324035323C3A3541372E3B3C
:103EF000322A35372E3C392F40352C3F372D433968
:103F00002F373B3234332E3D2F2C402924272F27A7
:103F10002F302739332A33352D34302A34292635AA
:103F2000292834302E2F302B322F263A3129352EA6
:103F3000262D302735342A3B2F26342E262F2A22B1
:103F400028342E353935392D29332925353126396F
:103F50002C1F3227222E2E272E29252B27243027CF
:103F60001E30282430252531251F2D271F2D2D27D4
:103F7000392C242F221E261C1C27261F28302224E1
:103F80002A2325231E2B291E31271D2A9E94A699FC
:103F900090A39891A29690A09490A09794A59590A4
:103FA000A3918E9E908D9A918BA0938EA38E8A9AC8
:103FB0008F8B9B918E9E908C9A918C9A938E9D8CD8
:103FC0008A9B8D899A958B9D928A9D908B9B918DD2
:103FD0009C9491A092929F95929C9793A4948FA663
:103FE000958FA79A95A996949F908D9B8E8A998C70
:103FF00089938B87948D85948A838F89808B8A7D22
:104000008C877C8F867B8F867B8982777B7E73759E
:104010007B717B7B707D7D707D7A6E7A7A6F79782B
:104020006F7B7E72817D72817C72827E76837B75EE
:10403000847D78897F778982778A80768880778681
:104040007F76857D7585817889857B8D877D918457
:104050007B90847B91837D947E7E937F809481800E
:10406000978582988581968382998389A38B8CAF6B
:104070009292B99598C19395BE9095BC9198BB8F3B
:1040800096BE9097C4939CCA939CC9929BC7919CDF
:10409000C9919CCA959ECB949DCA96A1CC95A1CD61
:1040A000919ECC95A1CE97A1CF96A1CF98A5D4985B
:1040B000A5D598A5D598A6D698A8D998A8DA99A8EC
:1040C000DA98A8DB98A8DC98AADC98A9DE9CA9E479
:1040D0009EAEE9A0B1EEA3B6F4A2B8F8A3B9FCABCA
:1040E000C1FFB5CCFFBCD3FFC2DAFFC4DDFFC7DF21
:1040F000FFA1B2ED8D99CC8E96BE9095BC9197BAEA
:104100008A98B98A91B68C91AF8C92AF878CAA822B
:1041100089A2828AA3858BA7888DAA868BAB868B82
:10412000AB878CAA838AA78286A782849D80819888
:1041300083849C7A839D828FCAA7B5FF95A6E78A60
:104140009CE3A1B4FFA3B7FF9DB3F89FB5F99FB55A
:10415000F8A0B7F5A0B8F6A1B8F7A1B8F6A2B9F9DA
:10416000A0B7F89EB7F39EB7F39DB5F09CB4EF9D52
:10417000B6F19BB2EE98B0EB98B1EB97B0E899B07E
:10418000E797AFE696ADE49CB1E59BB0E9A6BEF635
:10419000919CC46B616D7867677260645E4C536418
:1041A00052585F4E545542485442476558615040FA
:1041B0004E4731375E4B494F413D64545E786F7FC7
:1041C0004941423D3A474D547A47415857464C334E
:1041D000272C1F101927141923121529181827170F
:1041E000152415132314131F0A0E4735494741554B
:1041F000211A28514B665D618A4E5D925967934E34
:1042000052763B43693F47644146664245684443B2
:10421000674C4F714C49664033472D2430201A219A
:10422000211C1E1714142E292E36313B2A282F55F7
:104230005264545064140D14160E0F2A22272A2497
:1042400031191B2B3C404B6358632C1F3326253AF6
:10425000242235190F26160A18220E1429222D4A57
:10426000537195A1C577748D493E4F4D45554D46C7
:10427000534E4755615971635D7D7875946D6885BE
:104280006C6783756F8C696382706B8D67638269FD
:10429000678A8081B172778E4F4A524F4253584B92
:1042A000583C2B2F3422243225272A212633323C16
:1042B000494A596264748283967A7C91A0A6BEA50D
:1042C000AFCF7E8AB19BA5C0C6C8D7CDC7D7D4CD46
:1042D000D9D1C7D4938FA462627E84809B78738D7A
:1042E00067657D6E71836464756B657A6A63795600
:1042F00058665B5B6970677CC2B7D39F96B27D7767
:104300009376748F7977917E7D9A7F7C99736B8A8F
:1043100059527268698C6E6D9354527353526C5B30
:1043200058756B6E8D665C7A5951706762866862EB
:1043300088615B7F5E56775D5A7C4F4F745A5A7A1C
:104340005C5A745A56736A64887F7B9C63617F678A
:10435000678C9EA2BD6C6C915F578259556D52520D
:104360006D6F71998B8DBF6B6A92776F8D6D638462
:1043700030344B35384D4D4A5F4C48573F394843F0
:104380003C512D2C453C3B544F4D624441514543DB
:10439000524544533E425A4F516F383D523F455863
:1043A00032354C373752332D481510231414200D55
:1043B0000E1A161425201E302120302B2E42373C99
:1043C000552D36552F324C150E1909040B0C070DBF
:1043D000160E1607050A1C15181B14160A060600E9
:1043E00000000C0A1008040D2925313C3641100745
:1043F0000D0F0308110A14130F181B15221913218E
:104400000A0511130A180E041006000609070C16F7
:10441000141A0B0811080411120B120501030300F2
:104420000818121E38343C1F18241915222A283463
:104430002825312E2A342F29332B23302A23312BC0
:1044400023322A2330423A48322B3C322E3C403E23
:104450004738333F393542383343352F42363144BC
:104460003834423E37413D36423B3741342B383EAB
:1044700033433C39462E303B34323C3530383C33C4
:104480003D38303A302C3634353D3A343F352E35D0
:1044900035313637313C342C38332D3C362D3B39D1
:1044A000293438283335303C31333B312931382BEE
:1044B000393A303E2E262D322A2D3029302E2A37F9
:1044C000302D3C302E3535303A2F26392F27342DDC
:1044D0002A302E29392E263A2E252F30262D31220C
:1044E0002F3A2B373F3236322F3A2726372F2535B2
:1044F0002B1F312A253227262B2C282E2C23312521
:10450000192A251F2923222B231C26231D28232378
:1045100030271F251F1B201E2028231E2433222660
:104520002A202A241B2C2B1F362C22379C94A7953B
:104530008DA4978FA7978FA5958D9F988EA1998F02
:10454000A9948DA7908AA2918CA2908C9B938C9910
:104550008F8F97878D978989A08E8CA1908C9B9245
:104560008A9B93889C94899B968CA0958C9F958F11
:104570009E92909E9291A19590A19794A392919FC3
:10458000918F9D9893A3968FA1908B9E8F8B9F8DDB
:1045900088998D87978C879389868F888389887F70
:1045A00086867E8A877C89867A858276817F7383F8
:1045B0007C71817A6E7B7D6F7F7A6B7B796E7A7A84
:1045C000727F7A6F7D7C72807E768281788280763F
:1045D000847E758A7C748A80778B817788807786E1
:1045E000827787837788807584857B8A867C9283AF
:1045F0007D92827D92817B91827D9481809484835F
:104600009884819884809785839C8588A1898DABC7
:104610009194B89599C19195BC9094B89396BA8E9F
:1046200095BB8F99C1929BC9939CCA949ECA929B39
:10463000C7949AC8969CCB979ECC949DCB949ECBC6
:1046400096A0CD95A1CE97A0D19AA3D599A5D5979F
:10465000A5D596A6D897A7D999A8D997A9D994A747
:10466000DA98A8DD9BA9DD98A9DC98AADE9BACE3CB
:104670009CADE59FB0EAA0B1F1A3B7F9B1C7FFAC1B
:10468000C4FEAFC5FFBFCFFFBDD3FFC0DAFFB8D0B8
:10469000FF939FD3929BC1959CBB8E94B78D91B88D
:1046A0008C91AF9393B28F90B1878EA98489A381A7
:1046B00086A0858BA5848AA58289A5848BA9878DF0
:1046C000AD868BAE8289A98083A382829E80819CE5
:1046D00082839D7A80A38794D5A4B7FF8A9CD88CC7
:1046E0009DE2A4B6FF9DB4F99AB3F29DB4F79FB4CE
:1046F000F49FB5F29FB6F59FB6F59FB7F69FB7F753
:10470000A0B9F69EB7F39CB4F19EB6F19FB7F29CA8
:10471000B4F09CB3EF98B0EB97B0E998B1E899B0DA
:10472000E797AEE697AEE59AAEE698AEE9A8BFF792
:104730008F9BC368606C7967677560665E4D536870
:104740005E616151555E424858414750444D57465D
:10475000524C3141573B4751393A584B56686A776A
:104760003F3945373247494F6F403F4F593E4E38EA
:10477000252A1B0F1921141D23171A241019240F81
:104780001A221315211416230A114A354148475895
:10479000352D3D514D63565F875158886067954F61
:1047A000557C3F43653E44653F476B3D446B3F420C
:1047B00066484A6D4C4C6C332D402F2E3323262FE8
:1047C0001D15221B0C1715141921282F282C345EB7
:1047D000576D574F5E1811100F03081C0F191E1349
:1047E00020130B18140D155E545F584D6029203BA3
:1047F000231F36130F20251D2D2E2329251F262C80
:1048000032495E67834C4E5F4B415051475F444392
:1048100053534E586356735D5676605E7E6C698A5C
:104820006E6A8668637D66617C716D8C6A67846977
:10483000678A7A7CAF737293544B5550444E5A4BEF
:1048400057362B2E31282831272732292A36303760
:104850004944506C707F798397787F96989DB5B462
:10486000BEDC909EBE9AA4C0BCBFD1C8C6CBC6C198
:10487000C9CAC8DA9391AA736C8B877D986E6878E1
:1048800069647C716F875C5A6D6D6580645B746D63
:10489000687D6062759B9CAED1C9E0B6AAC2999151
:1048A000B37B7393736A856B6684504C705A5273F2
:1048B000645A7E6D678D64627C55556B6161795871
:1048C00056706E6885786D93676287636286595605
:1048D0007A555172716D8A62607B4D4971726D9526
:1048E0006C6A875F5B7E625D8379789662648070B4
:1048F000718E7F7E985750716C658B645C7B5348DA
:10490000656861837B769B9891B3A9A3C47F7A9EE7
:104910004847664A4B5B53505D463E4D3E37483CE8
:10492000394E2D2D43444458514F5D45435139373D
:10493000493A3B4F4F506444465B292B42373A502B
:10494000292A4144445B585467433F4E171B2F109C
:104950000C20190E1F1C1927262836222638252D33
:104960004327304930344A15111F0C020611070C39
:104970000C080A0100012B23271D15190E0812002F
:104980000002020304010004201821342B300F041C
:10499000060901040B0B130D0A1414101A15101A32
:1049A0000F0B1218121C1408120C040B130B151BFE
:1049B000121E0C060E01010307040D130B19130A36
:1049C0001A25212E43404F21192A221725251B265F
:1049D000211C2C413F4836333527212B23213025FC
:1049E00023323128343C31393A333A3B37403F3C6B
:1049F00047352E36362D3932293C33293D3B324559
:104A00003B33453F374942394F3B32443A323D3ED2
:104A1000364338303C3C333D3C34413A323D3A3108
:104A200038362A34342A393B3445342E3E332C3D33
:104A300039334138323F342F39332E393129333825
:104A4000303A342E38342F37322E32322F33322B45
:104A500033372E3C362E3E2D27362E2735352B3D2F
:104A6000352C3A322E382D27382E26383228393038
:104A700027323129352F293A2A232E2B252E332967
:104A8000353625313F3339302A372D27372B26301D
:104A900028242C27222B27232D28212C2A212E2D98
:104AA000243429222F27212D231D2C27232F252491
:104AB000271F1A1F201C1E222120231D22281E2DE5
:104AC000251F2D2520282E263B312D459993A5976E
:104AD0008EA4968FA69591A4968F9F948D9F978F65
:104AE000A1948C9F918CA0918C9D908C9A938D9A7F
:104AF0008C8A938A8B968D8B9E8D8A9C8C88988EBF
:104B00008897908798938899958A9C988E9F968E7F
:104B10009F938E9F9490A39992A69791A39790A10B
:104B20009791A0958D9E9A90A3948D9D8E8A998F32
:104B300088988E87968D86948C878F8A84898880C2
:104B400089857D86857C8582777F81767F81758367
:104B500081748280727B7F6F7E7A6B7A7B6F797DC6
:104B6000727F7B6F7B7B718080778882798980758B
:104B7000877C73887D74888277888178877F768444
:104B8000807785817787827888847C8A827C90830D
:104B90007F95817D907E7B8E837E948782978784AC
:104BA0009A7F8095817F9683819B87869F888BA63D
:104BB0008F93B59397BE9094BB8E93B49094B58F1A
:104BC00094BA9098C1959DC9939CC9919BC6939B9B
:104BD000C6989FCB969ECC959ECC959ECD949FCD0E
:104BE000939ECC94A1CF95A0D195A2D397A4D4970E
:104BF000A4D399A7D69BA7D998A4D795A7D894A8AA
:104C0000DA99AADE9BAADF98A8DC98A9DF9CADE51B
:104C10009FAFE69FAFE99DAFEEA6BCF9BBCDFFC04D
:104C2000D2FFB0C7FFBBCEFFC0D8FFC7E1FFABBE0E
:104C3000F48A95C4939CBA939AB48C92B38A8FB039
:104C40008E92AD9090AE8B8DAD848AA58388A1861F
:104C500088A38388A17F85A28589A9878DAD858D4D
:104C6000AB838AA78288A48287A282829F7E7F9B51
:104C70007E7F9A797E9E8C9AD299ADF78396D19158
:104C8000A2E5A5B7FF9FB4FE9DB3F89FB5F89EB30C
:104C9000F59DB3F39EB5F4A0B7F6A0B8F69FB7F7AD
:104CA000A1BAF8A0B8F59DB5F29DB5F09FB8F39CF8
:104CB000B4F09CB3EE9AB2ED99B2ED99B1EC97AD28
:104CC000E696AEE598AFE79AAFE797AEE9A8BFF8EA
:104CD0008D99C0665D6976656673606365515461E0
:104CE00052546356585B4B4E473B3D5248536D5EA2
:104CF000684F3A3F4E353B4F363A5A475A6C687EBA
:104D000055526F5C5779626185575A6F58516028C8
:104D1000161B1507061A0D0B1E100B1D0E101B0B74
:104D200013200B121B0B0F180709463747403F5A39
:104D30002522354A4B5C5A6787535D8846507A4531
:104D40004D7443496B3D426540486D3C416441446C
:104D50006644496D484B6F34304C342F411E1B263E
:104D60001A111A1D12181C181A161A1D25282F613F
:104D70005F734C495628201E32282C3D394245404D
:104D8000484B404D423545453A4B463F52444255CB
:104D900032333C1F1F202A222B2C283524232D1B85
:104DA00014181A18212C344B4742584F49563B3C93
:104DB0004948445260576B5B58725E5D7D6E6C8DE6
:104DC0006E6C8864607B64627C6A6A856766806BEF
:104DD000698B7E7FB274719351485150444D5C4E43
:104DE00059332A2F2A20242D24232D2626504B4F99
:104DF0005A575F68697A767C957F849BA9ADC2A378
:104E0000AAC7858EAE949DB6BDC2CFD0CED8CBC733
:104E1000D6B1B1C79497AC8183986B6F81736E7D67
:104E2000796A826A60795C5C705D5E7772687F87A0
:104E30007F936B687E9D99B2847D9B7772969791E4
:104E4000B190859BAEA3B85C56725756796367875D
:104E50006A6B89514F6B5B5975605F7B65627C5CE7
:104E600053707A6F906561825752735D55785F57C2
:104E7000784B47665F5F7A605F795A5576646080E9
:104E80006E6B8B645F875B567B706A8A5F587C6D44
:104E90006A8A736E895C537065607C5F5874665B68
:104EA0007D8B84A4918EA9AAA8C2ABABC7555472BE
:104EB0004946614B495E4D485A3F3846463E512B64
:104EC000274135334A4C4C5E3A3C4C3A3D4B3637E1
:104ED0004845455944455B2E304942435F2C2D4996
:104EE0003334504647624442574746563B40552B61
:104EF00028402C2538171826141829262C3D272F32
:104F0000441E283E2F34481F1F280C050211080B91
:104F10000D070C0503052921251710100E080E0595
:104F200002050200000200030A060B29252B201EA1
:104F30002403030C0A0810130E180B060F17131C7A
:104F4000211D260C0810160A12180E171B111D1C05
:104F5000121F110A1208050A0A070F16121D161150
:104F60001C1715221F1E2C25202D221826261B2D2E
:104F7000252032322E3E2B26302C26342420322877
:104F80002632322A32271E253731373D393F3B370B
:104F90003F2F2E3438353F36323D2D27333D3441B7
:104FA0004135483D3244382E3F3A313F383136336F
:104FB0002A31382F344239433C3347372E3E352D82
:104FC000393B32403D33433B3443302B382F2A3575
:104FD00038343C3631393530382D282E332F3C3C8F
:104FE0003545372B3B3227333229342E2D362F2CA3
:104FF00035332C392F2A3B2D29362C2934312C39A5
:10500000362F3B302C362C26372E2737302635319D
:1050100029333429383324362B202D29242C312DC3
:1050200036302B352D323432313B2A243129242C91
:105030002C262E27222A29252D27232D2823312CE3
:10504000263628233227232D24232D25222E2620E1
:105050002D27212E27232C242023241C23241A2906
:10506000201D2626222A312C31302B2F9994A394EF
:105070008DA19591A3938F9E948F9D958E9E938DD8
:105080009A948F9C918E9D8D8999908B9B928C9AEE
:105090008F89968D84928F88988E8999908B9B9119
:1050A0008B9A8E8797938A97948999978C9F958BE3
:1050B0009E9790A39A93AA9790A79790A39890A34E
:1050C000968E9E988E9F978DA0938B9B918A9B9096
:1050D00088999188978F85948A818C8B838B8A821B
:1050E0008A877F89857B8583787F7F767D817580C0
:1050F00082747E7E717882727F7E707C796F767C1E
:10510000707B7D727D8076887F748C81768D7F77D1
:105110008A7D76898077887F73838076868078869B
:105120007C75867D758B817A8B837E8B837E918067
:105130007C917F7D8D807E91837E94867F93848217
:105140009781829881819884819C85839D8689A49A
:105150009094B69296BD8F94B78E93B58F93B48F7B
:1051600094B89094BE969DC8949CC9929CC4939BFD
:10517000C5969ECB95A0CE939CCA959FCC959FCC6F
:10518000929ECB95A2D095A3D093A1D095A2D39770
:10519000A4D499A4D49CA5D69AA5D897A6D895A806
:1051A000D897A9DA99A9DC9AA9DD9BABE19DADE579
:1051B0009EAFE69FAFE99DAFECAABFFAA4B4F9B9E0
:1051C000C5F9C2D6FFBFD3FFC2DAFFAEC3FB97A2B9
:1051D000DA8E96BF9299B79399B38E94B18D92AEB1
:1051E0008E92AC8B8DAC868AA7868CA68789A3828B
:1051F000849D82859D8287A5888CB0888EAE838BA6
:10520000A6828AA4818AA182889E81839C7E7F99BE
:105210007E7F977A7F9A8794C294AAE6899CD28FE0
:105220009FE3A8B7FFABBBFF9CB0FDA1B5FBA1B648
:10523000F99CB2F69FB5F89FB6F7A1B8F6A2B8F8F8
:10524000A0B8F69EB7F3A0B7F49FB7F39DB5F09D55
:10525000B5F09EB4F199B1ED99B2EC99B1EC99AF7A
:10526000EA99AFEA99AFE89AAFE696ADE8A7BFF83A
:105270008B94BC675C687C6C6C6F61626552536236
:105280004F505D53535A53554D4547473B4847345C
:105290003F523F3A4C3B394A37415A4B6675738F00
:1052A000747896686D8D67698C686C8A5B607940EC
:1052B000384A3F2F37402F353A2F343231362E2D92
:1052C000382E27342C232D2A1C244C3E52403C5A85
:1052D0002C223751495D5F66854D5D803E4C733FA2
:1052E0004B72484F733D43663D42674748654346AE
:1052F000643C4665454F6B35364C211F2D1A151AF7
:105300001A1416191415211C1D1512133233386284
:1053100066743E39453C2F2F5C545766686F6D6B41
:105320007372676D72696C5D5764444152504C5D95
:1053300038323D2821252B22262C2B383E3D4A2B66
:1053400022201B13132C3249433E574C454B4C48EB
:105350005152485B5F5763605B6E686587737293F9
:105360006B6A866A68836A698362627C66667E6B42
:105370006A8B7B7EAB74738B534A505347505A4EA3
:10538000563730312D242331292727212037333B2D
:105390004E4B5B6E6F827C809A82859CB1B4CA9EB4
:1053A000A4C1818AA99AA2B9C0C3D2D9D6E2CEC972
:1053B000DAA6A5BB7C8096787B8E737186726F812E
:1053C0006765775A5A6D5D5F706D6C7F766E837816
:1053D00072877970868F839E635B7B66678B837C25
:1053E00098928499BFB7CB858399686A83717391CA
:1053F0005C5D735C5F725C5C7E5D5A7D5E5E776651
:10540000617F70688C827F9C625B7B534A69635BBF
:105410007B57537162607C605D787370885C5970F3
:105420006B6687736A965A5575655C7D63588368A9
:1054300060856D6784554F6D5A54736664825B5AFC
:105440007C8B8BA59999B09D9BB6807A9E3A3155FD
:10545000413E52504C64454054403848463D542FDC
:105460002A4C454159424251383E4D2A3345333743
:105470004B4A475D22253E28324C3D4561262E4A47
:105480003D4560323A5534364D484A5C50576C4D74
:105490004D653B3A502D304340445A3E435D353BC9
:1054A00057272E4A3D40572D2E3B080406150D1256
:1054B000140E180301030704040C0504211D1D220A
:1054C0001B1F100510120817000006161321444177
:1054D000531A182806020A110B14100B1419151D63
:1054E000231D27140C16160C161C151F19151E1F2C
:1054F0001721140D16130F160403090D0A121813A1
:105500001C1B1B241E1E2B312E3C261E2B2C232E37
:105510002A27322927302621282C28312622302CF0
:1055200027352D2730251C253A343C3F3B42363168
:105530003A2F2E3A3735412F2D3429252B332D364E
:105540003931443930403C324239303D352F3437DF
:105550002E37362E34372E38372C41342C3E372E0A
:105560003E3B313E3E363F3B343F322C3E332E3CB9
:1055700037333F322E3A332E3A302B3833303A30ED
:105580002B34332A33342A32352D34312C322D2822
:1055900032352F3D2F2A39312F3A2F2C322E2931F7
:1055A0002A252E2D2733322C3B3029372D252F311C
:1055B000293330283630253430273228232C2F2623
:1055C000303C2E3A423A4133323D2722312C2231AF
:1055D0003125342E263128273026222E2B22342521
:1055E0001D31261F3027232C23212626222A28215D
:1055F0002C27222D231E262721242D2626251D205B
:10560000221B2427222F373231302A259995A09347
:105610008E9E938FA0938F9D928F9C938D9B948E43
:105620009B958F9E928C9D8F8A9C908A9C918A9D3F
:10563000938A9B9086948F87948C87938D8896917C
:105640008A9A908898918895978D9E988EA1978D2B
:105650009E978EA19890A79793AA9893A69890A2A8
:10566000958D9D948F9D928D9C958D9E958B9E93EF
:10567000899C92889A8E85958C829189808B87806F
:1056800088867D89867D8681777C81757B8476801E
:105690007F747A7870737D727B7D737C7971787991
:1056A0006E797C707D7F74877E738B80758C80773C
:1056B000887F79877F7686827688817687807787EC
:1056C0007E768B7E768F7D788B817D8A807D8E80C5
:1056D0007D90817F8F7F7D8E837C91887E94838077
:1056E000967F819781819883809A88859F898BA7EF
:1056F0009094B69295BC8C92B58F94B68E92B390DE
:1057000094B79296C1979BC8959CC9929CC6939D4D
:10571000C896A0CC939FCA8F9BC6939FCA929EC9DE
:10572000949FCA96A2CC94A1CE95A1CF96A2D196D1
:10573000A2D39AA3D49DA6D69BA6D899A6D997A85A
:10574000D998A8DA99A8DB99A9DC9AAAE099ABE4E0
:105750009AABE4A0B1E89DAEEAAFC2FEA1AFE88D7E
:1057600099CDA3B3F1AEBDFF99ACE88898CE8F98E0
:10577000C29399C09296BA9195B38D92AE8C90AE29
:105780008F92B08F92AF8A8EAA858BA584869F82D6
:10579000839B84859D8387A3858AAC888DAD838B0D
:1057A000A6838AA481899F82879D83859E80819814
:1057B000817F967D7F997F8BB490A3DB8D9ED78A66
:1057C00098DE9BAAF9AEBFFFA3B6FFA4B8FFA1B6AF
:1057D000FA9EB4F8A1B7FBA0B7F7A1B8F7A2BAF840
:1057E000A1BAF69EB7F3A0B8F49FB7F39CB4EF9EAE
:1057F000B6F19EB5F09AB1EE98B1EB97AFEB9AB0D7
:10580000EB99AFEA97AEE69AAFE697AFEAA5BDF699
:105810008F96BE6B5E6B7D6C6D6B62625E4F4F6789
:1058200052545A4E4D5247495140444F3B48503BC9
:10583000444D3A33423530493C45544D6D5E647BAE
:1058400070797B677C7D64767B4C4F644749614C03
:105850005066424058504B6449475D494B5D444750
:105860005947465B49495F4848584F4C5E3E3C5259
:10587000382F3F5649606162854C5C7E4C5A814DA1
:105880005A81444D713F44664144684542684344EF
:10589000683B446547526D393B4D14151A130E0F82
:1058A000170F10150E0F2017191A131732323868F8
:1058B0006877403843332426473E44535359585160
:1058C0005961545B5D585C5F5C6A595566645A6403
:1058D0003F303B291A283227323C353F4946543164
:1058E000303D14111C29242D49445746434E514B39
:1058F000575B50645F5764635E716965846E6A8943
:1059000064627E6E6C876B6984615E776F6C846E97
:105910006D917678A26E6C8054484F53474F574E26
:1059200054392E382F232A2F26272B24242F2C308E
:10593000484A50696D7D7A809A7C8399A8ADC3A44A
:10594000ADC8707E999AA1BCC0BED6D6D1DBDCD5DD
:10595000DDC1C0CE807F9772708966607D534E67CF
:105960005959695D5F6C575A67646470716D8459E9
:105970005970A29BB1BAABC36D667F5758718479D9
:10598000977E6F8F8F8EA7888A9E636074857890CC
:105990006C6074655F745850756D678A5D5C767075
:1059A0006E8C6560848A82A18178995E5C7B5C5F85
:1059B0007C5D5C7B534A6B665D7B9693A66F6B83C5
:1059C000756D917F779B5953705C56766E688F63C7
:1059D0005E825B58765D597C5C587E595676534D95
:1059E000696662777C7B9272749552507F4B4470EB
:1059F0004F4B5B4A455B3D374A41394C3B32503E49
:105A00003A594744573C3C4A4247582730442D3383
:105A1000492C2C43212239262C44242A43363C5538
:105A20003D425A2C2F4828283E2A2F433D435C38BC
:105A300037531E1E37353A5240425D3A3A57323498
:105A40005231345038394F23212E140E151F18258A
:105A500016111F00000308040607030508070A249F
:105A60001E2527202521172509000D19101D362C6C
:105A70003D2C2433130E1716111A16121B19121D62
:105A800019101B180F1A1A142014101E1816231B95
:105A900016210F0C1408090D04020817101B221AF6
:105AA00024201E26171420433C4B362C3B231A2659
:105AB0002C293235333C2B252F29232F2824322F14
:105AC00028382F24362E24353D3745413C49362E83
:105AD0003D342B3D362E3F2C28332D2B3231303A9E
