:020000040800F2
:10000000709B0020E5D50D0899CD0D089BCD0D08FE
:100010009DCD0D089FCD0D08A1CD0D08000000005D
:10002000000000000000000000000000893C0D08F6
:10003000A3CD0D0800000000313C0D08A5CD0D0832
:10004000ADD60D08B1D60D08B5D60D08B9D60D0838
:10005000BDD60D08C1D60D08C5D60D08C9D60D08E8
:10006000CDD60D08D1D60D08D5D60D08D9D60D0898
:10007000DDD60D08E1D60D08E5D60D08E9D60D0848
:10008000EDD60D08F1D60D08F5D60D08F9D60D08F8
:10009000FDD60D0801D70D0805D70D0809D70D08A5
:1000A0000DD70D0811D70D0815D70D0819D70D0854
:1000B0001DD70D0821D70D0825D70D0829D70D0804
:1000C0002DD70D0831D70D0835D70D0839D70D08B4
:1000D0003DD70D0841D70D0845D70D0849D70D0864
:1000E0004DD70D0851D70D0855D70D0859D70D0814
:1000F0005DD70D0861D70D0865D70D0869D70D08C4
:10010000B3CD0D086DD70D0871D70D0875D70D0843
:1001100079D70D087DD70D0881D70D0885D70D0833
:1001200089D70D088DD70D0891D70D0895D70D08E3
:1001300099D70D089DD70D08A1D70D08A5D70D0893
:10014000A9D70D08ADD70D08B1D70D08B5D70D0843
:10015000B9D70D08BDD70D08C1D70D08C5D70D08F3
:10016000C9D70D08CDD70D08D1D70D08D5D70D08A3
:10017000D9D70D08DDD70D08E1D70D080000000024
:10018000E5D70D08E9D70D08EDD70D08F1D70D0813
:10019000F5D70D08F9D70D08FDD70D0801D80D08C2
:1001A000B9CD0D08BDCD0D08C5CD0D08000000006E
:1001B000000000000000000000000000000000003F
:1001C000000000000000000000000000000000002F
:1001D000000000000000000000000000000000001F
:1001E000000000000000000000000000000000000F
:1001F00000000000000000000000000000000000FF
:1002000000000000000000000000000000000000EE
:1002100000000000000000000000000000000000DE
:1002200000000000000100010001020101020102C2
:10023000030102030202050302040303050403068B
:100240000403060404070503080605080604090656
:10025000050A07050A07050B08050B08070C080720
:100260000D09060D09070D09080E0A080F0A080FE7
:100270000B0A100C09100C0A120B0A110D0A130CB0
:100280000A130D0B130E0B130E0B150E0C150F0C82
:10029000150F0C160F0D16100D17100E18100E1945
:1002A000110E18110F19120E19121019130E1B121C
:1002B000101B130F1C140F1C14101D14101D1411EF
:1002C0001D15101E14121F15121F16111F161220B5
:1002D0001712201712211713201813211813221890
:1002E00013221814221914221A14241915231A156A
:1002F000241A15251A16251B15261A16271A17272C
:100300001B17261B17271D16271C18281C17291C0E
:1003100018281D18291E17291E172A1E182A1E19EB
:100320002B1E182C1E192B1F1A2C1F192C1F1A2DAF
:100330001F1A2D201A2D201A2D201A2E201B2E2197
:100340001A2E211B2F211B2F211A2F211B2F221B7D
:100350002F211C30221C31221C31221D31221C3144
:10036000231C31221D32231C32231D32231D332333
:100370001D32231E33241D33241D33241D34241E1B
:1003800034251E34251E34241E34241E35251F34E6
:10039000251E35251F35251F35251F36251F3525DB
:1003A0001F35261F35261F36261F352620362620C8
:1003B00036262036271F37262036271F37261F369A
:1003C000272036272037271F37271F37271F372794
:1003D0002037272038272037281F37262137272086
:1003E00037281F372820382720382720372721375C
:1003F0002720372820382721382820382720382759
:100400002037282037272037271F37272137282054
:1004100038262037272137272037271F372720382E
:10042000262037272037272036272037261F362635
:100430002037261F37261F36271F36261F37261F31
:1004400036261F35261F35261F36261F36251F3612
:10045000261E35261E35261E35251E35251F34251C
:100460001E35241E35241E34251D34241E34241E1E
:1004700034241E33241D33241E33241D33231D3204
:10048000241C32231E31231D32231C31221C312314
:100490001C31221C30221C31211C30221C2F221C1A
:1004A0002F211B2F211C2F211B2F211A2E211A2E09
:1004B000201B2E201B2D201A2D20192D1F1A2C2019
:1004C000192C1F192C1F192B1E1A2B1E1A2B1E1923
:1004D0002A1E192A1D18291E182A1D172A1C17281A
:1004E0001C18281C18281C17271C17271C17271C2A
:1004F00016261C15271A16251A16241A15241A153D
:100500002419152319152319142219152218142238
:100510001813221813201813201713201612201650
:10052000131F16121F16111F16111D15111E15105F
:100530001D15101C14101C14101C130F1B13101B62
:10054000130F1A120F1A111019120E18110E17117B
:100550000E17100D16100E170F0D160F0D14100C90
:10056000150E0C140E0B130F0B130E0A120D0B129B
:100570000D0A120C0A110C09110B0A100B090F0BB2
:10058000090F0A080E0A090E09080D09080C0907C7
:100590000C08080C08060B07060A08060A060509D7
:1005A00006050806040805040804040704040604F4
:1005B000030503040403020402030402020302010C
:1005C0000201010101000000010100000000000023
:1005D000000000000000000000000000000000001B
:1005E000000000000000000000000000000000000B
:1005F00000000000000000000000000000000000FB
:1006000000000000000000000000000000000000EA
:1006100000000000000000000000000000000000DA
:1006200000000000000000000000000000000000CA
:1006300000000000000000000000000000000000BA
:1006400000000000000000000000000000000000AA
:10065000000000000000000000000000000000009A
:10066000000000000000000000000000000000008A
:10067000000000000000000000000000000000007A
:10068000000000000000000000000000000000006A
:10069000000000000000000000000000000000005A
:1006A000000000000000000000000000000000004A
:1006B0000000000100000201010101020202010329
:1006C00001020402020503020504020504030704F3
:1006D000040705030705040706050806050A0605BD
:1006E0000A08050A08060B07070B08070C08070D80
:1006F00009070D0A070D0A080E0A080F0A09100A51
:1007000009100C09100C09110C0A120C0B130C0B1C
:10071000120E0A140E0B140E0B150F0C150F0C16DF
:100720000F0D160F0D16100D17110D18110D1811B4
:100730000F18120E19120F1A120F1A130F1A130F85
:100740001C140F1C140F1C14101D14111D14121E48
:1007500015121F15111F16121F15131F1712201720
:1007600013211712211813221813221814221815F6
:10077000231815231914241914241A15251A1625BB
:100780001A15251A16261A16271B16271B16271C9C
:1007900016281C17281D17291C18281D18291E1774
:1007A000291E182B1D182A1E182B1F182B1E192B3B
:1007B0001F192C1F192C20192C1F1A2D20192D2020
:1007C0001A2E201A2E211B2E211B2E211B2F211CFD
:1007D0002F211B30211B30221B30221C30221C31C8
:1007E000221C30231B31231C31231D32221D3323B5
:1007F0001D32231D33241D32241D33241E33241E99
:1008000033251E34251E34241E33251F34261D3562
:10081000251E35251E35251F34261E35261E362657
:100820001E35261F36262037261F36261F36262041
:1008300037262037271F37261F38261F3726203612
:10084000272037272037272037282037281F382709
:100850002038272138272038272138281F392821F8
:1008600039272139272138282138282038272138CD
:1008700028213928203828203928203928213928CA
:1008800020392721392821392821392821382920C0
:10089000382821382820382821382921392821389A
:1008A000282138282138282139272138282039289B
:1008B000203828203828203827203827203827209B
:1008C0003727203827203827203826203727203779
:1008D000271F38272036271F36272037271F362681
:1008E0002036262036262035271E36261F36261F80
:1008F00036261F36251F35251F34251F35251E3466
:10090000251E35251E34241F34251E33251E332471
:100910001D33241E33231E33231D33231D32231D79
:1009200032231D31231C31231D31231C31221D3163
:10093000221C30221B2F221D2F211C2F221B2F2176
:100940001B30211B2E211B2F201B2D211A2E201B7B
:100950002D201A2D20192C201A2C20192C1F192C6F
:100960001F192C1F192B1F192B1D192A1E192A1E7E
:10097000182A1D18291D18281D18281D17271C178F
:10098000271C17271C17271C15261B16261B162687
:100990001B15251A16251A14241A1424191523199F
:1009A00015231814231813221714211813211713B1
:1009B0002017122017122016121F15121F15121FB2
:1009C00015111E16111E15101D14111D14101C13C7
:1009D000101C13101B13101A120F1A130E1A120FD9
:1009E00019120E19110D17100E16110D17100C17E4
:1009F0000F0D160F0C150F0B140F0B140E0B130EFF
:100A00000B120E0A120D0B110D09110C0A100C0A13
:100A1000110B0A100B090F0A080E0A090E0A070D1E
:100A200009080D09070C08070C07070A07070B0739
:100A30000609070609060508060508050507050451
:100A40000704050604030603030502030503020366
:100A5000020203020203010202010102000000007F
:100A60000000000000000000000000000000000086
:100A70000000000000000000000000000000000076
:100A80000000000000000000000000000000000066
:100A90000000000000000000000000000000000056
:100AA0000000000000000000000000000000000046
:100AB0000000000000000000000000000000000036
:100AC0000000000000000000000000000000000026
:100AD0000000000000000000000000000000000016
:100AE0000000000000000000000000000000000006
:100AF00000000000000000000000000000000000F6
:100B000000000000000000000000000000000000E5
:100B100000000000000000000000000000000000D5
:100B200000000000000000000000000000000000C5
:100B300000000000000000000000000000000000B5
:100B40000000010001010200020101020201030292
:100B5000020303020503020504020504040604045B
:100B60000705040706050706050807050907050A1E
:100B700007060A08060A08060C08070D09070D08EB
:100B8000080E0A080E09090F0A090F0B08100B09B5
:100B9000100B0A110C0A120C0A120D0B120E0B1379
:100BA0000E0B140E0C140F0C150F0D160F0D160F47
:100BB0000D16100D16110D18100E19110E19120E1A
:100BC00019130E1A120F1A120F1B130F1A14101CDE
:100BD00014101C14101C14111D15101E15111E16B6
:100BE000111F161220151320171220161322161388
:100BF000221713221813221714221914231814234E
:100C00001914241915241915251A15261A15251B2A
:100C100016261A16271C16271B16271B17281C1703
:100C2000281D17291C17291D182A1C182A1D192AC6
:100C30001D192A1D192B1E192B1E192B1E192B1FAE
:100C4000192C1F192D1F1A2D201A2D201A2E211A8A
:100C50002E201A2E211A2F211B2F221B2F211B2F52
:100C6000221B31211C30211C30231B31221C31233B
:100C70001C32231C32231C31231D32231D32231E20
:100C800032241E33241D33241D33251D34241E33EA
:100C9000261E35251E34261E35251E35251F3625D4
:100CA0001F35261E36261F35271F35271F36261FC0
:100CB00036272036271F37262037272038271F388A
:100CC000271F372720382720382720372820372785
:100CD0002137272138282039282039282038292071
:100CE0003928203929203828223928213928213942
:100CF00028213928213828213A28213A2820392941
:100D0000203A28223929213928223A29213A292131
:100D10003A29213A28213929213A2821392921390A
:100D200029223929203929213A28213A28223A2909
:100D3000213928223A282239292139282139292103
:100D40003928213A282139282139282139282139DF
:100D500027213929203828203928203828213828E7
:100D600020372821382720372721382820372720E7
:100D700038262137271F38262038262137271F37C6
:100D8000271F37262037262036261F36261F3627D0
:100D90001E35261F36261E35251E35251F34251FD8
:100DA00035251E34251D35241E34251E34251D33BE
:100DB000241D33241D33241D33241D32231D3223CF
:100DC0001D31231D32231D31231C30231C30231BD6
:100DD00030221C30221B30211C2F211B2F211B2EC7
:100DE000211B2E211B2F201B2D201B2D201A2C20D8
:100DF0001A2D1F1A2C20192C1E1A2C1E192B1F19E4
:100E00002B1E182A1E192A1E17291E182A1D1829DA
:100E10001D17281D17281C18281C17281B17261CEF
:100E200017261B17251B16261B15251B15251A15FE
:100E300025191524191524191423191422191422FB
:100E400018142217132117142117122017131F1615
:100E5000121F16121E16121F15111D15101D15102A
:100E60001D15101C14101C130F1C13101A13101A2C
:100E7000120F1A130F19120E18120E18110E171145
:100E80000D16110D160F0D16100D160F0C140F0C5C
:100E9000140E0C140E0B130D0C130D0A130C0A1167
:100EA0000D0A110C0A100B0A0F0C090F0B080E0B80
:100EB000080D0B070D0A070C09080C09070B090799
:100EC0000B07060A08050A070508070509060508AD
:100ED00006050706040704040604040603030503C5
:100EE00003040303040202020301020202010101DE
:100EF00001000100010000000000000000000000EF
:100F000000000000000000000000000000000000E1
:100F100000000000000000000000000000000000D1
:100F200000000000000000000000000000000000C1
:100F300000000000000000000000000000000000B1
:100F400000000000000000000000000000000000A1
:100F50000000000000000000000000000000000091
:100F60000000000000000000000000000000000081
:100F70000000000000000000000000000000000071
:100F80000000000000000000000000000000000061
:100F90000000000000000000000000000000000051
:100FA0000000000000000000000000000000000041
:100FB0000000000000000000000000000000000031
:100FC0000000000000000000000000000000000021
:100FD00000010100020100010201020202040302F9
:100FE00004020204040205040206040306040407C2
:100FF00005030805050806040A06050A07060A0887
:10100000060B07060C07070C09060D09080D0A0751
:101010000E0A080E0B080F0B09100B09100B091113
:101020000B0A110D09120C0A130D0A140D0B140DE5
:101030000B150E0B140F0B150F0C160F0C16100DB5
:1010400017110D18100D18110D18120E1A110E1A75
:10105000120F1A120F1B12101B13101C14101C1449
:101060000F1D14111D14111E15111F15111E16121E
:101070002016121F171220161321171321171322DF
:1010800017142218142218132319142419152419BB
:1010900015241A14251A15251916251B16261B1694
:1010A000261B17271B16271D16281B17281D172957
:1010B0001D17291D172A1D172A1D192A1E192A1E38
:1010C000182B1F182C1E192B1F1A2D1F192C201915
:1010D0002E201A2E1F1A2E201A2D211A2F211B2FD7
:1010E000201B2F211B30211C30211B2F221B3022C3
:1010F0001C30231C31221D32221D32231C32231DA1
:1011000032231D32241D33241E34241D34241E3367
:10111000241D33251E34251E35251E34261D342658
:101120001F34261F35261F35261F35261F35271F3E
:1011300036252036262037262037271F37271F3809
:1011400027203728203727203827213828203928FA
:1011500020382820382821392821392722392821E8
:101160003928213928213929223928213929213AB8
:1011700029223B28223A29213B29213A29213A29AF
:10118000223A2A223A2A213A2A213A2A223B2921A2
:101190003A29223A29223A29223B29213B29223A7B
:1011A00029223B29223B2A223B2A213B2A213A2978
:1011B000223B29213A2A223B29223B29223A292172
:1011C0003B2A213A29223A29213B29223B29223A4A
:1011D0002A213A29223B28223A28213B28223A2850
:1011E000223A2A223A29223A29213A292139282148
:1011F0003A28213A2920382920382920392821392C
:101200002721382821382820382820382721372836
:101210002038272038272038272037271F37271F37
:1012200036272037262036262036261F36261F361C
:10123000261F35261F36251E36251F35251E35252A
:101240001E35251E34251E34241E33241E34241D31
:1012500034231D33241D33231D32241D33231D321B
:10126000221C31221C31221D31221B31221C312231
:101270001B30221C2F211B2F201C2E211B2D211A3D
:101280002E211A2D201A2D201A2E201A2D1F192C2E
:1012900020192C1E1A2C1F192B1E192B1E182A1E42
:1012A000192A1E172A1D18291D17291D17291C1751
:1012B000281C17271C17271B17271B15261B16264C
:1012C0001B15251A15251915241A14231A15241966
:1012D0001422191522191422181321171322171377
:1012E0002116132016131F17121F16111F15121E79
:1012F00014121E15111D14111D13101C13111C1492
:101300000F1B130F1B130F1A130E19120F19110EA7
:1013100019110D19110D18100E17100E17100C16AB
:101320000F0C150F0C140F0D140E0B130D0C140DC8
:101330000B130C0B110D0A110B0A100C09100C09E0
:101340000F0B090F0B080E0A080D0A070D09070CF1
:1013500009070C08070C08060A08060A07060A0609
:101360000609060509050507060407050406050321
:101370000604030504030503030303020302010239
:101380000202020101010101010000000000000051
:10139000000000000000000000000000000000004D
:1013A000000000000000000000000000000000003D
:1013B000000000000000000000000000000000002D
:1013C000000000000000000000000000000000001D
:1013D000000000000000000000000000000000000D
:1013E00000000000000000000000000000000000FD
:1013F00000000000000000000000000000000000ED
:1014000000000000000000000000000000000000DC
:1014100000000000000000000000000000000000CC
:1014200000000000000000000000000000000000BC
:1014300000000000000000000000000000000000AC
:10144000000000000000000000000000000000009C
:10145000000000000000000000000000000001008B
:10146000000100020101020201030202030302055E
:101470000203050302050503070403070404070527
:10148000040806050906050907050908050B0706EE
:101490000B08060B08070C09070D09070D09080EB4
:1014A00009090F0A09100A080F0C08100C09110C81
:1014B0000A120C0A120D0A130C0B140D0B140E0B4E
:1014C000130E0C150F0C160F0C170F0D16100D1711
:1014D000100E19110D18110E19120E18120F1913E2
:1014E0000F1A130F1B13101C140F1C14101D1410B3
:1014F0001D14111E15111E15111E16122016122074
:10150000161321161221171221171421181422194B
:1015100013221914231814231A14241A14241A1524
:10152000241A15241B15251B16261B16261B1727E8
:101530001B17281C16281D17291C18281D18291DC3
:1015400018291D182A1E182A1F182B1F182B1F199F
:101550002B1E192C1F1A2D1F192D201A2D201A2E63
:10156000201B2E201B2E211B2E211B2F211B302147
:101570001C2F221C30221C30221C31221B31231C28
:1015800031231C32231C32231D32231D33231E32F0
:10159000241E34231E33251D33251D35241E3425DA
:1015A0001E35251E35251E35251F35251F35261EC2
:1015B00036261F36261F36261F37271F3727203788
:1015C000271F37262038272038282038282038277A
:1015D0002038282039272139282039282139282264
:1015E0003928213A29213928213A29213A28223A31
:1015F00029223A29223A29223B29223B29213B2927
:10160000223B2A213A29223C29223C2A213B292219
:101610003B2A213B2A223B2B213B2A223B2A233CEB
:101620002A223B2A223B2A223B2A233B2B223C2AEA
:10163000223C2B223C2A233B2B223B2A223B2A23DF
:101640003B2A233B2B223C2A233B2A233C2A223CB5
:101650002A223C29233B2A223B2A223C2A213B2ABC
:10166000233B29233B2A223B2A223B29223C2922B5
:101670003B29223B2A223A2A223B29223A2A223B90
:1016800029223A29223A29223A29213A29223A2999
:10169000213A29223928213A292139292139292099
:1016A000392921382821392720382821382820387D
:1016B000282037282038271F37272037281F37268C
:1016C0002037272036271F36271F36261F36261F8E
:1016D00035261F35261F35251F35251E34251F3479
:1016E000251E34251E33251D34241D33241E33238B
:1016F0001D33231D33241C32231D31231C31231C95
:1017000030231C31221C30211D2F221B2F221C2F85
:10171000211C2F201B2E211B2E201B2D201A2D209B
:101720001A2D1F1A2C1F1A2C1F1A2C1F192B1F19A8
:101730002B1F182A1E192A1D182A1E182A1D1828A0
:101740001D18291C18281C17281C17281C16271BB5
:1017500016271B16261B16251B15251B15241A15C7
:1017600024191524191523191523181422181422C5
:1017700019132218132018132116132016122016DD
:10178000121F16121F16111E14111D15121D1510F1
:101790001C13101C13101C140F1B130F1B120F1AF9
:1017A000130E1A120F18110F18110E17110D171111
:1017B0000D17100D15100D150F0C140F0C140F0B29
:1017C000140E0B130E0A120E0B120C0B120C0A1134
:1017D0000C0A100B090F0B0A0F0B080E0A090D0A51
:1017E000080E09080D08080B09070B08070B080667
:1017F0000B07060A0705090605090505070604067D
:101800000504060404060403050303050302040398
:1018100002030201020202020201010101000101B0
:1018200000000000000000000000000000000000B8
:1018300000000000000000000000000000000000A8
:101840000000000000000000000000000000000098
:101850000000000000000000000000000000000088
:101860000000000000000000000000000000000078
:101870000000000000000000000000000000000068
:101880000000000000000000000000000000000058
:101890000000000000000000000000000000000048
:1018A0000000000000000000000000000000000038
:1018B0000000000000000000000000000000000028
:1018C0000000000000000000000000000000000018
:1018D0000000000000000000000000000000000008
:1018E00000000000000000000000000000000002F6
:1018F00000010202010301010302020402030403C6
:10190000030503030604030605040704040805048D
:101910000805050907040907060A07060B07070B50
:1019200008060C09060D08070D09070E09080E0B1D
:10193000080F0B09100B09100C09100C0A120C0AE5
:10194000120D0A120C0A130E0B140D0B150F0B14AB
:101950000F0C160F0C15100C16100D16100E18107B
:101960000E18110E18120E1A120E19120F1A130F4A
:101970001B130F1B140F1C13111D14101C15111D0C
:1019800014111E15111E15121F16121F16122017E4
:1019900012201712211812221813221714231814B8
:1019A000231914231914231915241A15251A15257A
:1019B0001A16261B15271A16271B16271B16271C57
:1019C00017281D16281C18281D17291D172A1E1830
:1019D0002A1E182B1E192B1E182C1F192B1E1A2DF0
:1019E0001F1A2C201A2C201B2D201B2E201A2E20D3
:1019F0001A2F211A2F211B30211B30211B30221CB2
:101A000030221C31231C31221D31231D31221D3374
:101A1000231D32231D32241D33241E34241D332460
:101A20001D34241E34251E34251F35251E36251E43
:101A300035251F36251F36251F36261F35271F360D
:101A4000271F36271F3727203826203727203727FC
:101A500020382820382821382820392821392920E1
:101A60003928213A28223A28223929213A29213AAB
:101A700028223A29223A29223A29233B29223B29A2
:101A8000223A2A223C2A213B2A223C2A213B292293
:101A90003C2A233C2A223B2B233C2A223B2B223C60
:101AA0002A233C2B223C2A233C2B223C2A233C2A5F
:101AB000233C2B233D2A233D2B233D2B223D2A2350
:101AC0003C2B233D2B233C2B233D2B233D2A243D24
:101AD0002B233D2B233C2B233C2B223C2B233D2B28
:101AE000233D2A243D2A233D2A233C2B233C2A2420
:101AF0003C2A233C2B233C2A233C2A233C2B223CFC
:101B00002A223C2A233C2A233B2A233D29233B2A01
:101B1000223B2B223B2A233A2B223B29233B2A21FF
:101B20003A2A213A29223A2A213A2A213A2A213BE1
:101B300028213929213A29223A29213928223928EC
:101B400021382821382921392820382920382721EF
:101B500037282038272037272037272038271F36D7
:101B6000272036271F37261F36261F35261F3526E6
:101B70001F36251E35251F35241F34251E34251EEE
:101B800034251D34241E33241D33241E32241D32DB
:101B9000231D32231D31231D31231D31221C3122EF
:101BA0001C30221C2F221B30221B2F211B2E211BFD
:101BB0002E201B2E201A2D211A2D201A2C1F1A2CF4
:101BC0001F192C1F192B1F1A2B1F182B1F182B1E08
:101BD000182A1D192A1D18291D18281C17291C1719
:101BE000281C16271C17261C16271B16261B162614
:101BF0001A16251A15241A1524191523191523192F
:101C00001523181522181321181321171421171240
:101C10002017122016121F16121F15121F16111E42
:101C200015121D15111D15101C14101C14101B135A
:101C3000101A140F1A130F1A110F19120E18110F70
:101C400017120D17110D17100D16100D16100C167A
:101C50000F0C140F0C150D0B130E0C140D0B120D95
:101C60000B110D0A120B0A100C09100B090F0B08AF
:101C70000F0A090F0A080D0A080D09070D08070BBE
:101C800008070A09060A08060A07060906060806DA
:101C900005080604080504060404060404050303F5
:101CA000050303050203030203030201020201010B
:101CB0000100010101000000000000000000000020
:101CC0000000000000000000000000000000000014
:101CD0000000000000000000000000000000000004
:101CE00000000000000000000000000000000000F4
:101CF00000000000000000000000000000000000E4
:101D000000000000000000000000000000000000D3
:101D100000000000000000000000000000000000C3
:101D200000000000000000000000000000000000B3
:101D300000000000000000000000000000000000A3
:101D40000000000000000000000000000000000093
:101D50000000000000000000000000000000000083
:101D60000000000000000000000000000000000073
:101D70000000000000000000000000000000020061
:101D80000002010102020103020104020305030231
:101D900005040306040306040406060407050409F3
:101DA00006040807050A07050A07060B07050C08BD
:101DB000070C08070C09070D09080E0A080F0A0886
:101DC0000E0B09100B09100B0A110C0A110C0B1247
:101DD0000D0A130E0B140D0C140E0B150E0C150E14
:101DE0000D15100D160F0C170F0D18100D18110DE5
:101DF00019110E18110E1A110F1A120F1B130F1BA7
:101E0000130F1C13101B14111D14111D15101E157A
:101E1000111E16111F16112016122016122117134B
:101E20002017132117132217142219132219142310
:101E30001915231A15241A14251B15251B15251BE6
:101E400015261B16261B16271B17281C17291B17C0
:101E5000281D17291D172A1D172A1D182A1E192B80
:101E60001E192B1E182C1F192C1F192B1F1A2D2061
:101E7000192C21192D201A2E201A2E211A2E211B41
:101E80002E221B2F211C2F221C30221C30231C3100
:101E9000221C31231C32231C32231D33231C3223EA
:101EA0001D33241D33241E33241E34251D35241ECA
:101EB00034251E35251E35251F35261F362520368F
:101EC000261F36271F37271F37261F37262037267E
:101ED0002038271F37272138282039272138282163
:101EE0003928213928213A28223928213929223A2A
:101EF00029213B28223A2A223A2A213B29223B291E
:101F0000223B29223B29223B2A223B2A223B2B220D
:101F10003B2A233C2B223C2A233C2A233D2A223CD9
:101F20002B233D2B233C2B223D2B233C2C233D2BD1
:101F3000233D2B243E2B223D2B223E2B233D2C23C5
:101F40003D2C233D2C233D2C233E2C233D2C243E95
:101F50002B233D2B243E2B233E2B233D2C233D2C9A
:101F6000233D2C243D2C233D2C243D2C243E2B238F
:101F70003D2C243E2B243E2B233E2B243E2C243D63
:101F80002B243E2B243D2C243D2C243D2B233D2B68
:101F9000233C2B243D2B233D2B233D2B233D2B2466
:101FA0003C2A233C2B233C2B233C2A233C2A223C47
:101FB0002A223C2A233B2A233C29233C2A223B2A4F
:101FC000233B29223C29223B29233A29223A292151
:101FD0003A29223A29223A29213A28213928223A33
:101FE0002821392820392821382820382821382745
:101FF0002037282038262137271F37262037271F4C
:1020000037261F37261F36271F35261E35261E3634
:10201000251F35251F34251F34251E34251D332447
:102020001D33241E33241E33231D32231D31231D53
:1020300031231D31221D31221B31211C30221C3045
:10204000221B2F211B2F211B2E211A2D211B2D215D
:102050001A2D211A2C201A2C20192B20192C20196A
:102060002B1F192B1E192A1E182A1E18291D182964
:102070001E17291D18281D18281C17271B18261C79
:1020800017271C16261B17261B15251B15251A1589
:10209000241A15231915241915221913231814228B
:1020A00018142118132117132017122016121E17A7
:1020B000111F16111E15121D14121D15111C1410BE
:1020C0001C14101C13101B13101B130F1A120E19C3
:1020D000120E19110E19110E18100D17110D1710DF
:1020E0000D170F0D150F0C140F0C140E0C140E0BF6
:1020F000130E0A130D0B120C0B120C09110C091004
:102100000C09100B080E0B090F0A080E09080D0A1E
:10211000070D08070C09070A09060B08060A070736
:10212000090705090606080505080504070503064D
:102130000503050403050402040402040202030269
:102140000102010202010001000100000000000084
:10215000000000000000000000000000000000007F
:10216000000000000000000000000000000000006F
:10217000000000000000000000000000000000005F
:10218000000000000000000000000000000000004F
:10219000000000000000000000000000000000003F
:1021A000000000000000000000000000000000002F
:1021B000000000000000000000000000000000001F
:1021C000000000000000000000000000000000000F
:1021D00000000000000000000000000000000000FF
:1021E00000000000000000000000000000000000EF
:1021F00000000000000000000000000000000000DF
:1022000000000000000000000000000100010100CB
:102210000102010201020402020403030503030692
:10222000030305050307050307050408050508055D
:10223000050906050A07060A07050B07070C080724
:102240000C09060C09080D09080E0A080E0A080FE9
:102250000B08100B09110B09110B0A120C0A130DB4
:102260000B130E0B140E0A140E0B140F0C150F0C7F
:10227000160F0D170F0D170F0E18100D18110E1841
:10228000120F19120E1A120F1A120F1C13101C1310
:102290000F1B14101D14111D14111D15121E1511E4
:1022A0001E151120151220161220161321171221A7
:1022B000171422171423181323181524181523197B
:1022C00015251A15251A15251A16261B16261A164F
:1022D000261B17271B17281C17281C17281C182912
:1022E0001D17291D18291E182A1D182B1E182A1EF5
:1022F000192B1F1A2B1F1A2C201A2E1F1A2D201AC9
:102300002E201A2E211A2E211A2E211B30221B308C
:10231000211B30211C30221C30221C31221D322373
:102320001D32231D32231D32241E33231D34231E50
:1023300033241E35241E34251E35251E35251E3515
:10234000261E35261F36261E36261F36261F372701
:102350001F362720372620382720382720382820E6
:102360003928203927213828213A282139292039AC
:1023700029213A29213A29213A29223B2A213B2A9B
:10238000213B29223B2A223C2A223B2A223C292289
:102390003C2A223C2B223C2B223C2A233C2A243D53
:1023A0002B223D2B233D2B223D2B233E2B233D2B4C
:1023B000243D2B233D2C233D2B243E2B233D2C243D
:1023C0003E2C243D2C243E2C243E2C233E2C233E0C
:1023D0002B253F2C233F2C243F2C243F2C243F2D06
:1023E000233F2C253F2C243E2C253F2C253F2D24FC
:1023F0003F2C243F2D233E2C253E2D233F2D243ED4
:102400002C253E2C243F2C253E2C253F2D243F2CD3
:10241000233F2D233F2C233F2C243F2C243F2C23D0
:102420003E2C243F2B243E2C233E2B253E2C243EA9
:102430002B233E2B243D2C233E2B233E2B243D2BB4
:10244000233D2B233D2B233D2B243C2B233D2A23B3
:102450003C2A233C2A233C2A233B2A233B2B223B96
:102460002A223C2A223B2A223B2A223A29223B29A1
:10247000213A2921392922392A21392920392820AC
:10248000392821382920392821382820392721378F
:10249000272037282038262037271F3627203726A1
:1024A0001F35261F35261E35261F35251E34261EB0
:1024B00034251F34251E34241E34251E33241D329A
:1024C000241E32241D32231D32231C31231D3122B0
:1024D0001C30231C31221C30211B2F221C2F211CBD
:1024E0002F211B2E211B2D211A2D201A2D201B2DB3
:1024F00020192C1F1A2B20192B1F192B1E192A1ECD
:10250000192A1E18291E19291E18291D18281D16DA
:10251000271D17281C16271C17261C15251B1626D9
:102520001A16251A15251A162419152419142319F3
:102530001423181422181422171421171321161308
:102540002017122017121E16121F16111E15111E0B
:1025500014111D15101D13101C13101C130F1B1329
:102560001019130E1A120E19120E19110E18110E3F
:1025700017100E16100D17100D150F0C150F0C144B
:102580000F0C130E0B130E0B130E0A120D0B110C66
:102590000B110C0A110B0A100B090F0A090F0A097B
:1025A0000E0A080D09080C09080C08070B09060B90
:1025B00008060908060A07050806060806050805AC
:1025C00005060603060504050404050303050302C6
:1025D00004020203020102020102010002010001E1
:1025E00000010000000000000000000000000000EA
:1025F00000000000000000000000000000000000DB
:1026000000000000000000000000000000000000CA
:1026100000000000000000000000000000000000BA
:1026200000000000000000000000000000000000AA
:10263000000000000000000000000000000000009A
:10264000000000000000000000000000000000008A
:10265000000000000000000000000000000000007A
:10266000000000000000000000000000000000006A
:10267000000000000000000000000000000000005A
:10268000000000000000000000000000000000004A
:102690000000000000000000000101000101010233
:1026A00002010302010302030502020404030504FC
:1026B00004060403060504070504080504080605C6
:1026C0000806050A07050A07060B08070C08070D88
:1026D00009070D09080D0A080E0A090F0B09100B4E
:1026E00009100B0A110C0A110C0A120D0A120D0B1B
:1026F000130E0C140D0C150E0B150F0D160F0C16DA
:102700000F0D16100E18100D17110E18120E1912AB
:102710000E1A120F1A120E1B13101B13101C14107A
:102720001C14101C15101D15121D16111E16121F3B
:1027300016121F1712201613201713221713221810
:1027400012221813231914231914231914251915E7
:10275000251915251A16251B15261B17271C1627A4
:102760001B17271C17281C18291D17291D17291E80
:10277000182A1D192B1D192A1E192B1F192B1F1A58
:102780002C1F192C1F1A2E1F1A2D211A2E201B2E1A
:10279000211A2E211B30201C2F221B2F221C3022FD
:1027A0001C30221C30221C31231C32231D32231DDD
:1027B00032241D33231D33241D33241E34251E349F
:1027C000251E35251E35251E35251F35271F352786
:1027D0001F37261F37262037262037271F37272168
:1027E0003727203827203927203829203828213931
:1027F00028213928213A28223A29213A29223A291E
:10280000223A2A223A2A223B2A223B29233B2A2205
:102810003C2A223C2A223C2B233C2B233D2A223CCF
:102820002B233D2B233C2C223D2C233D2B233D2BC6
:10283000243E2B233E2C243E2C233E2C233F2C23B2
:102840003E2D233E2C243F2C24402C233F2C253F7F
:102850002C243F2D253E2D24402D243F2C243F2D7C
:1028600024402D25402C253F2D25402D243F2E246E
:10287000402C25402D253F2E25412C25402D253F40
:102880002D25402D25412C25402D25402C25402D42
:10289000253F2D25402E243F2D253F2D253F2D253D
:1028A0003F2D25402D243F2C253F2D25402C243F16
:1028B0002D243F2D243F2D243F2D243F2C253F2C1C
:1028C000243F2B253F2D233F2C243F2C243E2C241A
:1028D0003E2C243D2C243E2C243D2C233D2B233DFB
:1028E0002B233D2B243D2B243D2B233C2B243D2B04
:1028F000223C2B223B2B233C2A233C2A233C2A220A
:102900003B2A223B29223C29223B29223B29223AED
:1029100029213A29213929223A29203928213928FF
:102920002039272138282038282038272038282007
:1029300037272137272037262036271F36262036EF
:10294000261F35261F34251F34251F34241F342409
:102950001F34251E34241D32241E33241D32231D12
:1029600032231C32231C32221D30231C30231B3007
:10297000221B30221C30211B2E211B2F201B2E211D
:102980001A2E201A2D20192C201A2C1F1A2C1F1A2F
:102990002C1F192B1F192B1E182A1E192A1D182926
:1029A0001D18291C18291D18281C17271C17271B40
:1029B00017271B16261B16261A16251A16241A1553
:1029C000241A14231A142219152219132218132257
:1029D00018132117132017132017121F17111F1573
:1029E000121E16111E15111C15111D14111C151087
:1029F0001C14101B140F1A130F1A130F19120E198F
:102A0000110E17110E18100E17100D170F0D1610AE
:102A10000C150F0D140F0C140F0B130E0B130D0BC5
:102A2000120D0A110D0A110C0A110C0A100C0910D2
:102A30000B090E0B080E0B080D09070D09070C09F1
:102A4000070C08070B08060B07060A06060A060508
:102A5000080604080605080405070404060403051F
:102A6000040304030305020203030102010202013D
:102A70000101010000000100000000000000000052
:102A80000000000000000000000000000000000046
:102A90000000000000000000000000000000000036
:102AA0000000000000000000000000000000000026
:102AB0000000000000000000000000000000000016
:102AC0000000000000000000000000000000000006
:102AD00000000000000000000000000000000000F6
:102AE00000000000000000000000000000000000E6
:102AF00000000000000000000000000000000000D6
:102B000000000000000000000000000000000000C5
:102B100000000000000000000000000000000000B5
:102B2000000000000000000101010002010002019C
:102B30000103020104020305020205040206030365
:102B40000604040605040706040805050906050928
:102B500007050A06060B08060B08060C08070D09F0
:102B6000070C0A070F09080E0B07100A080F0B09BC
:102B7000100C0A110C0A110C0A120E0A130D0A137A
:102B80000D0B140E0B140F0C150F0C160F0D161049
:102B90000C17100D18100E18120E18120E1A120F14
:102BA0001A12101A12101C12101C13101B14101DD4
:102BB00014101D15111D15111E16111E16121F16AB
:102BC0001221161321171221171421181323181379
:102BD000231914231914231A15241914251915243B
:102BE0001A16251B16261B16261B16271B16281C15
:102BF00017281C17281D17291C182A1E182A1E18EA
:102C0000291E182A1E192B1F182B1F192C1F1A2DAD
:102C100020192D20192E201A2D201B2F201C2F218A
:102C20001A2E211B30211C30221B31221D30221C68
:102C300032221C31231C31231D32231D33241D3429
:102C4000241D33241E33241F34241E34251E352610
:102C50001E35251F36261F36252036252037271FEF
:102C600037271F37272038272137272038282038B3
:102C700028203928213927213929213A29213A299F
:102C8000223A2A213A29213A2A213A2A223B292288
:102C90003B2A233B2A223B2A233C2A233C2B233D4D
:102CA0002A243D2B233C2B243D2B233E2B233D2C40
:102CB000233D2B243E2B243E2B243E2C243F2C242E
:102CC0003E2C243E2D243F2C243F2C253E2D253FF9
:102CD0002D24402C253F2E24402D243F2D25402DF2
:102CE000253F2E253F2E24412C26402E25402E25E3
:102CF000412D25402D25402E25402E25412E2541B4
:102D00002D26402E25412D26412E25412D26412EB2
:102D100025412E25412D25412D26412E25402E25AC
:102D2000412D25412D26412E25412D26412D26417F
:102D30002E25412D25412E26412E26402E25402D83
:102D400024402D25402E25402D25402D25412D2583
:102D50003F2E25402E24402D243F2D243F2D253F5E
:102D60002C243F2D243F2C253E2D243F2D243F2C69
:102D7000243F2C243E2C243E2C243E2C243F2B2468
:102D80003E2B243E2B243D2B243D2B233D2B233C4B
:102D90002B233C2B233D2A233C2A233B2A233B2A5B
:102DA000223B29223B29223B29223B29223B282264
:102DB0003929223A28213A2820392821392821384E
:102DC000282039272137272038271F372720372663
:102DD0002037262037271F37261E36261F36261F68
:102DE00035251E35261E35241E34241E33251E335C
:102DF000241E32251D32241D32241C32241C312273
:102E00001D31221C32221B30231C30211C30211C7E
:102E10002F221B2F201B2F211A2E1F1B2D201B2E74
:102E20001F192C20192C1F192B1F192B1F182A1E94
:102E3000192B1D182A1D192A1C18291C18281D17A2
:102E4000281C17271C17261C16261B16261B1726A0
:102E50001A16241A15241A152419152319142219BF
:102E600014221914221813211813211614201713D1
:102E70002017131F16111F15121D16121D16111DD6
:102E800015101C15101C13101B140F1A13101B12F5
:102E90000F1A130E19120E18120E18110E18100E0A
:102EA00016110D16100C160F0C150F0C150E0C1319
:102EB0000E0B130D0B130D0B120C0A110C0A100C38
:102EC00009100B090F0B090F0B090E09080D0A0851
:102ED0000D09080D09070C08070B07070A08070A60
:102EE00007060A060609050608050408050407047E
:102EF0000406030406040205040203030303030299
:102F000002020202010101010101010000000000B2
:102F100000000000000000000000000000000000B1
:102F200000000000000000000000000000000000A1
:102F30000000000000000000000000000000000091
:102F40000000000000000000000000000000000081
:102F50000000000000000000000000000000000071
:102F60000000000000000000000000000000000061
:102F70000000000000000000000000000000000051
:102F80000000000000000000000000000000000041
:102F90000000000000000000000000000000000031
:102FA0000000000000000000000000000000000021
:102FB0000000000000010001010002010103020104
:102FC00003020204030204030204030305030306CD
:102FD00004040704040805050806040807040A0792
:102FE000050A07060B07070C08070C08070D090759
:102FF0000D0A070E0A080F0A080E0C09100B09101B
:103000000B09110C0B110D0A130D0A140D0B140EE4
:103010000B140F0C140F0C15100C16100D160F0DB1
:1030200017100D18110D18120D19110E1A120F1973
:10303000130E1A13101C13101B14101D14101C1542
:10304000111D15101E15111F16111F151221161214
:1030500020171220171321181222181423181322D4
:103060001814231914241914251915251A15251BAC
:1030700016261B17271B16271C16271B17271C177E
:10308000281D18281D18291D182A1D192A1E182A3E
:103090001F192B1F192B1F1A2C1F192C201A2D201A
:1030A0001A2D201B2E211A2F211B2F201B2F211BF5
:1030B0002F221B30221C30221C30221D31231C32B7
:1030C000231D32231D33241D34241D33251D332499
:1030D0001D33241F34251E35261E35251F36261E7A
:1030E00036261F36271F37261F36262037271F373D
:1030F0002720382720372821382820392821392827
:10310000213928213929213A29213B29223A29220A
:103110003B29223B29223B2A223C29233C2A223CD0
:103120002A233C2B233C2B223C2B243D2B243E2BBF
:10313000223E2B233E2B243E2C233D2C243F2B24AC
:103140003E2C253E2C243F2D243F2D253F2C253F72
:103150002C253F2D243F2E24402D25412D24402D6C
:1031600024412D25402E25402E25402D25412D265C
:10317000412D25402E25412E25412E26412E25422A
:103180002E26412F26422E26422E26422E26422E23
:1031900026422E26422E25412F26422F26422F251B
:1031A000432E26422E26412F26412F26422F2742EC
:1031B0002E27422E26422E26422E26422F26412EF2
:1031C00026422F26422E26422E26412F25412E25ED
:1031D000412E25412E26412E26412E26412E2541C7
:1031E0002E26412E25412E26402D26412D25412DCE
:1031F00026402E25402E24402D253F2D25402D25CF
:103200003F2D253F2D24402C25402C24402C243FAD
:103210002D243F2D243F2C243E2C243E2C243E2BB9
:10322000243E2B233E2C223E2B223D2C233D2B23C0
:103230003C2B223C2A233C2A233C2A233B2A223BA8
:103240002A223B2A223B29223A29213B29213A28BA
:1032500021392921392821382921382920382821C4
:1032600038282038262137262037271F37261F36B3
:10327000271F36262035261F35261F35261E3425C6
:103280001F34251F34241E33241E34241D33241DD3
:1032900032241D32241C31231D31231C30221D30C9
:1032A000221D30221B30211B2F221B2E211B2F20E1
:1032B0001A2E201B2D201A2D201A2D1F192C2019F3
:1032C0002B20192C1E192B1E182A1D182A1D1929EE
:1032D0001D18281D18291C18281B17271C17261C09
:1032E00016261B17261B16261A15251B15241A151C
:1032F0002419152319142318152218142217132121
:1033000017132017132017122016132016111F153C
:10331000121E14121D14111D15111B15101C140F53
:103320001B13101A13101A120E19120F18110F185E
:10333000110E18110D16110D16110C160F0C150F7C
:103340000C140F0C150D0C130E0B130D0C120D0A93
:10335000110C0A110C0A110C0A100A0A100A080EA4
:103360000A090D0A080D09080C09080C08070C08C1
:10337000060A08060A0706090605080705080505DE
:1033800007060407050406050305040405040204F2
:103390000203030203020102020200020101010012
:1033A000010000000000000000000000000000001C
:1033B000000000000000000000000000000000000D
:1033C00000000000000000000000000000000000FD
:1033D00000000000000000000000000000000000ED
:1033E00000000000000000000000000000000000DD
:1033F00000000000000000000000000000000000CD
:1034000000000000000000000000000000000000BC
:1034100000000000000000000000000000000000AC
:10342000000000000000000000000000000000009C
:10343000000000000000000000000000000000008C
:10344000000000000000010100010101020201036F
:103450000202040202040303050303060404070432
:10346000040705040706040807050905060A0605FA
:103470000908050B08060B08070C09080D09070DBC
:103480000A080E0B080F0A08100A09100C09100C84
:1034900009110C0A120D0A120D0B120E0C130E0B51
:1034A000150F0B150E0C160F0C16100C16100D1711
:1034B000110D18110E18120E1A120F1A120E1A13DD
:1034C0000F1B130F1B140F1C15101D14101E1411AD
:1034D0001D15111E16111E16111F1712201713216C
:1034E0001713221713211813221814231914231940
:1034F00015241915241A15261915251B15261B1612
:10350000261B16261B16271C17271D17291C1828D3
:103510001D18291D182A1E182A1E182A1E192B1FAD
:10352000192B1F192C1F192C201A2D1F1A2D211A87
:103530002E211A2E211B2E221A2F211C30221C3143
:10354000221B30221C31231C32231D32231D322426
:103550001D32241E33241E33241D33241E33261E05
:1035600034261D34251E35261E35261F37252036C8
:10357000271F37262037271F3827203827203827AE
:10358000203827203928213A28203A282239282291
:103590003929213B29223A2A213B2A213C29223B55
:1035A0002A233B2A233C2A233D2A233D2B233D2B40
:1035B000223D2B223E2B233D2C233D2C233E2C232E
:1035C0003E2C243E2C253F2C253F2C243F2C253FF0
:1035D0002D24402C243F2D25402D25402D26402DE7
:1035E00025402D25402D25412D25412D25412E25D8
:1035F000402E26412E25412E25422F26422E2542A1
:103600002E25422F26412E26422F27432E26422F9B
:1036100026422F26422F26432E27432F26432E278E
:10362000432E27423026422F27432F27432E27435E
:103630002F26432F27432F27433026432F27432F5F
:1036400027433026432F27432F27422F2742302658
:10365000432F27423026423026432F26422F264230
:103660002F26422F26422F26432F26422F26432E37
:1036700026422E26422E26422E26422E26412F2537
:10368000422E25422E25412F25412E25412D254014
:103690002E25412E25412E25412D25402E243F2E1D
:1036A000253F2E253F2D25402D243F2D243E2C2522
:1036B0003F2C243F2C253F2B243F2C243E2C233D04
:1036C0002C243D2B243D2B233D2A233D2A243C2A18
:1036D000233C2A233C2A223C2A223B29223B292222
:1036E0003A2A213B2A213B2822392A213929223A08
:1036F000282139282138292138282038272037281F
:103700001F37271F37272036262037261F36261F2C
:1037100036261F35251F35251F34251E34251D331C
:10372000251E33241D32241D32231D32231D322237
:103730001D31231D31221D30221C30211C30211B44
:103740002F221B2F201B2F201B2D201B2D201B2C3D
:10375000201A2D1F192C1F1A2B1F182B1F182B1E58
:10376000192A1E18291E182A1D17281D18281C176B
:10377000281C17281B17271B15261B16261B16256A
:103780001B15251A15241A15231915231914231886
:10379000132218142217132117132116131F17129F
:1037A0001F16121E17111E15111E15111C15111DA5
:1037B00014101C140F1B13101B13101A130F1912C3
:1037C0000F19120E18110E18100E17110D17100CDC
:1037D00016100C160F0C140F0D140F0B140E0B14E7
:1037E0000D0B130D0A130C0A110C0A110B0A100B06
:1037F0000A0F0B090F0B080E0A080D09080C0A071F
:103800000C08070B08070B07070B07060907050934
:103810000605080604070504070404070403050455
:10382000030503030403020302020302020301016E
:103830000201010000010000000000000000000083
:103840000000000000000000000000000000000078
:103850000000000000000000000000000000000068
:103860000000000000000000000000000000000058
:103870000000000000000000000000000000000048
:103880000000000000000000000000000000000038
:103890000000000000000000000000000000000028
:1038A0000000000000000000000000000000000018
:1038B0000000000000000000000000000000000008
:1038C00000000000000000000000000000000000F8
:1038D00000000100000101000201010301020203D6
:1038E000020302030403020504030604040704049C
:1038F0000606040805040807050906050A06060A5F
:1039000007060B08060C09070C09070E08070D0926
:10391000080D0A080F0A09100A0A100B09110C09F0
:10392000120C0A130C0A130D0B140E0B140E0B14AD
:103930000E0C150F0D16100C16100D17110D18107A
:103940000E18110E18120E1A110E1A120F1B130F49
:103950001A14101C13101B150F1D14101E14111E09
:1039600014111F16111F16122017112116132116DC
:1039700013211813221813221814231914231914AD
:10398000241914241916241B15261A15271B15276C
:103990001C16261C16281C16281D18291C18291D43
:1039A000182A1D192B1E182B1E182B1E192C1E1918
:1039B0002B201A2D1F1A2D20192E201A2E201A2FD7
:1039C000201B2E221B2F221B30211B31221C3122B7
:1039D0001C31231C32221D32231D33231C32241D93
:1039E00033241E33241E34241E34241F35251E3553
:1039F000251E35261F36262036261F362720362838
:103A00001F38281F38262038282039282138282117
:103A10003929213928213A29213A28223B29213BD9
:103A200029223B2A223C2A223B2A233C2A223C2BC5
:103A3000233D2B223C2B233C2B233E2B233E2C23AC
:103A40003D2C233E2C233E2C233E2C243F2C243F74
:103A50002C243F2C25402C243F2D25402D25402D66
:103A600025402D25402E25412E25412E25402E2551
:103A7000412E26412E26422E26412F25412F264219
:103A80002F26422F26422F26432E27422F26432F12
:103A900026442F26432F26423026423026432F2706
:103AA000442F27433027423027432F2743302643D4
:103AB0003028442F27432F274330274430274430D2
:103AC00027443027433028442F28443027443027C8
:103AD000443027443127443027442F28443027449A
:103AE0003027442F274431274430274430274330A0
:103AF00028433027432F27432F27433026432F27A0
:103B0000433026432F27432F27432F27422F274277
:103B10002F26422F26432E27422F26423025412F83
:103B200026422F26422F26412F26402E26412E2682
:103B3000412E25412D26412D25402D25402E254065
:103B40002D25402D25402D25402C253F2D243F2C73
:103B5000243E2D243F2C243E2C243E2B233E2C247B
:103B60003D2B233D2B233D2B233C2B233B2A233C66
:103B70002A233C2A223C29233B2A213B2A223B2977
:103B8000223A29223A29223A282239282139282181
:103B900038282138282038272138282038271F376F
:103BA000272036271F36271F36261E35251F352688
:103BB0001E35251F34251E34241D34241D33241E98
:103BC00033231D32231D32241C32221D30231C308E
:103BD000221D30221B2F211B2F211C2E211C2E21A8
:103BE0001B2E211A2D201A2D1F1A2C20192C1F19BB
:103BF0002C1F192C1E182B1E182A1E192A1E1829B4
:103C00001D17281D17281C17271D16281B17271BD3
:103C100016261B16261A16251A15251A15241915E7
:103C200023191422191422181422171422171321ED
:103C300016132017131F17121F16121F16111E1509
:103C4000111E15101D14111C14111C140F1B131020
:103C50001B130E1A130F19120F18120E18110E182B
:103C6000110D17100D170F0D16100D150E0C150E4A
:103C70000C140E0B140E0B130D0B120D0B100D0A62
:103C8000110C0A0F0C09100A090F0A090E0B080D76
:103C900009070D09070C09070C08070B08070A0894
:103CA00006090706080705080604080505060503B2
:103CB00006040406040305040304030304020202C9
:103CC00003010302010101010100010100010000E3
:103CD00000000000000000000000000000000000E4
:103CE00000000000000000000000000000000000D4
:103CF00000000000000000000000000000000000C4
:103D000000000000000000000000000000000000B3
:103D100000000000000000000000000000000000A3
:103D20000000000000000000000000000000000093
:103D30000000000000000000000000000000000083
:103D40000000000000000000000000000000000073
:103D50000000000000000000000000000000000063
:103D60000000010001010101010102020103020240
:103D70000303020503020504030504030704050702
:103D800005040705050906060907050907060B07C7
:103D9000050B08060C08070D08070E09070E090891
:103DA0000E0B080F0A09100B09110C09110B0A124E
:103DB0000C0A130D0A130D0B140D0B140E0B150F1B
:103DC0000C150F0C170F0D17100D17100D18110DE6
:103DD00018120D19110F19120F1B130F1B12101CA3
:103DE000130F1C14101D14111D15111E15111E1575
:103DF000121F16122015131F171220171321171345
:103E0000211814211814231914231914241A142501
:103E10001915251A15251B15251B16271C16271BDA
:103E200017281C16281D17291D172A1D18291E18AA
:103E30002A1E182B1E182B1F192C1F192C1F192C6A
:103E40001F1A2D201B2D201B2E201B2F201B2F2146
:103E50001C2E221B30221B30221D31221C31231C20
:103E600031221C32231D32241D33241D33241D33E3
:103E7000241E34251D34241E35251F35251F3625C7
:103E80001F36262037262037261F372720372820A1
:103E90003727213828213828203928213929223963
:103EA00029213A29213A29223A2A213B29233B2A4E
:103EB000233B2B223C2A223C2A233C2B233C2B2233
:103EC0003D2A233D2C233E2B243E2C233E2C243EF6
:103ED0002C243F2C253F2D243F2C243F2D25402DE5
:103EE00025402D25402D24402D25402E25412D25D2
:103EF000412E26422E25412E25412F26422E264296
:103F00002F26432F25422E27432F26422F26432F8D
:103F100027432F27432F27442F27432F274330277B
:103F20004430264430274430264330274431274448
:103F30003028443027443028453127453028443044
:103F4000274531284430284530274531274531273A
:103F5000443128443128443028453028453128440C
:103F6000312845312845322746302845312745300C
:103F70002845312745312745302745302844312809
:103F800045302744312745312744302744312744E1
:103F900030274431274530274430274430274330E9
:103FA00027442F27432F27433027433027433027E9
:103FB000433026432F27422F27432E27422E2642C7
:103FC0002E27412F26422E26422F25412F26412ED5
:103FD00026422E25422D25412D25412D26402E25D8
:103FE000402D25402E243F2D243F2C253F2C243EC0
:103FF0002C243E2C243E2C243E2C233D2C243E2BD2
:10400000243D2B243D2B233C2B223C2B233B2B22DA
:104010003C2A223B2A213B29223A2A213A292239C9
:1040200029223928213928223928213828213927DD
:104030002038282038272037271F37262036271FEB
:1040400035271E35261E35261F34261E34251E34E0
:10405000251E33241E33241E32251D33231E3224F5
:104060001D31231C31231C31231C30221C30211B09
:104070002F221B2F211B2F201B2E201A2E201A2C03
:10408000201A2C1F1B2B20192B1E1A2C1D192A1E1F
:10409000182A1E18291D18291D17291D17281B1835
:1040A000271B17271C16261C16261A16251A162635
:1040B0001A15241916231915231914231914221853
:1040C000132218132117132017122016121F17126C
:1040D0001E16111F15111E14111E14111D13111C73
:1040E00013111B13101B130F1A130F19120F191290
:1040F0000E19110D17120D17100E16100D160F0CAC
:10410000160F0C140F0C130F0C140D0B130D0B13B7
:104110000D0A120C0B110C0A100C090F0B090F0BD6
:10412000090F0A080D09080D09080C09070C0807F2
:104130000C08060B07060907060907050905050708
:104140000504070504060504060403050304050326
:104150000304020203020202010202000200010142
:10416000000000000000000000000000000000004F
:10417000000000000000000000000000000000003F
:10418000000000000000000000000000000000002F
:10419000000000000000000000000000000000001F
:1041A000000000000000000000000000000000000F
:1041B00000000000000000000000000000000000FF
:1041C00000000000000000000000000000000000EF
:1041D00000000000000000000000000000000000DF
:1041E00000000000000000000000000000000000CF
:1041F00001000101000102010002020203020303A7
:10420000020305030205030306040406050407056B
:10421000040806050806050A06050907060A070632
:104220000C08060C09060D08070D09080E0A080EF1
:104230000B080F0B09100B09100C09110B0A120CBB
:104240000A120C0B130D0B140E0B140E0B150E0C87
:1042500015100C17100D16100E18100D17110E1941
:10426000120E19110F1912101B130F1B14101C130F
:10427000101C14111D14111E15111E15121E1612DC
:104280001F1612201712211712211712221813229B
:104290001814231814231915241915241A15241A6F
:1042A00015251B15261A16261B16261C17281B1744
:1042B000281C18281C17291D18291D182A1D172A03
:1042C0001F182B1E192C1F192C1F192C20192C20DC
:1042D000192D1F1A2E211A2E211B2F201C2F221BB5
:1042E00030211C30221C31221C31231C31241D3270
:1042F000231D32231E34231D33241E33251E342553
:104300001F34251E35261E35261F36262036261F2D
:1043100037262038262037272038272038282139EB
:1043200028203A28213928213A28223A29213B29D4
:10433000213B29223B29223B29233B2B223C2A23B8
:104340003C2B233D2B223C2B223D2C233D2B233E7B
:104350002C243F2B243E2C243E2D243F2D243F2D66
:10436000243F2D24402D25412D25402E25402E254E
:10437000402E25412D25412E26422E26422E264313
:104380002E26422F26422E26422F26432F26432F0B
:1043900027432F27432F27432F27433027433028F6
:1043A00044302744302744302744312745302745BF
:1043B00030284530284430294530284630294531B9
:1043C00027453129453128453127453127453228B0
:1043D000463127453128453228463128463128467E
:1043E000312846322846322846312846312946317E
:1043F0002846312946322846312846312846312977
:10440000463128463129463129463128463128454A
:104410003129463128453128453128463128463151
:104420002746312845302745312845312845312751
:10443000443128443028453027453028443028442A
:104440003027443027442F28443026442F27442F38
:1044500027433027442F26423026422F26432F263B
:10446000422F27422F26412F26412F25412E26411C
:104470002D25412E26412E24412D26402D24402D30
:1044800024402C253F2D25402C253F2D243F2B2437
:104490003F2C233E2C233D2C243E2C233D2B233D1F
:1044A0002B233C2A243D2A233C2A233B2A233B2A34
:1044B000223B29223B29223A29223A29213A282142
:1044C0003928213928213828213828203828203730
:1044D000262037272036271F36261F36261F35264B
:1044E0001F35261E35261E34251D34251D33241D5B
:1044F00033241D32231D31231D31231D31231C3054
:10450000221B30231B30221C2F211B2F211B2E206E
:104510001B2E201B2D201A2D20192C1F192C1F1A81
:104520002B1F192A1E192A1E192A1E18291E17297F
:104530001C18281D17291B18271C17271B16271A9C
:1045400016251B16251A15241A15241A14231914B6
:1045500023191522191422181322171321171320B7
:1045600017121F17121F16121F16121E15111E14D6
:10457000111D14101C140F1C14101B130F1A130FF1
:104580001A130E19120E18120E18110E17100E17FC
:10459000100D16100C15100D150E0C140E0C140D1C
:1045A0000C130D0B120D0A110D0B110C0A100C0936
:1045B000100B090F0A090E0A090E0A070E09070D4A
:1045C00008070C09070B08060B070609070509066B
:1045D0000509060508050408050406040406040385
:1045E00005030204030204030103020102020102A3
:1045F00001020002000100000000000000000000B5
:1046000000000000000000000000000000000000AA
:10461000000000000000000000000000000000009A
:10462000000000000000000000000000000000008A
:10463000000000000000000000000000000000007A
:10464000000000000000000000000000000000006A
:10465000000000000000000000000000000000005A
:10466000000000000000000000000000000000004A
:10467000000000000000000000000000000000003A
:10468000010002010101020102020103020204020F
:1046900002050303050303060403060504070505D5
:1046A0000806040806050A07050A07060A07060B96
:1046B00008060C09070D09070E09080E0A080E0B5B
:1046C00009100B09100C09100C0A110C0A110C0B23
:1046D000120D0B140D0B140D0B150E0C150F0D16E2
:1046E0000F0D16100D17110D18110D18120D1812AF
:1046F0000E1A110F19130F1A130F1B14101C14107C
:104700001C14101C14111E15121E15111E16122039
:10471000151220161220181222171422171322190C
:1047200014241814231914251914241A16261A16D9
:10473000261B15261B16271B17271B16281C172898
:104740001C18291D17291D17291E182A1E182B1E73
:10475000182B1F192D1E192D1F192D1F1A2D201B47
:104760002D211B2F211A2F211B2F211B30221B3003
:10477000221C30231B32221D32231D31241D3224E2
:104780001D33251D34241D34241E34251E35251FBC
:1047900034251F36251F36261F37261F372720387A
:1047A0002620382820382720382821382920392960
:1047B000203A28213B28223A29223B2A213B2A2140
:1047C0003C2A223B2A223C2A233C2A233C2B233D01
:1047D0002A233C2C233E2B243E2B243E2C243F2CEE
:1047E000243E2C253F2D243F2D243F2D24402E24D4
:1047F000402E25402D26412D26422D25402E264196
:104800002E26412F26422E27422F27422F26422F87
:1048100027442F26432F27432F2743302744302771
:10482000433027443027443027453028453027453A
:104830003027453027453127453127453028463137
:104840002846312946312846312946322846312921
:1048500046322847322847312947312946322847EE
:1048600032294731294732294732294633284732EE
:1048700029473229473229473229473229473229E5
:1048800047322947322847332947322847322847B9
:1048900033284732294732294732294731294632BE
:1048A0002A473129463228473229463129463228BB
:1048B0004632284631294631284632284631294693
:1048C000312846312846312845312846312845319E
:1048D00028453028453127453127453028443028A0
:1048E000443027443027442F27433127432F274480
:1048F0002F27432F26422F27432E27432E27423090
:1049000026422E26422E25412F26412E26412E2696
:10491000412D26402E25412D26402E253F2E253F78
:104920002D253F2C253F2C243E2D233E2D233F2C8F
:10493000243D2C233D2C233E2B233C2B243D2A239A
:104940003D2A233C2A233C2A233B29223A2A223A85
:104950002A213A2A213A292239292138282139289D
:104960002138282038272037272138271F37261FAE
:1049700037261F36261F35251F34261E35241E34A4
:10498000241F34251D34241D33241D33231D3223BD
:104990001D31231D31231C30221C30231C30211CCF
:1049A0002F211B2F211B2E201B2E201B2D20192CCD
:1049B0001F1A2C20192B1F192C1E192B1E192B1DE9
:1049C000182A1D19291D18281D17281C18271D17FE
:1049D000271B17261C15261B16261A16251A152402
:1049E0001A14231A15231A14241814221814211720
:1049F000142117132018122116122016121F151237
:104A00001E15121E15111D14111C14101C14101B40
:104A1000140F1B130F1B120F1A120F18120E17115F
:104A20000E18100E17100D16100D150F0C150F0C7B
:104A3000140F0B150D0B130D0C120E0B120C0A118B
:104A40000D09100B0A0F0B0A100B080E0B080D0AAC
:104A5000080D09080D09070B09070B08070A0807C5
:104A60000A070609060609050507060407060407DE
:104A700004040604040603030403030403020302FC
:104A80000203010202010101010001000100000016
:104A90000000000000000000000000000000000016
:104AA0000000000000000000000000000000000006
:104AB00000000000000000000000000000000000F6
:104AC00000000000000000000000000000000000E6
:104AD00000000000000000000000000000000000D6
:104AE00000000000000000000000000000000000C6
:104AF00000000000000000000000000000000000B6
:104B000000000000000000000000000000000000A5
:104B10000001010002020103020203030104030277
:104B20000503030504030604040705030805030938
:104B300005060906050907050A08060B07060B08FE
:104B4000070C09070D09080D09080E0A090F0B08C3
:104B5000100B09100C08100B0A110D09120C0A1386
:104B60000D0B130E0B140E0B140E0C15100C151050
:104B70000C16110C17110D18110E19110E19120E19
:104B800019120F1A130F1B130F1B13101C13111DD7
:104B900015111D15101E15111F15111F16121F16A8
:104BA0001221171321171321181322171423181475
:104BB000231914231914241A15251B15261A152533
:104BC0001B16261B17261C16271C17281D17281C0A
:104BD00018291D182A1D182A1E182B1E192B1F18DC
:104BE0002C1F192C1F1A2D1F1A2E201A2E201A2F97
:104BF000201A2F221B2E221B30221B30221C302376
:104C00001B31231D32231C31231D33241D32241D4F
:104C100034241D34241E35251E35251E35261E360A
:104C2000261F37251F36261F37262038271F3728EF
:104C30001F3828213828203928213A29213A2821CB
:104C40003B29213A29223B29223C29223B2A213B8C
:104C50002B223D2A233C2B233D2B233D2C233D2C73
:104C6000233E2B233E2C243F2C243F2C253F2C2459
:104C7000402C25402D25402E25402E25412E254017
:104C80002F25412E26422E26412E26422E26422F09
:104C900026423026432F26433027432F27442F27F1
:104CA00044302644302744302844302744312745B7
:104CB00031274530284531284531284532274531AF
:104CC000284532284631284632284632284632289E
:104CD0004732284632294632294732294732294766
:104CE000322947322947332947332947322A473265
:104CF0002947332A47322A48322A47332948332A58
:104D000048332948332948322A4833294734294827
:104D1000322A48332A48332A48332948332A483329
:104D20002948322A48332948322948332948332927
:104D300047332947332948322948332947332947FC
:104D4000332947332947322A473229473329473203
:104D50002948322947322846322946322846322805
:104D600046322847312946312946312845322745E0
:104D700032284531284531284431284530284431EE
:104D800027443127443027433027443027433027F6
:104D9000442F27433027432F27432F27422F2642D4
:104DA0002E27422F26422E26422E25402E25412EEA
:104DB00026412E25402E253F2E253F2D24402D24F3
:104DC0003F2C253F2D243E2D243E2C243D2C243DDC
:104DD0002C233D2C233D2B233D2A233C2A233C2BF3
:104DE000223B2A223B29223A2A213A292239292107
:104DF00039292139282139282138282038282038F4
:104E0000282036272037262036261F36261F35260F
:104E10001F36251F35251E34251E33241E33241E20
:104E200032241D32241D32241C32231D31221C3019
:104E3000231B2F231B2F221C30211B2E211B2E2135
:104E40001B2E201B2E1F1A2C201A2D1F192C1F1A47
:104E50002A1E192B1E192A1E182A1E182A1C182948
:104E60001C18281C17271C16271B17261B16251A6B
:104E700016251A16251A1625191524181423181480
:104E80002219142218132217132117132017121F87
:104E900017121F15121E15121E15111D14111C14A8
:104EA000101C13101B14101B130F1A130E1A120EC2
:104EB00018120F18110F17110E17110D16100C16CE
:104EC000100C150E0D140E0C140E0C140D0B120EEE
:104ED0000B120D0A110C0A110C09100B09100A090A
:104EE0000F0A090E0A080D09070C09080B09070C1F
:104EF00008070A08060A070509070508070508053F
:104F00000507050507040506040405040304020358
:104F10000403020302020302010101020100010174
:104F20000001000000000000000000000000000080
:104F30000000000000000000000000000000000071
:104F40000000000000000000000000000000000061
:104F50000000000000000000000000000000000051
:104F60000000000000000000000000000000000041
:104F70000000000000000000000000000000000031
:104F80000000000000000000000000000000000021
:104F9000000000000000000000000000000101000F
:104FA00001010102010002020104020204020205E1
:104FB00003030503030604040704040705040806A5
:104FC000050907040907060B06060A08060C080768
:104FD0000C09070D09070E09080E0A080F0B080F28
:104FE0000B09100C0A110C0A120C0A120D0A130DEF
:104FF0000A130E0B140F0C150E0C160F0C17100DB8
:1050000017100C17100D18110D19110E19120E1A78
:10501000120F1A13101B14101C13101C14101D1542
:10502000111E14121F15121E16121F15132016130F
:1050300020171321171421181423181323181423CD
:105040001915241A15251A15251A15261A16261AA1
:1050500016271B16281B17271C17281C18291C1875
:105060002A1D182A1E182A1E182B1E192B1F1A2C2F
:105070001F192D1F1B2D1F1A2E1F1A2E201A2E210D
:105080001B2F211B2F221C30221D31221C31231CDF
:1050900031231D32231D32231E33231D33251D349E
:1050A000241E34261D35251F35251F35261F37267E
:1050B0002036262036272037282037282038272159
:1050C0003928203928223929213A2922392A213B15
:1050D00029223B29223C2A223B2A223B2B223D2B00
:1050E000233D2B233D2C233E2B233E2B243E2C24DF
:1050F0003E2C243F2D24402C24402C24402D253FA1
:105100002E25412E24412D26412E25422E26422E8B
:1051100025412F26422F26422F26432F2643302774
:10512000432F27432F264430274430274431274438
:10513000312744302845302844312745312745312F
:105140002846312846312846322845322946322918
:1051500046312947322947322948322947322948DE
:10516000322948322948322A4733294732294733DE
:105170002848322A49332A48332A49332A49332ACC
:1051800048342949342948342A49342948342A4999
:10519000332A49332B48342B49332A4A332949339C
:1051A0002B49342B48342949342A49332A49342B92
:1051B00049332B48342A49332A48342A49332A4868
:1051C000342948342A49332A48332A49332A48346F
:1051D0002A48342949332A49322A49332948332A6B
:1051E00048332A49322A4833294832294732294745
:1051F0003329473329473229483229463229463252
:105200002946322847312846322846312946312856
:105210004631284631274631284531284530284532
:105220003028453127453027443027443027433044
:1052300027433027442F26432F26423026422F254E
:10524000422E26412E26412E26412D26402E254136
:105250002D26402D26402D25402D253F2D243E2D49
:10526000243E2C243E2C243E2C243D2C233D2B2458
:105270003E2A233C2B233C2A223B2B223B29233B47
:105280002A223B29223A2922392921392921382960
:105290002039282039282037272137262036272073
:1052A00037271F37261F36261F35251F35251F3563
:1052B000251F34251E34241D32241D33241D322382
:1052C0001C32231D32231C30221C30221B30211C97
:1052D0002E211B2F201B2E201A2D201A2C211A2D97
:1052E00020192C1F1A2B1F182B1F182A1F182A1EB3
:1052F000182A1D18281E17281D17281B17271C16CB
:10530000271C16251B16251B16241A1625191624CC
:105310001A142319142319142218142217132217EC
:10532000132017132016122016121F15121E151106
:105330001D15111D15111D14101B14101B130F1A10
:1053400013101A120F19110F19110E18110E17112F
:105350000D17100D16100D150F0C150E0C140E0C4C
:10536000140D0B120E0B130C0B110D0A100C0A105E
:105370000B090F0C090F0A090E0A080E0A070D087F
:10538000080C09070B08070B08060B06060A060699
:1053900009060407060508050407040405040404B7
:1053A00004040403040403020302020301020201D1
:1053B00001010100000100000000000000000000E9
:1053C00000000000000000000000000000000000DD
:1053D00000000000000000000000000000000000CD
:1053E00000000000000000000000000000000000BD
:1053F00000000000000000000000000000000000AD
:10540000000000000000000000000000000000009C
:10541000000000000000000000000000000000008C
:10542000000000000000000000000000010000017A
:105430000100020100020301030302040203050448
:10544000030503030504040705040805040806050D
:105450000807050A07060A08060B08060B08070CCA
:105460000A070D09080E0A080E0A090F0B090F0C8E
:1054700008100C09110C0A120C0A120D0A130E0B5B
:10548000140E0B140F0C150E0D160F0C16100D1616
:10549000100E17110D19110E19120E19120F1A12E2
:1054A000101B12101B13101C14101C14111D1412AD
:1054B0001E15111E15121E1612201612201612206D
:1054C000171321171322191322191423191424193D
:1054D00014251915251915261A16261B15261C160E
:1054E000261C16281C17281C17291C182A1D172AC9
:1054F0001D192B1E192B1E192B1F192B1F1A2D1F9F
:105500001A2D201A2D201A2E211A2E211A2F221B75
:105510002F221C31221B31211C31221C31231C3231
:10552000231D32231E33241D34251E34241D34260E
:105530001E35261E35261E362520362620372620E7
:105540003726203727203827203828203928213AA5
:1055500028213A28223A29223B29223B29223B2989
:10556000233C2A223C2B223D2A233D2B233D2B2466
:105570003D2C233E2C243F2B243F2C243F2C243F26
:105580002D253F2D25402D24402E25412D26412E11
:1055900025412E26402F26422E26432E26422F26F8
:1055A000432F26433026433026432F2744302844B8
:1055B00030274530274430274431274531274531AE
:1055C0002846312945312845322846312846322897
:1055D000473129473228473229473229473229475C
:1055E000322948322947322A483229473329483359
:1055F0002A49322A48332A48342949332A49332B45
:1056000049342A49342A49332B49342B48342B490D
:10561000342A49342A49342A4A342B49352A493410
:105620002A49342B4B342A4A342A49352A49352B06
:1056300049352A4A342B4A352B4A352A4A342B4AD3
:10564000342B4A342A4A342A4A342B4A342A4934DD
:105650002B4A342B4A342B4A352A4A332B4A352AD3
:105660004A332B4A342B49332B49342A49342A49AB
:10567000332B49342A4A332A48332B4A332A4833B6
:105680002A48332A48332949332948332948322ABA
:1056900048322948332848322A4832294732294794
:1056A00032294731294731294731284631284632A6
:1056B00028453128463128453128453127453028AD
:1056C000443027443028453027433027442F274390
:1056D0002F27422F27422E26432F26422F26422EA7
:1056E00025412D26412D26412E25402E25402D25B4
:1056F000402D24402D243F2D243E2D243F2C243E9C
:105700002C233E2C243E2B233D2B233D2B233C2BB3
:10571000233C2A223B2A233A2A223B29223A2921C6
:105720003A292139282139282139282038282038B8
:1057300027203727203727203726203626203526D2
:105740001F36251E35241E34251E34251E33241EE7
:1057500033231E33231D32231D32221D31221D31DE
:10576000221B2F221C2F221B2F221B2F211B2E20FE
:105770001B2D20192C201A2C1F1A2C1F182C1E1818
:105780002B1E182B1E18291E18291E18291C172815
:105790001C17271C17271B17271B15251B15251B37
:1057A00015251A15231A152419142318152219144E
:1057B0002218132117132017132017121F17121F57
:1057C00015121E16111E14121D15111D14101B1476
:1057D000101B13101B130F19130F19120F19120D91
:1057E00018100E18100E17100D160F0D160F0C15A1
:1057F0000F0C140E0B130E0B130E0A130C0B120CC2
:105800000A100C0A110B09100B080F0A080F0A08DE
:105810000D0A070D0A070C08070B08060A07060AF7
:105820000706090705080605080605080405070414
:10583000050604040603030503030402030401022E
:10584000020201020101010001000000000000004D
:105850000000000000000000000000000000000048
:105860000000000000000000000000000000000038
:105870000000000000000000000000000000000028
:105880000000000000000000000000000000000018
:105890000000000000000000000000000000000008
:1058A00000000000000000000000000000000000F8
:1058B00000000000000000000000000000010101E5
:1058C00001020102020201030202040302040303B3
:1058D0000504030604040705040706040806040972
:1058E00006050A07060A07060B08060C08070D0935
:1058F000070D09080E09080E0B080F0A09100B09FD
:10590000110B0A120C0A120D0A130D0A130E0B14B6
:105910000D0C140F0C140F0C16100C17100D171083
:105920000D18100D19110E19120E1A120F1A130E4E
:105930001B130F1C13101C14111D14111D15111E07
:1059400015121F15121F16122017122017132117D8
:1059500013211813231714241814241913241915A8
:10596000251A15251A15261A16271B16271B172761
:105970001D17281D17281C182A1C18291E182A1E36
:10598000182A1F192B1E192C1F1A2C1F1A2E20190A
:105990002E1F1A2D201B2E211B2F211B2F221B31C6
:1059A000211C30231B31221C32231C31241C3223A6
:1059B0001D33241D33241E34241E35241F35251F7A
:1059C00036251F36261E36272036271F37271F3736
:1059D000272038272039282038282139292139291A
:1059E000213A29213A29213B29233C29223C2A23F7
:1059F0003C2B223C2B233D2B233E2B233E2B243FB1
:105A00002B243E2C243F2C243F2C253F2D24402D9D
:105A100024412C25402D25402E25422D26412F2680
:105A2000422F25422F26432F26432F26432F26433E
:105A3000302743302644302744302745302745302F
:105A40002745302946312846312845312846322815
:105A500045322946322847312947322A47322947D9
:105A600032294732294832294833294833294833D3
:105A70002A48332A49332A48342A49332A493429BF
:105A800049342A49342A4A332B49342A4A332B4A87
:105A9000342B4A342A4A342B4A342B4A342B4A3486
:105AA0002B4A342C4A342B4A352B4A342C4B342C79
:105AB0004A352B4C342B4A352B4B352B4B352C4B45
:105AC000352B4B352B4B342B4B352B4B342C4B364A
:105AD0002B4B352B4B362B4B352B4B352B4B352B43
