:020000040800F2
:10000000609600200D5D0D0895560D0897560D0859
:1000100099560D089B560D089D560D0800000000CE
:1000200000000000000000000000000059E60C087D
:100030009F560D080000000001E60C08A1560D08AF
:10004000AD5D0D08B15D0D08B55D0D08B95D0D081C
:10005000BD5D0D08C15D0D08C55D0D08C95D0D08CC
:10006000CD5D0D08D15D0D08D55D0D08D95D0D087C
:10007000DD5D0D08E15D0D08E55D0D08E95D0D082C
:10008000ED5D0D08F15D0D08F55D0D08F95D0D08DC
:10009000FD5D0D08015E0D08055E0D08095E0D0889
:1000A0000D5E0D08115E0D08155E0D08195E0D0838
:1000B0001D5E0D08215E0D08255E0D08295E0D08E8
:1000C0002D5E0D08315E0D08355E0D08395E0D0898
:1000D0003D5E0D08415E0D08455E0D08495E0D0848
:1000E0004D5E0D08515E0D08555E0D08595E0D08F8
:1000F0005D5E0D08615E0D08655E0D08695E0D08A8
:10010000AF560D086D5E0D08715E0D08755E0D0829
:10011000795E0D087D5E0D08815E0D08855E0D0817
:10012000895E0D088D5E0D08915E0D08955E0D08C7
:10013000995E0D089D5E0D08A15E0D08A55E0D0877
:10014000A95E0D08AD5E0D08B15E0D08B55E0D0827
:10015000B95E0D08BD5E0D08C15E0D08C55E0D08D7
:10016000C95E0D08CD5E0D08D15E0D08D55E0D0887
:10017000D95E0D08DD5E0D08E15E0D08000000008F
:10018000E55E0D08E95E0D08ED5E0D08F15E0D08F7
:10019000F55E0D08F95E0D08FD5E0D08015F0D08A6
:1001A000B5560D08B9560D08C1560D0804070604CA
:1001B00007060407060407060407060407060407E3
:1001C00006040706040706040706040706040706D4
:1001D00004070604070604070604070604070604C6
:1001E00007060407060407060407060407060407B3
:1001F00006040706040706040706040706040706A4
:100200000407060407060407060407060407060495
:100210000706040706040706040706040706040782
:100220000604070604070604070604070604070673
:100230000407060407060407060407060407060465
:100240000706040706040706040706040706040752
:100250000604070604070604070604070604070643
:100260000407060407060407060407060407060435
:100270000706040706040706040706040706040722
:100280000604070604070604070604070604070613
:100290000407060407060407060407060407060405
:1002A00007060407060407060407060407060407F2
:1002B00006040706040706040706040706040706E3
:1002C00004070604070604070604070604070604D5
:1002D00007060407060407060407060407060407C2
:1002E00006040706040706040706040706040706B3
:1002F000040706040706040706040706040706FFAA
:10030000FFFFFFFFFFFFFFFF0407060407060306CA
:100310000503060503060514221D14221D14221DC3
:1003200020312B20312B20312B20312B20312B2041
:10033000312B20312B20312B20312B20312B203120
:100340002B20312B14221D14221D14221DFFFFFF10
:10035000FFFFFFFFFFFFFFFFFFFFFFFFFFFFFFFFAD
:10036000FFFFFFFFFFB4B1A700000090DABD90DAF5
:10037000BD305A79305A79305A79305A79518BAA2E
:10038000518BAA518BAA518BAA518BAA518BAA517E
:100390008BAA518BAA518BAA518BAA518BAA518B34
:1003A000AA518BAA518BAA305A7900000000000094
:1003B000B4B1A7FFFFFFFFFFFFFFFFFFFFFFFFFF3E
:1003C000FFFFFFFFFFFFFFFFFFFFFFFFFFFFFFFF3D
:1003D000FFFFFFFFFFFFFFFFFFFFFFFFFFFFFFFF2D
:1003E000FFFFFFFFFFFFFFFFFFFFFFFFFFFFFF0D0F
:1003F000181D0D181D0D181D0D181D0D181D0D189B
:100400001D0D181D0D181D0D181D0D181D0D181D85
:100410000D181D0D181D0D181D0D181D0D181D0D85
:10042000181D0D181D0D181D0D181D0D181D0D186A
:100430001D0D181D0D181D1321271321271321270A
:1004400013212713212713212713212713212713D2
:1004500021271321271321271321271321271321B4
:10046000271321271321271321271321271321279E
:1004700013212713212713212713212713212703B2
:1004800006050306050306051C262D1C262D1C2625
:100490002D030605030605030605030605030605E9
:1004A00003060520312B20312B20312B0D0F0E0D93
:1004B0000F0E0D0F0E0D0F0E0D0F0E0D0F0E0D0F5B
:1004C0000E0D0F0E0D0F0E030605030605030605A0
:1004D00003060503060503060503060503060503D3
:1004E0000605030605030605030605080D0F080D9E
:1004F0000F080D0F0C12150C12150C12150C1215FD
:100500000C12150C12150C12150C12150C12150CE0
:1005100012150C12150C12150C12150C12150C12CA
:10052000150C12150C12150C12150C12150C1215B7
:100530000C12150C12150C12150C12152E34332E2C
:1005400034332E34332E34332E34332E34332E348E
:10055000332E34332E34332E34332E34332E34337F
:100560002E34332E34332E34332E34332E34332E74
:1005700034332E34332E34332E34331321271321C6
:10058000271321270C12150C12150C12150C12151D
:100590000C12150C12150C12150C12150C12150854
:1005A0000D0F080D0F080D0F0306050306050306C2
:1005B000050306050306050306050D0F0E0D0F0EB8
:1005C0000D0F0E0D0F0E0D0F0E0D0F0E1216141235
:1005D00016141216140D0F0E0D0F0E0D0F0E03062E
:1005E000050306050306050D0F0E0D0F0E0D0F0E6C
:1005F0000D0F0E0D0F0E0D0F0E0D0F0E0D0F0E0D1C
:100600000F0E1216141216141216141216141216B5
:10061000141216141216141216141216141216149A
:100620001216141216140D0F0E0D0F0E0D0F0E0DC7
:100630000F0E0D0F0E0D0F0E0D0F0E0D0F0E0D0FD9
:100640000E0306050306050306050C12150C12150C
:100650000C12150C12150C12150C12150C12150C8F
:1006600012150C12150C12150C12150C12150C1279
:10067000150C12150C12152E34332E34332E343340
:100680002E34332E34332E34332E34332E34332E53
:1006900034332E34332E34332E34332E34332E343D
:1006A000332E34331321271321271321270C12153E
:1006B0000C12150C12150C12150C12150C12150C2F
:1006C00012150C12150C1215080D0F080D0F080D40
:1006D0000F0306050306050306050D0F0E0D0F0E8D
:1006E0000D0F0E0D0F0E0D0F0E0D0F0E1216141214
:1006F000161412161403060503060503060504075F
:10070000060407060407060407060407060407068E
:100710000407060407060407060407060407060480
:10072000070604070604070604070604070604076D
:10073000060407060407060407060407060407065E
:10074000040706040706040706040706050807054C
:10075000080705080705080705080705080705082D
:10076000070508070508070508070508070508071E
:100770000508070508070508070508070508070510
:1007800008070508070508070508070508070508FD
:1007900007050807050807050807050807050807EE
:1007A00005080705080705080705080705080705E0
:1007B00008070508070508070508070508070508CD
:1007C00007050807050807050807050807050807BE
:1007D00005080705080705080705080705080705B0
:1007E000080705080705080705080705080705089D
:1007F000070508070508070508070508070508078E
:10080000050807050807050807050807050807057F
:10081000080705080705080705080705080705086C
:10082000070508070508070508070508070508075D
:10083000050807050807050807050807050807054F
:10084000080705080705080705080705080705083C
:10085000070508070508070508070508070508072D
:10086000050807050807050807050807050807051F
:10087000080705080705080705080705080705080C
:1008800007050807050807050807050807050807FD
:10089000050807050807050807050807050807FFF5
:1008A000FFFFFFFFFFFFFFFFFFFFFF050807040635
:1008B0000604060604060614231E14231E14231E13
:1008C00021322B21322B21322B21322B21322B2191
:1008D000322B21322B21322B21322B21322B213270
:1008E0002B21322B14231E14231E14231E0E181E1C
:1008F000FFFFFFFFFFFFFFFFFFFFFFFFFFFFFFFF08
:10090000FFFFFFFFFFFFFFFF000000528E7A90DA2B
:10091000BD528E7A305A79305A79305A79305A79B4
:10092000518BAA518BAA518BAA518BAA518BAA51D8
:100930008BAA518BAA518BAA518BAA518BAA518B8E
:10094000AA518BAA518BAA518BAA518BAA305A79E2
:10095000000000000000B4B1A7FFFFFFFFFFFFFF92
:10096000FFFFFFFFFFFFFFFFFFFFFFFFFFFFFFFF97
:10097000FFFFFFFFFFFFFFFFFFFFFFFFFFFFFFFF87
:10098000FFFFFFFFFFFFFFFFFFFFFFFFFFFFFFFF77
:10099000FFFF0E181E0E181E0E181E0E181E0E1823
:1009A0001E0E181E0E181E0E181E0E181E0E181ED5
:1009B0000E181E0E181E0E181E0E181E0E181E0ED5
:1009C000181E0E181E0E181E0E181E0E181E0E18BB
:1009D0001E0E181E0E181E14222814222814222857
:1009E000142228142228142228142228142228141D
:1009F00022281422281422281422281422281422FF
:100A000028142228142228142228142228142228E8
:100A100014222814222814222814222814222804FC
:100A200006060406060406061D272D1D272D1D2774
:100A30002D04060604060604060604060604060639
:100A400004060621322B21322B21322B0E100F0EE1
:100A5000100F0E100F0E100F0E100F0E100F0E10A5
:100A60000F0E100F0E100F040606040606040606ED
:100A70000406060406060406060406060406060422
:100A80000606040606040606040606090E10090EEC
:100A900010090E100D13160D13160D13160D131647
:100AA0000D13160D13160D13160D13160D13160D2B
:100AB00013160D13160D13160D13160D13160D1315
:100AC000160D13160D13160D13160D13160D131602
:100AD0000D13160D13160D13160D13162F35342F77
:100AE00035342F35342F35342F35342F35342F35D9
:100AF000342F35342F35342F35342F35342F3534CA
:100B00002F35342F35342F35342F35342F35342FBE
:100B100035342F35342F35342F3534142228142210
:100B2000281422280D13160D13160D13160D131667
:100B30000D13160D13160D13160D13160D1316099E
:100B40000E10090E10090E1004060604060604060F
:100B5000060406060406060406060E100F0E100F05
:100B60000E100F0E100F0E100F0E100F131715137F
:100B700017151317150E100F0E100F0E100F040679
:100B8000060406060406060E100F0E100F0E100FB8
:100B90000E100F0E100F0E100F0E100F0E100F0E66
:100BA000100F131715131715131715131715131700
:100BB00015131715131715131715131715131715E5
:100BC0001317151317150E100F0E100F0E100F0E12
:100BD000100F0E100F0E100F0E100F0E100F0E1024
:100BE0000F0406060406060406060D13160D13165A
:100BF0000D13160D13160D13160D13160D13160DDA
:100C000013160D13160D13160D13160D13160D13C3
:100C1000160D13160D13162F35342F35342F35348A
:100C20002F35342F35342F35342F35342F35342F9D
:100C300035342F35342F35342F35342F35342F3587
:100C4000342F35341422281422281422280D131688
:100C50000D13160D13160D13160D13160D13160D79
:100C600013160D13160D1316090E10090E10090E8A
:100C7000100406060406060406060E100F0E100FDA
:100C80000E100F0E100F0E100F0E100F131715135E
:100C900017151317150406060406060406060508AC
:100CA00007050807050807050807050807050807D9
:100CB00005080705080705080705080705080705CB
:100CC00008070508070508070508070508070508B8
:100CD00007050807050807050807050807050807A9
:100CE000050807050807050807050807040706059E
:100CF000090805090805090805090805090805097D
:100D00000805090805090805090804070604070677
:100D1000040706040706040706040706040706047A
:100D20000706040706040706040706040706050964
:100D3000080509080509080509080509080509083D
:100D40000509080509080509080509080509080530
:100D5000090805090805090805090805090805091C
:100D6000080509080509080509080509080509080D
:100D70000509080509080509080509080509080500
:100D800009080509080509080509080509080509EC
:100D900008050908050908050908050908050908DD
:100DA00005090805090805090805090805090805D0
:100DB00009080509080509080509080509080509BC
:100DC00008050908050908050908050908050908AD
:100DD00005090805090805090805090805090805A0
:100DE000090805090805090805090805090805098C
:100DF000080509080509080509080509080509087D
:100E0000050908050908050908050908050908056F
:100E1000090805090805090805090805090805095B
:100E2000080509080509080509080509080509084C
:100E3000050908050908050908050908050908053F
:100E40000908FFFFFFFFFFFFFFFFFF050908050976
:100E5000080509080509080407060407060407062B
:100E600004070604070604070614241F14241F148D
:100E7000241F21332C21332C21332C21332C2133DB
:100E80002C21332C21332C21332C21332C21332CB6
:100E9000FFFFFFFFFFFFFFFFFFFFFFFFFFFFFFFF62
:100EA000FFFFFFFFFFFFFFFFB4B1A700000090DAD4
:100EB000BD90DABD305A79305A79305A79305A7942
:100EC000518BAA518BAA518BAA518BAA518BAA5133
:100ED0008BAA518BAA518BAA518BAA518BAA518BE9
:100EE000AA518BAA518BAA518BAA518BAA518BAABA
:100EF000518BAA305A79000000000000B4B1A7FF5E
:100F0000FFFFFFFFFFFFFFFFFFFFFFFFFFFF0000EF
:100F100000000000000000B4B1A7FFFFFFFFFFFFCB
:100F2000FFFFFFFFFFFFFFFFFFFFFFFFFFFFFFFFD1
:100F3000FFFFFFFFFF0E191F0E191F0E191F0E19BD
:100F40001F0E191F0E191F0E191F0E191F0E191F24
:100F50000E191F0E191F0E191F0E191F0E191F0E25
:100F6000191F0E191F0E191F0E191F0E191F0E190A
:100F70001F0E191F0E191F0E191F0E191F0E191FF4
:100F80000E191F0E191F0E191F14232814232814BD
:100F90002328142328142328142328142328142353
:100FA000281423281423281423281423281423283E
:100FB0001423281423280E191F0E191F0E191F049D
:100FC00007060407060407060407060407060407C5
:100FD00006040706040706040706040706040706B6
:100FE00004070621332C21332C21332C0E110F0E34
:100FF000110F0E110F0E110F0E110F0E110F0E11FA
:101000000F0E110F0E110F04070604070604070642
:10101000090F11090F11090F110D14170D14170DD8
:1010200014170D14170D14170D14170D14170D1494
:10103000170D14170D14170D14170D14170D141781
:101040000D14170D14170D14170D14170D14170D7B
:1010500014170D14170D14170D14170D14170D1464
:10106000170D14170D14170D14170D14170D141751
:101070000D14172F36352F36352F36352F36352FA1
:1010800036352F36352F36352F36352F36352F3628
:10109000352F36352F36352F36352F36352F363519
:1010A0002F36352F36352F36352F36352F36352F0F
:1010B00036352F36352F36352F36352F36352F36F8
:1010C000352F36352F36352F36352F36350D14174B
:1010D0000D14170D14170D14170D14170D14170DEB
:1010E00014170D14170D14170D14170D14170D14D4
:1010F00017090F11090F11090F110407060407063C
:101100000407060E110F0E110F0E110F0E110F0E08
:10111000110F0E110F0E110F0E110F0E110F0E11D8
:101120000F0E110F0E110F0E110F0E110F0E110FCA
:101130000E110F0E110F0E110F0E110F0E110F0EBB
:10114000110F131816131816131816131816131850
:101150001613181613181613181613181613181634
:101160001318161318160E110F0E110F0E110F0E65
:10117000110F0E110F0E110F0E110F0E110F0E1178
:101180000F0407060407060407060D14170D1417AD
:101190000D14170D14170D14170D14170D14170D2A
:1011A00014170D14170D14170D14170D14172F36CF
:1011B000352F36352F36352F36352F36352F3635F8
:1011C0002F36352F36352F36352F36352F36352FEE
:1011D00036352F36352F36352F36352F36352F36D7
:1011E000352F36352F36352F36352F36352F3635C8
:1011F0002F36352F36350D14170D14170D14170D06
:1012000014170D14170D14170D14170D14170D14B2
:10121000170407060407060407060A0D0C0A0D0C3E
:101220000A0D0C0E110F0E110F0E110F0E110F0ED5
:10123000110F0E110F04070604070604070605091F
:101240000805090805090805090805090805090828
:10125000050908050908050908050908050908051B
:101260000908050908050908050908050908050907
:1012700008050908050908050908050908050908F8
:1012800005090805090805090805090804080605EF
:101290000A08050A08050A08050A08050A08050AD1
:1012A00008050A08050A08050A08040806040806CD
:1012B00004080604080604080604080604080604D0
:1012C0000806040806040806040806040806050AB9
:1012D00008050A08050A08050A08050A08050A0893
:1012E000050A08050A08050A08050A08050A080586
:1012F0000A08050A08050A08050A08050A08050A71
:1013000008050A08050A08050A08050A08050A0862
:10131000050A08050A08050A08050A08050A080555
:101320000A08050A08050A08050A08050A08050A40
:1013300008050A08050A08050A08050A08050A0832
:10134000050A08050A08050A08050A08050A080525
:101350000A08050A08050A08050A08050A08050A10
:1013600008050A08050A08050A08050A08050A0802
:10137000050A08050A08050A08050A08050A0805F5
:101380000A08050A08050A08050A08050A08050AE0
:1013900008050A08050A08050A08050A08050A08D2
:1013A000050A08050A08050A08050A08050A08FFCB
:1013B000FFFF050A08050A08050A08050A08050AC4
:1013C00008050A08050A08050A08050A08050A08A2
:1013D000050A08050A08050A08050A08050A080595
:1013E0000A08FFFFFFFFFFFFFFFFFFFFFFFF050AE8
:1013F00008050A08050A08040806040806FFFFFF96
:1014000004080604080604080614241F14241F14E4
:10141000241F21342C21342C21342C21342C213430
:101420002C21342C21342C21342C21342C21342C0B
:1014300021342CFFFFFFFFFFFFFFFFFFFFFFFFFF38
:10144000FFFFFFFFFFFFFFFFFFFFFF000000528EC7
:101450007A90DABD528E7A305A79305A79305A7988
:10146000518BAA518BAA518BAA518BAA518BAA518D
:101470008BAA518BAA518BAA518BAA518BAA518B43
:10148000AA518BAA518BAA518BAA518BAA518BAA14
:10149000518BAA518BAA518BAA305A7900000000B7
:1014A0000000FFFFFFFFFFFFFFFFFFFFFFFF000048
:1014B00000528E7A305A79000000000000B4B1A7C3
:1014C000FFFFFFFFFFFFFFFFFFFFFFFFFFFFFFFF2C
:1014D000FFFFFFFFFFFFFFFF0E1A1F0E1A1F0E1A5E
:1014E0001F0E1A1F0E1A1F0E1A1F0E1A1F0E1A1F7A
:1014F0000E1A1F0E1A1F0E1A1F0E1A1F0E1A1F0E7B
:101500001A1F0E1A1F0E1A1F0E1A1F0E1A1F0E1A5E
:101510001F0E1A1F0E1A1F0E1A1F0E1A1F0E1A1F49
:101520000E1A1F0E1A1F0E1A1F1424281424281412
:1015300024281424281424281424281424281424A7
:101540002814242814242814242814242814242893
:101550001424281424280E1A1F0E1A1F0E1A1F04F2
:101560000806040806040806040806040806040819
:10157000060408060408060408060408060408060B
:1015800004080621342C21342C21342C0E120F0E89
:10159000120F0E120F0E120F0E120F0E120F0E124E
:1015A0000F0E120F0E120F04080604080604080698
:1015B0000910110910110910110D15170D15170D2E
:1015C00015170D15170D15170D15170D15170D15E9
:1015D000170D15170D15170D15170D15170D1517D7
:1015E0000D15170D15170D15170D15170D15170DD1
:1015F00015170D15170D15170D15170D15170D15B9
:10160000170D15170D15170D15170D15170D1517A6
:101610000D15172F37352F37352F37352F37352FF6
:1016200037352F37352F37352F37352F37352F377C
:10163000352F37352F37352F37352F37352F37356E
:101640002F37352F37352F37352F37352F37352F64
:1016500037352F37352F37352F37352F37352F374C
:10166000352F37352F37352F37352F37350D1517A0
:101670000D15170D15170D15170D15170D15170D40
:1016800015170D15170D15170D15170D15170D1528
:101690001709101109101109101104080604080691
:1016A0000408060E120F0E120F0E120F0E120F0E5E
:1016B000120F0E120F0E120F0E120F0E120F0E122D
:1016C0000F0E120F0E120F0E120F0E120F0E120F20
:1016D0000E120F0E120F0E120F0E120F0E120F0E11
:1016E000120F1318161318161318161318161318AA
:1016F000161318161318161318161318161318168F
:101700001318161318160E120F0E120F0E120F0EBC
:10171000120F0E120F0E120F0E120F0E120F0E12CC
:101720000F0408060408060408060D15170D151702
:101730000D15170D15170D15170D15170D15170D7F
:1017400015170D15170D15170D15170D15172F3723
:10175000352F37352F37352F37352F37352F37354D
:101760002F37352F37352F37352F37352F37352F43
:1017700037352F37352F37352F37352F37352F372B
:10178000352F37352F37352F37352F37352F37351D
:101790002F37352F37350D15170D15170D15170D5B
:1017A00015170D15170D15170D15170D15170D1507
:1017B000170408060408060408060A0E0C0A0E0C94
:1017C0000A0E0C0E120F0E120F0E120F0E120F0E2B
:1017D000120F0E120F040806040806040806050A74
:1017E00008050A08050A08050A08050A08050A087E
:1017F000050A08050A08050A08050A08050A080571
:101800000A08050A08050A08050A08050A08050A5B
:1018100008050A08050A08050A08050A08050A084D
:10182000050A08050A08050A08050A080508070642
:101830000A09060A09060A09060A09060A09060A21
:1018400009060A09060A09060A090508070508071C
:10185000050807050807050807050807050807051F
:101860000807050807050807050807050807060A09
:1018700009060A09060A09060A09060A09060A09E2
:10188000060A09060A09060A09060A09060A0906D5
:101890000A09060A09060A09060A09060A09060AC1
:1018A00009060A09060A09060A09060A09060A09B2
:1018B000060A09060A09060A09060A09060A0906A5
:1018C0000A09060A09060A09060A09060A09060A91
:1018D00009060A09060A09060A09060A09060A0982
:1018E000060A09060A09060A09060A09060A090675
:1018F0000A09060A09060A09060A09060A09060A61
:1019000009060A09060A09060A09060A09060A0951
:10191000060A09060A09060A09060A09060A090644
:101920000A09060A09060A09060A09060A09060A30
:1019300009060A09060A09060A09060A09060A0921
:10194000060A09060A09060A09060A09060A09FF1B
:10195000FFFFFFFFFF060A09060A09060A09060A31
:1019600009060A09060A09060A09060A09060A09F1
:10197000060A09060A09060A09060A09060A0906E4
:101980000A09060A09FFFFFFFFFFFFFFFFFF060A24
:1019900009060A09060A09050807050807FFFFFFE7
:1019A000FFFFFFFFFFFF0508071524201524201562
:1019B000242022342D22342D22342D22342D223481
:1019C0002D22342D22342D22342D22342D22342D5B
:1019D00022342DFFFFFFFFFFFFFFFFFFFFFFFFFF91
:1019E000FFFFFFFFFFFFFFFFFFFFFFB4B1A70000F6
:1019F0000090DABD90DABD305A79305A79305A7990
:101A0000305A79518BAA518BAA518BAA518BAA516A
:101A10008BAA518BAA518BAA518BAA518BAA518B9D
:101A2000AA518BAA518BAA518BAA518BAA518BAA6E
:101A3000518BAA518BAA518BAA518BAA518BAA30D8
:101A40005A79000000B4B1A7FFFFFFFFFFFF0000BD
:101A50000090DABD305A79518BAA305A79000000D3
:101A6000000000FFFFFFFFFFFFFFFFFFFFFFFFFF83
:101A7000FFFFFFFFFFFFFFFFFFFFFF0E1A1F0E1A02
:101A80001F0E1A1F0E1A1F0E1A1F0E1A1F0E1A1FD4
:101A90000E1A1F0E1A1F0E1A1F0E1A1F0E1A1F0ED5
:101AA0001A1F0E1A1F0E1A1F0E1A1F0E1A1F0E1AB9
:101AB0001F0E1A1F0E1A1F0E1A1F0E1A1F0E1A1FA4
:101AC0000E1A1F0E1A1F0E1A1F1524291524291568
:101AD00024291524291524291524291524291524F8
:101AE00029152429152429152429152429152429E3
:101AF0001524291524290E1A1F0E1A1F0E1A1F0548
:101B00000807050807050807050807050807050869
:101B1000070508070508070508070508070508075A
:101B200005080722342D22342D22342D0F12100FD8
:101B300012100F12100F12100F12100F12100F129E
:101B4000100F12100F1210050807050807050807E7
:101B50000A10120A10120A10120E15170E15170E7F
:101B600015170E15170E15170E15170E15170E153E
:101B7000170E15170E15170E15170E15170E15172C
:101B80000E15170E15170E15170E15170E15170E25
:101B900015170E15170E15170E15170E15170E150E
:101BA000170E15170E15170E15170E15170E1517FC
:101BB0000E1517303735303735303735303735304B
:101BC00037353037353037353037353037353037D2
:101BD00035303735303735303735303735303735C4
:101BE00030373530373530373530373530373530B9
:101BF00037353037353037353037353037353037A2
:101C0000353037353037353037353037350E1517F5
:101C10000E15170E15170E15170E15170E15170E94
:101C200015170E15170E15170E15170E15170E157D
:101C3000170A10120A10120A1012050807050807E1
:101C40000508070F12100F12100F12100F12100FAD
:101C500012100F12100F12100F12100F12100F127D
:101C6000100F12100F12100F12100F12100F12106F
:101C70000F12100F12100F12100F12100F12100F60
:101C800012101418171418171418171418171418FA
:101C900017141817141817141817141817141817DE
:101CA0001418171418170F12100F12100F12100F0C
:101CB00012100F12100F12100F12100F12100F121D
:101CC000100508070508070508070E15170E151754
:101CD0000E15170E15170E15170E15170E15170ED4
:101CE00015170E15170E15170E15170E1517303779
:101CF00035303735303735303735303735303735A3
:101D00003037353037353037353037353037353097
:101D10003735303735303735303735303735303780
:101D20003530373530373530373530373530373572
:101D30003037353037350E15170E15170E15170EAF
:101D400015170E15170E15170E15170E15170E155C
:101D5000170508070508070508070B0E0C0B0E0CE6
:101D60000B0E0C0F12100F12100F12100F12100F7B
:101D700012100F1210050807050807050807060AC4
:101D800009060A09060A09060A09060A09060A09CD
:101D9000060A09060A09060A09060A09060A0906C0
:101DA0000A09060A09060A09060A09060A09060AAC
:101DB00009060A09060A09060A09060A09060A099D
:101DC000060A09060A09060A09060A0916202A054A
:101DD0000907050907050907050907050907050991
:101DE0000705090705090705090716202A16202AED
:101DF00016202A1E292F1E292F1E292F1E292F1E8D
:101E0000292F1E292F16202A16202A16202A0509D6
:101E10000705090705090705090705090705090752
:101E2000060B09060B09060B09060B09060B09062A
:101E30000B09060B09060B09060B09060B09060B15
:101E400009060B09060B09060B09060B09060B0907
:101E5000060B09060B09060B09060B09060B0906FA
:101E60000B09060B09060B09060B09060B09060BE5
:101E700009060B09060B09060B09060B09060B09D7
:101E8000060B09060B09060B09060B09060B0906CA
:101E90000B09060B09060B09060B09060B09060BB5
:101EA00009060B09060B09060B09060B09060B09A7
:101EB000060B09060B09060B09060B09060B09069A
:101EC0000B09060B09060B09060B09060B09060B85
:101ED00009060B09060B09060B09060B09060B0977
:101EE000060B09060B09060B09060B09060B09FF71
:101EF000FFFFFFFFFFFFFFFFFFFFFF060B09060BC2
:101F000009060B09060B09060B09060B09060B0946
:101F1000060B09060B09060B09060B09060B090639
:101F20000B09060B09060B09FFFFFFFFFFFFFFFF71
:101F3000FF060B09060B09060B09060B09FFFFFF3D
:101F4000FFFFFFFFFFFFFFFFFFFFFFFF0509070583
:101F5000090705090705090705090715252015259E
:101F60002015252022342D22342D22342D22342DEB
:101F700022342D22342DFFFFFFFFFFFFFFFFFFFF65
:101F8000FFFFFFFFFFFFFFFFFFFFFFFFFFFF00005F
:101F900000528E7A90DABD528E7A305A79305A7960
:101FA000305A79518BAA518BAA518BAA518BAA51C5
:101FB0008BAA518BAA518BAA518BAA518BAA518BF8
:101FC000AA518BAA518BAA518BAA518BAA518BAAC9
:101FD000518BAA518BAA518BAA518BAA518BAA5112
:101FE0008BAA518BAA000000000000FFFFFF000039
:101FF0000090DABD305A79518BAA518BAA518BAA25
:10200000305A79000000FFFFFFFFFFFFFFFFFFFFD7
:10201000FFFFFFFFFFFFFFFFFFFFFF0E1B1F0E1B5A
:102020001F0E1B1F0E1B1F0E1B1F0E1B1F0E1B1F29
:102030000E1B1F0E1B1F0E1B1F0E1B1F0E1B1F0E2A
:102040001B1F0E1B1F0E1B1F0E1B1F0E1B1F0E1B0D
:102050001F0E1B1F0E1B1F0E1B1F0E1B1F0E1B1FF9
:102060000E1B1F0E1B1F0E1B1F15252915252915BD
:10207000252915252915252915252915252915254C
:10208000291525290E1B1F0E1B1F0E1B1F050907D7
:1020900005090705090705090705090705090705D2
:1020A00009070509070509070F13100F13100F1370
:1020B000101419171419171419170509070509071A
:1020C00005090722342D22342D22342D0F13100F31
:1020D00013100F13100F13100F13100F13100F13F3
:1020E000100F13100F13100509070509070509073D
:1020F0000E15170E15170E15170E15170E15170EB0
:1021000015170E15170E15170E15170E15170E1598
:10211000170E15170E15170E15170E15170E151786
:102120000E15170E15170E15170E15170E15170E7F
:1021300015170E15170E15170E15170E15170E1568
:10214000170E15170E15170E151730373530373592
:102150003037353037353037353037353037353043
:10216000373530373530373530373530373530372C
:10217000353037353037353037353037353037351E
:102180003037353037353037353037353037353013
:1021900037353037353037353037353037353037FC
:1021A00035303735303735303735303735303735EE
:1021B0003037353037350E15170E15170E15170E2B
:1021C00015170E15170E15170E15170E15170E15D8
:1021D000170E15170E15170E151705090705090710
:1021E0000509070F13100F13100F13100F13100F03
:1021F00013100F13100F13100F13100F13100F13D2
:10220000100F13100F13100F13100F13100F1310C4
:102210000F13100F13100F13100F13100F13100FB5
:1022200013100F13100F13100F1310141917141984
:102230001714191714191714191714191714191733
:102240001419171419170F13100F13100F13100F61
:1022500013100F13100F13100F13100F13100F1371
:10226000100509070509070509070E15170E1517AB
:102270000E15170E15170E15170E15170E15170E2E
:1022800015170E15170E15170E15170E15173037D3
:1022900035303735303735303735303735303735FD
:1022A00030373530373530373530373530373530F2
:1022B00037353037353037353037353037353037DB
:1022C00035303735303735303735303735303735CD
:1022D0003037353037353037353037353037350EE4
:1022E00015170E15170E15170E15170E15170E15B7
:1022F000170A11120A11120A111205090705090716
:102300000509070F13100F13100F13100F13100FE1
:1023100013100F1310050907050907050907060B18
:1023200009060B09060B09060B09060B09060B0922
:10233000060B09060B09060B09060B09060B090615
:102340000B09060B09060B09060B09060B09060B00
:1023500009060B09060B09060B09060B09060B09F2
:10236000060B09060B09060B09060B0917212B069C
:102370000A08060A08060A08060A08060A08060ADB
:1023800008060A08060A08060A0817212B17212B37
:1023900017212B1E2A301E2A301E2A301E2A301EDC
:1023A0002A301E2A3017212B17212B17212B060A22
:1023B00008060A08060A08060A08060A08060A089D
:1023C000070C0A070C0A070C0A070C0A070C0A0775
:1023D0000C0A070C0A070C0A070C0A070C0A070C60
:1023E0000A070C0A070C0A070C0A070C0A070C0A52
:1023F000070C0A070C0A070C0A070C0A070C0A0745
:102400000C0A070C0A070C0A070C0A070C0A070C2F
:102410000A070C0A070C0A070C0A070C0A070C0A21
:10242000070C0A070C0A070C0A070C0A070C0A0714
:102430000C0A070C0A070C0A070C0A070C0A070CFF
:102440000A070C0A070C0A070C0A070C0A070C0AF1
:10245000070C0A070C0A070C0A070C0A070C0A07E4
:102460000C0A070C0A070C0A070C0A070C0A070CCF
:102470000A070C0A070C0A070C0A070C0A070C0AC1
:10248000070C0A070C0A070C0A070C0A070C0AFFBC
:10249000FFFFFFFFFFFFFFFFFFFFFFFFFFFFFFFF4C
:1024A000FF070C0A070C0A070C0A070C0A070C0A9C
:1024B000070C0A070C0A070C0A070C0A070C0A0784
:1024C0000C0A070C0A070C0A070C0AFFFFFFFFFFA4
:1024D000FF070C0A070C0A070C0A070C0AFFFFFF8C
:1024E000FFFFFFFFFFFFFFFFFFFFFFFFFFFFFFFFFC
:1024F000FFFF060A08060A08060A081626201626FE
:102500002016262022352E22352E22352E22352E3B
:1025100022352E22352EFFFFFFFFFFFFFFFFFFFFBB
:10252000FFFFFFFFFFFFFFFFFFFFFFFFFFFFFFFFBB
:10253000FF00000090DABD90DABD305A79305A7948
:10254000305A79518BAA518BAA518BAA518BAA511F
:102550008BAA518BAA518BAA518BAA518BAA518B52
:10256000AA518BAA518BAA518BAA518BAA518BAA23
:10257000518BAA518BAA518BAA518BAA518BAA516C
:102580008BAA518BAA518BAA305A79000000000007
:102590000090DABD305A79518BAA518BAA518BAA7F
:1025A000518BAA518BAA000000FFFFFFFFFFFFFF26
:1025B000FFFFFFFFFFFFFFFFFFFFFFFFFFFF0F1CFE
:1025C000200F1C200F1C200F1C200F1C200F1C2074
:1025D0000F1C200F1C200F1C200F1C200F1C200F75
:1025E0001C200F1C200F1C200F1C200F1C200F1C58
:1025F000200F1C200F1C200F1C200F1C200F1C2044
:102600000F1C200F1C200F1C2016252A16252A1609
:10261000252A16252A16252A16252A16252A16259C
:102620002A16252A0F1C200F1C200F1C20060A0822
:10263000060A08060A08060A08060A08060A08061C
:102640000A08060A08060A081013111013111013BD
:1026500011151A18151A18151A18060A08060A0864
:10266000060A0822352E22352E22352E101311107F
:102670001311101311101311101311101311101343
:1026800011101311101311060A08060A08060A0889
:102690000F16180F16180F16180F16180F16180FFA
:1026A00016180F16180F16180F16180F16180F16E3
:1026B000180F16180F16180F16180F16180F1618D1
:1026C0000F16180F16180F16180F16180F16180FCA
:1026D00016180F16180F16180F16180F16180F16B3
:1026E000180F16180F16180F1618303836303836DF
:1026F0003038363038363038363038363038363094
:10270000383630383630383630383630383630387B
:10271000363038363038363038363038363038366D
:102720003038363038363038363038363038363063
:10273000383630383630383630383630383630384B
:10274000363038363038363038363038363038363D
:102750003038363038360F16180F16180F16180F77
:1027600016180F16180F16180F16180F16180F1622
:10277000180F16180F16180F1618060A08060A085A
:10278000060A081013111013111013111013111051
:102790001311101311101311101311101311101322
:1027A0001110131110131110131110131110131114
:1027B0001013111013111013111013111013111005
:1027C0001311101311101311101311151A18151AD3
:1027D00018151A18151A18151A18151A18151A187E
:1027E000151A18151A1810131110131110131110AF
:1027F00013111013111013111013111013111013C2
:1028000011060A08060A08060A080F16180F1618F5
:102810000F16180F16180F16180F16180F16180F78
:1028200016180F16180F16180F16180F161830381E
:10283000363038363038363038363038363038364C
:102840003038363038363038363038363038363042
:10285000383630383630383630383630383630382A
:10286000363038363038363038363038363038361C
:102870003038363038363038363038363038360F33
:1028800016180F16180F16180F16180F16180F1601
:10289000180B11130B11130B1113060A08060A0863
:1028A000060A081013111013111013111013111030
:1028B0001311101311060A08060A08060A08070C65
:1028C0000A070C0A070C0A070C0A070C0A070C0A6D
:1028D000070C0A070C0A070C0A070C0A070C0A0760
:1028E0000C0A070C0A070C0A070C0A070C0A070C4B
:1028F0000A070C0A070C0A070C0A070C0A070C0A3D
:10290000070C0A070C0A070C0A070C0A17212C06E9
:102910000A09060A09060A09060A09060A09060A30
:1029200009060A09060A09060A0917212C17212C8B
:1029300017212C1E2A31FFFFFF1E2A311E2A311EAD
:102940002A311E2A3117212C17212C17212C060A77
:1029500009060A09060A09060A09060A09060A09F1
:10296000070C0B070C0B070C0B070C0B070C0B07CA
:102970000C0B070C0B070C0B070C0B070C0B070CB5
:102980000B070C0B070C0B070C0B070C0B070C0BA6
:10299000070C0B070C0B070C0B070C0B070C0B079A
:1029A0000C0B070C0B070C0B070C0B070C0B070C85
:1029B0000B070C0B070C0B070C0B070C0B070C0B76
:1029C000070C0B070C0B070C0B070C0B070C0B076A
:1029D0000C0B070C0B070C0B070C0B070C0B070C55
:1029E0000B070C0B070C0B070C0B070C0B070C0B46
:1029F000070C0B070C0B070C0B070C0B070C0B073A
:102A00000C0B070C0B070C0B070C0B070C0B070C24
:102A10000B070C0B070C0B070C0B070C0B070C0B15
:102A2000070C0B070C0B070C0B070C0B070C0B0709
:102A30000C0BFFFFFFFFFFFFFFFFFFFFFFFFFFFF8D
:102A4000FFFFFFFFFFFFFF070C0B070C0B070C0B33
:102A5000070C0B070C0B070C0B070C0B070C0B07D9
:102A60000C0B070C0B070C0B070C0B070C0B070CC4
:102A70000BFFFFFF070C0B070C0B070C0BFFFFFFF7
:102A8000FFFFFFFFFFFFFFFFFFFFFFFFFFFFFFFF56
:102A9000FFFFFFFFFFFFFFFF060A0916262116268C
:102AA0002116262122352F22352F22352F22352F90
:102AB00022352F22352F22352FFFFFFFFFFFFFFF8B
:102AC000FFFFFFFFFFFFFFFFFFFFFFFFFFFFFFFF16
:102AD000FFB4B1A700000090DABD528E7A305A7967
:102AE000305A79305A79518BAA518BAA518BAA51FD
:102AF0008BAA518BAA518BAA518BAA518BAA518BAD
:102B0000AA518BAA518BAA518BAA518BAA518BAA7D
:102B1000518BAA518BAA518BAA518BAA518BAA51C6
:102B20008BAA518BAA518BAA518BAA518BAA000058
:102B300000528E7A305A79518BAA518BAA518BAAA6
:102B4000518BAA518BAA518BAA000000FFFFFFFFF7
:102B5000FFFFFFFFFFFFFFFFFFFFFFFFFFFFFFFF85
:102B6000FF0F1C210F1C210F1C210F1C210F1C21EA
:102B70000F1C210F1C210F1C210F1C210F1C210FCA
:102B80001C210F1C210F1C210F1C210F1C210F1CAD
:102B9000210F1C210F1C210F1C210F1C210F1C2198
:102BA0000F1C210F1C210F1C2116252B16252B165F
:102BB000252B16252B16252B16252B16252B1625F2
:102BC0002B16252B0F1C210F1C210F1C21060A0977
:102BD000060A09060A09060A09060A09060A090672
:102BE0000A09060A09060A09101312101312101313
:102BF00012151A18151A18151A18060A09060A09BC
:102C0000060A0922352F22352F22352F10131210D4
:102C10001312101312101312101312101312101398
:102C200012101312101312060A09060A09060A09DD
:102C30000F16190F16190F16190F16190F16190F4F
:102C400016190F16190F16190F16190F16190F1638
:102C5000190F16190F16190F16190F16190F161925
:102C60000F16190F16190F16190F16190F16190F1F
:102C700016190F16190F16190F16190F16190F1608
:102C8000190F16190F16190F161930383730383733
:102C900030383730383730383730383730383730E9
:102CA00038373038373038373038373038373038D1
:102CB00037303837303837303837303837303837C2
:102CC00030383730383730383730383730383730B9
:102CD00038373038373038373038373038373038A1
:102CE0003730383730383730383730383730383792
:102CF0003038373038370F16190F16190F16190FCD
:102D000016190F16190F16190F16190F16190F1677
:102D1000190F16190F16190F1619060A09060A09AE
:102D2000060A0910131210131210131210131210A6
:102D30001312101312101312101312101312101377
:102D40001210131210131210131210131210131268
:102D5000101312101312101312101312101312105A
:102D60001312101312101312101312151A18151A29
:102D700018151A18151A18151A18151A18151A18D8
:102D8000151A18151A181013121013121013121006
:102D90001312101312101312101312101312101317
:102DA00012060A09060A09060A090F16190F16194A
:102DB0000F16190F16190F16190F16190F16190FCE
:102DC00016190F16190F16190F16190F1619303874
:102DD00037303837303837303837303837303837A1
:102DE0003038373038373038373038373038373098
:102DF0003837303837303837303837303837303880
:102E00003730383730383730383730383730383770
:102E10003038373038373038373038373038370F88
:102E200016190F16190F16190F16190F16190F1656
:102E3000190B11130B11130B1113060A09060A09BA
:102E4000060A091013121013121013121013121085
:102E50001312101312060A09060A09060A09070CBA
:102E60000B070C0B070C0B070C0B070C0B070C0BC1
:102E7000070C0B070C0B070C0B070C0B070C0B07B5
:102E80000C0B070C0B070C0B070C0B070C0B070CA0
:102E90000B070C0B070C0B070C0B070C0B070C0B91
:102EA000070C0B070C0B070C0B070C0B1F2B310629
:102EB0000A09060A09060A09060A09060A09060A8B
:102EC0000918222C18222C18222C1F2B311F2B31D1
:102ED0001F2B311F2B31FFFFFF1F2B311F2B311FEA
:102EE0002B311F2B311F2B311F2B311F2B311F2B50
:102EF000311F2B311F2B3118222C18222C18222C79
:102F0000060A09060A09060A09080D0B080D0B082E
:102F10000D0B080D0B080D0B080D0B080D0B080D04
:102F20000B080D0B080D0B080D0B080D0B080D0BF6
:102F3000080D0B080D0B080D0B080D0B080D0B08E9
:102F40000D0B080D0B080D0B080D0B080D0B080DD4
:102F50000B080D0B080D0B080D0B080D0B080D0BC6
:102F6000080D0B080D0B080D0B080D0B080D0B08B9
:102F70000D0B080D0B080D0B080D0B080D0B080DA4
:102F80000B080D0B080D0B080D0B080D0B080D0B96
:102F9000080D0B080D0B080D0B080D0B080D0B0889
:102FA0000D0B080D0B080D0B080D0B080D0B080D74
:102FB0000B080D0B080D0B080D0B080D0B080D0B66
:102FC000080D0B080D0B080D0B080D0B080D0B0859
:102FD0000D0BFFFFFFFFFFFFFFFFFFFFFFFFFFFFE7
:102FE000FFFFFFFFFFFFFFFFFFFFFFFFFF080D0BCE
:102FF000080D0B080D0B080D0B080D0B080D0B0829
:103000000D0B080D0B080D0B080D0B080D0B080D13
:103010000B080D0B080D0B080D0B080D0BFFFFFF28
:10302000FFFFFFFFFFFFFFFFFFFFFFFFFFFFFFFFB0
:10303000FFFFFFFFFFFFFFFFFFFFFFFFFFFFFFFFA0
:10304000FF060A09060A09060A09060A09172721BE
:1030500017272117272123362F23362FFFFFFFFFA6
:10306000FFFFFFFFFFFFFFFFFFFFFFFFFFFFFFFF70
:10307000FFFFFFFF000000528E7A90DABD305A79D0
:10308000305A79305A79518BAA518BAA518BAA5157
:103090008BAA518BAA518BAA518BAA518BAA518B07
:1030A000AA518BAA518BAA518BAA518BAA518BAAD8
:1030B000518BAA518BAA518BAA518BAA518BAA5121
:1030C0008BAA518BAA518BAA518BAA518BAA518BD7
:1030D000AA000000305A79518BAA518BAA518BAAB1
:1030E000518BAA518BAA518BAA518BAA000000FFC9
:1030F000FFFFFFFFFFFFFFFFFFFFFFFFFFFFFFFFE0
:10310000FF101C21101C21101C21101C21101C213F
:10311000101C21101C21101C21101C21101C21101E
:103120001C21101C21101C21101C21101C21101C02
:1031300021101C21101C21101C21101C21101C21ED
:10314000101C21101C21101C2117262B17262B17B1
:10315000262B101C21101C21101C21060A09060A0E
:1031600009060A09060A09060A09060A09111412BB
:10317000111412111412151B18151B18151B1815F4
:103180001B18151B18151B18151B18151B18151BBC
:1031900018111412111412111412060A09060A0940
:1031A000060A0923362F23362F23362F17272117F8
:1031B000272117272111141211141211141211149E
:1031C00012111412111412060A09060A09060A0934
:1031D0000F17190F17190F17190F17190F17190FA5
:1031E00017190F17190F17190F17190F17190F178D
:1031F000190F17190F17190F17190F17190F17197B
:103200000F17190F17190F17190F17190F17190F74
:1032100017190F17190F17190F17190F17190F175C
:10322000190F17190F17190F171931393731393786
:103230003139373139373139373139373139373138
:103240003937313937313937313937313937313920
:103250003731393731393731393731393731393712
:103260003139373139373139373139373139373108
:1032700039373139373139373139373139373139F0
:1032800037313937313937313937313937313937E2
:103290003139373139373139373139373139370FFA
:1032A00017190F17190F17190F17190F17190F17CC
:1032B000190F17190F17190F1719060A09060A0906
:1032C000060A0911141211141211141211141211F8
:1032D00014121114121114121114121114121114C7
:1032E000121114121114120C100E0C100E0C100EE0
:1032F0000C100E0C100E0C100E0C100E0C100E0CF0
:10330000100E0C100E0C100E0C100E1114121114C5
:103310001211141211141211141211141211141288
:103320001114121114121114121114121114121179
:103330001412111412111412111412111412111466
:1033400012060A09060A09060A090F17190F1719A2
:103350000F17190F17190F17190F17190F17190F23
:1033600017190F17190F17190F17190F17193139C7
:1033700037313937313937313937313937313937F1
:1033800031393731393731393731393731393731E7
:1033900039373139373139373139373139373139CF
:1033A00037313937313937313937313937313937C1
:1033B00031393731393731393731393731393731B7
:1033C00039373139373139370F17190F17190F17A7
:1033D000190F17190F17190F1719060A09060A09E5
:1033E000060A0911141211141211141211141211D7
:1033F00014121114120C100E0C100E0C100E060AE2
:1034000009060A09060A09080D0B080D0B080D0B21
:10341000080D0B080D0B080D0B080D0B080D0B0804
:103420000D0B080D0B080D0B080D0B080D0B080DEF
:103430000B080D0B080D0B080D0B080D0B080D0BE1
:10344000080D0B080D0B080D0B080D0B1F2B31067B
:103450000B0A060B0A060B0A060B0A060B0A060BDA
:103460000A18232C18232C18232C1F2B311F2B3127
:103470001F2B311F2B31FFFFFFFFFFFF1F2B311FC2
:103480002B311F2B311F2B311F2B311F2B311F2BAA
:10349000311F2B311F2B3118232C18232C18232CD0
:1034A000060B0A060B0A060B0A080E0C080E0C087F
:1034B0000E0C080E0C080E0C080E0C080E0C080E54
:1034C0000C080E0C080E0C080E0C080E0C080E0C46
:1034D000080E0C080E0C080E0C080E0C080E0C083A
:1034E0000E0C080E0C080E0C080E0C080E0C080E24
:1034F0000C080E0C080E0C080E0C080E0C080E0C16
:10350000080E0C080E0C080E0C080E0C080E0C0809
:103510000E0C080E0C080E0C080E0C080E0C080EF3
:103520000C080E0C080E0C080E0C080E0C080E0CE5
:10353000080E0C080E0C080E0C080E0C080E0C08D9
:103540000E0C080E0C080E0C080E0C080E0C080EC3
:103550000C080E0C080E0C080E0C080E0C080E0CB5
:10356000080E0C080E0C080E0C080E0C080E0C08A9
:103570000E0CFFFFFFFFFFFFFFFFFFFFFFFFFFFF3F
:10358000FFFFFFFFFFFFFFFFFFFFFFFFFFFFFFFF4B
:10359000FFFFFF080E0C080E0C080E0C080E0C089E
:1035A0000E0C080E0C080E0C080E0C080E0C080E63
:1035B0000C080E0C080E0C080E0C080E0CFFFFFF7A
:1035C000FFFFFFFFFFFFFFFFFFFFFFFFFFFFFFFF0B
:1035D000FFFFFFFFFFFFFFFFFFFFFFFFFFFFFFFFFB
:1035E000FFFFFFFFFFFFFFFFFFFFFFFFFF17282287
:1035F00017282217282223372F23372FFFFFFFFFFB
:10360000FFFFFFFFFFFFFFFFFFFFFFFFFFFFFFFFCA
:10361000FFFFFFFFFFFFFF00000090DABD528E7A30
:10362000305A79305A79518BAA518BAA518BAA51B1
:103630008BAA518BAA518BAA518BAA518BAA518B61
:10364000AA518BAA518BAA518BAA518BAA518BAA32
:10365000518BAA518BAA518BAA518BAA518BAA517B
:103660008BAA518BAA518BAA518BAA518BAA518B31
:10367000AA518BAA305A79518BAA518BAA518BAA85
:10368000518BAA518BAA518BAA518BAA518BAA009C
:103690000000FFFFFFFFFFFFFFFFFFFFFFFFFFFF38
:1036A000FFFFFFFF101D22101D22101D22101D22E2
:1036B000101D22101D22101D22101D22101D22106F
:1036C0001D22101D22101D22101D22101D22101D52
:1036D00022101D22101D22101D22101D22101D223D
:1036E000101D22101D22101D2217272C17272C1702
:1036F000272C101D22101D22101D22060B0A060B5E
:103700000A060B0A060B0A060B0A060B0A1115130A
:10371000111513111513151C19151C19151C191544
:103720001C19151C19151C19151C19151C19151C0B
:1037300019111513111513111513060B0A060B0A8F
:10374000060B0A23372F23372F23372F172822174B
:1037500028221728221115131115131115131115ED
:1037600013111513111513060B0A060B0A060B0A83
:103770000F181A0F181A0F181A0F181A0F181A0FF5
:10378000181A0F181A0F181A0F181A0F181A0F18DC
:103790001A0F181A0F181A0F181A0F181A0F181ACA
:1037A0000F181A0F181A0F181A0F181A0F181A0FC5
:1037B000181A0F181A0F181A0F181A0F181A0F18AC
:1037C0001A0F181A0F181A0F181A313A38313A38D6
:1037D000313A38313A38313A38313A38313A383189
:1037E0003A38313A38313A38313A38313A38313A70
:1037F00038313A38313A38313A38313A38313A3862
:10380000313A38313A38313A38313A38313A383158
:103810003A38313A38313A38313A38313A38313A3F
:1038200038313A38313A38313A38313A38313A3831
:10383000313A38313A38313A38313A38313A380F4A
:10384000181A0F181A0F181A0F181A0F181A0F181B
:103850001A0F181A0F181A0F181A060B0A060B0A55
:10386000060B0A1115131115131115131115131148
:103870001513111513111513111513111513111516
:10388000131115131115130C110F0C110F0C110F2F
:103890000C110F0C110F0C110F0C110F0C110F0C40
:1038A000110F0C110F0C110F0C110F111513111515
:1038B00013111513111513111513111513111513D8
:1038C00011151311151311151311151311151311CA
:1038D00015131115131115131115131115131115B6
:1038E00013060B0A060B0A060B0A0F181A0F181AF2
:1038F0000F181A0F181A0F181A0F181A0F181A0F74
:10390000181A0F181A0F181A0F181A0F181A313A16
:1039100038313A38313A38313A38313A38313A3840
:10392000313A38313A38313A38313A38313A383137
:103930003A38313A38313A38313A38313A38313A1E
:1039400038313A38313A38313A38313A38313A3810
:10395000313A38313A38313A38313A38313A383107
:103960003A38313A38313A380F181A0F181A0F18F6
:103970001A0F181A0F181A0F181A060B0A060B0A34
:10398000060B0A1115131115131115131115131127
:1039900015131115130C110F0C110F0C110F060B31
:1039A0000A060B0A060B0A080E0C080E0C080E0C71
:1039B000080E0C080E0C080E0C080E0C080E0C0855
:1039C0000E0C080E0C080E0C080E0C080E0C080E3F
:1039D0000C080E0C080E0C080E0C080E0C080E0C31
:1039E000080E0C080E0C080E0C080E0C1F2C3206CC
:1039F0000C0A060C0A060C0A060C0A060C0A060C2F
:103A00000A18232D18232D18232D1F2C321F2C327A
:103A10001F2C321F2C32FFFFFFFFFFFF1F2C321F16
:103A20002C321F2C321F2C321F2C321F2C321F2CF9
:103A3000321F2C321F2C3218232D18232D18232D22
:103A4000060C0A060C0A060C0A080F0D080F0D08D2
:103A50000F0D080F0D080F0D080F0D080F0D080FA3
:103A60000D080F0D080F0D080F0D080F0D080F0D95
:103A7000080F0D080F0D080F0D080F0D080F0D088A
:103A80000F0D080F0D080F0D080F0D080F0D080F73
:103A90000D080F0D080F0D080F0D080F0D080F0D65
:103AA000080F0D080F0D080F0D080F0D080F0D085A
:103AB0000F0D080F0D080F0D080F0D080F0D080F43
:103AC0000D080F0D080F0D080F0D080F0D080F0D35
:103AD000080F0D080F0D080F0D080F0D080F0D082A
:103AE0000F0D080F0D080F0D080F0D080F0D080F13
:103AF0000D080F0D080F0D080F0D080F0D080F0D05
:103B0000080F0D080F0D080F0D080F0D080F0D08F9
:103B10000F0DFFFFFFFFFFFFFFFFFFFFFFFFFFFF97
:103B2000FFFFFFFFFFFFFFFFFFFFFFFFFFFFFFFFA5
:103B3000FFFFFFFFFFFFFFFFFF080F0D080F0D083E
:103B40000F0D080F0D080F0D080F0D080F0D080FB2
:103B50000D080F0D080F0D080F0D080F0D080F0DA4
:103B6000FFFFFFFFFFFFFFFFFFFFFFFFFFFFFFFF65
:103B7000FFFFFFFFFFFFFFFFFFFFFFFFFFFFFFFF55
:103B8000FFFFFFFFFFFFFFFFFFFFFFFFFFFFFFFF45
:103B9000FFFFFFFFFFFF233830233830233830FF8B
:103BA000FFFFFFFFFFFFFFFFFFFFFFFFFFFFFFFF25
:103BB000FFFFFFFFFFFFFFB4B1A700000090DABDD9
:103BC000305A79305A79305A79518BAA518BAA518F
:103BD0008BAA518BAA518BAA518BAA518BAA518BBC
:103BE000AA518BAA518BAA518BAA518BAA518BAA8D
:103BF000518BAA518BAA518BAA518BAA518BAA51D6
:103C00008BAA518BAA518BAA518BAA518BAA518B8B
:103C1000AA518BAA518BAA518BAA518BAA518BAA5C
:103C2000518BAA518BAA518BAA518BAA518BAA51A5
:103C30008BAA000000FFFFFFFFFFFFFFFFFFFFFF5A
:103C4000FFFFFFFF101E23101E23101E23101E2334
:103C5000101E23101E23101E23101E23101E2310BF
:103C60001E23101E23101E23101E23101E23101EA1
:103C700023101E23101E23101E23101E23101E238C
:103C8000101E23101E23101E2317282C17282C1754
:103C9000282C101E23101E23101E23060C0A060CAF
:103CA0000A060C0A060C0A060C0A060C0A11161360
:103CB000111613111613151C1A151C1A151C1A159A
:103CC0001C1A151C1A151C1A151C1A151C1A151C61
:103CD0001A111613111613111613060C0A060C0AE4
:103CE000060C0A233830233830233830172823179E
:103CF0002823172823111613111613111613111642
:103D000013111613111613060C0A060C0A060C0AD8
:103D10000F191B0F191B0F191B0F191B0F191B0F45
:103D2000191B0F191B0F191B0F191B0F191B0F192B
:103D30001B0F191B0F191B0F191B0F191B0F191B19
:103D40000F191B0F191B0F191B0F191B0F191B0F15
:103D5000191B0F191B0F191B0F191B0F191B0F19FB
:103D60001B0F191B0F191B0F191B313B39313B3925
:103D7000313B39313B39313B39313B39313B3931D9
:103D80003B39313B39313B39313B39313B39313BBF
:103D900039313B39313B39313B39313B39313B39B1
:103DA000313B39313B39313B39313B39313B3931A9
:103DB0003B39313B39313B39313B39313B39313B8F
:103DC00039313B39313B39313B39313B39313B3981
:103DD000313B39313B39313B39313B39313B390F9B
:103DE000191B0F191B0F191B0F191B0F191B0F196B
:103DF0001B0F191B0F191B0F191B060C0A060C0AA7
:103E0000060C0A111613111613111613111613119D
:103E1000161311161311161311161311161311166A
:103E2000131116131116130C12100C12100C121081
:103E30000C12100C12100C12100C12100C12100C90
:103E400012100C12100C12100C1210111613111665
:103E5000131116131116131116131116131116132D
:103E6000111613111613111613111613111613111F
:103E7000161311161311161311161311161311160A
:103E800013060C0A060C0A060C0A0F191B0F191B45
:103E90000F191B0F191B0F191B0F191B0F191B0FC4
:103EA000191B0F191B0F191B0F191B0F191B313B66
:103EB00039313B39313B39313B39313B39313B3990
:103EC000313B39313B39313B39313B39313B393188
:103ED0003B39313B39313B39313B39313B39313B6E
:103EE00039313B39313B39313B39313B39313B3960
:103EF000313B39313B39313B39313B39313B393158
:103F00003B39313B39313B390F191B0F191B0F1945
:103F10001B0F191B0F191B0F191B060C0A060C0A85
:103F2000060C0A111613111613111613111613117C
:103F300016131116130C12100C12100C1210060C82
:103F40000A060C0A060C0A080F0D080F0D080F0DC3
:103F5000080F0D080F0D080F0D080F0D080F0D08A5
:103F60000F0D080F0D080F0D080F0D080F0D080F8E
:103F70000D080F0D080F0D080F0D080F0D080F0D80
:103F8000080F0D080F0D080F0D080F0D19242D0730
:103F90000D0A070D0A070D0A070D0A070D0A070D7E
:103FA0000A202D32202D32202D32202D32202D328C
:103FB000202D32202D32FFFFFFFFFFFFFFFFFF20EC
:103FC0002D32202D32202D32202D32202D32202D49
:103FD00032202D32202D32202D32202D32202D3234
:103FE000202D32202D32202D32070D0A070D0A0711
:103FF0000D0A09100D09100D09100D09100D0910F9
:104000000D09100D09100D09100D09100D09100DE5
:1040100009100D09100D09100D09100D09100D09D9
:10402000100D09100D09100D09100D09100D0910C2
:104030000D09100D09100D09100D09100D09100DB5
:1040400009100D09100D09100D09100D09100D09A9
:10405000100D09100D09100D09100D09100D091092
:104060000D09100D09100D09100D09100D09100D85
:1040700009100D09100D09100D09100D09100D0979
:10408000100D09100D09100D09100D09100D091062
:104090000D09100D09100D09100D09100D09100D55
:1040A00009100D09100D09100D09100D09100D0949
:1040B000100DFFFFFFFFFFFFFFFFFFFFFFFFFFFFF1
:1040C000FFFFFFFFFFFFFFFFFFFFFFFFFFFFFFFF00
:1040D000FFFFFFFFFFFFFFFFFFFFFFFFFFFFFF09E6
:1040E000100D09100D09100D09100D09100D091002
:1040F0000D09100D09100D09100D09100D09100DF5
:10410000FFFFFFFFFFFFFFFFFFFFFFFFFFFFFFFFBF
:10411000FFFFFFFFFFFFFFFFFFFFFFFFFFFFFFFFAF
:10412000FFFFFFFFFFFFFFFFFFFFFFFFFFFFFFFF9F
:10413000FFFFFFFFFFFFFFFFFFFFFFFF070D0A0766
:104140000D0AFFFFFFFFFFFFFFFFFFFFFFFFFFFF66
:10415000FFFFFFFFFFFFFFFFFFFF000000528E7A0F
:1041600090DABD305A79305A79518BAA518BAA51C5
:104170008BAA518BAA518BAA518BAA518BAA518B16
:10418000AA518BAA518BAA518BAA518BAA518BAAE7
:10419000518BAA518BAA518BAA518BAA518BAA5130
:1041A0008BAA518BAA518BAA518BAA518BAA518BE6
:1041B000AA518BAA518BAA518BAA518BAA518BAAB7
:1041C000518BAA518BAA518BAA518BAA518BAA5100
:1041D0008BAA305A79000000FFFFFFFFFFFFFFFFAF
:1041E000FFFFFFFFFFFFFF111F23111F23111F23DD
:1041F000111F23111F23111F23111F23111F23110F
:104200001F23111F23111F23111F23111F23111FF0
:1042100023111F23111F23111F23111F23111F23DC
:1042200010191B10191B10191B070D0A070D0A077F
:104230000D0A070D0A070D0A070D0A161D1A161D8D
:104240001A161D1A161D1A161D1A161D1A161D1AD3
:10425000161D1A161D1A1117131117131117131102
:104260001713111713111713111713111713111710
:1042700013111713111713111713070D0A070D0A3E
:10428000070D0A24383024383024383018292318F0
:104290002923182923111713111713111713111795
:1042A00013111713111713070D0A070D0A070D0A2B
:1042B00010191B10191B10191B10191B10191B109A
:1042C000191B10191B10191B10191B10191B101981
:1042D0001B10191B111F23111F23111F23111F2333
:1042E000111F23111F23111F23111F23111F23111E
:1042F0001F23111F23111F23111F23111F23111F00
:1043000023111F23111F23111F23323B39323B3945
:10431000323B39323B39323B39323B39323B39322D
:104320003B39323B39323B39323B39323B39323B14
:1043300039323B39323B39323B39323B39323B3906
:10434000323B39323B39323B39323B39323B3932FD
:104350003B39323B39323B39323B39323B39323BE4
:1043600039323B39323B39323B39323B39323B39D6
:10437000323B39323B39323B39323B39323B3917E8
:10438000292C17292C17292C10191B10191B10194F
:104390001B10191B10191B10191B070D0A070D0AFA
:1043A000070D0A11171311171311171311171311F2
:1043B00017131117131117131117131117130D13C7
:1043C000100D13100D13100D13100D13100D1310ED
:1043D0000D13100D13100D1310070D0A070D0A070A
:1043E0000D0A070D0A070D0A070D0A070D0A070D2A
:1043F0000A070D0A070D0A070D0A070D0A070D0A1D
:10440000070D0A070D0A0D13100D13100D131011CF
:10441000171311171311171311171311171311175E
:1044200013070D0A070D0A070D0A10191B10191B97
:1044300010191B10191B10191B10191B10191B1018
:10444000191B10191B10191B10191B10191B323BBB
:1044500039323B39323B39323B39323B39323B39E5
:10446000323B39323B39323B39323B39323B3932DC
:104470003B39323B39323B39323B39323B39323BC3
:1044800039323B39323B39323B39323B39323B39B5
:10449000323B39323B39323B39323B39323B3932AC
:1044A0003B39323B39323B3917292C17292C172934
:1044B0002C10191B10191B10191B070D0A070D0AC8
:1044C000070D0A11171311171311171311171311D1
:1044D0001713111713111713111713111713070DB2
:1044E0000A070D0A070D0A09100D09100D09100D14
:1044F00009100D09100D09100D09100D09100D09F5
:10450000100D09100D09100D09100D09100D0910DD
:104510000D09100D09100D09100D09100D09100DD0
:1045200009100D09100D09100D09100D19242E0781
:104530000D0B070D0B070D0B070D0B070D0B070DD3
:104540000B202D33202D33202D33202D33202D33E0
:10455000202D33202D33FFFFFFFFFFFFFFFFFF2044
:104560002D33202D33202D33202D33202D33202D9E
:1045700033202D33202D33202D33202D33202D3388
:10458000202D33202D33202D33070D0B070D0B0766
:104590000D0B09100E09100E09100E09100E09104E
:1045A0000E09100E09100E09100E09100E09100E3A
:1045B00009100E09100E09100E09100E09100E092F
:1045C000100E09100E09100E09100E09100E091018
:1045D0000E09100E09100E09100E09100E09100E0A
:1045E00009100E09100E09100E09100E09100E09FF
:1045F000100E09100E09100E09100E09100E0910E8
:104600000E09100E09100E09100E09100E09100ED9
:1046100009100E09100E09100E09100E09100E09CE
:10462000100E09100E09100E09100E09100E0910B7
:104630000E09100E09100E09100E09100E09100EA9
:1046400009100E09100E09100E09100E09100E099E
:10465000100EFFFFFFFFFFFFFFFFFFFFFFFFFFFF4A
:10466000FFFFFFFFFFFFFFFFFFFFFFFFFFFFFFFF5A
:10467000FFFFFFFFFFFFFFFFFFFFFFFFFFFFFFFF4A
:10468000FFFFFFFFFF09100E09100E09100E0910A1
:104690000E09100E09100E09100E09100E09100E49
:1046A000FFFFFFFFFFFFFFFFFFFFFFFFFFFFFFFF1A
:1046B000FFFFFFFFFFFFFFFFFFFFFFFFFFFFFFFF0A
:1046C000FFFFFFFFFFFFFFFFFFFFFFFFFFFFFFFFFA
:1046D000FFFFFFFFFFFFFFFFFFFFFFFFFFFFFFFFEA
:1046E000FFFF070D0BFFFFFFFFFFFFFFFFFFFFFFB8
:1046F000FFFFFFFFFFFFFFFFFFFFFFFFFF000000C7
:10470000528E7A528E7A305A79518BAA518BAA5195
:104710008BAA518BAA518BAA518BAA518BAA518B70
:10472000AA518BAA518BAA518BAA518BAA518BAA41
:10473000518BAA518BAA518BAA518BAA518BAA518A
:104740008BAA518BAA518BAA518BAA518BAA518B40
:10475000AA518BAA518BAA518BAA518BAA518BAA11
:10476000518BAA518BAA518BAA518BAA518BAA515A
:104770008BAA518BAA000000B4B1A7FFFFFFFFFF77
:10478000FFFFFFFFFFFFFF111F23111F23111F2337
:10479000111F23111F23111F23111F23111F231169
:1047A0001F23111F23111F23111F23111F23111F4B
:1047B00023111F23111F23111F23111F23111F2337
:1047C00010191B10191B10191B070D0B070D0B07D8
:1047D0000D0B070D0B070D0B070D0B161D1B161DE3
:1047E0001B161D1B161D1B161D1B161D1B161D1B28
:1047F000161D1B161D1B1117141117141117141158
:104800001714111714111714111714111714111765
:1048100014111714111714111714070D0B070D0B92
:10482000070D0B2438312438312438311829241845
:1048300029241829241117141117141117141117EA
:1048400014111714111714070D0B070D0B070D0B7F
:1048500010191B10191B10191B10191B10191B10F4
:10486000191B10191B10191B10191B10191B1019DB
:104870001B10191B111F23111F23111F23111F238D
:10488000111F23111F23111F23111F23111F231178
:104890001F23111F23111F23111F23111F23111F5A
:1048A00023111F23111F23111F23323B39323B39A0
:1048B000323B39323B39323B39323B39323B393288
:1048C0003B39323B39323B39323B39323B39323B6F
:1048D00039323B39323B39323B39323B39323B3961
:1048E000323B39323B39323B39323B39323B393258
:1048F0003B39323B39323B39323B39323B39323B3F
:1049000039323B39323B39323B39323B39323B3930
:10491000323B39323B39323B39323B39323B391742
:10492000292D17292D17292D10191B10191B1019A6
:104930001B10191B10191B10191B070D0B070D0B52
:10494000070D0B1117141117141117141117141147
:1049500017141117141117141117141117140D131C
:10496000100D13100D13100D13100D13100D131047
:104970000D13100D13100D1310070D0B070D0B0762
:104980000D0B070D0B070D0B070D0B070D0B070D7F
:104990000B070D0B070D0B070D0B070D0B070D0B71
:1049A000070D0B070D0B0D13100D13100D13101128
:1049B00017141117141117141117141117141117B4
:1049C00014070D0B070D0B070D0B10191B10191BEE
:1049D00010191B10191B10191B10191B10191B1073
:1049E000191B10191B10191B10191B10191B323B16
:1049F00039323B39323B39323B39323B39323B3940
:104A0000323B39323B39323B39323B39323B393236
:104A10003B39323B39323B39323B39323B39323B1D
:104A200039323B39323B39323B39323B39323B390F
:104A3000323B39323B39323B39323B39323B393206
:104A40003B39323B39323B3917292D17292D17298C
:104A50002D10191B10191B10191B070D0B070D0B1F
:104A6000070D0B1117141117141117141117141126
:104A70001714111714111714111714111714070D07
:104A80000B070D0B070D0B09100E09100E09100E68
:104A900009100E09100E09100E09100E09100E094A
:104AA000100E09100E09100E09100E09100E091033
:104AB0000E09100E09100E09100E09100E09100E25
:104AC00009100E09100E09100E09100E1A252F08D4
:104AD0000E0C080E0C080E0C080E0C080E0C080E1E
:104AE0000C212E34212E34212E34212E34212E342B
:104AF000212E34212E34FFFFFFFFFFFFFFFFFFFFBA
:104B0000FFFF212E34212E34212E34212E34212E4C
:104B100034212E34212E34212E34212E34212E34D2
:104B2000212E34212E34212E34080E0C080E0C08B0
:104B30000E0C0A110F0A110F0A110F0A110F0A1198
:104B40000F0A110F0A110F0A110F0A110F0A110F84
:104B50000A110F0A110F0A110F0A110F0A110F0A79
:104B6000110F0A110F0A110F0A110F0A110F0A1162
:104B70000F0A110F0A110F0A110F0A110F0A110F54
:104B80000A110F0A110F0A110F0A110F0A110F0A49
:104B9000110F0A110F0A110F0A110F0A110F0A1132
:104BA0000F0A110F0A110F0A110F0A110F0A110F24
:104BB0000A110F0A110F0A110F0A110F0A110F0A19
:104BC000110F0A110F0A110F0A110F0A110F0A1102
:104BD0000F0A110F0A110F0A110F0A110F0A110FF4
:104BE0000A110F0A110F0A110F0A110F0A110F0AE9
:104BF000110FFFFFFFFFFFFFFFFFFFFFFFFFFFFFA3
:104C0000FFFFFFFFFFFFFFFFFFFFFFFFFFFFFFFFB4
:104C1000FFFFFFFFFFFFFFFFFFFFFFFFFFFFFFFFA4
:104C2000FFFFFFFFFFFFFFFF0A110F0A110F0A111D
:104C30000F0A110F0A110F0A110F0A110F0A110F93
:104C4000FFFFFFFFFFFFFFFFFFFFFFFFFFFFFFFF74
:104C5000FFFFFFFFFFFFFFFFFFFFFFFFFFFFFFFF64
:104C6000FFFFFFFFFFFFFFFFFFFFFFFFFFFFFFFF54
:104C7000FFFFFFFFFFFFFFFFFFFFFFFFFFFFFFFF44
:104C8000FFFFFFFFFFFFFFFFFFFFFFFFFFFFFFFF34
:104C9000FFFFFFFFFFFFFFFFFFFFFFFFFF00000021
:104CA000000000528E7A305A79305A79518BAA51CD
:104CB0008BAA518BAA518BAA518BAA518BAA518BCB
:104CC000AA518BAA518BAA518BAA518BAA518BAA9C
:104CD000518BAA518BAA518BAA518BAA518BAA51E5
:104CE0008BAA518BAA518BAA518BAA518BAA518B9B
:104CF000AA518BAA518BAA518BAA518BAA518BAA6C
:104D0000518BAA518BAA518BAA518BAA518BAA51B4
:104D10008BAA518BAA518BAA000000FFFFFFFFFF57
:104D2000FFFFFFFFFFFFFFFFFFFF122024122024E1
:104D300012202412202412202412202412202412B3
:104D40002024122024122024122024122024122095
:104D50002412202412202412202412202412202481
:104D6000111A1C111A1C111A1C080E0C080E0C0822
:104D70000E0C080E0C080E0C080E0C171E1C171E2D
:104D80001C171E1C171E1C171E1C171E1C171E1C72
:104D9000171E1C171E1C12171512171512171512A5
:104DA00017151217151217151217151217151217B6
:104DB00015121715121715121715080E0C080E0CE0
:104DC000080E0C253932253932253932182A241893
:104DD0002A24182A2412171512171512171512173C
:104DE00015121715121715080E0C080E0C080E0CCC
:104DF000111A1C111A1C111A1C111A1C111A1C113F
:104E00001A1C111A1C111A1C111A1C111A1C111A25
:104E10001C111A1C122024122024122024122024D7
:104E200012202412202412202412202412202412C2
:104E300020241220241220241220241220241220A4
:104E400024122024122024122024333C3A333C3AEA
:104E5000333C3A333C3A333C3A333C3A333C3A33D2
:104E60003C3A333C3A333C3A333C3A333C3A333CB9
:104E70003A333C3A333C3A333C3A333C3A333C3AAB
:104E8000333C3A333C3A333C3A333C3A333C3A33A2
:104E90003C3A333C3A333C3A333C3A333C3A333C89
:104EA0003A333C3A333C3A333C3A333C3A333C3A7B
:104EB000333C3A333C3A333C3A333C3A333C3A188D
:104EC000292E18292E18292E111A1C111A1C111AF4
:104ED0001C111A1C111A1C111A1C080E0C080E0C9D
:104EE000080E0C1217151217151217151217151296
:104EF00017151217151217151217151217150E136D
:104F0000110E13110E13110E13110E13110E131196
:104F10000E13110E13110E1311080E0C080E0C08AF
:104F20000E0C080E0C080E0C080E0C080E0C080EC9
:104F30000C080E0C080E0C080E0C080E0C080E0CBB
:104F4000080E0C080E0C0E13110E13110E13111275
:104F50001715121715121715121715121715121704
:104F600015080E0C080E0C080E0C111A1C111A1C38
:104F7000111A1C111A1C111A1C111A1C111A1C11BD
:104F80001A1C111A1C111A1C111A1C111A1C333C60
:104F90003A333C3A333C3A333C3A333C3A333C3A8A
:104FA000333C3A333C3A333C3A333C3A333C3A3381
:104FB0003C3A333C3A333C3A333C3A333C3A333C68
:104FC0003A333C3A333C3A333C3A333C3A333C3A5A
:104FD000333C3A333C3A333C3A333C3A333C3A3351
:104FE0003C3A333C3A333C3A18292E18292E1829DA
:104FF0002E111A1C111A1C111A1C080E0C080E0C6A
:10500000080E0C1217151217151217151217151274
:105010001715121715121715121715121715080E56
:105020000C080E0C080E0C0A110F0A110F0A110FB2
:105030000A110F0A110F0A110F0A110F0A110F0A94
:10504000110F0A110F0A110F0A110F0A110F0A117D
:105050000F0A110F0A110F0A110F0A110F0A110F6F
:105060000A110F0A110F0A110F0A110F080E0C086E
:105070000E0C080E0C080E0C1A262F1A262F1A26B4
:105080002F212F34212F34212F34212F34212F345D
:10509000212F34212F34212F34FFFFFFFFFFFFFF8B
:1050A000FFFF212F34212F34212F34212F34212FA2
:1050B00034212F34212F3428363C28363C28363CE6
:1050C00028363C28363C28363C28363C28363C28B6
:1050D000363C080E0C080E0C080E0C0A120F0A12B1
:1050E0000F0A120F0A120F0A120F0A120F0A120FDA
:1050F0000A120F0A120F0A120F0A120F0A120F0ACF
:10510000120F0A120F0A120F0A120F0A120F0A12B6
:105110000F0A120F0A120F0A120F0A120F0A120FA9
:105120000A120F0A120F0A120F0A120F0A120F0A9E
:10513000120F0A120F0A120F0A120F0A120F0A1286
:105140000F0A120F0A120F0A120F0A120F0A120F79
:105150000A120F0A120F0A120F0A120F0A120F0A6E
:10516000120F0A120F0A120F0A120F0A120F0A1256
:105170000F0A120F0A120F0A120F0A120F0A120F49
:105180000A120F0A120F0A120F0A120F0A120F0A3E
:10519000120F0A120FFFFFFFFFFFFFFFFFFFFFFFCE
:1051A000FFFFFFFFFFFFFFFFFFFFFFFFFFFFFFFF0F
:1051B000FFFFFFFFFFFFFFFFFFFFFFFFFFFFFFFFFF
:1051C000FFFFFFFFFFFFFFFFFFFFFFFFFFFF0A12D1
:1051D0000F0A120F0A120F0A120F0A120F0A120FE9
:1051E0000A120FFFFFFFFFFFFFFFFFFFFFFFFFFFA1
:1051F000FFFFFFFFFFFFFFFF0000000000000000B7
:10520000000000000000000000000000000000009E
:10521000000000B4B1A7B4B1A7FFFFFFFFFFFFFF7D
:10522000FFFFFFFFFFFFFFFFFFFFFFFFFFFFFFFF8E
:10523000FFFFFFFFFFFFFFB4B1A700000000000069
:10524000000000000000528E7A305A79518BAA512A
:105250008BAA518BAA518BAA518BAA518BAA518B25
:10526000AA518BAA518BAA518BAA518BAA518BAAF6
:10527000518BAA518BAA518BAA518BAA518BAA513F
:105280008BAA518BAA518BAA518BAA518BAA518BF5
:10529000AA518BAA518BAA518BAA518BAA518BAAC6
:1052A000518BAA518BAA518BAA518BAA518BAA510F
:1052B0008BAA518BAA518BAA305A79000000FFFFAC
:1052C000FFFFFFFFFFFFFFFFFFFF1220241220243C
:1052D000122024122024122024122024122024120E
:1052E0002024122024111B1C111B1C111B1C080E36
:1052F0000C080E0C080E0C080E0C080E0C080E0CF8
:10530000080E0C080E0C080E0C171F1C171F1C177C
:105310001F1C080E0C080E0C080E0C121815121883
:10532000151218151218151218151218151218152D
:105330001218151218151218151218151218151220
:10534000181512181512181512181512181512180A
:1053500015121815121815121815080E0C080E0C37
:10536000080E0C182B24182B24182B24253A322530
:105370003A32253A32121815121815121815121849
:1053800015121815121815080E0C080E0C080E0C24
:10539000111B1C111B1C111B1C111B1C111B1C1194
:1053A0001B1C12202412202412202412202412203C
:1053B000241220241220241220241220241220241B
:1053C000122024122024122024122024122024121D
:1053D00020241220241220241220241220241220FF
:1053E00024122024122024122024182A2E182A2EB7
:1053F000182A2E333D3A333D3A333D3A333D3A3362
:105400003D3A333D3A333D3A333D3A333D3A333D0D
:105410003A333D3A333D3A333D3A333D3A333D3A00
:10542000333D3A333D3A333D3A333D3A333D3A33F7
:105430003D3A333D3A333D3A333D3A333D3A333DDD
:105440003A333D3A333D3A333D3A333D3A333D3AD0
:10545000333D3A333D3A333D3A333D3A333D3A33C7
:105460003D3A333D3A333D3A111B1C111B1C111BB5
:105470001C111B1C111B1C111B1C080E0C080E0CF4
:10548000080E0C12181512181512181512181512EC
:1054900018151218151218151218151218150E14C1
:1054A000110E14110E1411080E0C080E0C080E0C1F
:1054B000080E0C080E0C080E0C080E0C080E0C083A
:1054C0000E0C080E0C080E0C080E0C080E0C080E24
:1054D0000C080E0C080E0C080E0C080E0C080E0C16
:1054E000080E0C080E0C080E0C080E0C080E0C1200
:1054F0001815121815121815121815121815121859
:1055000015080E0C080E0C080E0C111B1C111B1C90
:10551000111B1C12202412202412202412202412D9
:105520002024122024122024122024122024182A9D
:105530002E182A2E182A2E333D3A333D3A333D3A5F
:10554000333D3A333D3A333D3A333D3A333D3A33D6
:105550003D3A333D3A333D3A333D3A333D3A333DBC
:105560003A333D3A333D3A333D3A333D3A333D3AAF
:10557000333D3A333D3A333D3A333D3A333D3A33A6
:105580003D3A333D3A333D3A333D3A333D3A333D8C
:105590003A111B1C111B1C111B1C080E0C080E0CB5
:1055A000080E0C0E14110E14110E141112181512EF
:1055B0001815121815121815121815121815080EAC
:1055C0000C080E0C080E0C0A120F0A120F0A120F0A
:1055D0000A120F0A120F0A120F0A120F0A120F0AEA
:1055E000120F0A120F0A120F0A120F0A120F0A12D2
:1055F0000F0A120F0A120F0A120F0A120F0A120FC5
:105600000A120F0A120F0A120F0A120F090F0D09C0
:105610000F0D090F0D090F0D1A27301A27301A2701
:1056200030222F35222F35222F35222F35222F35AC
:10563000222F35222F35222F35FFFFFFFFFFFFFFDF
:10564000FFFFFFFFFF222F35222F35222F35222F7C
:1056500035222F35222F3529363C29363C29363C38
:1056600029363C29363C29363C29363C29363C290A
:10567000363C090F0D090F0D090F0D0B13100B13FD
:10568000100B13100B13100B13100B13100B131024
:105690000B13100B13100B13100B13100B13100B19
:1056A00013100B13100B13100B13100B13100B1301
:1056B000100B13100B13100B13100B13100B1310F4
:1056C0000B13100B13100B13100B13100B13100BE9
:1056D00013100B13100B13100B13100B13100B13D1
:1056E000100B13100B13100B13100B13100B1310C4
:1056F0000B13100B13100B13100B13100B13100BB9
:1057000013100B13100B13100B13100B13100B13A0
:10571000100B13100B13100B13100B13100B131093
:105720000B13100B13100B13100B13100B13100B88
:1057300013100B1310FFFFFFFFFFFFFFFFFFFFFF23
:10574000FFFFFFFFFFFFFFFFFFFFFFFFFFFFFFFF69
:10575000FFFFFFFFFFFFFFFFFFFFFFFFFFFFFFFF59
:10576000FFFFFFFFFFFFFFFFFFFFFFFFFFFFFFFF49
:10577000FF0B13100B13100B13100B13100B131044
:105780000B1310FFFFFFFFFFFFFFFFFFFFFFFFFFF8
:10579000FFFFFFFFFFFFFFFF00000090DABD305A60
:1057A00079305A79518BAA518BAA518BAA305A79E8
:1057B000305A7900000000000000000000000000E6
:1057C0000000000000B4B1A7B4B1A7FFFFFFFFFFC6
:1057D000FFB4B1A70000000000002D3F51305A79FE
:1057E000000000000000000000305A79518BAA51DF
:1057F0008BAA518BAA518BAA518BAA518BAA518B80
:10580000AA518BAA518BAA518BAA518BAA518BAA50
:10581000518BAA518BAA518BAA518BAA518BAA5199
:105820008BAA518BAA518BAA518BAA518BAA518B4F
:10583000AA518BAA518BAA518BAA518BAA518BAA20
:10584000518BAA518BAA518BAA518BAA518BAA5169
:105850008BAA518BAA518BAA518BAA000000B4B11C
:10586000A7FFFFFFFFFFFFFFFFFFFFFFFF12212545
:10587000122125122125122125122125122125125E
:105880002125122125121C1D121C1D121C1D090F81
:105890000D090F0D090F0D090F0D090F0D090F0D42
:1058A000090F0D090F0D090F0D18201C18201C18C9
:1058B000201C090F0D090F0D090F0D1319161319CF
:1058C0001613191613191613191613191613191678
:1058D000131916131916131916131916131916136B
:1058E0001916131916131916131916131916131955
:1058F00016131916131916131916090F0D090F0D82
:10590000090F0D192C25192C25192C25263B33267A
:105910003B33263B33131916131916131916131993
:1059200016131916131916090F0D090F0D090F0D6E
:10593000121C1D121C1D121C1D121C1D121C1D12DE
:105940001C1D12212512212512212512212512218B
:10595000251221251221251221251221251221256A
:10596000122125122125122125122125122125126D
:10597000212512212512212512212512212512214E
:1059800025122125122125122125192B2F192B2F04
:10599000192B2F343E3B343E3B343E3B343E3B34AC
:1059A0003E3B343E3B343E3B343E3B343E3B343E58
:1059B0003B343E3B343E3B343E3B343E3B343E3B4B
:1059C000343E3B343E3B343E3B343E3B343E3B3442
:1059D0003E3B343E3B343E3B343E3B343E3B343E28
:1059E0003B343E3B343E3B343E3B343E3B343E3B1B
:1059F000343E3B343E3B343E3B343E3B343E3B3412
:105A00003E3B343E3B343E3B121C1D121C1D121CFF
:105A10001D121C1D121C1D121C1D090F0D090F0D3E
:105A2000090F0D1319161319161319161319161336
:105A300019161319161319161319161319160F150B
:105A4000120F15120F1512090F0D090F0D090F0D69
:105A5000090F0D090F0D090F0D090F0D090F0D0984
:105A60000F0D090F0D090F0D090F0D090F0D090F6E
:105A70000D090F0D090F0D090F0D090F0D090F0D60
:105A8000090F0D090F0D090F0D090F0D090F0D134A
:105A900019161319161319161319161319161319A3
:105AA00016090F0D090F0D090F0D121C1D121C1DDB
:105AB000121C1D1221251221251221251221251229
:105AC0002125122125122125122125122125192BEC
:105AD0002F192B2F192B2F343E3B343E3B343E3BAA
