:020000040800F2
:2000000050B60120C9E30108B9D70108BBD70108BDD70108BFD70108C1D7010800000000F3
:20002000000000000000000000000000A5C60008C3D70108000000004DC60008C5D70108EA
:20004000EFE40108F3E40108F7E40108FBE40108FFE4010803E5010807E501080BE501084D
:200060000FE5010813E5010817E501081BE501081FE5010823E5010827E501082BE5010828
:200080002FE5010833E5010837E501083BE501083FE5010843E5010847E501084BE5010808
:2000A0004FE5010853E5010857E501085BE501085FE5010863E5010867E501086BE50108E8
:2000C0006FE5010873E5010877E501087BE501087FE5010883E5010887E501088BE50108C8
:2000E0008FE5010893E5010897E501089BE501089FE50108A3E50108A7E50108ABE50108A8
:20010000D3D70108AFE50108B3E50108B7E50108BBE50108BFE50108C3E50108C7E501088D
:20012000CBE50108CFE50108D3E50108D7E50108DBE50108DFE50108E3E50108E7E5010887
:20014000EBE50108EFE50108F3E50108F7E50108FBE50108FFE5010803E6010807E6010865
:200160000BE601080FE6010813E6010817E601081BE601081FE6010823E601080000000055
:2001800027E601082BE601082FE6010833E6010837E601083BE601083FE6010843E601083F
:2001A000D9D70108DDD70108E5D701080000000064672500000000000010FAFFFFFF5C00B1
:2001C00000000000E5FFFFFFFFFF0A00000030FFFFFFEDFFFFAF000000E1FFCF040071FF4B
:2001E000FF060000F8FF0B000000F4FF0E0000FEFF0100000090FF6F0040FF9F000000001D
:2002000020FFBF0090FF4F0000000000FDFF00C0FF1F0000000000FAFF03F0FF0E0000004F
:200220000000F7FF06F1FF0D0000000000F5FF08F2FF0C0000000000F4FF0AF4FF0B0000D1
:20024000000000F3FF0BF4FF0A0000000000F3FF0BF5FF0A0000000000F2FF0CF5FF0A00AE
:2002600000000000F2FF0CF4FF0A0000000000F3FF0CF4FF0A0000000000F3FF0BF3FF0B8F
:200280000000000000F4FF0AF1FF0C0000000000F5FF08F0FF0E0000000000F7FF06C0FFB1
:2002A0001F0000000000FAFF0490FF4F0000000000FDFF0050FF9F0000000020FFCF00006C
:2002C000FFFF0100000090FF7F0000F9FF0B000000F4FF1F0000E1FFBF030071FFFF0700E4
:2002E0000040FFFFFFEDFFFFBF00000000F5FFFFFFFFFF0B0000000020FAFFFFFF5C0000A9
:20030000000000000064672500000000000000E0FF03000000000000F2FF03000000000017
:2003200000FBFF030000000000C4FFFF03000000C6FEFFFFFF03000000F9FFFFFFFF03003F
:200340000000F9FFFFFFFF03000000000000F8FF03000000000000F8FF03000000000000B1
:20036000F8FF03000000000000F8FF03000000000000F8FF03000000000000F8FF03000095
:2003800000000000F8FF03000000000000F8FF03000000000000F8FF03000000000000F877
:2003A000FF03000000000000F8FF03000000000000F8FF03000000000000F8FF030000004D
:2003C000000000F8FF03000000000000F8FF03000000000000F8FF03000000000000F8FF38
:2003E00003000000000000F8FF03000000000000F8FF03000000000000F8FF04000000F912
:20040000FFFFFFFFFFFFFF02F9FFFFFFFFFFFFFF02F9FFFFFFFFFFFFFF02000010647746C8
:20042000010000000094FEFFFFFFBF040000E1FFFFFFFFFFFFAF0000F2FFFFFFFFFFFFFFF4
:200440000C00F2FF8D140061FDFF8F00F23B00000000A0FFFF0051000000000000FEFF05F4
:2004600000000000000000F9FF0700000000000000F6FF0900000000000000F6FF08000082
:200480000000000000F8FF0700000000000000FCFF0400000000000020FFFF000000000041
:2004A0000000A0FF9F00000000000000F5FF1F00000000000020FFFF06000000000000D1F6
:2004C000FFAF00000000000000FDFF0C000000000000C0FFDF01000000000000FCFF1D00AF
:2004E0000000000000C0FFDF01000000000010FCFF1C000000000000D2FFCF000000000096
:200500000030FEFF0B000000000000F4FFAF00000000000060FFFF08000000000000F7FFA5
:200520006F00000000000000FDFF6B66666666666656FDFFFFFFFFFFFFFFFFDFFDFFFFFF5D
:20054000FFFFFFFFFFDFFDFFFFFFFFFFFFFFFFDF000000637756020000000083FDFFFFFF3E
:20056000EF190000B0FFFFFFFFFFFFFF0600E0FFFFFFFFFFFFFF6F00E0FF9E150030F8FFC3
:20058000FF01E05D0000000030FFFF0750000000000000F7FF0B00000000000000F3FF0C9A
:2005A00000000000000000F2FF0B00000000000000F5FF0800000000000000FCFF01000047
:2005C00000000000A0FF7F00000000001073FEFF0800000000F0FFFFFF4C0000000000F04C
:2005E000FFFF8F010000000000F0FFFFFFAF0200000000506597FDFF4F0000000000000038
:2006000060FFFF0200000000000000F6FF0B00000000000000E0FF1F00000000000000A0DC
:20062000FF4F0000000000000090FF6F0000000000000090FF6F00000000000000C0FF4F62
:2006400000000000000000F1FF1F15000000000000FAFF0CFB180000000080FFFF04FBFFE2
:200660007B130072FDFFBF00FBFFFFFFFFFFFFFF0D00F8FFFFFFFFFFFFAF000010B7FFFF58
:20068000FFFFBF0300000000206577360000000000000000000000FCFF030000000000006A
:2006A0000000A0FFFF030000000000000000F7FFFF030000000000000040FFFFFF03000061
:2006C0000000000000E2FFFFFF0300000000000000FDEFFAFF03000000000000A0FF3FF979
:2006E000FF03000000000000F8FF05F9FF03000000000050FF8F00F9FF030000000000F236
:20070000FF0B00F9FF030000000010FDDF0000F9FF0300000000B0FF2E0000F9FF03000015
:200720000000F9FF040000F9FF0300000060FF7F000000F9FF03000000F3FF0A000000F9F4
:20074000FF03000010FECF00000000F9FF030000C0FF1E00000000F9FF030000F7FF0300EE
:20076000000000F9FF030000F89F3333333333FAFF353301F8FFFFFFFFFFFFFFFFFFFF0890
:20078000F8FFFFFFFFFFFFFFFFFFFF08F8FFFFFFFFFFFFFFFFFFFF0800000000000000F974
:2007A000FF03000000000000000000F9FF03000000000000000000F9FF0300000000000041
:2007C000000000F9FF03000000000000000000F9FF03000000000000000000F9FF03000028
:2007E00000000000000000F9FF03000000000000000000F9FF03000010FFFFFFFFFFFFFFFA
:20080000FF6F10FFFFFFFFFFFFFFFF6F10FFFFFFFFFFFFFFFF6F10FFDF8888888888883826
:2008200010FFAF0000000000000010FFAF0000000000000010FFAF0000000000000010FF6F
:20084000AF0000000000000010FFAF0000000000000010FFAF0000000000000010FFAF00AF
:2008600000000000000010FFBF5445240000000010FFFFFFFFFFCF07000010FFFFFFFFFF01
:20088000FFEF050010FFFFFFFFFFFFFF6F00106924011063FBFFFF0300000000000040FEA2
:2008A000FF0C00000000000000F3FF2F00000000000000B0FF6F0000000000000070FF7F00
:2008C0000000000000000060FF9F0000000000000060FF8F0000000000000090FF6F00002E
:2008E0000000000000E0FF2F12000000000000F7FF0DF5290000000060FFFF05F5FF7C13D1
:200900000051FCFFBF00F5FFFFFFFFFFFFFF1D00F4FFFFFFFFFFFFAF000010B7FFFFFFFF61
:20092000BF0400000000206577460000000000000000002065773600000000000092FEFFF1
:20094000FFFF070000000080FFFFFFFFFF0700000020FEFFFFFFFFFF07000000E2FFFF5AB6
:2009600001007305000000FEFF2C0000000000000090FFBF0000000000000000F3FF1D0078
:2009800000000000000000FAFF040000000000000000FFCF000000000000000060FF6F00BE
:2009A00000000000000000A0FF1F0010432300000000D0FF0E92FEFFFFBF040000F0FFAD39
:2009C000FFFFFFFFFFBF0000F2FFFFFFFFFFFFFFFF1D00F3FFFF7C131052FCFFBF00F4FFC7
:2009E0004D0000000080FFFF04F5FF0A0000000000FAFF0AF4FF0A0000000000F2FF0FF436
:200A0000FF0A0000000000E0FF1FF3FF0B0000000000C0FF3FF1FF0C0000000000B0FF3FEA
:200A2000E0FF0F0000000000C0FF2FA0FF3F0000000000E0FF0F50FFAF0000000000F3FF1E
:200A40000C00FFFF0300000000FAFF0600F7FF2E00000060FFEF0000D0FFEF060020F9FF3C
:200A60004F000020FEFFFFCDFEFFFF06000000D2FFFFFFFFFF4F0000000000E6FFFFFF9E9F
:200A80000100000000000052773600000000FFFFFFFFFFFFFFFFFFEFFFFFFFFFFFFFFFFF78
:200AA000FFEFFFFFFFFFFFFFFFFFFFEF8788888888888888FCEF0000000000000000FEDF5B
:200AC0000000000000000070FF5F00000000000000F1FF0D00000000000000F8FF0500004F
:200AE0000000000010FFDF0000000000000090FF5F00000000000000F2FF0C00000000001D
:200B00000000FAFF0400000000000030FFCF00000000000000B0FF4F00000000000000F3E9
:200B2000FF0B00000000000000FCFF0300000000000040FFBF00000000000000D0FF3F00A1
:200B4000000000000000F5FF0A00000000000000FDFF0200000000000060FFAF000000008B
:200B6000000000E0FF2F00000000000000F7FF0900000000000010FEFF010000000000005A
:200B800080FF9F00000000000000F1FF1F00000000000000F9FF0800000000000020FFFF0A
:200BA00001000000000000A0FF8F00000000000000F2FF1F0000000000000000001064770B
:200BC0003600000000000050FCFFFFFF9F0200000010FBFFFFFFFFFF7F000000D1FFFF8C15
:200BE00087FAFFFF080000FBFF2C000000F8FF4F0030FFDF0000000070FFCF0090FF5F00C8
:200C000000000000FEFF01B0FF2F0000000000FAFF03C0FF2F0000000000F9FF03B0FF7FE5
:200C20000000000000FBFF0170FFEF0200000000FFCF0010FFFF4E00000060FF5F0000F57C
:200C4000FFFF3B0000F3FF0A000050FFFFFF7C41FFBF00000000B2FFFFFFFFEF07000000F3
:200C600000D4FFFFFFFFDF0400000090FF6F61FCFFFFBF010000FAFF040020E8FFFF2E0077
:200C800060FF7F00000000F8FFDF00E0FF0E0000000040FFFF06F4FF090000000000F8FF7C
:200CA0000CF8FF060000000000F2FF0FF9FF050000000000F0FF0FF8FF070000000000F042
:200CC000FF0FF6FF0B0000000000F2FF0CF2FF2F0000000000F8FF08B0FFDF01000000302B
:200CE000FFFF0120FFFF4D000000F6FF6F0000F4FFFF9D88EAFFFF08000040FEFFFFFFFFE5
:200D0000FF6F0000000070FDFFFFFF8E01000000000010657725000000000000001065677F
:200D20000400000000000040FCFFFFFF2A0000000010FBFFFFFFFFFF07000000D1FFFFDF91
:200D4000ECFFFF9F000000FCFF5E0000A2FFFF050070FFDF01000000F8FF0F00E0FF2F00A9
:200D6000000000B0FF7F00F4FF0B0000000030FFEF00F8FF060000000000FCFF02FAFF0432
:200D80000000000000F8FF06FCFF030000000000F5FF09FBFF030000000000F3FF0AFAFF69
:200DA000050000000000F2FF0BF8FF090000000000F2FF0CF3FF2F0000000000F3FF0CD046
:200DC000FFDF0200000010F9FF0B30FFFF8F130052FAFFFF0A00F6FFFFFFFFFFFFFFFF0905
:200DE0000050FEFFFFFFFFDFF9FF07000081FEFFFFBF05F7FF040000001043230000F9FF22
:200E0000010000000000000000FEDF000000000000000040FF7F0000000000000000B0FF87
:200E20001F0000000000000000F6FF0A0000000000000030FFFF0100000000000000F6FF70
:200E40006F00000090140030D7FFFF09000000F0FFFFFFFFFF9F00000000F0FFFFFFFFEF0C
:200E60000400000000F0FFFFFFCF06000000000020757746000000000000F3FF6FF3FF6F98
:200E8000F3FF6FF3FF6FF3FF6FB2BB4B000000000000000000000000000000000000000077
:200EA00000000000000000000000B2BB4BF3FF6FF3FF6FF3FF6FF3FF6FF3FF6F00005377CB
:200EC000560200000083FCFFFFFFEF070000FEFFFFFFFFFFDF0200FEFFFFFFFFFFFF1E0058
:200EE000FE9E140040FAFFBF006C0000000060FFFF02000000000000FBFF0700000000007D
:200F000000F7FF09000000000000F6FF09000000000000F7FF07000000000000FBFF0400D9
:200F20000000000020FFEF000000000000D0FF7F000000000010FCFF0C0000000000D3FF6C
:200F4000DF010000000090FFFF1C0000000050FEFF9F0000000000E0FFDF0300000000005A
:200F6000E0FF0B000000000000E0FF09000000000000E0FF09000000000000E0FF090000CF
:200F800000000000D0FF090000000000000000000000000000000000000000000000000079
:200FA0000000000000000000303303000000000000F1FF0E000000000000F1FF0E000000CF
:200FC000000000F1FF0E000000000000F1FF0E000000000000000000F1FFFF060000000020
:200FE000000000000000F7FFFF0C00000000000000000000FCFFFF2F0000000000000000C7
:201000000020FFEFFF7F00000000000000000070FF4FFFDF000000000000000000D0FF0DCC
:20102000FBFF030000000000000000F3FF08F5FF080000000000000000F8FF02F0FF0E00C7
:2010400000000000000000FECF00A0FF4F0000000000000040FF7F0040FF9F000000000039
:20106000000090FF1F0000FEEF00000000000000E0FF0B0000F9FF04000000000000F5FFFB
:20108000060000F4FF0A000000000000FAFF010000E0FF0F000000000000FFAF0000008037
:2010A000FF5F000000000050FF5F00000030FFBF0000000000B0FF0F00000000FDFF01007B
:2010C000000000F1FF0A00000000F8FF0600000000F6FFFFFFFFFFFFFFFF0C00000000FC23
:2010E000FFFFFFFFFFFFFFFF2F00000020FFFFFFFFFFFFFFFFFF7F00000070FF8F66666603
:20110000666666FFDF000000D0FF0E000000000000FCFF030000F3FF09000000000000F7F2
:20112000FF080000F8FF04000000000000F1FF0E0000FEEF00000000000000C0FF4F004074
:20114000FF9F0000000000000070FF9F0090FF4F0000000000000010FFEF00E0FF0E00001A
:20116000000000000000FCFF05F4FF090000000000000000F7FF0AF1FFFFFFFFFFDE7B012D
:20118000000000F1FFFFFFFFFFFFFF9F000000F1FFFFFFFFFFFFFFFF0D0000F1FF6D6666A7
:2011A00066A8FFFF9F0000F1FF0C00000000B1FFFF0000F1FF0C0000000000FFFF0300F1EB
:2011C000FF0C0000000000FBFF0500F1FF0C0000000000FAFF0400F1FF0C0000000000FC14
:2011E000FF0100F1FF0C0000000010FFBF0000F1FF0C00000000B0FF2F0000F1FF0C00004F
:201200001072FEEF030000F1FFFFFFFFFFFFFF1C000000F1FFFFFFFFFFFFFFDF070000F195
:20122000FFFFFFFFFFFFFFFFDF0200F1FF5D55555576D9FFFF2E00F1FF0C0000000000E42E
:20124000FFCF00F1FF0C000000000020FFFF04F1FF0C000000000000F9FF09F1FF0C0000A9
:2012600000000000F4FF0BF1FF0C000000000000F3FF0DF1FF0C000000000000F3FF0CF18A
:20128000FF0C000000000000F6FF0AF1FF0C000000000000FBFF06F1FF0C000000000060EC
:2012A000FFFF01F1FF0C0000000010F9FF8F00F1FF6D66666697FCFFFF0C00F1FFFFFFFF83
:2012C000FFFFFFFFBF0000F1FFFFFFFFFFFFFFEF060000F1FFFFFFFFFFEF9C0500000000F8
:2012E00000000000307667350000000000000000B5FFFFFFFFCF270000000000D5FFFFFF33
:20130000FFFFFFFF4B00000090FFFFFFFFFEFFFFFFFF050000FBFFFF49000041E9FFFF068B
:201320000090FFFF1A0000000000E6FF0600F4FF9F00000000000000F90600FDFF0B000082
:201340000000000000600550FFEF01000000000000000000B0FF8F000000000000000000AB
:2013600000F1FF1F00000000000000000000F4FF0D00000000000000000000F7FF0900005F
:201380000000000000000000F9FF0600000000000000000000FBFF05000000000000000050
:2013A0000000FBFF0400000000000000000000FBFF0400000000000000000000FBFF050032
:2013C000000000000000000000F9FF0700000000000000000000F8FF09000000000000000E
:2013E000000000F5FF0D00000000000000000000F1FF2F00000000000000000000D0FF9F5F
:201400000000000000000000000070FFFF0100000000000000000010FEFF0C000000000044
:201420000000600500F7FFAF00000000000000F90600C0FFFF2B0000000000E6FF060010BF
:20144000FDFFFF5A010052E9FFFF060000C1FFFFFFFFFFFFFFFFFF05000000F8FFFFFFFF46
:20146000FFFFFF2A0000000010C7FFFFFFFFBF17000000000000004065773600000000F159
:20148000FFFFFFFFDEAC270000000000F1FFFFFFFFFFFFFF7D00000000F1FFFFFFFFFFFF4D
:2014A000FFFF6E000000F1FF6D667697EBFFFFFF0A0000F1FF0C00000000A3FFFFAF0000B2
:2014C000F1FF0C0000000000C2FFFF0800F1FF0C000000000000F9FF3F00F1FF0C00000019
:2014E000000000B0FFCF00F1FF0C00000000000010FFFF04F1FF0C00000000000000F9FF6C
:201500000AF1FF0C00000000000000F3FF0EF1FF0C00000000000000E0FF2FF1FF0C0000BF
:201520000000000000C0FF4FF1FF0C00000000000000A0FF6FF1FF0C000000000000009007
:20154000FF7FF1FF0C0000000000000090FF7FF1FF0C00000000000000A0FF6FF1FF0C00FD
:20156000000000000000B0FF4FF1FF0C00000000000000E0FF1FF1FF0C0000000000000077
:20158000F2FF0EF1FF0C00000000000000F8FF09F1FF0C00000000000010FFFF02F1FF0C48
:2015A000000000000000A0FFBF00F1FF0C000000000000F9FF2F00F1FF0C0000000000B1FD
:2015C000FFFF0600F1FF0C0000000083FFFF9F0000F1FF6D667697EBFFFFFF090000F1FF3A
:2015E000FFFFFFFFFFFFFF5E000000F1FFFFFFFFFFFFFF7D00000000F1FFFFFFFFEFAC277E
:201600000000000000F1FFFFFFFFFFFFFFFFFF01F1FFFFFFFFFFFFFFFFFF01F1FFFFFFFF0B
:20162000FFFFFFFFFF01F1FF8E8888888888888800F1FF0C0000000000000000F1FF0C0080
:2016400000000000000000F1FF0C0000000000000000F1FF0C0000000000000000F1FF0C96
:201660000000000000000000F1FF0C0000000000000000F1FF0C0000000000000000F1FF82
:201680000C0000000000000000F1FFFFFFFFFFFFFFFFFF01F1FFFFFFFFFFFFFFFFFF01F17B
:2016A000FFFFFFFFFFFFFFFFFF01F1FF8E8888888888888800F1FF0C000000000000000000
:2016C000F1FF0C0000000000000000F1FF0C0000000000000000F1FF0C0000000000000016
:2016E00000F1FF0C0000000000000000F1FF0C0000000000000000F1FF0C000000000000F6
:201700000000F1FF0C0000000000000000F1FF0C0000000000000000F1FF0C0000000000D5
:20172000000000F1FF8E8888888888888800F1FFFFFFFFFFFFFFFFFF01F1FFFFFFFFFFFF9F
:20174000FFFFFF01F1FFFFFFFFFFFFFFFFFF01F1FFFFFFFFFFFFFFFF7FF1FFFFFFFFFFFF4F
:20176000FFFF7FF1FFFFFFFFFFFFFFFF7FF1FF8E88888888888838F1FF0C000000000000A2
:2017800000F1FF0C00000000000000F1FF0C00000000000000F1FF0C00000000000000F164
:2017A000FF0C00000000000000F1FF0C00000000000000F1FF0C00000000000000F1FF0C2A
:2017C00000000000000000F1FFFFFFFFFFFFFF6F00F1FFFFFFFFFFFFFF6F00F1FFFFFFFF6A
:2017E000FFFFFF6F00F1FF8E88888888883800F1FF0C00000000000000F1FF0C0000000027
:20180000000000F1FF0C00000000000000F1FF0C00000000000000F1FF0C000000000000D4
:2018200000F1FF0C00000000000000F1FF0C00000000000000F1FF0C00000000000000F1C3
:20184000FF0C00000000000000F1FF0C00000000000000F1FF0C00000000000000F1FF0C89
:2018600000000000000000F1FF0C00000000000000F1FF0C00000000000000000000000070
:201880001064776714000000000000000092FEFFFFFFFF9E040000000000B2FFFFFFFFFF07
:2018A000FFFFEF1800000060FFFFFFFFEEFFFFFFFFFF010000F8FFFF6B02001084FDFFFFEB
:2018C000020060FFFF3D000000000030FBFF0200F3FFBF0000000000000050FE0200FCFF43
:2018E0000C0000000000000000B10240FFFF0200000000000000000000B0FF9F000000009B
:2019000000000000000000F0FF2F0000000000000000000000F4FF0D0000000000000000A9
:20192000000000F7FF090000000000000000000000F9FF060000000000000000000000FBAF
:20194000FF050000000000000000000000FBFF040000000000000000000000FBFF04000087
:201960000000F7FFFFFFFFFF02FBFF0600000000F7FFFFFFFFFF02F9FF0700000000F7FF8A
:20198000FFFFFFFF02F7FF0A0000000073777777FDFF02F4FF0E0000000000000000FAFF79
:2019A00002F1FF3F0000000000000000FAFF02B0FFAF0000000000000000FAFF0240FFFF64
:2019C0000300000000000000FAFF0200FCFF1E00000000000000FAFF0200F4FFDF02000021
:2019E00000000000FAFF020070FFFF6E000000000000FBFF020000FAFFFF8D13000063FA1F
:201A0000FFFF02000070FFFFFFFFEFFFFFFFFFFF02000000B3FFFFFFFFFFFFFFDF060000DD
:201A200000000093FDFFFFFFFF7C0200000000000000105476560300000000F1FF0C00006D
:201A400000000000B0FF2FF1FF0C000000000000B0FF2FF1FF0C000000000000B0FF2FF103
:201A6000FF0C000000000000B0FF2FF1FF0C000000000000B0FF2FF1FF0C000000000000A7
:201A8000B0FF2FF1FF0C000000000000B0FF2FF1FF0C000000000000B0FF2FF1FF0C0000B8
:201AA00000000000B0FF2FF1FF0C000000000000B0FF2FF1FF0C000000000000B0FF2FF1A3
:201AC000FF0C000000000000B0FF2FF1FFFFFFFFFFFFFFFFFFFF2FF1FFFFFFFFFFFFFFFF1E
:201AE000FFFF2FF1FFFFFFFFFFFFFFFFFFFF2FF1FF8E888888888888D8FF2FF1FF0C0000F3
:201B000000000000B0FF2FF1FF0C000000000000B0FF2FF1FF0C000000000000B0FF2FF142
:201B2000FF0C000000000000B0FF2FF1FF0C000000000000B0FF2FF1FF0C000000000000E6
:201B4000B0FF2FF1FF0C000000000000B0FF2FF1FF0C000000000000B0FF2FF1FF0C0000F7
:201B600000000000B0FF2FF1FF0C000000000000B0FF2FF1FF0C000000000000B0FF2FF1E2
:201B8000FF0C000000000000B0FF2FF1FF0C000000000000B0FF2FF1FF0C00000000000086
:201BA000B0FF2FF5FFFFFFFFFF02F5FFFFFFFFFF02F5FFFFFFFFFF020000F8FF0600000074
:201BC00000F8FF0500000000F8FF0500000000F8FF0500000000F8FF0500000000F8FF0519
:201BE00000000000F8FF0500000000F8FF0500000000F8FF0500000000F8FF0500000000F5
:201C0000F8FF0500000000F8FF0500000000F8FF0500000000F8FF0500000000F8FF0500D8
:201C2000000000F8FF0500000000F8FF0500000000F8FF0500000000F8FF0500000000F8BC
:201C4000FF0500000000F8FF0500000000F8FF0500000000F8FF0500000000F8FF0600008F
:201C6000F5FFFFFFFFFF02F5FFFFFFFFFF02F5FFFFFFFFFF020000F7FFFFFFFF090000F79B
:201C8000FFFFFFFF090000F7FFFFFFFF090000212222F6FF090000000000F4FF09000000E4
:201CA0000000F4FF090000000000F4FF090000000000F4FF090000000000F4FF0900000034
:201CC0000000F4FF090000000000F4FF090000000000F4FF090000000000F4FF0900000014
:201CE0000000F4FF090000000000F4FF090000000000F4FF090000000000F4FF09000000F4
:201D00000000F4FF090000000000F4FF090000000000F4FF090000000000F4FF09000000D3
:201D20000000F5FF090000000000F5FF080000000000F7FF070000000000FBFF05000000AE
:201D40000030FFFF01A1250010F7FF9F00F2FFEFFFFFFF1E00F2FFFFFFFFDF0200F2FFFF2F
:201D6000FFEF0800000053766703000000FFEF00000000000070FFFF04FFEF0000000000EC
:201D800000F5FF5F00FFEF000000000040FFFF0600FFEF0000000000F3FF7F0000FFEF0071
:201DA00000000020FEFF080000FFEF00000000D1FF9F000000FFEF00000000FCFF0A0000AE
:201DC00000FFEF000000B0FFBF00000000FFEF000000FAFF0C00000000FFEF000090FFDF58
:201DE0000100000000FFEF0000F7FF1E0000000000FFEF0060FFEF020000000000FFEF00B4
:201E0000F4FF3F000000000000FFEF30FFFF04000000000000FFEFE2FFEF010000000000B1
:201E200000FFEFFEFFFF0D000000000000FFFFFFFEFFBF000000000000FFFFEF71FFFF098D
:201E40000000000000FFFF2E00FAFF7F0000000000FFFF0300C0FFFF0400000000FFEF002D
:201E60000010FDFF3F00000000FFEF000000E2FFEF01000000FFEF00000030FFFF0D00002F
:201E800000FFEF00000000F5FFBF000000FFEF0000000070FFFF090000FFEF00000000004E
:201EA000F9FF6F0000FFEF0000000000B0FFFF0400FFEF000000000000FDFF3F00FFEF0004
:201EC0000000000000E1FFEF01FFEF00000000000030FFFF0CF1FF0C00000000000000F11D
:201EE000FF0C00000000000000F1FF0C00000000000000F1FF0C00000000000000F1FF0CE3
:201F000000000000000000F1FF0C00000000000000F1FF0C00000000000000F1FF0C0000CD
:201F20000000000000F1FF0C00000000000000F1FF0C00000000000000F1FF0C00000000AD
:201F4000000000F1FF0C00000000000000F1FF0C00000000000000F1FF0C0000000000008D
:201F600000F1FF0C00000000000000F1FF0C00000000000000F1FF0C00000000000000F17C
:201F8000FF0C00000000000000F1FF0C00000000000000F1FF0C00000000000000F1FF0C42
:201FA00000000000000000F1FF0C00000000000000F1FF0C00000000000000F1FF0C00002D
:201FC0000000000000F1FF0C00000000000000F1FF0C00000000000000F1FF8E888888886B
:201FE000888828F1FFFFFFFFFFFFFFFF5FF1FFFFFFFFFFFFFFFF5FF1FFFFFFFFFFFFFFFF30
:202000005FF1FFFF06000000000000C0FFFF0DF1FFFF0D000000000000F3FFFF0DF1FFFFB8
:202020005F000000000000FAFFFF0DF1FFFFCF000000000020FFFFFF0DF1FFFDFF04000064
:20204000000090FFFDFF0DF1FFD8FF0B00000000F1FFF6FF0DF1FF68FF3F00000000F7DFB8
:20206000F1FF0DF1FF08FEAF00000000FE6FF1FF0DF1FF08F8FF02000060FF0EF1FF0DF108
:20208000FF08F1FF090000D0FF07F1FF0DF1FF0890FF1F0000F4FF01F1FF0DF1FF0820FFBF
:2020A0008F0000FB8F00F1FF0DF1FF0800FAEF0020FF1F00F1FF0DF1FF0800F3FF07A0FF5E
:2020C0000A00F1FF0DF1FF0800C0FF0EF1FF0200F1FF0DF1FF080040FF6FF8BF0000F1FFF8
:2020E0000DF1FF080000FDDFFE4F0000F1FF0DF1FF080000F6FFFF0C0000F1FF0DF1FF08C8
:202100000000E0FFFF050000F1FF0DF1FF08000070FFDF000000F1FF0DF1FF08000010FF95
:202120006F000000F1FF0DF1FF08000000B70B000000F1FF0DF1FF08000000000000000084
:20214000F1FF0DF1FF080000000000000000F1FF0DF1FF080000000000000000F1FF0DF1A7
:20216000FF080000000000000000F1FF0DF1FF080000000000000000F1FF0DF1FF0800006E
:20218000000000000000F1FF0DF1FF080000000000000000F1FF0DF1FF0800000000000055
:2021A0000000F1FF0DF1FFFF2F000000000080FF1FF1FFFFAF000000000080FF1FF1FFFF3B
:2021C000FF030000000080FF1FF1FFFDFF0B0000000080FF1FF1FFC8FF3F0000000080FF55
:2021E0001FF1FF48FFBF0000000080FF1FF1FF08FCFF0300000080FF1FF1FF08F4FF0C00A1
:20220000000080FF1FF1FF08B0FF4F00000080FF1FF1FF0830FFCF00000080FF1FF1FF0800
:2022200000FBFF04000080FF1FF1FF0800F3FF0C000080FF1FF1FF0800A0FF5F000080FFF9
:202240001FF1FF080020FFDF000080FF1FF1FF080000FAFF050080FF1FF1FF080000F2FF4E
:202260000D0080FF1FF1FF080000A0FF6F0080FF1FF1FF08000020FFDF0080FF1FF1FF0883
:20228000000000F9FF0680FF1FF1FF08000000F1FF0E80FF1FF1FF0800000090FF6F80FF99
:2022A0001FF1FF0800000010FFEF80FF1FF1FF0800000000F8FF87FF1FF1FF0800000000DF
:2022C000F1FF9EFF1FF1FF080000000080FFEFFF1FF1FF080000000010FEFFFF1FF1FF08B3
:2022E0000000000000F7FFFF1FF1FF080000000000E0FFFF1FF1FF08000000000070FFFF6F
:202300001FF1FF08000000000000FEFF1F000000000052776704000000000000000010E85E
:20232000FFFFFFFF5B00000000000000F8FFFFFFFFFFFF3C0000000000D1FFFFFFFFFFFF4D
:20234000FFFF0600000010FEFFDF270010A5FFFF8F000000B0FFFF0800000000D3FFFF0499
:202360000000F7FF6F000000000010FDFF1E0000FEFF08000000000000F1FF7F0060FFDF1C
:202380000000000000000060FFEF00C0FF6F0000000000000000FEFF04F0FF1F00000000B2
:2023A00000000000F8FF08F4FF0C0000000000000000F4FF0CF7FF09000000000000000021
:2023C000F1FF0FF9FF060000000000000000E0FF1FFAFF050000000000000000D0FF2FFB0B
:2023E000FF040000000000000000C0FF3FFBFF040000000000000000C0FF3FFAFF050000E2
:20240000000000000000D0FF2FF9FF060000000000000000E0FF1FF7FF09000000000000C3
:202420000000F1FF0FF4FF0C0000000000000000F4FF0CF1FF1F0000000000000000F8FF99
:2024400008D0FF6F0000000000000000FEFF0460FFDF0000000000000060FFEF0000FEFFAC
:2024600008000000000000E1FF7F0000F7FF6F000000000010FCFF1E0000C0FFFF080000A1
:202480000000D3FFFF04000010FDFFEF380010A5FFFF7F00000000D1FFFFFFFFFFFFFFFF39
:2024A000060000000000F8FFFFFFFFFFFF4D00000000000010E9FFFFFFFF6C000000000076
:2024C00000000000527767140000000000F1FFFFFFFFDE7A010000F1FFFFFFFFFFFFAF01D7
:2024E00000F1FFFFFFFFFFFFFF3E00F1FF6D6676A8FFFFFF02F1FF0C00000070FFFF0CF16D
:20250000FF0C00000000F4FF4FF1FF0C00000000A0FF9FF1FF0C0000000050FFCFF1FF0C1E
:202520000000000020FFDFF1FF0C0000000010FFEFF1FF0C0000000030FFDFF1FF0C00009D
:20254000000070FFAFF1FF0C00000000D0FF5FF1FF0C00000000F9FF0EF1FF0C000000A194
:20256000FFFF06F1FF6D6676B8FFFFAF00F1FFFFFFFFFFFFFF0900F1FFFFFFFFFFFF5D007E
:2025800000F1FFFFFFFFCE59000000F1FF0C00000000000000F1FF0C00000000000000F13E
:2025A000FF0C00000000000000F1FF0C00000000000000F1FF0C00000000000000F1FF0C1C
:2025C00000000000000000F1FF0C00000000000000F1FF0C00000000000000F1FF0C000007
:2025E0000000000000F1FF0C00000000000000F1FF0C00000000000000000000000052771A
:202600006704000000000000000010E8FFFFFFFF5B00000000000000F8FFFFFFFFFFFF3CD2
:202620000000000000D1FFFFFFFFFFFFFFFF0600000010FEFFDF270010A5FFFF8F00000076
:20264000B0FFFF0800000000D3FFFF040000F7FF6F000000000010FDFF1E0000FEFF08005B
:202660000000000000F1FF7F0060FFDF0000000000000060FFEF00C0FF6F00000000000031
:202680000000FEFF04F0FF1F0000000000000000F8FF08F4FF0C0000000000000000F4FF3A
:2026A0000CF7FF090000000000000000F1FF0FF9FF060000000000000000E0FF1FFAFF0516
:2026C0000000000000000000D0FF2FFBFF040000000000000000C0FF3FFBFF040000000002
:2026E00000000000C0FF3FFAFF050000000000000000D0FF2FF9FF060000000000000000E2
:20270000E0FF2FF7FF090000000000000000F1FF0FF4FF0C0000000000000000F4FF0CF1BE
:20272000FF0F0000000000000000F8FF09D0FF6F0000000000000000FEFF0460FFDF00000E
:20274000000000000060FFEF0000FEFF08000000000000E1FF6F0000F7FF5F000000000082
:2027600010FCFF0D0000C0FFFF0800000000D3FFFF03000010FDFFDF270010A5FFFF6F0073
:20278000000000D1FFFFFFEFFFFFFFFF060000000000F8FFFFFFFFFFFF3C0000000000004C
:2027A00010E9FFFFFFFF7F0000000000000000005277A7FF5F0000000000000000000000D7
:2027C00050FF8F000000000000000000000020FFEF000000000000000000000000FDFF0908
:2027E0000000300000000000000000F6FFEF8AB8DF0000000000000000B0FFFFFFFFDF0019
:202800000000000000000000F9FFFFFFDF00000000000000000030D9FFDE6BF1FFFFFFFFA5
:20282000EF9C050000000000F1FFFFFFFFFFFFEF0600000000F1FFFFFFFFFFFFFFAF00008F
:202840000000F1FF6D666697FCFFFF09000000F1FF0C00000020FCFF3F000000F1FF0C0063
:20286000000000D0FF9F000000F1FF0C0000000060FFCF000000F1FF0C0000000020FFEFB6
:20288000000000F1FF0C0000000010FFFF000000F1FF0C0000000020FFDF000000F1FF0C38
:2028A0000000000050FFBF000000F1FF0C00000000A0FF6F000000F1FF0C00000000F4FF11
:2028C0001E000000F1FF0C00000050FFFF06000000F1FF5D555596FDFF8F00000000F1FF82
:2028E000FFFFFFFFFFFF0600000000F1FFFFFFFFFFFF290000000000F1FFFFFFFFFFFF09D0
:202900000000000000F1FF0C0000F6FF6F0000000000F1FF0C000090FFFF0400000000F1D8
:20292000FF0C000000FBFF2E00000000F1FF0C000000D1FFDF01000000F1FF0C000000209C
:20294000FFFF0B000000F1FF0C00000000F5FF9F000000F1FF0C0000000080FFFF0600005F
:20296000F1FF0C0000000000FBFF4F0000F1FF0C0000000000D0FFEF0200F1FF0C0000005A
:20298000000020FEFF0D00F1FF0C000000000000F4FFBF00F1FF0C00000000000070FFFFF5
:2029A00008000000005276673500000000000020E8FFFFFFFFDF4900000000F7FFFFFFFF8C
:2029C000FFFFFF8E0000B0FFFFFFFFFFFFFFFFEF0000FAFFCF26001063FBFFEF0050FFFF3D
:2029E000070000000000D6EF00B0FF7F00000000000000D700F0FF0F0000000000000020E8
:202A000000F2FF0D000000000000000000F2FF0E000000000000000000F1FF2F000000009A
:202A20000000000000D0FFBF00000000000000000080FFFF4C000000000000000010FEFF31
:202A4000FFAE4701000000000000F3FFFFFFFFEF8B040000000020FCFFFFFFFFFFEF1800F6
:202A600000000050FBFFFFFFFFFFFF05000000000074DAFFFFFFFF6F000000000000003023
:202A8000B7FFFFFF020000000000000000A1FFFF09000000000000000000F9FF0D000000D3
:202AA000000000000000F2FF0F000000000000000000F0FF0F000000000000000000F0FF29
:202AC0000E750000000000000000F4FF0BF61B00000000000000FCFF06F6FF2A0000000044
:202AE00000B1FFDF00F6FFFF7C14001094FFFF3F00F6FFFFFFFFFFFFFFFFFF040071FDFF84
:202B0000FFFFFFFFFFFF2C00000030D8FFFFFFFFFF4B0000000000003065775603000000DC
:202B200000FFFFFFFFFFFFFFFFFFFFFFFF0AFFFFFFFFFFFFFFFFFFFFFFFF0AFFFFFFFFFF9E
:202B4000FFFFFFFFFFFFFF0A8888888888FCFF8A88888888050000000000F9FF0400000024
:202B600000000000000000F9FF0400000000000000000000F9FF040000000000000000005D
:202B800000F9FF0400000000000000000000F9FF0400000000000000000000F9FF04000041
:202BA0000000000000000000F9FF0400000000000000000000F9FF0400000000000000001D
:202BC0000000F9FF0400000000000000000000F9FF0400000000000000000000F9FF040001
:202BE000000000000000000000F9FF0400000000000000000000F9FF0400000000000000DD
:202C0000000000F9FF0400000000000000000000F9FF0400000000000000000000F9FF04C0
:202C200000000000000000000000F9FF0400000000000000000000F9FF040000000000009C
:202C400000000000F9FF0400000000000000000000F9FF0400000000000000000000F9FF84
:202C60000400000000000000000000F9FF0400000000000000000000F9FF04000000000058
:202C80000000000000F9FF0400000000000000000000F9FF0400000000000000000000F943
:202CA000FF040000000000F8FF05000000000000F1FF0CF8FF05000000000000F1FF0CF829
:202CC000FF05000000000000F1FF0CF8FF05000000000000F1FF0CF8FF0500000000000000
:202CE000F1FF0CF8FF05000000000000F1FF0CF8FF05000000000000F1FF0CF8FF050000EC
:202D000000000000F1FF0CF8FF05000000000000F1FF0CF8FF05000000000000F1FF0CF8CF
:202D2000FF05000000000000F1FF0CF8FF05000000000000F1FF0CF8FF050000000000009F
:202D4000F1FF0CF8FF05000000000000F1FF0CF8FF05000000000000F1FF0CF8FF0500008B
:202D600000000000F1FF0CF8FF05000000000000F1FF0CF8FF05000000000000F1FF0CF86F
:202D8000FF05000000000000F1FF0CF7FF06000000000000F1FF0BF6FF0700000000000040
:202DA000F3FF0AF4FF09000000000000F5FF08F1FF0D000000000000F9FF05D0FF3F000017
:202DC00000000000FEFF0170FFCF000000000080FFBF0010FFFF0A00000000F7FF4F00001C
:202DE000F5FFEF260010C5FFFF0A000090FFFFFFEFFFFFFFCF00000000F7FFFFFFFFFFFFB4
:202E00000A0000000010E9FFFFFFFF3B000000000000005276570300000000F4FF0D000056
:202E2000000000000000F4FF0AE0FF2F0000000000000000FAFF0590FF8F0000000000006B
:202E40000000FFEF0040FFDF0000000000000050FF9F0000FEFF03000000000000A0FF4F8A
:202E60000000F8FF08000000000000F0FF0E0000F3FF0E000000000000F5FF080000D0FF8B
:202E80003F000000000000FBFF03000070FF9F000000000010FFDF00000020FFEF000000EC
:202EA000000060FF7F00000000FCFF0400000000B0FF2F00000000F6FF0A00000000F1FF68
:202EC0000C00000000F1FF0F00000000F6FF0600000000B0FF5F00000000FCFF01000000E2
:202EE0000050FFAF00000020FFBF000000000000FFFF00000070FF5F000000000000FAFF31
:202F0000050000D0FF0F000000000000F5FF0B0000F2FF0A000000000000E0FF1F0000F8DE
:202F2000FF0400000000000090FF6F0000FDEF0000000000000040FFBF0030FF9F000000D8
:202F40000000000000FEFF0180FF4F0000000000000000F8FF06E0FF0E00000000000000BB
:202F600000F3FF0CF3FF080000000000000000D0FF1FF9FF03000000000000000070FF7F82
:202F8000FEDF00000000000000000020FFFFFF7F00000000000000000000FCFFFF2F00008F
:202FA0000000000000000000F7FFFF0C00000000000000000000F1FFFF060000000000F12A
:202FC000FF0E0000000000F3FF0E0000000000F2FF09D0FF2F0000000000F7FF2F000000C7
:202FE0000000F6FF0590FF6F0000000000FBFF6F0000000000FAFF0140FF9F000000000098
:20300000FFFFAF0000000000FEDF0010FFDF0000000030FFFFEF0000000010FF9F0000FC71
:20302000FF0100000070FFFCFF0200000050FF5F0000F8FF05000000A0FFE6FF06000000F0
:2030400090FF1F0000F4FF09000000E0FFA2FF09000000D0FF0D0000F0FF0D000000F2EF84
:2030600060FF0D000000F1FF090000C0FF1F000000F6AF20FF1F000000F5FF05000080FFB2
:203080005F000000FA6F00FE5F000000F9FF01000040FF9F000000FE3F00FB9F000000FC61
:2030A000DF00000000FFDF000020FF0F00F7DF000000FF9F00000000FBFF010050FF0B005C
:2030C000F3FF010040FF5F00000000F7FF050090FF0700F0FF040080FF1F00000000F3FF4B
:2030E0000800D0FF0300B0FF0800C0FF0D00000000F0FF0C00F1FF000070FF0C00F0FF0915
:2031000000000000B0FF0F00F5CF000030FF0F00F4FF050000000070FF4F00F98F000000B1
:20312000FF4F00F7FF010000000030FF8F00FD4F000000FB8F00FBDF000000000000FECF0F
:2031400010FF0F000000F7CF00FF9F000000000000FAFF40FF0C000000F3FF30FF5F000029
:2031600000000000F6FF84FF08000000F0FF73FF1F000000000000F2FFC8FF04000000C0D3
:20318000FFB7FF0D000000000000E0FFFCFF0100000080FFEBFF09000000000000A0FFFF82
:2031A000DF0000000040FFFFFF0500000000000060FFFF9F0000000000FFFFFF01000000F3
:2031C00000000020FFFF5F0000000000FCFFDF0000000000000000FEFF1F0000000000F884
:2031E000FF9F0000000000000000FAFF0D0000000000F4FF5F00000000F2FF5F0000000089
:20320000000000F7FF0B70FFEF01000000000020FFFF0200FCFF090000000000C0FF6F00FC
:2032200000F2FF4F0000000000F7FF0B000070FFDF0000000020FFFF01000000FCFF0800DD
:203240000000C0FF5F00000000F2FF3F000000F6FF0B0000000070FFDF000010FFEF0100D3
:2032600000000000FCFF0700B0FF5F000000000000F3FF2F00F6FF0A00000000000080FF9F
:20328000CF10FFEF0100000000000000FDFFB6FF4F0000000000000000F3FFFFFF0A000066
:2032A00000000000000080FFFFEF01000000000000000000FDFF4F00000000000000000055
:2032C00000FDFF8F00000000000000000080FFFFFF020000000000000000F3FFFEFF0C00E9
:2032E00000000000000000FDFFC2FF7F0000000000000090FF7F20FFFF0200000000000064
:20330000F4FF0C00F8FF0C000000000000FDFF0200D0FF7F000000000090FF7F000030FF22
:20332000FF0200000000F4FF0C000000F9FF0C00000000FEFF02000000E0FF7F000000A08C
:20334000FF8F0000000040FFFF020000F4FF0D0000000000FAFF0C0010FEFF03000000008A
:2033600000E1FF6F00A0FF8F00000000000050FFFF02F5FF0D00000000000000FBFF0BF981
:20338000FF0A00000000000000FEFF03E1FF4F00000000000080FF9F0060FFDF0000000099
:2033A0000000F2FF1E0000FCFF070000000000FBFF050000F3FF1F0000000050FFCF0000CE
:2033C0000090FFAF00000000E0FF2F00000010FEFF03000000F8FF0800000000F6FF0D0090
:2033E0000020FFEF0000000000D0FF6F0000B0FF5F000000000030FFEF0100F4FF0B000056
:2034000000000000FAFF0900FDFF02000000000000F1FF3F80FF8F0000000000000070FF00
:20342000CFF2FF0D0000000000000000FDFFFEFF040000000000000000F4FFFFBF00000011
:20344000000000000000A0FFFF1F00000000000000000010FFFF070000000000000000009A
:2034600000FAFF0400000000000000000000F9FF0400000000000000000000F9FF04000057
:203480000000000000000000F9FF0400000000000000000000F9FF04000000000000000034
:2034A0000000F9FF0400000000000000000000F9FF0400000000000000000000F9FF040018
:2034C000000000000000000000F9FF0400000000000000000000F9FF0400000000000000F4
:2034E000000000F9FF0400000000000000000000F9FF0400000000000000000000F9FF04D8
:203500000000000000E0FFFFFFFFFFFFFFFFFFFF0BE0FFFFFFFFFFFFFFFFFFFF0BE0FFFF0B
:20352000FFFFFFFFFFFFFFFF0B708888888888888888FFFF0A000000000000000070FFEF72
:20354000010000000000000000F4FF3F000000000000000010FEFF06000000000000000025
:20356000C0FFAF000000000000000000F9FF0D000000000000000060FFEF02000000000088
:20358000000000F3FF4F000000000000000010FDFF070000000000000000B0FFBF00000069
:2035A000000000000000F8FF1D000000000000000040FFFF020000000000000000E2FF5F77
:2035C000000000000000000000FDFF090000000000000000A0FFCF00000000000000000078
:2035E000F6FF1E000000000000000030FFFF030000000000000000E1FF6F00000000000038
:20360000000000FCFF0A000000000000000080FFCF000000000000000000F5FF2E00000035
:20362000000000000020FFFF040000000000000000D0FF7F000000000000000000F7FF8F95
:20364000888888888888888818F8FFFFFFFFFFFFFFFFFFFF2FF8FFFFFFFFFFFFFFFFFFFF07
:203660002FF8FFFFFFFFFFFFFFFFFFFF2F0000306577560300000000D9FFFFFFFFFF2A009B
:203680000000FFFFFFFFFFFFFF060000FFFFEFDDFEFFFF4F0000BF37010000B3FFDF00008E
:2036A000000000000000FAFF0300000000000000F3FF0600000000000000F1FF080000001E
:2036C00063B9ECFEFFFF080010E8FFFFFFFFFFFF0900E6FFFFFFFFFFFFFF0960FFFFCF6965
:2036E0003401F1FF09F2FFBF02000000F1FF09F8FF0B00000000F1FF09FCFF0100000000FA
:20370000F1FF09FEEF0000000000F1FF09FFDF0000000000F1FF09FDFF0100000000F6FF01
:2037200009FAFF08000000A2FFFF09F4FFAF1420A4FFFFFF09B0FFFFFFFFFFFFFDFF0900A7
:20374000FCFFFFFFFF8FF1FF090080FFFFFFAF02F1FF0900005077460000000000F6FF04BC
:2037600000000000000000F6FF0400000000000000F6FF0400000000000000F6FF0400005E
:203780000000000000F6FF0400000000000000F6FF0400000000000000F6FF04000000003E
:2037A000000000F6FF0400000000000000F6FF0400407636000000F6FF0491FFFFFF6E0036
:2037C00000F6FF74FFFFFFFFFF0A00F6FFFDFFFFFFFFFF8F00F6FFFFBF3621D6FFFF03F628
:2037E000FFBF03000000FBFF0BF6FF0800000000F1FF1FF6FF040000000090FF5FF6FF0417
:203800000000000050FF8FF6FF040000000020FFAFF6FF040000000000FFBFF6FF04000053
:20382000000000FFCFF6FF040000000000FFCFF6FF040000000000FFAFF6FF040000000053
:2038400030FF9FF6FF040000000060FF5FF6FF0400000000C0FF1FF6FF0400000000F4FF20
:203860000BF6FF0400000030FEFF03F6FFAF140020F8FF9F00F6FFFFFFEFFFFFFF0C00F6C5
:20388000FFFFFFFFFFFFBF0000F6FF73FEFFFFDF0600000000002075670300000000000027
:2038A000006477250000000040FBFFFFFF9E030000FAFFFFFFFFFF9F00C1FFFFDFDCFFFF23
:2038C000CF00FBFF7F010040FBCF60FFEF0200000020CCD0FF3F000000000040F4FF0A000E
:2038E0000000000000F8FF05000000000000FCFF01000000000000FDFF00000000000000D4
:20390000FEEF00000000000000FEEF00000000000000FDFF00000000000000FCFF010000D5
:2039200000000000F9FF04000000000000F5FF0A000000000000E0FF3F00000000003080BF
:20394000FFEF0200000020CB00FDFF7E010040FACF00E2FFFFDFDCFFFFCF0020FDFFFFFF86
:20396000FFFF9F000050FCFFFFFF8E020000001064772500000000000000000050FF5F0013
:2039800000000000000050FF5F0000000000000050FF5F0000000000000050FF5F0000001D
:2039A0000000000050FF5F0000000000000050FF5F0000000000000050FF5F0000000000FD
:2039C000000050FF5F0000002075670350FF5F000050FDFFFFEF78FF5F0000FBFFFFFFFF85
:2039E000FFFF5F00C0FFFFFFFFFFFFFF5F00FAFF9F030052FAFF5F40FFFF0400000050FF7C
:203A00005FC0FF5F0000000050FF5FF2FF0C0000000050FF5FF6FF060000000050FF5FFA2D
:203A2000FF020000000050FF5FFCFF000000000050FF5FFDFF000000000050FF5FFDEF0098
:203A40000000000050FF5FFDFF000000000050FF5FFCFF010000000050FF5FF9FF04000068
:203A6000000050FF5FF6FF080000000050FF5FF1FF1F0000000090FF5FB0FFBF0000003052
:203A8000FCFF5F30FFFF6D1263FBFFFF5F00F8FFFFFFFFFFDFFF5F00A0FFFFFFFFFF56FF44
:203AA0005F0000E5FFFFFF1A50FF5F0000006367040000000000000000646725000000003F
:203AC0000030FBFFFFFF6D00000000FAFFFFFFFFFF1C0000C0FFFFADAAFDFFDF0000FAFF57
:203AE0002A000020FCFF0950FF7F00000000C0FF1FC0FF0B0000000030FF6FF3FF0300006F
:203B0000000000FE9FF7EF000000000000FCCFFBFFEEEEEEEEEEEEFFDFFCFFFFFFFFFFFFF5
:203B2000FFFFDFFEFFFFFFFFFFFFFFFFEFFEDF0000000000000000FDEF00000000000000FA
:203B400000FBFF0100000000000000F8FF0500000000000000F4FF0C00000000000000E08F
:203B6000FF7F0000000000003160FFFF0600000000607E00FBFFBF04000083FE7F00C1FFD7
:203B8000FFFFCDFEFFFF7F0000F9FFFFFFFFFFFF5F000020EAFFFFFFFF6B000000000053C9
:203BA000765703000000000092EDFFBD03000080FFFFFFFF050000F8FFFFFFFF050020FF5E
:203BC000FF6B54A7040090FF5F0000000000E0FF0C0000000000F1FF080000000000F2FFBA
:203BE000060000000000F2FF0500000000FAFFFFFFFFFF0F00FAFFFFFFFFFF0F00FAFFFFC9
:203C0000FFFFFF0F0021F5FF292222020000F3FF070000000000F3FF070000000000F3FF30
:203C2000070000000000F3FF070000000000F3FF070000000000F3FF070000000000F3FFA0
:203C4000070000000000F3FF070000000000F3FF070000000000F3FF070000000000F3FF80
:203C6000070000000000F3FF070000000000F3FF070000000000F3FF070000000000F3FF60
:203C8000070000000000F3FF070000000000F3FF070000000000F3FF070000000000000032
:203CA00020756703000000000050FDFFFFEF58FF5F0010FCFFFFFFFFFFFF5F00D1FFFFFFE2
:203CC000FEFFFFFF5F00FBFF8F020051FAFF5F50FFEF0300000060FF5FD0FF4F0000000039
:203CE00050FF5FF3FF0B0000000050FF5FF7FF050000000050FF5FFBFF020000000050FF77
:203D00005FFCFF000000000050FF5FFDEF000000000050FF5FFDEF000000000050FF5FFC6B
:203D2000FF000000000050FF5FFBFF010000000050FF5FF8FF050000000050FF5FF5FF0A85
:203D40000000000050FF5FF0FF2F00000000B1FF5F90FFEF03000071FEFF5F10FEFFCF89D5
:203D6000C9FFFFFF5F00F4FFFFFFFFFFBFFF4F0040FEFFFFFFCF52FF3F000060EBEF9D04AD
:203D800060FF2F0000000000000070FF0F00000000000000B0FF0C00000000000000F3FF6A
:203DA0000700450000000040FEFF0100F9DF7A6697FDFF7F0000F9FFFFFFFFFFFF090000B3
:203DC000F9FFFFFFFFFF6E00000041B8FDFFDE59000000F6FF0400000000000000F6FF0463
:203DE00000000000000000F6FF0400000000000000F6FF0400000000000000F6FF040000D8
:203E00000000000000F6FF0400000000000000F6FF0400000000000000F6FF0400000000B7
:203E2000000000F6FF0400307646000000F6FF0470FEFFFF8F0000F6FF44FEFFFFFFFF0C6A
:203E400000F6FFFCFFFFFFFFFF9F00F6FFFFDF3721D5FFFF01F6FFDF05000000FCFF07F607
:203E6000FF0A00000000F4FF0AF6FF0400000000F1FF0CF6FF0400000000F0FF0DF6FF0459
:203E800000000000E0FF0DF6FF0400000000D0FF0DF6FF0400000000D0FF0DF6FF04000093
:203EA0000000D0FF0DF6FF0400000000D0FF0DF6FF0400000000D0FF0DF6FF040000000083
:203EC000D0FF0DF6FF0400000000D0FF0DF6FF0400000000D0FF0DF6FF0400000000D0FF94
:203EE0000DF6FF0400000000D0FF0DF6FF0400000000D0FF0DF6FF0400000000D0FF0DF640
:203F0000FF0400000000D0FF0DF9FF09F9FF09F9FF09E8EE080000000000000000000000E1
:203F200000F5FF05F5FF05F5FF05F5FF05F5FF05F5FF05F5FF05F5FF05F5FF05F5FF05F5D2
:203F4000FF05F5FF05F5FF05F5FF05F5FF05F5FF05F5FF05F5FF05F5FF05F5FF05F5FF05A3
:203F6000F5FF0500000000FBFF0600000000FBFF0600000000FBFF0600000000EAEE05006B
:203F80000000000000000000000000000000000000000000000000000000000000FFFFFF24
:203FA000FF020000FFFFFFFF020000FFFFFFFF0200002222F9FF0200000000F8FF020000CD
:203FC0000000F8FF0200000000F8FF0200000000F8FF0200000000F8FF0200000000F8FF06
:203FE0000200000000F8FF0200000000F8FF0200000000F8FF0200000000F8FF02000000DB
:2040000000F8FF0200000000F8FF0200000000F8FF0200000000F8FF0200000000F8FF02C3
:2040200000000000F8FF0200000000F8FF0200000000F8FF0200000000F9FF02000000009B
:20404000FAFF0100000000FEFF0000000080FFBF00E36976FCFF4F00F3FFFFFFFF0A00F333
:20406000FFFFFFAF000091ECFFAD030000F3FF070000000000000000F3FF07000000000076
:20408000000000F3FF070000000000000000F3FF070000000000000000F3FF070000000035
:2040A00000000000F3FF070000000000000000F3FF070000000000000000F3FF0700000015
:2040C0000000000000F3FF070000000000000000F3FF0700000000F6FF3F00F3FF070000C1
:2040E0000060FFFF0300F3FF07000000F5FF3F0000F3FF07000050FFFF030000F3FF0700F0
:2041000000F4FF3F000000F3FF070040FFFF03000000F3FF0700F4FF3F00000000F3FF070F
:2041200030FFFF0300000000F3FF07F3FF3F0000000000F3FF27FEFF030000000000F3FF19
:20414000E9FFDF000000000000F3FFFFFFFF0B0000000000F3FFFFEBFFAF0000000000F321
:20416000FFAF30FFFF0900000000F3FF0A00F4FF8F00000000F3FF070050FFFF070000008E
:20418000F3FF070000F6FF5F000000F3FF07000080FFFF040000F3FF07000000F9FF3F0027
:2041A00000F3FF07000000A0FFFF0200F3FF0700000000FCFF2E00F3FF0700000000D0FF7C
:2041C000DF01F5FF05F5FF05F5FF05F5FF05F5FF05F5FF05F5FF05F5FF05F5FF05F5FF0545
:2041E000F5FF05F5FF05F5FF05F5FF05F5FF05F5FF05F5FF05F5FF05F5FF05F5FF05F5FF11
:2042000005F5FF05F5FF05F5FF05F5FF05F5FF05F5FF05F5FF05F5FF05F5FF05F5FF0500DF
:2042200000000040763500000000407646000000F6FF0481FEFFFF3C000092FFFFFF6E00E8
:2042400000F6FF54FEFFFFFFFF0570FFFFFFFFFF0800F6FFFCFFFFFFFFFF2FFBFFFFFFFF91
:20426000FF3F00F6FFFFCF3631E7FFFFFFCF3621E6FFBF00F6FFDF04000030FFFFDF05003E
:204280000020FFFF01F6FF0A00000000FBFF0A00000000FAFF04F6FF0400000000F7FF040C
:2042A00000000000F6FF06F6FF0400000000F6FF0500000000F5FF06F6FF0400000000F528
:2042C000FF0500000000F4FF07F6FF0400000000F4FF0600000000F3FF07F6FF04000000FC
:2042E00000F4FF0600000000F3FF07F6FF0400000000F4FF0600000000F3FF07F6FF0400E8
:20430000000000F4FF0600000000F3FF07F6FF0400000000F4FF0600000000F3FF07F6FFCB
:204320000400000000F4FF0600000000F3FF07F6FF0400000000F4FF0600000000F3FF079C
:20434000F6FF0400000000F4FF0600000000F3FF07F6FF0400000000F4FF0600000000F38D
:20436000FF07F6FF0400000000F4FF0600000000F3FF07F6FF0400000000F4FF060000005A
:2043800000F3FF07F6FF0400000000F4FF0600000000F3FF07F6FF0400000000F4FF060047
:2043A000000000F3FF0700000000307646000000F6FF0480FEFFFF8F0000F6FF54FEFFFFCF
:2043C000FFFF0C00F6FFFCFFFFFFFFFF9F00F6FFFFDF3721D5FFFF01F6FFDF05000000FC74
:2043E000FF07F6FF0A00000000F4FF0AF6FF0400000000F1FF0CF6FF0400000000F0FF0DD1
:20440000F6FF0400000000E0FF0DF6FF0400000000D0FF0DF6FF0400000000D0FF0DF6FF18
:204420000400000000D0FF0DF6FF0400000000D0FF0DF6FF0400000000D0FF0DF6FF0400F9
:20444000000000D0FF0DF6FF0400000000D0FF0DF6FF0400000000D0FF0DF6FF04000000DD
:2044600000D0FF0DF6FF0400000000D0FF0DF6FF0400000000D0FF0DF6FF0400000000D0ED
:20448000FF0DF6FF0400000000D0FF0D0000002075670300000000000070FDFFFFEF1900C9
:2044A00000000020FDFFFFFFFFFF04000000E2FFFFCFECFFFF5F000000FDFF4D0000B2FFEE
:2044C000FF020070FFCF00000000F8FF0B00E0FF1F00000000C0FF3F00F4FF0900000000A3
:2044E00050FF9F00F8FF040000000000FFCF00FBFF000000000000FCFF00FDEF0000000024
:204500000000FAFF01FEEF000000000000F9FF02FEEF000000000000F9FF02FDFF000000D7
:20452000000000FAFF01FBFF010000000000FCFF00F8FF040000000000FFCF00F4FF0900C6
:2045400000000050FF9F00E0FF2F00000000C0FF3F0070FFCF01000000F9FF0C0000FDFF22
:204560005D0000B3FFFF020000E2FFFFCFECFFFF5F00000020FDFFFFFFFFFF050000000016
:2045800070FEFFFFFF19000000000000207567030000000000000000407636000000F6FFB7
:2045A0000491FFFFFF6E0000F6FF74FFFFFFFFFF0A00F6FFFDFFFFFFFFFF9F00F6FFFFBF4E
:2045C0003631E6FFFF03F6FFCF03000000FCFF0BF6FF0800000000F1FF1FF6FF04000000BB
:2045E0000090FF5FF6FF040000000050FF8FF6FF040000000020FFAFF6FF04000000000036
:20460000FFBFF6FF040000000000FFCFF6FF040000000000FFCFF6FF040000000000FFAFA7
:20462000F6FF040000000030FF9FF6FF040000000060FF5FF6FF0400000000C0FF1FF6FF30
:204640000400000000F5FF0BF6FF0400000030FEFF03F6FF9F040020F8FF9F00F6FFFFFFED
:20466000EEFFFFFF0C00F6FFFFFFFFFFFFBF0000F6FF85FEFFFFDF050000F6FF0430765744
:2046800002000000F6FF0400000000000000F6FF0400000000000000F6FF0400000000002D
:2046A0000000F6FF0400000000000000F6FF0400000000000000F6FF04000000000000000F
:2046C000F6FF040000000000000000000020756703000000000050FDFFFFEF58FF5F0010E2
:2046E000FBFFFFFFFFFFFF5F00D0FFFFFFFEFFFFFF5F00FAFF8F020051FAFF5F40FFEF02DC
:2047000000000060FF5FC0FF4F0000000050FF5FF2FF0B0000000050FF5FF6FF050000007B
:204720000050FF5FFAFF020000000050FF5FFCFF000000000050FF5FFDEF0000000000503D
:20474000FF5FFDEF000000000050FF5FFDFF000000000050FF5FFBFF010000000050FF5F0E
:20476000F9FF040000000050FF5FF6FF090000000050FF5FF1FF1F0000000090FF5FB0FF37
:20478000CF00000030FCFF5F30FFFF6D1263FBFFFF5F00F8FFFFFFFFFFDFFF5F0090FFFF9A
:2047A000FFFFFF56FF5F0000D5FFFFFF2A50FF5F0000006367040050FF5F00000000000022
:2047C0000050FF5F0000000000000050FF5F0000000000000050FF5F00000000000000507F
:2047E000FF5F0000000000000050FF5F0000000000000050FF5F0000000000000050FF5F51
:20480000F6FF0400B5FEEF02F6FF04E5FFFFFF03F6FFA5FFFFFFFF03F6FFFFFFDFBBFD03F7
:20482000F6FFFF6E01000000F6FF8F0000000000F6FF060000000000F6FF0400000000009D
:20484000F6FF040000000000F6FF040000000000F6FF040000000000F6FF04000000000074
:20486000F6FF040000000000F6FF040000000000F6FF040000000000F6FF04000000000054
:20488000F6FF040000000000F6FF040000000000F6FF040000000000F6FF04000000000034
:2048A000F6FF040000000000F6FF0400000000000000006377460100000020FAFFFFFFDFEF
:2048C000280000F7FFFFFFFFFFFF0470FFFFDFCBFDFFFF05F2FF7F010010B5FF05F7FF056E
:2048E00000000000C205FAFF00000000000000FBFF02000000000000F9FF0A0000000000FA
:2049000000F4FFCF150000000000B0FFFFFFAD4700000010FBFFFFFFFFAF02000040FBFF2D
:20492000FFFFFF6F0000000074EBFFFFFF04000000000072FEFF0D000000000000E1FF1F30
:20494000000000000000A0FF2F04000000000090FF1FCD0300000000E0FF0EFDCF15000039
:2049600030FCFF07FDFFFFCDCBFEFFCF00FAFFFFFFFFFFFF0B0030E9FFFFFFFF5C00000036
:20498000004176671400000000F5FF0500000000F5FF0500000000F5FF0500000000F5FF06
:2049A0000500000000F5FF0500000000F5FF0500000000F5FF05000000FCFFFFFFFFFFFF11
:2049C000FCFFFFFFFFFFFFFCFFFFFFFFFFFF21F6FF2722222200F5FF0500000000F5FF0556
:2049E00000000000F5FF0500000000F5FF0500000000F5FF0500000000F5FF0500000000D3
:204A0000F5FF0500000000F5FF0500000000F5FF0500000000F5FF0500000000F4FF0600B9
:204A2000000000F4FF0600000000F3FF0800000000F0FF0E00000000C0FFAF010061006056
:204A4000FFFFDFEDFF0000FAFFFFFFFF000080FFFFFFEF00000040765702F8FF0200000023
:204A600000F0FF0BF8FF0200000000F0FF0BF8FF0200000000F0FF0BF8FF0200000000F06D
:204A8000FF0BF8FF0200000000F0FF0BF8FF0200000000F0FF0BF8FF0200000000F0FF0B33
:204AA000F8FF0200000000F0FF0BF8FF0200000000F0FF0BF8FF0200000000F0FF0BF8FF26
:204AC0000200000000F0FF0BF8FF0200000000F0FF0BF8FF0200000000F0FF0BF8FF0200FB
:204AE000000000F0FF0BF8FF0300000000F0FF0BF7FF0500000000F0FF0BF5FF09000000D6
:204B000000F5FF0BF2FF2F000000B2FFFF0BC0FFEF3721B5FFFFFF0B40FFFFFFFFFFFFFCC2
:204B2000FF0B00F7FFFFFFFF8FF0FF0B0050FDFFFFAF02F0FF0B000030764600000000000D
:204B4000F9FF05000000000080FF4FF3FF0B0000000000E0FF0DD0FF2F0000000000F5FFAF
:204B60000760FF8F0000000000FBFF0100FFEF0000000010FFAF0000F9FF0400000070FF2E
:204B80004F0000F3FF0A000000D0FF0D0000D0FF1F000000F3FF07000060FF7F000000F930
:204BA000FF01000010FFDF000000FFAF00000000F9FF030060FF4F00000000F3FF0900C0F5
:204BC000FF0D00000000D0FF0F00F2FF070000000060FF6F00F8FF010000000010FFCF004F
:204BE000FEAF000000000000FAFF42FF4F000000000000F3FFA8FF0D000000000000D0FF0A
:204C0000FEFF0700000000000060FFFFFF0100000000000010FFFFAF000000000000000075
:204C2000FAFF4F0000000000000000F3FF0D00000000F2FF0A00000030FF2F00000000FCD8
:204C4000EF00E0FF0D00000080FF7F00000000FFAF00A0FF1F000000D0FFCF00000030FF42
:204C60006F0060FF5F000000F2FFFF02000060FF2F0020FF9F000000F7FFFF070000A0FF2E
:204C80000E0000FECF000000FCBFFF0C0000D0FF0A0000F9FF000010FF2EFF1F0000F1FF57
:204CA000060000F5FF040060FF09FD7F0000F4FF010000F1FF0800C0FF03F7CF0000F8DFC7
:204CC000000000D0FF0B00F1EF00F2FF0100FC9F00000090FF0F00F69F00D0FF0600FF5F27
:204CE00000000050FF3F00FB4F0070FF0C30FF1F00000010FF7F00FF0E0020FF1F60FF0DCE
:204D000000000000FCAF50FF090000FD6FA0FF0900000000F8EFA0FF040000F8BFD0FF0567
:204D200000000000F4FFF3EF000000F2FFF2FF0100000000F0FFFB9F000000D0FFFBCF0099
:204D400000000000C0FFFF4F00000080FFFF8F000000000070FFFF0E00000030FFFF4F0040
:204D60000000000030FFFF0900000000FDFF0F000000000000FFFF0400000000F8FF0C00EC
:204D80000000000000FBEF0000000000F3FF08000000F5FF4F0000000000F3FF2F90FFEF4D
:204DA0000100000000FDFF0500FCFF0B000000A0FF8F0000F2FF7F000000F6FF0B000050FD
:204DC000FFFF030020FFDF01000000F8FF1E00D0FF2F00000000C0FFAF00FAFF0500000054
:204DE0000010FEFF56FF8F000000000000F4FFFFFF0B00000000000070FFFFEF0100000068
:204E000000000000FBFF3F0000000000000000FAFF6F0000000000000070FFFFFF03000081
:204E200000000000F3FFFDFF1E000000000010FEEF91FFBF0000000000C0FF4F00FDFF0808
:204E400000000000F8FF0800F2FF4F00000050FFCF000060FFEF010000F2FF1E000000FB9C
:204E6000FF0C0000FDFF04000000E1FF9F00A0FF8F0000000030FFFF05F7FF0C0000000045
:204E800000F7FF2FF9FF06000000000090FF4FF3FF0C0000000000F0FF0DC0FF3F00000019
:204EA0000000F6FF0650FF9F0000000000FDFF0000FEFF0100000030FF9F0000F8FF070043
:204EC0000000A0FF2F0000F1FF0D000000F1FF0B0000A0FF4F000000F7FF04000040FFAF36
:204EE000000000FEDF00000000FDFF010050FF7F00000000F6FF0800B0FF1F00000000F04F
:204F0000FF0E00F2FF090000000090FF5F00F9FF020000000020FFBF00FFCF0000000000F6
:204F200000FCFF62FF5F000000000000F5FFD9FF0E000000000000E0FFFFFF0700000000F8
:204F4000000080FFFFFF0100000000000010FFFFAF0000000000000000FAFF3F00000000DE
:204F600000000000F4FF0C0000000000000000F6FF050000000000000000FDEF000000004C
:204F80000000000040FF8F0000000000000000B0FF1F0000000000000000F2FF0A0000007A
:204FA0000000000000F9FF030000000000000010FFCF000000000000000080FF6F0000002A
:204FC0000000000000E0FF0E000000000000E0FFFFFFFFFFFFFFFF01E0FFFFFFFFFFFFFF32
:204FE000FF01E0FFFFFFFFFFFFFFFF01202222222222D2FF7F00000000000000F8FF0A00BD
:20500000000000000050FFDF00000000000000F2FF2F00000000000010FDFF040000000032
:205020000000B0FF8F00000000000000F8FF0B00000000000040FFDF00000000000000F220
:20504000FF2F00000000000000FDFF05000000000000A0FF8F00000000000000F7FF0B00F2
:20506000000000000040FFEF01000000000000E1FF3F00000000000000FCFF0500000000E2
:20508000000090FFBF33333333333301F2FFFFFFFFFFFFFFFF07F3FFFFFFFFFFFFFFFF07AC
:2050A000F3FFFFFFFFFFFFFFFF070000F50BF808F30AF706F209F605F107F504F006F40330
:2050C00080038101F50BF40AF309F207F106800300870410FF0260CF00A05F00E00E00F2B4
:2050E0000700F6010000A3FE9E010030FF9BFC1D00D04F00809F00F30B0000EF00F7070066
:2051000000FB02F9060000FA04FA050000F905FA050000F905F9050000FA05F7070000FBA5
:2051200002F30B0000FF00D04F00809F0040FF9BFC1E0000B3FE9E01000000AF000010C36C
:20514000AF0000F4FFAF00003163AF00000040AF00000040AF00000040AF00000040AF00FF
:20516000000040AF00000040AF00000040AF00000040AF00007297CF7704F4FFFFFF0950D6
:20518000DAFF8D0100F1DFBBFE1E00900200B09F0000000040CF0000000040AF0000000022
:2051A000906F00000000F40E00000030FF03000000F33F00000050EF02000000F81C000035
:2051C00000B1AF00000000F6AEAAAAAA04F6FFFFFFFF0640D9FFAE0400F0DFABFD6F0070B1
:2051E000020060DF0000000020CF00000010D43E000000FF9F01000000A9FD1B00000000FD
:2052000060BF0000000000FE0100000000FC0300000010FF01850100B0AF00F6DFBBFF1DD0
:205220000060EBFF7D0000000000A09F00000000F89F00000070BF9F000000F5489F000027
:2052400040AF409F0000F30B409F0020CE00409F00D11D00409F00F48A88A8CF68F4FFFF32
:20526000FFFFCF000000409F00000000409F00000000409F00000000409F0080FFFFFFFF69
:205280000380CFAAAAAA02805F00000000805F00000000805F0000000080FFFFAE03007080
:2052A000ABA9FE5F0000000070EF0000000000FC0300000000FB0400000000FE018202005D
:2052C00090BF00F2DFBBFE1E0060DBFF8D01000000C7FE2E0000E3DFAB3C0020DF04000070
:2052E00000C02F00000000F21986580000F6FDFFFF3E00F95C0192EF01FA050000FB06F9D6
:20530000050000F609F8070000F609F40C0000F906D07F0030EF0130FF9CFB4F000092FE78
:20532000AE0200F8FFFFFFFF07A5AAAAAAFC0700000000FB0300000040BF00000000D02F20
:2053400000000000F60900000000FE01000000807F00000000F20E00000000FA0500000051
:2053600030CF00000000C04F00000000F50B00000000FE0200000000B5FEAD030090DF78D5
:20538000F96F00F30D0020FF00F6090000FD01F32E0000DF0090FF28A04F0000F8FFFF03EA
:2053A00000906F61FC4E00F6080050FF02FB030000F907FC050000F907F70C0010FE02B032
:2053C000EF78F96F0000C6FFAE030000C5FF8D0000A0EF9AFD1D00F60C00809F00FC0400D3
:2053E00000FE00FD010000FA04FC040000F905F65E0151FD0580FFFFFFFE0400628815FC93
:205400000200000010EF00000000907F00000000F80D0070ACFBCF010060FFBE050000FA74
:205420000BFA0BB70800000000000000000000B708FA0BFA0B92ECDF1900F7BDEAEF02339C
:205440000000FA0A000000F30C000000F50A000010FD030000E45F0000B0CF030000F00D78
:20546000000000F00C00000040030000000000000000F00F000000F00F00000000A0FF054B
:2054800000000000F0FF0B00000000F6E71F00000000FC817F00000020BF20DF00000080BC
:2054A0005F00FB030000E00E00F5090000F40900F00E0000FAABAAEA5F0010FFFFFFFFBF45
:2054C00000607F000000FE01C01F000000F807F20C000000F20DF906000000D03FF0FFFF17
:2054E000EF3A00F09F99DAFF03F00E0000F909F00E0000F609F00E0000FB03F09F99EA4F25
:2055000000F0FFFFFFEF05F00E0010E54FF00E000040BFF00E000010EFF00E000030CFF081
:205520000E0000C17FF0AFAACAFF0BF0FFFFEF5B000020D8FFBE160000F7DFAAFCFF027010
:20554000EF040000E603F22F0000001001F8090000000000FB040000000000FD020000003E
:205560000000FD020000000000FC040000000000F8090000000000F23F000000100180EF7A
:20558000040000E60300F9EFABFCFF020030D9FFBE0600F0FFFFCE280000F0AFAAEBFF09A2
:2055A00000F00E0000E4AF00F00E000010FD05F00E000000F40CF00E000000F01FF00E0041
:2055C0000000D02FF00E000000D02FF00E000000F00FF00E000000F40CF00E000010FD05C4
:2055E000F00E0000D49F00F0AFAAEBFF0800F0FFFFCE280000F0FFFFFFFF08F0AFAAAAAA8A
:2056000005F00E00000000F00E00000000F00E00000000F0BFBBBBBB05F0FFFFFFFF08F0C2
:205620000E00000000F00E00000000F00E00000000F00E00000000F00E00000000F0BFBBFA
:20564000BBBB05F0FFFFFFFF08F0FFFFFFFF03F0AFAAAAAA02F00E00000000F00E00000051
:2056600000F00E00000000F0BFBBBB2B00F0FFFFFF3F00F00E00000000F00E00000000F0C4
:205680000E00000000F00E00000000F00E00000000F00E00000000F00E000000000010B73D
:2056A000FEDF5A0000F5EFABDBFF0E60FF050000711EF13F0000000000F709000000000019
:2056C000FB040000000000FD020070AAAA0AFD0200B0FFFF1FFB05000000D01FF70A000042
:2056E00000D01FF14F000000D01F70FF060000E11F00F7FFABDBFF0E0010C7FEDF3900F0B1
:205700000E000000FD01F00E000000FD01F00E000000FD01F00E000000FD01F00E0000008B
:20572000FD01F0BFBBBBBBFF01F0FFFFFFFFFF01F00E000000FD01F00E000000FD01F00EA9
:20574000000000FD01F00E000000FD01F00E000000FD01F00E000000FD01F00E000000FD5C
:2057600001FAFFFF0174FD780000FC020000FC020000FC020000FC020000FC020000FC0252
:205780000000FC020000FC020000FC020000FC020074FD7800FAFFFF0100FBFF4F0085D889
:2057A0004F0000A04F0000A04F0000A04F0000A04F0000A04F0000A04F0000A04F0000A071
:2057C0004F0000B04F0000F11FC8BAFE08E6EF5C00FF000000F70CFF000070CF01FF000072
:2057E000F61C00FF0060DF0100FF00F51D0000FF50DF010000FFF41F000000FFFFAF000059
:2058000000FF1AFD090000FF00E28F0000FF0020FE0600FF0000F35F00FF000040FF04FF44
:20582000000000F53FF00E00000000F00E00000000F00E00000000F00E00000000F00E003E
:20584000000000F00E00000000F00E00000000F00E00000000F00E00000000F00E00000052
:2058600000F00E00000000F00E00000000F0BFBBBBBB01F0FFFFFFFF02F0DF000000F1EFAE
:20588000F0FF050000F8EFF0EC0D0000BEEFF07C5F00703FEFF00CDE00E00BEFF00CF70582
:2058A000F603EFF00CF00DBE00EFF00C80BF3F00EFF00C10FF0B00EFF00C00F80300EFF016
:2058C0000C00200000EFF00C00000000EFF00C00000000EFF00C00000000EFF0FF030000FA
:2058E000FC00F0FE0C0000FC00F0AC5F0000FC00F02CDF0000FC00F00CF90600FC00F00CD5
:20590000F10E00FC00F00C708F00FC00F00C00FE01FC00F00C00F509FC00F00C00C02FFCC1
:2059200000F00C0040BFFC00F00C0000FBFF00F00C0000F2FF00F00C000090FF000030DAF8
:20594000FF9D020000FADFAAFE6F0090DF030050FF05F22F000000F50EF808000000C04FC0
:20596000FB04000000807FFD02000000609FFD02000000609FFC04000000807FF80800002E
:2059800000C04FF22F000000F50D90DF030050FF0500F9DFBAFE6F000030EAFF9D0200F068
:2059A000FFFFAE0400F0AFAAFD7F00F00E0040FF02F00E0000FA06F00E0000F906F00E003A
:2059C00000FD03F00E00B3BF00F0FFFFFF1B00F0AF99370000F00E00000000F00E000000E4
:2059E00000F00E00000000F00E00000000F00E000000000030DAFF9D020000FADFAAFE6F15
:205A00000090DF030050FF05F22F000000F50EF808000000C04FFB04000000807FFD020090
:205A20000000609FFD02000000609FFC04000000807FF808000000C04FF21F000000F40D49
:205A400090DF030050FF0400F9CFAAFE5F000030EAFFCF010000000020CF000000000000DA
:205A6000FE030000000000F6BFEC0000000060FDCFF0FFFFBE060000F0AFAAFC9F0000F0D2
:205A80000E0020FE0300F00E0000FA0700F00E0000F90600F00E0000FD0200F00E00B39F8E
:205AA0000000F0FFFFFF070000F09FA9DF010000F00E00F90C0000F00E00A0CF0000F00E6C
:205AC0000000FB0A00F00E0000D09F00F00E000010FE0800A3FEEF7B0280FFADCBFF0FF43A
:205AE0003E0000610DF90700000000F70900000000F28F0300000040FEFFAD17000040B87D
:205B0000FEFF0600000010F73F00000000907F02000000906FBB040000F41FFAFFACEBFFCB
:205B20000540D9FFDF1800FFFFFFFFFFFF05AAAAEABFAAAA030000C02F0000000000C02F20
:205B40000000000000C02F0000000000C02F0000000000C02F0000000000C02F0000000089
:205B600000C02F0000000000C02F0000000000C02F0000000000C02F0000000000C02F007A
:205B800000000000C02F000000F40A000000EFF40A000000EFF40A000000EFF40A00000051
:205BA000EFF40A000000EFF40A000000EFF40A000000EFF40A000000EFF30A000000EFF264
:205BC0000C000010CFF01F0000609F90BF0000E23F00FDBECAFF080070FCEF4B00F9080029
:205BE0000000B03FF20D000000F10DC04F000000F707609F000000FD0110FF000030BF00B1
:205C000000FA0500905F0000F40B00E00E0000E01F00F5090000807F00FB03000020DF10A0
:205C2000DF00000000FC737F00000000F6C91F00000000F0FF0B00000000A0FF050000F02B
:205C40000F0000F20F0000F20BA04F0000F74F0000F607608F0000EB8F0000FA0320CF00B0
:205C6000009FDD0000EE0000FD01305FF90120AF0000F905701FF505706F0000F409B00C45
:205C8000F109B01F0000F00DF008C00DF00D0000C01FF404801FF3090000705FF800405FA4
:205CA000F704000030AFCC0000AFFB00000000EE8F0000EBCF00000000FA4F0000F77F009E
:205CC000000000F60F0000F33F0000D05F000000F60A20EF010020EF0100F70B00D03F002D
:205CE00000B06F00F808000010FE42CF00000000F5EC1F0000000090FF0500000000A0FF33
:205D00000700000000F5EB2F00000020EF41DF000000C04F00F9080000F80800D04F0040CF
:205D2000CF000030EF01E12F000000F80AF908000020EF00E12F0000C04F0050CF0000F61E
:205D4000090000FB0610EF010000F11FB05F00000060AFF50A00000000FCEF010000000020
:205D6000F25F0000000000C02F0000000000C02F0000000000C02F0000000000C02F000016
:205D8000000000C02F0000000000C02F000000F7FFFFFFFF5FA4AAAAAAFA5F00000000F8E0
:205DA0000A00000060CF00000000F41E00000020FE02000000D14F00000000FC0700000055
:205DC000909F00000000F70B00000040DF00000000F32E00000000FBBDBBBBBB6BFCFFFF04
:205DE000FFFF9FA0ECFF7C00F0BEA9FE0A200000D11F000000A14F10C8FFFF4FF3BF68B5AC
:205E00004FFC0500804FFF0000804FFD0300E54FF6CFDBEF4F50FDAE834FF30A00000000B9
:205E2000F30A00000000F30A00000000F30A00000000F32AEACF0400F3FECEFD4F00F36E25
:205E40000060DF00F30A0000FC03F30A0000F905F30A0000F806F30A0000F904F30A00001A
:205E6000FD01F30B0080AF00F3EFABFD1D00F3ACFE9E010000B4FEAE0470FF9AFB0EF31D8E
:205E8000001008FA05000000FE01000000FF00000000FE01000000FB05000000F41D0010CD
:205EA0000890FF9AFB0E00B5FE9D0300000030AF00000030AF00000030AF00000030AF00D9
:205EC000C4EF8CAF70FFBBFCAFF32E0040AFF9060030AFFD010030AFFE000030AFFE000059
:205EE00030AFFB040030AFF61C00B2AFC0FFDCEFAF00E9DF37AF00B4FE9E0170DF89FB1E49
:205F0000F30900509FFA121111DEFEFFFFFFEFFF44444444FE00000000FB06000000F43E60
:205F200000008470FFACEABF00A3FECF280060FD9F00F7AD8A00EE000000BF0000F5FFFFB7
:205F40000F82DF880810BF000010BF000010BF000010BF000010BF000010BF000010BF0098
:205F60000010BF000010BF000000B4FF9DAF70FFABFCAFF32E0040AFF9060030AFFD0100D3
:205F800030AFFE000030AFFE000030AFFB030030AFF60B00A1AFC0EFCBEFAF10E9DF489F63
:205FA000000000407F100000C02FC0BEAAFE0880EDEF5B00F30A000000F30A000000F30A47
:205FC000000000F30A000000F32AE9DF05F3FDCFFC3FF38F0060BFF30A0000DFF30A000066
:205FE000EEF30A0000EEF30A0000EEF30A0000EEF30A0000EEF30A0000EEF30A0000EEF43D
:206000000CE40A0000F20AF20AF20AF20AF20AF20AF20AF20AF20AF20AF20A0000FD0300B2
:2060200000EC020000000000FFFF010088FE010000FC010000FC010000FC010000FC0100F8
:2060400000FC010000FC010000FC010000FC010000FC010000FD000020EF00B9EA6F00E74A
:20606000DF0600F10B00000000F10B00000000F10B00000000F10B00000000F10B0070CF10
:2060800000F10B00F60C00F10B60CF0000F10BF50C0000F15BCF000000F1FEAF000000F130
:2060A0009FFC090000F10CD17F0000F10B10FE0600F10B00E25F00F10B0030FF04F20AF285
:2060C0000AF20AF20AF20AF20AF20AF20AF20AF20AF20AF20AF20AF20AF20AF32AEACF0311
:2060E000A2FE4C00F3FECEFD8FFFDCFF01F37F0090FF0800F907F30A0030AF0000F30AF3B9
:206100000A0020AF0000F20BF30A0020BF0000F10BF30A0020BF0000F10BF30A0020BF001D
:2061200000F10BF30A0020BF0000F10BF30A0020BF0000F10BF30A0020BF0000F10BF32ABE
:20614000E9DF05F3FECFFC3FF38F0060BFF30A0000DFF30A0000EEF30A0000EEF30A000027
:20616000EEF30A0000EEF30A0000EEF30A0000EEF30A0000EE00C5FF6C000090EFAAFE0B23
:2061800000F41C00B06F00FB030010DF00FE000000FE00FF000000FD01FE000000FE00FBF3
:2061A000040020DF00F41D00B06F0090EFAAFE0B0000C5FF7D0000F32AEACF0400F3FECEA0
:2061C000FD4F00F36E0060DF00F30A0000FC03F30A0000F905F30A0000F806F30A0000F9EB
:2061E00004F30A0000FD01F30A0080AF00F3EFAAFD1D00F39CFE9E0100F30A00000000F3B2
:206200000A00000000F30A00000000F30A0000000000C4FF9DAF70FFABFCAFF31D0040AFA7
:20622000FA050030AFFD010030AFFE000030AFFE000030AFFB040030AFF61C00B2AFC0FFD9
:20624000CCEFAF00E9DF37AF00000030AF00000030AF00000030AF00000030AFF31AE99F15
:20626000F3EDFF9FF3AF0300F30A0000F30A0000F30A0000F30A0000F30A0000F30A00000D
:20628000F30A0000F30A000030EAEF7B00F4AFA8FE02FC02005001FD02000000F89E25002C
:2062A0000070FEFF6E00002095FF04000000F608290000F707FE9CB9DF01A4FDDF0700204C
:2062C000BF000020BF000020BF0000F6FFFF7F93DF883820BF000020BF000020BF000020DF
:2062E000BF000020BF000020BF000000EF000000FB9D6B0091FE5DF4090000DFF40900006A
:20630000DFF4090000DFF4090000DFF4090000DFF4090000DFF4090000DFF30A0000DFF086
:206320002F00B2DF90FFCBDFDF00E8DF07DFF30C0000D01FC02F0000F40A608F0000FA0311
:2063400000EF0000DF0000F905606F0000F30BC01F0000D01FF20A0000607FF80300000000
:20636000DFDE00000000F96F00000000F31F0000F00D00A02F00606FC01F00F07F00A02F2E
:20638000805F00F5DE00D00E309F00DAF702F10A00CF008FF207F50500FB403FD00CF80130
:2063A00000F7940E801FDC0000F3E808207F9F0000E0FE0300ED5F0000A0EF0000F81F00D5
:2063C00000609F0000F20D00E14F0000F40D30EF0110EE0200F70CB04F0000B08FF707002F
:2063E0000010FDBF00000000F52F00000000FDCF000000B04FFA090000F709D05F0040CFA1
:206400000030FF02E12F0000F60DF30C0000E01FC03F0000F509509F0000FB0200FE012032
:20642000BF0000F807805F0000F20DE00E0000B04FF607000040AFFC01000000FDAF00003E
:206440000000F73F00000000F20C00000000F80500000000EF00000000608F00000000D05D
:206460001F000000F0FFFFFF8F708888F85F000000F809000040CF000000E22E000000FC8E
:20648000040000907F000000F60B000030DF010000E0BF888858F1FFFFFFBF002DE9F04FCF
:2064A0000FF2A41CA1B0DCE90089CDE900892A9DDFF8DC9B049100248DF843500D944FF077
:2064C000FF38824616461F460FE0B3462C461BF8011B0498D0470028049000F0A2800D984D
:2064E000401C641E0D90F2D176193078252808D1002100220791089209910A920B910C921C
:206500000DE06A464146304600F0DAFF050001D10D98A1E0D9D50125E6E741F0010116F839
:20652000010F2028F9D023280CD02B2804D02D2805D0302809D076E041F00201EFE741F000
:206540000401ECE741F00801E9E741F01001E6E70F9209E00F98484505DA00EB800402EB51
:206560004402303A0F92761C3278A2F130000A28F0D330782E2818BFCDF8388022D116F883
:20658000010F2A2807D138683860761C50F8042B38600E9216E02D280CBF761C002000225E
:2065A0000E920AE040B90E9A4A4505DA02EB820403EB4403303B0E93761C3378A3F130028B
:2065C0000A2AEFD3ADF8401021A0317800F082FF08B116F8010B8DF842009DF842006828F4
:2065E00004D1307868280AD1622105E06C2804BF30786C2803D171218DF84210761C12A82F
:2066000006903A4616F8013B02A9504600F064F838B912AA02A9504600F0C8F900287FF552
:2066200064AF404618E02A2892D13A683A6052F8040B3A6000280F9003D540420F9041F0F4
:206640000401761C95E700000000000000000000686A6C747A4C000021B0BDE8F08F622830
:2066600020D0682811D06A2803D06C2827D0712825D10868C01D20F007000860D0E9002392
:2066800008300860194610467047002A0A680A60106803D0121D0A6000B217E0121D0A60C2
:2066A00080B217E0002A0A680A60106803D0121D0A6040B20AE0121D0A60C0B20AE0002ACC
:2066C0000A680A60106803D0121D0A60C1177047121D0A60002170477CB50D4611461C46BD
:2066E0002E69B4F1250200F04F811C3A00F08480121F022A40F280800E3A00F00981521F6B
:2067000059D0093A78D0921E16D0521E35D0521E022A71D9121F30D0521F00F09880521EBA
:2067200049D0521E00F0E280D21E00F0FF80921E41D0D21E3FD02DE195F83A406C2C09D0D9
:206740006869421C6A610A680A6052F8043B0A60335429E10A680A6052F8043B0A6000937D
:20676000002201924FF0FF332B636A46294600F098F9002840F1188103E195F83A00012205
:20678000FFF76DFFC5E90001002904D56869411C69612D220DE0288F810704D56869411C6C
:2067A00069612B2205E0C00721D56869411C6961202232541BE095F83A000022FFF74FFF38
:2067C000C5E9000195F83800010710D5D5E90023002B08BF002A0AD044F02000782806D1B6
:2067E000686930213154401C421C6A613454214668693044E86087E00868C01D20F0070026
:206800000860D0E9002308300860C5E90023D5E90001C80F04D06869411C69612D220DE025
:20682000288F810704D56869411C69612B2205E0C00704D56869411C6961202232546869E5
:206840003044E8602146284600F036FAACE005F13A02507820B14FF0FF340FF6043074E031
:206860001078622808D0682824D06A2812D06C282ED071280ED02BE00A680A6052F8040BED
:206880000A6020B94FF0FF340FF6EC205DE0E96A017089E00A680A6052F8040B0A6020B950
:2068A0004FF0FF340FF6D0204FE0EA6AD317C0E9002379E00A680A6052F8040B0A6020B967
:2068C0004FF0FF340FF6B0203FE0E96A01806BE00A680A6052F8040B0A6020B94FF0FF3449
:2068E0000FF6942031E0E96A01605DE00A680A6052F8040B0A60002120F0000221F0FF33C8
:20690000C5E90023EE607821284600F02DF94BE06C2285F83A200B680B6053F8042B0B60E8
